:020000040800F2
:10000000E05E00205D0200082B3E00083130000851
:10001000293E000849080008BD4E00080000000005
:100020000000000000000000000000009D0100082A
:100030006909000800000000F9010008B541000846
:1000400077020008770200087702000877020008AC
:10005000770200087702000877020008770200089C
:10006000770200087702000877020008770200088C
:100070004D080008590800086508000871080008C4
:100080007D08000889080008770200087702000848
:10009000770200087702000877020008770200085C
:1000A000770200087702000877020008770200084C
:1000B0007702000877020008770200084130000844
:1000C00035300008770200087702000881400008F8
:1000D0008D400008CD4D0008494E0008554E0008DF
:1000E000770200087702000877020008770200080C
:1000F00077020008770200087702000877020008FC
:1001000077020008353E00087702000877020008F1
:100110002D49000877020008E9440008770200082A
:100120007702000895080008A10800087702000877
:1001300077020008000000000000000077020008BD
:1001400077020008770200087702000877020008AB
:1001500077020008AD080008B9080008B14E000891
:10016000770200087702000877020008770200088B
:10017000770200087702000800000000000000007D
:100180007702000877020008DFF80CD000F038FB97
:100190000048004731580008E05E00202C4B1968E9
:1001A0000868B0E8F04F80F30988BFF36F8F4FF015
:1001B000000080F3118870470000000008480068C4
:1001C000006880F308884FF0000080F3148862B65E
:1001D00061B6BFF34F8FBFF36F8F00DF00BF00BF6B
:1001E00008ED00E0DFF80C00016841F470010160E7
:1001F000704700BF88ED00E0EFF30980BFF36F8F19
:10020000134B1A681EF0100F08BF20ED108A20E96A
:10021000F04F106009B44FF0500080F31188BFF325
:100220004F8FBFF36F8F06F013FF4FF0000080F386
:10023000118809BC19680868B0E8F04F1EF0100F6B
:1002400008BFB0EC108A80F30988BFF36F8F704746
:1002500048000020EFF30580704700000648804703
:1002600006480047FEE7FEE7FEE7FEE7FEE7FEE79B
:10027000FEE7FEE7FEE7FEE76D42000889010008A1
:100280002DE9F05F0546002092469B4688460646CB
:10029000814640241BE0284641464746224600F05E
:1002A000F8F853465A46C01A914110D311461846E1
:1002B000224600F0DFF82D1A67EB01084F46224670
:1002C0000120002100F0D6F817EB00094E41201E56
:1002D000A4F10104DFDC484631462A464346BDE826
:1002E000F09F40EA01039B0703D009E008C9121FF1
:1002F00008C0042AFAD203E011F8013B00F8013BE0
:10030000521EF9D27047D2B201E000F8012B491E0B
:10031000FBD270470022F6E710B513460A460446A2
:100320001946FFF7F0FF204610BD2DE9F04D81EA98
:10033000030404F0004B21F0004514464FF0000A7E
:1003400023F0004150EA050220D054EA01021DD0FA
:10035000C5F30A570246C5F31303C1F31300C1F3F3
:100360000A5640F4801543F48013A7EB0608101BCF
:10037000D64608F2FD3873EB050002D308F10108F8
:1003800001E092185B41B8F1000F03DA002001464A
:10039000BDE8F08D00204FF48011064684460EE043
:1003A000171B73EB050705D3121B63EB050306430D
:1003B0004CEA010C49084FEA300092185B4150EAC0
:1003C0000107EDD152EA030012D082EA040083EA69
:1003D0000501084305D0101BAB4106D201220023C2
:1003E00006E000224FF0004302E06FF001025310DC
:1003F0001AEB06004CEB085110EB0A0041EB0B0125
:10040000BDE8F04D00F055B80EB540F23341029111
:100410000021CDE900110A460B4600F059F803B05F
:1004200000BD00F0004230F000400AD0C10D01F5DF
:100430006071C0F3160042EA0151C208400711433F
:10044000704700200146704730B50B46014600203A
:100450002022012409E021FA02F59D4205D303FA86
:1004600002F5491B04FA02F52844151EA2F1010207
:10047000F1DC30BD202A04DB203A00FA02F1002032
:1004800070479140C2F1200320FA03F319439040D2
:100490007047202A04DB203A21FA02F0002170473D
:1004A00021FA02F3D040C2F12002914008431946DC
:1004B000704710B5141E73F1000408DA401C41F1B6
:1004C000000192185B411A4301D120F0010010BDD8
:1004D0002DE9F04D92469B4611B1B1FA81F202E04E
:1004E000B0FA80F220329046FFF7C4FF04460F4670
:1004F00040EA0A0041EA0B0153465A46084313D02A
:10050000114653EA010019D0C8F140025046FFF7E6
:10051000C0FF05460E46504659464246FFF7AAFF21
:10052000084305D0012004E020463946BDE8F08D9F
:100530000020054346EAE0762C4337430A986305DA
:10054000E40AA0EB08000022FD0A44EA47540A30FE
:1005500002D500200146E9E7010510196941DDE9EE
:10056000084500196941BDE8F04DA2E72DE9FE4FAD
:10057000804681EA0300C00F0C46009021F0004144
:1005800023F00045B8EB0200A94105D240462146C0
:1005900090461C460B46024623F00040104347D0CD
:1005A000270DC7F30A00C3F30A510290401A0190C5
:1005B00040286BDAC3F3130040F4801B0098924686
:1005C00020B10023D2EB030A63EB0B0B01985946D1
:1005D000C0F140025046FFF74DFF06460D4650461B
:1005E0005946019A00F01EF910EB08006141002401
:1005F00087EA115284EAE7731A4340D0009A62B343
:10060000019A012A4FEA075215DC001B61EB020137
:100610004FF0004202EA0752CDE90042001C41F5CA
:10062000801132462B46FFF753FF03B0BDE8F08F31
:1006300040462146F9E7001B61EB0201001C41F531
:10064000801300185B412018A2F5001747EB030147
:1006500040EAD570B6196D4111E06D084FEA3606D3
:1006600045EAC0754FEA0752001B61EB0201001C0E
:1006700041F5801149084FEA3000001951413246D6
:100680002B4603B0BDE8F04FFFF713BF00980122DF
:1006900040000023D0EB020263EBE0730098214698
:1006A0004FEAE074B8EB000061EB0401E9E783F086
:1006B00000435BE781F0004158E72DE9FE4F81EAF6
:1006C000030404F0004421F0004100944FF0000BBB
:1006D00023F0004350EA01045ED052EA03045BD0E9
:1006E000C3F30A54C1F30A552C44A4F2F334019421
:1006F000A0FB0254C1F3130141F48011C3F31303AF
:1007000043F4801301FB024400FB034E840A970A62
:1007100044EA815447EA8357A4FB076802958D0A8F
:1007200005FB07854FEA932C04FB0C542705029D1B
:100730004FEA065847EA1637B5EB08056EEB070C8B
:10074000870E920E47EA811742EA8312A7FB020145
:10075000B6EB0B0164EB00042B0D43EA0C335E187F
:1007600044EB1C50DA465146E7FB0201C5F3130483
:100770004FEA0B3343EA14534FEA0432019C43EA35
:100780000603A4F10C040294009CCDE900B4FFF729
:100790009FFE03B0BDE8F08F00200146F9E7C1F3EA
:1007A0000A52C1F3130140F2FF3341F480119A421F
:1007B00002DA00200146704740F233439A42A2F227
:1007C000334202DC5242FFF764BEFFF753BE000023
:1007D00030B5041E71F1000404DB4FF000444042C8
:1007E00064EB0101141E73F1000405DB1C464FF09D
:1007F0000043524263EB0403994208BF904230BD6C
:10080000064C074D06E0E06840F0010394E807005D
:1008100098471034AC42F6D3FFF7BAFCF4820008D4
:1008200014830008202A06DBCB17203A41FA02F095
:1008300043EAE07306E041FA02F3D040C2F120023D
:100840009140084319467047FEE70000014800F058
:10085000EDB80000A00C0020014800F0E7B800004F
:10086000600A0020014800F0E1B80000400C0020C0
:10087000014800F0DBB80000000A0020014800F049
:10088000D5B80000E00B0020014800F0CFB8000010
:10089000800B0020014800F0C9B80000600D002066
:1008A000014800F0C3B80000C00A0020014800F071
:1008B000BDB80000000D0020014800F0B7B80000EE
:1008C000200B002001681823CAB2103AB2FBF3F2E1
:1008D000054B6FF30901032A9B5CC36500D9091D11
:1008E0008165084670470000BC82000810B50146CB
:1008F00000208B698A6A4FF0C07453B1B3F5005F72
:1009000015D072B1012A0CD0022A0AD0032A09D1CB
:1009100004E01AB1012A06D0022A03D1C96AC9012A
:1009200000D5012010BDC96AA142FAD010BD002A2D
:10093000F7D0012AF2D0022AF3D0032AF3D010BD57
:1009400030B50468256825F4802525600468636057
:100950008368402B036803D099600068C26030BD93
:100960009A600068C16030BD704772B6FEE72DE93D
:10097000F0410446876D00F0DBFA064694F8350036
:100980000025022806D08020606584F834500120BC
:10099000BDE8F0812068016821F01601016020683F
:1009A000416921F080014161206C08B9A06C20B13F
:1009B0002068016821F0080101602068016821F0C9
:1009C000010101600CE000F0B3FA801B052807D993
:1009D00020206065032084F8350084F83450D7E780
:1009E00020680068C007EED194F85C103F20884072
:1009F000B860012084F8350084F834500020C7E73F
:100A000090F83510022903D08021416501207047FC
:100A1000052180F835100068016821F001010160AE
:100A20000020704790F83500704700002DE9F8432A
:100A300004464FF00009CDF8009063484FF416517A
:100A4000A56D0068B0FBF1F72E6894F85C100820E3
:100A500000FA01F131420FD021680A6852070BD524
:100A60000A6822F004020A6094F85C108840A860CA
:100A7000606D40F00100606594F85C104FF0010873
:100A800008FA01F0304208D021684969090604D506
:100A9000A860606D40F00200606594F85C1004206E
:100AA0008840304208D021680968890704D5A860C9
:100AB000606D40F00400606594F85C101020884080
:100AC000304218D021680968090714D5A860206849
:100AD0000168490304D50068000308D5A16C07E04C
:100AE0000168C90503D4016821F008010160216C87
:100AF00009B12046884794F85C1020208840304295
:100B000031D021680968C9062DD5A86094F8350050
:100B100005282068016806D0490347D5006800030E
:100B20001DD4616C1CE021F0160101602068416950
:100B300021F080014161206C08B9A06C20B12068CF
:100B4000016821F00801016094F85C103F208840A2
:100B5000A86084F8358084F83490216D1FE0E16B43
:100B600009B120468847606D00282BD0606DC00712
:100B700014D0052084F835002068016821F00101B7
:100B800001600098401C0090B84203D820680068BB
:100B9000C007F6D184F8358084F83490E16C0029E0
:100BA00010D001B02046BDE8F04308470168C905F0
:100BB000D5D4016821F01001016084F8358084F8F3
:100BC0003490CCE7BDE8F883440000202DE9F041E3
:100BD000044600F0ADF906465CB1022084F8350009
:100BE000002584F834502068016821F0010101607B
:100BF0000DE00120BDE8F08100F09AF9801B052886
:100C000005D920206065032084F83500F2E72068CC
:100C10000068C007F0D12268116820480140D4E97B
:100C200001031843D4E90336334318436369184377
:100C3000A3691843E3691843236A18430843616AA8
:100C4000042903D1D4E90B13194308431060206829
:100C50004069666A20F0070130460E4301270428E8
:100C60000CD1A06A0643E06A40B12046FFF73EFE81
:100C700020B14020606584F83570BAE7206846618D
:100C80002046FFF71FFE94F85C203F2191408160D1
:100C9000656584F835700020ACE700003F8010F0F7
:100CA0002DE9F0410446866D90F8340000250128B6
:100CB0000DD0012084F8340094F835700020012F05
:100CC00007D084F8340002252846BDE8F0810220D0
:100CD000FBE7022784F8357060652046FFF730FE99
:100CE00094F85C103F208840B0602068016841F0B3
:100CF00016010160206C20B12068016841F00801F4
:100D000001602068016841F001010160DCE700003A
:100D100070B5044600F00CF90546601C02D004488A
:100D20000078044400F004F9401BA042FAD370BDDF
:100D3000380000202DE9F84FDFF8BCA10022012582
:100D400003264FF00F090AF1040BAAF1040E00BFAD
:100D50000B6805FA02F42340A34270D10F7907F023
:100D60000307012F01D0022F16D187684FEA4208EE
:100D700006FA08FC27EA0C07D1F80CC00CFA08FCAC
:100D80004CEA070CC0F808C04768A7430C79C4F3C5
:100D9000001494403C4344600C79E443A4070AD017
:100DA000C4684FEA420C06FA0CF7BC438F6807FA96
:100DB0000CF72743C7600C7904F00304022C12D10E
:100DC000D40800EB840CDCF820405707FF0E09FA2A
:100DD00007F824EA0804D1F8108008FA07F848EA6E
:100DE0000408CCF8208004684FEA420C06FA0CF79D
:100DF000BC430F7907F0030707FA0CF72743076096
:100E00004C6814F4403F70D03C4C276847F480474E
:100E10002760246822F0030704F480440094384CCF
:100E200007EB040CDCF8084897074FEA177809FA33
:100E300008F7BC43334FB84202D1002724E054E006
:100E4000314FB84201D101271EE0304FB84201D1E5
:100E5000022719E02E4FB84201D1032714E02D4F8D
:100E6000B84201D104270FE02B4FB84201D105272A
:100E70000AE02A4FB84201D1062705E0284FB842C0
:100E800001D1072700E0082707FA08F72743CCF825
:100E90000878DAF800405746D1F804C09C435FEA6E
:100EA000CC2C00D51C433C60DBF800405F46D1F8F9
:100EB00004C09C435FEA8C2C00D51C433C60DEF8E8
:100EC00000407746D1F804C09C435FEA8C3C00D5D3
:100ED0001C433C60084F083F3C68D1F804C09C4369
:100EE0005FEACC3C00D51C433C60521C102AFFF446
:100EF0002FAFBDE8F88F0000083C014044380240A5
:100F0000003001400000024000040240000802409E
:100F1000000C024000100240001402400018024081
:100F2000001C02400AB1816170470904FBE7000020
:100F30000148806870470000380000207047704703
:100F40002DE9F041016804464A694E6890F83E0078
:100F50000025D743FA0506D4F243D20503D46FF433
:100F6000807201254A61B90508D4F143C90505D449
:100F700022686FF4007145F002055161790525D4AE
:100F8000F143C90522D4638D94F83D10226B2028CB
:100F900008D13BB9212910D029290ED0282901D107
:100FA000212A0AD022686FF48061516145F004055E
:100FB000102806D0402804D008E0204602F028FC83
:100FC00004E02068016841F400710160380508D42C
:100FD000F043C00505D421686FF4006045F00805B2
:100FE0004861002D07D0206C284320642046BDE8CE
:100FF000F04102F091B8BDE8F0812DE9F0470268B8
:1010000000215368C66A90F83E4090F83D50102C7D
:1010100012D0402C10D0046C002C7DD05469E443D5
:10102000A6077AD4DE43B60577D4036C03B1916981
:10103000BDE8F04702F0C8BB976951694FF42A0C2C
:10104000C9435FEAC1784FF02A4904D066452AD0E7
:101050004E4528D010E0DE43B6050DD4C16A614587
:1010600001D1012103E0C16A494501D10821C162D2
:10107000BDE8F04702F00EBB0E0716D4DE43B605FE
:1010800013D4416CC9B21161416B09B1C96B29B963
:10109000816B002907D0C96B002904D00068416822
:1010A00041F400614160BDE8F0878E0706D4DE435D
:1010B000B60503D4BDE8F04702F060BAFE435268BB
:1010C00076074FEA02521DD4002AECDB0A0608D448
:1010D000DA43520505D4490705D5BDE8F04702F0CB
:1010E000F1B94907DFD4D9438905DCD4212D05D0D6
:1010F000402CD8D1BDE8F04702F012BBBDE8F04764
:1011000002F09EB9002ACEDB4A060BD4DA43520520
:1011100008D4490708D501E00DE00EE0BDE8F0472E
:1011200002F014B94907BED4D9438905BBD4BDE840
:10113000F04702F09DB8916970E7E10606D4D94303
:10114000890503D4BDE8F04702F0AABB2821212D70
:1011500027D0292D25D0650655D4DD436D0552D401
:10116000640752D590F83D30448D002C9BD0126915
:10117000446A2270426A521C4262428D521E42856B
:10118000428D002A8FD12A2B8DD10268536823F417
:10119000806353602222026380F83D1000F054F90E
:1011A00081E7250623D4DD436D0520D4640720D5CF
:1011B00090F83D30448D002CF2D0446A24781461BC
:1011C000426A521C4262428D521E4285428D002A62
:1011D000E6D1292BE4D10268536823F4806353607D
:1011E0002122026380F83D1000F02FF95BE76107D0
:1011F000D6D4D9438905D3D4418D0029D0D0416AB2
:10120000097811610AE06107CAD4D9438905C7D4B6
:10121000418D0029C4D01169426A1170416A491C8C
:101220004162418D491E41853DE7704770B504001C
:1012300025D094F83D00002520B984F83C50204684
:1012400000F0BEF8242084F83D002068016821F0F9
:10125000010101602068016841F4004101602068DB
:10126000016821F40041016000F07AFA4D4A61689A
:10127000914201D84C4900E04C49884201D20120FA
:1012800070BD4B492368B0FBF1F15E6826F03F0664
:101290000E435E606368934206D94FF496735943D8
:1012A0004FF47A73B1FBF3F12368491C1E6A26F0F0
:1012B0003F06314319626168914210D84900401ECF
:1012C000B0FBF1F2521CC2F30B02042A01D204203B
:1012D00022E0B0FBF1F0401CC0F30B001CE0A26860
:1012E000F2B301EBC10303EB0116431EB3FBF6F3AC
:1012F0005B1C43F480431B0549D092B301EBC10250
:1013000002EB0111401EB0FBF1F0401CC0F30B00DA
:1013100040F4804040F400402168CA694CF6FF73F5
:101320009A431043C861D4E907100143206802685A
:1013300022F0C00211430160D4E903010143206897
:10134000826848F2FF339A4311438160D4E9050172
:1013500008432168CA6822F0FF021043C86001E018
:101360000EE016E02068016841F00101016025648B
:10137000202084F83D00256384F83E50002070BD95
:1013800001EB4106431EB3FBF6F35B1CB3E7012000
:10139000C2E701EB4101401EB0FBF1F0401CC0F37D
:1013A0000B00B7E7A086010080841E0000093D0005
:1013B00040420F0070477047704770477047000009
:1013C00010B586B0044614216846FEF7A3FF1B49FA
:1013D0002068884230D11A480021026842F0020297
:1013E0000260006800F002000590C020009012200A
:1013F000CDE90101032003900420049069461148BF
:10140000FFF798FC0E481030016841F400110160AC
:101410000068002200F40010059005211F2000F054
:10142000B3F81F2000F0A2F800220521202000F0D0
:10143000ABF8202000F09AF806B010BD0054004030
:1014400030380240000402407047704700684AF696
:10145000AA21016000207047024881680278114487
:1014600081607047380000200B4810B5016841F4D6
:1014700000710160016841F480610160016841F41C
:1014800080710160032000F09FF80F2000F006F843
:1014900000F050F8002010BD003C024030B5054679
:1014A0001F4887B00024016841F010010160006806
:1014B00006A900F01000009001A800F031F904988E
:1014C000A8B100F04DF940001649174AB0FBF1F100
:1014D0001648491E026040F2E732C0E90324C0E921
:1014E0000114846100F006FE040003D015E000F052
:1014F00037F9E9E70D4800F05FFE04000DD1362012
:1015000000F034F8102D07D200222946362000F0D2
:101510003BF80748056000E0012407B0204630BDD5
:101520004038024040420F0000100040C01100202F
:101530003C0000200C4882B0016841F48041016009
:10154000006800F4804000900748001F016841F0E7
:10155000805101600068002200F0805000900F214F
:10156000901E02B000F010B844380240002809DB99
:1015700000F01F02012191404009800000F1E020AD
:10158000C0F8001170470000F0B40E4B1B680C4609
:10159000C3F30223C3F10705042D00D90425191D47
:1015A000072901D2002300E0DB1E012606FA05F11F
:1015B000491E214099409E40761E16403143F0BCA2
:1015C00003F08EBC0CED00E0064900F0070208684D
:1015D0004FF6FF03184040EA0220034A1043086018
:1015E000704700000CED00E00000FA052DE9F0471F
:1015F0000E46050065D0DFF81481D8F80000F7B278
:1016000000F00700B04207D288F80070D8F8000058
:1016100000F00700B04254D128683D4C810712D534
:10162000400703D5206840F4E05020602878000788
:1016300003D5206840F4604020602068A96820F04D
:10164000F000084320602878C0072DD03049686832
:101650000839012812D0022813D0032811D00968B4
:10166000890700292DDA216821F003010143216057
:10167000FFF75EFC814641F2883A0EE00968890373
:10168000EFE709688901ECE7FFF752FCA0EB0901DD
:10169000514502D90320BDE8F0872068696800F051
:1016A0000C00B0EB810FEFD1D8F80010404601F0EC
:1016B0000701B14207D90770006800F00700B04287
:1016C00001D00120E7E72878400705D52068E968C0
:1016D00020F4E050084320602878000706D52068F1
:1016E000296920F4604040EAC100206000F058F809
:1016F0002168084AC1F30311515CC84006490860DB
:1017000006480068FFF7CAFE0020C4E7003C02401C
:1017100008380240C4820008440000203C00002039
:101720000F2202600C4A136803F00303436013683E
:1017300003F0F0038360136803F4E053C36012689E
:101740004FF4E05303EAD20202610448006800F05B
:10175000070008607047000008380240003C024063
:101760000448054900680968044AC1F38221515CB4
:10177000C84070474400002008380240D482000866
:101780000448054900680968044AC1F34231515CC4
:10179000C84070474400002008380240D482000846
:1017A000154810B5006810F00C02144813D0411011
:1017B000042A0FD0082A0ED10F4C241F2268236858
:1017C00002F03F025B0207D52068C0F38810A0FB3F
:1017D000010106E0084610BD2168C1F38811A1FB94
:1017E00000010023FEF74CFD2168C1F30141491CB3
:1017F0004900B0FBF1F010BD083802400024F400AD
:101800002DE9F84F04006ED02078DFF84C93C00724
:10181000A9F104054AD009F104000168C1F381016E
:10182000012908D00068C0F3810002280AD1D9F844
:101830000000400206D52868800337D5606800287C
:10184000E1D033E06068B0F5803F10D0B0F5A02F54
:10185000286810D020F480302860286820F4802088
:1018600028606068A8B1FFF763FB06460DE02868B2
:1018700040F48030F4E740F480202860F7E700BFB0
:10188000FFF756FB801B642873D828688003F7D5C0
:101890000CE0FFF74DFB064605E000BFFFF748FBF5
:1018A000801B6428F0D828688003F7D42078DFF8FC
:1018B000AC8280074FF0000A3ED5A748001D0168A2
:1018C00011F00C0F08D00068C0F3810002280BD182
:1018D000D9F80000400207D42868800716D5E068D0
:1018E000012800D112E033E1E068B8B10120C8F866
:1018F0000000FFF71DFB064605E000BFFFF718FBE1
:10190000801B0228C0D828688007F7D5286821697D
:1019100020F0F80040EAC10028600DE0C8F800A0FF
:10192000FFF706FB064604E0FFF702FB801B0228D8
:101930001FD828688007F7D42078000722D5864F63
:1019400087486169703771B101210160FFF7F0FAD2
:10195000064604E0FFF7ECFA801B022809D8386835
:101960008007F7D50EE0C0F800A0FFF7E1FA0646C1
:1019700005E082E0FFF7DCFA801B02287DD838689A
:101980008007F7D42078400768D5DFF8CCB100276E
:101990000BF13C0BDBF80000C0000BD4DBF80010AF
:1019A00041F08051CBF80010DBF80000012700F077
:1019B000805000906B4E3068C00510D4306840F401
:1019C00080703060FFF7B4FA009005E0FFF7B0FADE
:1019D0000099401A022850D83068C005F6D55E4EEE
:1019E000A0686C3601280FD00528306810D020F090
:1019F00001003060306820F004003060A068B8B1A9
:101A0000FFF796FA00900FE0306840F00100F4E72D
:101A100040F004003060F7E7FFF78AFA0099411AB6
:101A200041F28830814266D830688007F4D50EE0F4
:101A3000FFF77EFA009007E0FFF77AFA0099411A63
:101A400041F28830814256D830688007F4D42FB1F3
:101A5000DBF8001021F08051CBF80010A069C8B36A
:101A60003D49091D0968C1F3810102294AD00228B4
:101A7000504607D0C8F8600000E03CE0FFF758FA95
:101A800004463BE04746C8F86000FFF751FA0646B7
:101A900005E000BFFFF74CFA801B02282BD828680E
:101AA0008001F7D4D4E907010843A16A2E4A490806
:101AB00002EB0141626A41EA8211084394F82C105A
:101AC00040EA0161C9F8001001203866FFF730FADA
:101AD000044606E03EE000BFFFF72AFA001B02289A
:101AE00009D828688001F7D534E000BFFFF720FA55
:101AF000001B022802D90320BDE8F88F2868800166
:101B0000F4D427E00128F7D0D9F80000E26900F406
:101B1000800191421CD1226A00F03F01914217D10D
:101B200047F6C071626A0140B1EB821F10D1A26A10
:101B30004FF0FF3300F4403103EB5202B1EB024FA0
:101B400006D194F82C1000F07060B0EB016F01D05A
:101B50000120D1E70020CFE70438024000004742CF
:101B6000800E4742007000400000FFFF7047704742
:101B700070B50446B0F8500000250104206802F05A
:101B800077F918B1A16B0143A16304E0002120683B
:101B900002F04CF90546C5F3432070BDF8B5056B5E
:101BA00004460068416B09041BD5290719D5D4E9FF
:101BB0000A56002E14D00027206802F041F905F8DB
:101BC000010B010A05F8011B010C05F8021B000EB0
:101BD000361F7F1C05F8010C082FEDD3C4E90A5607
:101BE000F8BD416B4FF00006C9054FF0010744D521
:101BF000390281632068C16B4CF23A329143C16370
:101C00002068C16A21F00101C16228071DD515F0C5
:101C1000220F09D0206802F045F928B1A16B0143D9
:101C2000A1632046FFF7A3FF216840F23A50886382
:101C300084F834702663A80703D0204600F0B2F879
:101C4000F8BD204600F0AFF8F8BD2806FCD5A80680
:101C500009D5206802F026F928B1A16B0143A163E0
:101C60002046FFF784FFA807EED12068C16A21F063
:101C70000801C16284F83470E3E7416B490424D55C
:101C8000290722D5D4E90856002EDDD05FF00007E1
:101C900015F8010B009015F8011B361F40EA0120D2
:101CA000009015F8021B40EA0140009015F8011C55
:101CB00040EA016000906946206802F0D4F87F1C79
:101CC000082FE5D3C4E90856F8BD416B40F23A222B
:101CD0001142F9D0416B890703D5A16B41F0020194
:101CE000A163416B090703D5A16B41F00801A16312
:101CF000416B890603D5A16B41F02001A163416BC3
:101D0000C90603D5A16B41F01001A163416B8905A0
:101D100003D5A16B41F00801A16340F23A718163E0
:101D20002068C16B40F23A329143C163206802F0EF
:101D3000B9F8A16B0843A063280706D584F834706E
:101D400026632046FFF713FFF8BD2806FCD515F0E3
:101D5000300F0CD0E16B11480865E06BFEF750FEC8
:101D60000028F1D0E06BBDE8F84002F067B9A807A1
:101D70000CD0216C0A480865206CFEF741FE002853
:101D8000E2D0206CBDE8F84002F036B9A66384F8D2
:101D9000347026632046FFF7E9FEF8BD3D40000899
:101DA000F93F0008704770477047000038B5016878
:101DB00004464A688868C043430606D5C30704D171
:101DC000D3435B0601D4216C05E0830708D4D343D9
:101DD0001B0605D4616C01B02046BDE830400847C1
:101DE000830603D5430601D5C30551D4D3439B06CF
:101DF0004ED443060AD494F85130032B49D0636D76
:101E000043F004036365CB688B680093830609D4B1
:101E1000636D43F0010363658B6800930B6823F0E7
:101E200040030B60C00506D4606D40F0080060659B
:101E3000206880680090606D002829D02068416883
:101E400021F0E0014160012084F85100900701D4A5
:101E5000D00722D02068416821F003014160114D74
:101E6000E06C40B10565E06CFEF7CAFD18B1606D2D
:101E700040F040006065A06C002809D00565A06CAA
:101E8000FEF7BEFD002803D0606D40F040006065A5
:101E900038BDC8688868009038BD2046FFF784FFC9
:101EA00038BD00009940000870B5040009D0606A90
:101EB000002540B125616561A56294F8510040B1EB
:101EC0000CE0012070BD6068B0F5827FF4D0E56160
:101ED000F2E784F85050204600F044F8022084F8DD
:101EE00051002068016821F040010160A08821892B
:101EF00000F4827001F404410843A18901F40061F7
:101F00000843217C01F002010843217D01F0010119
:101F10000843218B01F400710843217F01F038014F
:101F2000084394F8201001F080010843218D01F44A
:101F30000051084321680860A069042101EA1040AB
:101F400094F8241001F010010843216848602068CB
:101F5000C16921F40061C1616565012084F8510007
:101F6000002070BD2DE9F04186B00446142168467A
:101F7000FEF7D0F9354A21680024354802250326AA
:101F80000527DFF8D080914234D1314914310A68F5
:101F900042F480520A60096801F480510591016899
:101FA00041F001010160016801F001010591016842
:101FB00041F002010160006802AA00F002000590F1
:101FC0009020CDE9000582E8D00069462248FEF75E
:101FD000B1FE0820CDE9000502AA694682E8D000DA
:101FE0004046FEF7A7FE002205212320FFF7CCFA8A
:101FF000232025E0194A914224D1154910310A685D
:1020000042F480420A60096801F480410591016848
:1020100041F002010160006802AA00F00200059090
:102020004FF47040CDE9000582E8D0006946404693
:10203000FEF780FE002205212420FFF7A5FA2420C8
:10204000FFF794FA06B0BDE8F081000000300140CF
:1020500030380240000402400000024000380040D6
:102060007047704770B590F83C20012A32D00124A7
:1020700080F83C40022280F83D2003685A689D6841
:1020800022F070060A6832435A60134B02689A4283
:1020900014D0B2F1804F11D0104B9A420ED0104B99
:1020A0009A420BD00F4B9A4208D00F4B9A4205D060
:1020B0000E4B9A4202D00E4B9A4204D1496825F049
:1020C00080031943916080F83D40002180F83C1066
:1020D000084670BD022070BD0000014000040040B1
:1020E00000080040000C0040000401400040014096
:1020F0000018004010B5040003D094F83D0010B162
:1021000007E0012010BD002084F83C00204600F0CC
:102110001FF8022084F83D00211D206802F0EAF932
:10212000012084F8460084F83E0084F83F0084F8DB
:10213000400084F8410084F8420084F8430084F8A9
:10214000440084F8450084F83D00002010BD0000E4
:1021500008B501681448814201D1144810E01348C1
:10216000001FB1F1804F0BD0114A914210D101688C
:1021700041F002010160006800F00200009008BD1B
:10218000016841F001010160006800F00100F5E71D
:10219000084A9142F3D1016841F0040101600068EE
:1021A00000F00400EAE7000000000140443802406B
:1021B000000400400008004090F83D10012901D0C3
:1021C00001207047022180F83D100168CA6842F082
:1021D0000102CA6000681149884214D0B0F1804FF2
:1021E00011D00F4988420ED00E4988420BD00E49BB
:1021F000884208D00D49884205D00D49884202D056
:102200000C49884204D1816801F00701062903D0F6
:10221000016841F0010101600020704700000140A9
:102220000004004000080040000C00400004014091
:10223000004001400018004070B5044690F83C0092
:102240000025012817D0012684F83C60022084F87C
:102250003D002068826822F0770222F47F4282608B
:102260000868502838D00DDC20284FD005DC90B30A
:10227000102811D14AE0022070BD302846D04028F5
:102280000AD13BE060282FD070280DD0B0F5805FD8
:1022900003D0B0F5005F12D0012584F83D60002026
:1022A00084F83C00284670BDCB68D1E90121206844
:1022B00002F095F92068816841F0770109E0CB6868
:1022C000D1E90121206802F08AF92068816841F48F
:1022D00080418160E1E719E0CA684968206802F03E
:1022E00053FA5021206806E0CA684968206802F065
:1022F0005CFA6021206802F07CF9CEE7CA68496880
:10230000206802F041FA40212068F4E72268014683
:102310001046F0E770472DE9F04104460068C668B2
:1023200005694FF00007A90713D5B10711D5F91EAC
:10233000016101202077206880698007204602D053
:10234000FFF7E8FF04E000F0E9F8204600F07BF931
:102350002777680716D5700714D521686FF0040039
:102360000861022020772068806910F4407F2046B1
:1023700002D0FFF7CFFF04E000F0D0F8204600F0D5
:1023800062F92777280715D5300713D521686FF034
:1023900008000861042020772068C0698007204673
:1023A00002D0FFF7B7FF04E000F0B8F8204600F0D5
:1023B0004AF92777E80616D5F00614D521686FF09C
:1023C00010000861082020772068C06910F4407F61
:1023D000204602D0FFF79EFF04E000F09FF8204661
:1023E00000F031F92777E80708D0F00706D0216818
:1023F0006FF001000861204600F0C8F9280608D5F2
:10240000300606D521686FF0800008612046FFF78E
:1024100027FE680608D5700606D521686FF04000D3
:102420000861204600F0BCF9A8060AD5B00608D518
:1024300021686FF0200008612046BDE8F041FFF7F9
:1024400010BEBDE8F081000030B587B0044614210D
:102450006846FDF75FFF24682948002229490223C6
:10246000012584420ED1086840F010000860086819
:1024700000F01000059048150090CDE90132694642
:10248000214821E02148B4F1804F10D0204DAC42CA
:1024900020D10C6844F001040C60096801F00101CE
:1024A000059140210091CDE90132694624E00C6894
:1024B00044F001040C60096801F00101059120213C
:1024C0000091CDE901326946CDE90325FEF732FCE2
:1024D00007B030BD0F488442FAD1086840F00800C8
:1024E00008600868694600F0080005904FF47040E5
:1024F0000090CDE901320848CDE90323E6E700006A
:10250000000001403038024000100240000002404C
:102510000004004000080040000C0240704770B505
:10252000044690F83C0000260D4601280FD00120FB
:1025300084F83C006AB1042A1DD0082A2FD00C2A46
:102540003FD00126002084F83C00304670BD0220B8
:1025500070BD206802F056F82068816941F00801DA
:1025600081612068816921F00401816120688169AD
:102570002A69114311E0206802F074F8206881692B
:1025800041F4006181612068816921F48061816189
:10259000206881692A6941EA02218161D2E72068C5
:1025A00002F096F82068C16941F00801C161206815
:1025B000C16921F00401C1612068C1692A69114320
:1025C00011E0206802F0B8F82068C16941F40061A8
:1025D000C1612068C16921F48061C1612068C1695D
:1025E0002A6941EA0221C161ACE710B5040003D0B9
:1025F00094F83D0010B107E0012010BD002084F8E0
:102600003C00204600F01EF8022084F83D00211D09
:10261000206801F06FFF012084F8460084F83E0036
:1026200084F83F0084F8400084F8410084F84200B8
:1026300084F8430084F8440084F8450084F83D00A1
:10264000002010BD7047704710B50446022249B102
:1026500004290ED0082913D094F84100012816D07F
:10266000012010BD94F83E000128F9D184F83E20E5
:102670000FE094F83F000128F2D184F83F2008E0F1
:1026800094F840000128EBD184F8402001E084F860
:1026900041200122206801F095FF16492068164A62
:1026A000884201D0904203D1436C43F40043436419
:1026B0002068884213D0B0F1804F10D00F49884273
:1026C0000DD00F4988420AD00E49884207D0904267
:1026D00005D00D49884202D00C49884204D1816856
:1026E00001F00701062903D0016841F001010160F2
:1026F000002010BD00000140000401400004004023
:1027000000080040000C004000400140001800405C
:1027100030B504460D460068002201F053FF194B06
:1027200041F2111120688A10984202D0164B98424B
:1027300009D1036A0B4206D1036A134203D1436CE9
:1027400023F4004343642068036A0B4206D1016A04
:10275000114203D1016821F00101016001203DB166
:10276000042D08D0082D09D084F84100002030BD88
:1027700084F83E00FAE784F83F00F7E784F8400069
:10278000F4E7000000000140000401400068034934
:10279000884201D1FEF760BE704700000010004083
:1027A0007047704710B504460068406994F84110BE
:1027B000C0F3C010212911D180B12068143050E835
:1027C000001F21F0800140E80012002AF5D1A06B23
:1027D00008B1FEF7CCF8204602F079F9206840698C
:1027E00094F84210C0F38010222911D180B12068E2
:1027F000143050E8001F21F0400140E80012002A88
:10280000F5D1E06B08B1FEF7B2F8204602F038F9D6
:10281000002010BD70470000F8B501680446086844
:10282000CA684B6910F00F0F4FF000055AD003F043
:10283000010602F49077374365D0C10705D0D10572
:1028400003D5616C41F001016164410705D5D907E9
:1028500003D0616C41F002016164810705D5D9079D
:1028600003D0616C41F004016164010707D502F0F7
:102870002001314303D0616C41F008016164616C57
:1028800000293BD0800604D5900602D5204602F0F0
:102890002CF920684069616CC0F3801001F00801D8
:1028A000014320462BD002F0EBF820684069400637
:1028B00021D52068143050E8001F21F0400140E885
:1028C0000012002AF5D1E06BA8B172490165E06BF6
:1028D000FEF796F8002811D0E06B016D01B0BDE85D
:1028E000F040084783060ED593060CD52046BDE878
:1028F000F84002F0FAB82046FFF78CFFF8BDFFF76A
:1029000089FF6564F8BD266B2023012E7ED1C606A3
:102910007CD5D6067AD508684868009048694FF09B
:10292000020640064DD5E26B106840684FF4807790
:102930000004000C3AD0A18D814237D9E085D069DE
:10294000B8422DD020680C3050E8001F21F480716F
:1029500040E80012002AF5D12068143050E8001F2A
:1029600021F0010140E80012002AF5D1206814305E
:1029700050E8001F21F0400140E80012002AF5D184
:1029800084F84230256320680C3050E8001F21F0A5
:10299000100140E80012002AF5D1E06BFDF7E7FFD7
:1029A0006663A08DE18D401A81B206E0A18D81425F
:1029B000A8D1D069B842A5D166632046FFF7F1FEE1
:1029C000F8BDA08DE18D401A81B2E08D0028F7D0CE
:1029D0000029F5D020680C3050E8002F22F49072C6
:1029E00040E80027002FF5D12068143050E8002F70
:1029F00022F0010240E80027002FF5D184F8423090
:102A0000256320680C3050E8002F00E006E022F03B
:102A1000100240E80023002BF3D1CDE705062BD5AB
:102A2000150629D594F841002128C9D1A068B0F530
:102A3000805F01D12069B0B1206A411C2162216808
:102A400000784860E08C401E0004000CE084B7D1A0
:102A50002068C16821F08001C1602068C16841F030
:102A60004001C160F8BD206A0088C0F308004860DA
:102A7000206A801C2062E5E74006F3D55006F1D5B8
:102A8000CA68204622F04002CA6084F8413000F053
:102A9000CDFAF8BD3949000870B5040004D094F8A7
:102AA0004100002510B106E0012070BD84F84050BF
:102AB000204600F023F8242084F841002068C168F3
:102AC00021F40051C160204602F070F820680169CD
:102AD00021F4904101612068416921F02A0141619E
:102AE0002068C16841F40051C1606564202084F809
:102AF000410084F842006563002070BD2DE9F04F6D
:102B000087B0044614216846FDF704FCE848E74B0B
:102B10001038D4F800C0E64A03270221DFF894E316
:102B2000002506154FF040094FF0006A9C4553D12F
:102B3000136843F400231360126802F40022059224
:102B4000026842F0010202600068029500F0010094
:102B50000590CDE900710820CDE903706946704603
:102B6000FEF7E8F8DFF85483D349574688E8820235
:102B70004046B146C0E90356C8F81450C8F818508A
:102B8000C8F81C50C8F82050C8F82450FEF71EF8AA
:102B900008B1FDF7EAFEC94EC748C4F83880603670
:102BA0003038C8F838403060C6E90175C6E90359C5
:102BB0007561B561F561356230467562FEF706F8FC
:102BC00008B1FDF7D2FEE663002205213420B4638C
:102BD000FEF7DAFC342050E0B54BDFF8E4821B1D31
:102BE0004FF0070BC4454DD11A6842F010021A602D
:102BF0001A6802F010020592026842F001020260B7
:102C0000006800F0010005904FF4C0608DE8A30853
:102C100069467046FEF78EF8A84FAA48C03738605C
:102C2000C7E901A5C7E903567D61BD61FD613D624C
:102C300038467D62FDF7CAFF08B1FDF796FEE763EF
:102C4000BC63A14F9F48C7F80890C7E903567D6150
:102C5000BD61FD613D6278307D62C7E9000A38469A
:102C6000FDF7B4FF08B1FDF780FEA7630022052140
:102C70002520BC63FEF788FC2520FEF777FC07B013
:102C8000BDE8F08FDFF84482C44562D1136843F495
:102C900000331360126802F400320592026842F0B9
:102CA000010202600068884600F0010005900420DF
:102CB000CDE9000802AB694683E8A0087D48FEF72D
:102CC00039F80820CDE9000802AB012083E881082B
:102CD00069467848FEF72EF8DFF8ECB176490BF13B
:102CE000600B58463031C0E90356CBF81450CBF88E
:102CF0001850CBF81C505746CBF820508BE8820276
:102D0000B046CBF82450FDF761FF08B1FDF72DFE6A
:102D10006D4E6948C4F838B0C0361830CBF838402A
:102D20003060C6E90175C6E903587561B561F561A2
:102D3000356230467562FDF749FF08B1FDF715FEB3
:102D4000E663002205212620B463FEF71DFC262041
:102D500093E7DFF87C81C44558D11368A84643F453
:102D600080231360126802F480220592026842F008
:102D700002020260006800F0020005904FF440601B
:102D80008DE8A30869465348FDF7D4FFDFF848B142
:102D9000494958461839C0E90356CBF81450CBF8C6
:102DA0001850CBF81C505746CBF820508BE88202C5
:102DB000CBF82450FDF70AFF08B1FDF7D6FD464DCC
:102DC0003D48C4F838B060354838CBF83840C5E9DC
:102DD0000007C5F80880C5E90386C5F81480C5F862
:102DE0001880C5F81C80C5F820802846C5F82480C6
:102DF000FDF7ECFE08B1FDF7B8FDE5630022052103
:102E00002720AC63FEF7C0FB272036E7334A944502
:102E10007FF435AF1A6842F020021A601A6802F097
:102E200020020592026842F004020260006800F08D
:102E300004000590C0208DE8A30008200490694696
:102E40002748FDF777FF244F1E48C0376030C7E999
:102E500003567D61BD61FD613D624FF020687D627A
:102E600087E801033846FDF7B1FE08B1FDF77DFDA7
:102E7000A763BC6313481B4F18383860C7E9018546
:102E8000C7E903567D61BD61FD613D6238467D62E3
:102E9000FDF79CFE08B1FDF768FDE7630022052100
:102EA0004720BC63FEF770FB4720E6E6004C00407D
:102EB000403802400000024070600240000A0020DA
:102EC0000010014040640240200B002000440040FC
:102ED0000048004000040240400C00200014014063
:102EE00000080240600D002090F84230202B01D0F5
:102EF0000220704721B11AB10023036301F0DCBE48
:102F000001207047704770472DE9F843044690F858
:102F10004100984616460D46202802D00220BDE802
:102F2000F88385B17EB100206064212084F84100DF
:102F3000FDF7FEFFA6848146E684A0682027B0F551
:102F4000805F02D003E00120E9E7206910B12E463E
:102F500000250EE000260CE08021204601F0FCFE5A
:102F6000A8B9C6B116F8010B21684860E08C401E74
:102F7000E084E08C4B464FF00002CDF80080002842
:102F8000EAD14FF04001204601F0E6FE40B184F85E
:102F900041700320C3E735F8020BC0F30800E3E7F4
:102FA00084F841700020BAE770B5044690F84100FB
:102FB000202801D0022070BD01B3FAB12162A284A1
:102FC000E28400206064212384F84130A56B144B17
:102FD000EB63A56B134B2B64A56B134BEB64A36BDB
:102FE000186520681346A56B021D2846FDF758FE9C
:102FF00030B110206064202084F84100012070BDB1
:1030000021686FF0400008602068143050E8001F0D
:1030100041F0800140E80012002AF5D1002070BD87
:10302000354A0008774A000847490008704770474A
:10303000FEE700000148FDF783BF000064010020A7
:103040000148FDF7DABF00006401002038B5806B4D
:10305000002190F83D202B4B46F2A8141B68B3FBCF
:10306000F4F3C3EBC30303EB830300933BB15B1E99
:10307000009303681B689B0505D5009BF6E7036C6E
:1030800043F020030364436B03B1D963836B03B143
:10309000D96303681C6824F480641C604185436B19
:1030A00003B11965836B03B1196503681C6824F0CB
:1030B00001041C6090F83D402023602C0BD0282494
:1030C00034EA02020FD080F83D3080F83E1000BF95
:1030D000FEF7ABF838BD80F83D3080F83E10016453
:1030E000FDF72CFF38BD0268136843F0010313603D
:1030F0000268136843F480631360016380F83D4005
:10310000E6E700004400002000684169C943090661
:1031100001D400210161704770B5044690F83D006C
:1031200094F83E10102901D0402906D1222804D15C
:1031300021680A6822F400620A60282131EA00024C
:103140004FF000054FF0200626D021684968090598
:1031500005D4602803D084F83D6084F83E50256390
:1031600020684168090537D5416821F40061416054
:10317000606B90F835203C49012A11D00165606BE5
:10318000FDF73EFC38B32068016821F001010160C1
:1031900084F83D60606B1CE0256384F83D10DFE738
:1031A000A06B0165A06BFDF72BFCA0B12068416905
:1031B000C943490605D40069616A0870606A401C09
:1031C00060622068016821F00101016084F83D60BF
:1031D000A06B016D884710E094F83D10602910D075
:1031E0004169C943490605D40069616A0870606A8B
:1031F000401C60622046FEF718F8206CC1071CD105
:1032000015E084F83D6025644169C943490605D449
:103210000069616A0870606A401C60622068016829
:1032200021F0010101602046FDF788FEE5E78107F6
:1032300003D4410701D4000704D52068416821F474
:10324000E061416094F83D00216C49070BD52828C6
:1032500009D10648E062256384F83D6084F83E5059
:103260002046FEF7A7F870BD4D3000080000FFFFB4
:1032700010B5C26A438D0168042B06D0438D032B21
:1032800008D0438D022B1DD012E04A6822F48062E0
:103290004A600CE04B6823F480634B60042A06D03C
:1032A000022A04D001680A6822F480620A60016878
:1032B0000969426A1170416A491C4162418D491E87
:1032C000418510BD012A34D0102A32D0042A34D0CE
:1032D000022A32D00B6843F400730B60016809695D
:1032E000436A1970416A491C4162438D5B1E4385E4
:1032F00003681B690B70416A491C4162418D491E7C
:10330000418501684B6823F440734B60202180F8AD
:103310003D1090F83E300021402B80F83E1010D038
:10332000082A02D0202A00D012210163FEF743F8B8
:1033300010BD0B6823F48063CFE70B6843F4806310
:10334000CBE70163FEF739F810BD000038B590F8FF
:103350003D10222910D1C36A418D03290DD901687E
:103360000969426A1170416A491C4162418D491ED6
:103370004185418D032906D038BDC26A022A02D098
:10338000012906D029B10068416821F480614160BB
:1033900038BD2A4A46F2A81400211268B2FBF4F2A2
:1033A00002EB8202009202682024009D6D1E0095AF
:1033B00026D01568AD05F8D4156825F4806515602C
:1033C0000268556825F4E065556002681269456A2F
:1033D0002A70426A521C4262428D521E428580F817
:1033E0003D4090F83E2080F83E10402A21D0082B26
:1033F00002D0202B00D012210163FDF7DCFF38BD85
:10340000036C43F020030364536823F4E0635360C8
:1034100002681269436A1A70426A521C4262428D03
:10342000521E428580F83D4080F83E10FDF7FDFEBB
:1034300038BD0163FDF7C1FF38BD00004400002026
:1034400010B5C26A90F83D1021290BD1418D51B1C0
:10345000416A026809781161416A491C4162418DE3
:10346000491E418510BD20230021082A13D0202A9F
:1034700011D012F5803F0ED00268546824F4E06445
:1034800054601122026380F83E1080F83D3000BF86
:10349000FDF792FF10BD0268546824F4E0645460A4
:1034A0000268146844F400741460016380F83D30CD
:1034B00090F83E2080F83E10402AE9D1FDF77EFFCB
:1034C00010BD000010B590F83D1090F83E30C26A73
:1034D000048DB4B1212903D0402B11D122290FD161
:1034E000418DE1B390F83E10402942D0416A026814
:1034F00009781161416A491C4162418D491E41852B
:1035000010BD2129E8D120230021082A13D0202A28
:1035100011D012F5803F0ED00268546824F4E064A4
:1035200054601122026380F83E1080F83D3000BFE5
:10353000FDF742FF10BD0268546824F4E064546053
:103540000268146844F400741460016380F83D302C
:1035500090F83E2080F83E10402AE9D100E002E0D9
:10356000FDF72CFF10BD0068416821F480614160C7
:1035700010BDBDE8104000F0D3B8000078B590F859
:103580003E50C26A036B90F83D6000240168222E11
:103590007AD1066D0EB9402D76D0056D1DB905693D
:1035A000B5F5404F09D0458D05B3468D384D012EF8
:1035B0000ED0438D022B3AD05DE04A698A690092B1
:1035C0000A6842F480720A60016D491C016578BD89
:1035D000AA4213D10A6822F480620A6001684A682C
:1035E000120503D50A6822F4806216E04A698A69E6
:1035F00000920A6842F400720A6039E0082A10D08A
:10360000202A0ED0122B0AD0042A03D0022A01D07D
:10361000102AE7D10A6842F480620A6024E0012A95
:10362000E0D00A6822F480620A600168DEE7042ABA
:1036300021D0022A1FD0102A1DD00B6823F48063EA
:103640000B6001680B6843F400630B6001684B6812
:103650001B0509D5AA4212D0012A10D0082A0ED083
:10366000102A0CD0202A0AD001684A698969009181
:10367000046578BD08E00B6843F48063E5E74A68B9
:1036800042F480524A60EFE7486988690090F0E7A9
:103690000000FFFF90F83E10402910D00169B1F5FD
:1036A000804F19D0016DA9B3016D012910D1416C72
:1036B0005FF0F10201F4407142EAD11106E0016DC0
:1036C0000029416C05D0C9B241F0010100680161D7
:1036D000704701F0FE01F9E790F83D102129416C97
:1036E00009D0C9B241F0010102681161416B29B1F1
:1036F000C96B49B902E001F0FE01F5E7816B0029D1
:10370000E6D0C96B0029E3D00068416841F400614C
:1037100041607047FFE7416CF02201F44071CBE754
:1037200010B590F83D10026D4AB1026D012A14D017
:10373000026D022A16D0BDE81040FFF7E5BCC16C4F
:103740000129816C02D0C1F3072108E00268C9B2E7
:103750001161016D891C016510BD816CC9B20268DF
:10376000116123E022291CD0428D0AB1212920D0E9
:10377000428D002AF0D12129EED101684A6822F455
:10378000E0624A6001680A6842F400720A6000213F
:103790000163202280F83D2080F83E10FDF70EFEE8
:1037A00010BD01680A6842F480720A60016D491C0C
:1037B000D1E7416A026809781161416A491C416296
:1037C000418D491E418510BD38B50C4690F83D200D
:1037D00000212825954302680B4605D0516991695F
:1037E000009180F83C3038BD556825F480655560FF
:1037F000E243540700D50121120601D5828900E079
:10380000028B80F83C3092B2FDF799FB38BD000086
:103810002DE9F04190F83D300446C26A002120268F
:103820001E4F00686FF48065082A01D0202A01D15C
:10383000282B04D0212B17D04561BDE8F081E76229
:10384000426822F4E06242602068456120680268B4
:1038500022F480620260216384F83D6084F83E10A7
:103860002046FDF7A7FDE8E7E7622122226384F8FE
:103870003D6084F83E10416821F4E06141602068B9
:1038800045612068016821F4806101602046FFF7EE
:103890003BFC2046FDF7D9FDCFE700000000FFFF0D
:1038A000F8B590F83D6004460068416821F4E06195
:1038B00041602068002541690091016841F00101E3
:1038C00001602068016821F480610160206841681E
:1038D000090520D5474F222E48D02A2E46D0616BAD
:1038E000096849686185618D19B1216C41F0040155
:1038F0002164416821F400614160606BFDF792F83A
:10390000012808D0606B0765606BFDF779F810B18E
:10391000606B016D8847608D08B320684169C943B9
:10392000490708D40069616A0870606A401C6062D7
:10393000608D401E608520684169C943490608D4EE
:103940000069616A0870606A401C6062608D401E98
:103950006085608D18B1206C40F004002064206CFC
:1039600000B32046BDE8F840FFF7D6BBA16B09685D
:1039700049686185618D19B1216C41F004012164B0
:10398000416821F400614160A06BFDF74BF801280C
:10399000C1D0A06B0765A06BFDF732F80028BAD044
:1039A000A06BB6E72A2E06D12563282084F83D00B7
:1039B0002046FDF749FD94F83D10202028290DD020
:1039C000216B222901D0222E07D1256384F83D00E6
:1039D00084F83E502046FDF737FDF8BD0649E16208
:1039E000256384F83D0084F83E502046FDF7E2FC54
:1039F000F8BD00004D3000080000FFFF314808B559
:103A0000016841F480010160016801F480010091C6
:103A1000016841F4001101600068002200F4001008
:103A2000009005210C20FDF7AFFD0C20FDF79EFD59
:103A3000002205210D20FDF7A7FD0D20FDF796FDC5
:103A4000002205210E20FDF79FFD0E20FDF78EFDC3
:103A5000002205210F20FDF797FD0F20FDF786FDC1
:103A6000002205211020FDF78FFD1020FDF77EFDBF
:103A7000002205211120FDF787FD1120FDF776FDBD
:103A8000002205213920FDF77FFD3920FDF76EFD6D
:103A9000002205213A20FDF777FD3A20FDF766FD6B
:103AA000002205214520FDF76FFD4520FDF75EFD55
:103AB000002205214620FDF767FDBDE808404620AD
:103AC000FDF754BD3038024010B501F02DFF01F074
:103AD0001BFF044A0021044802F04AFA03494860E7
:103AE00010BD000088800008A940000800000020E8
:103AF0002DE9F04F87B014216846FCF70BFC4D48C8
:103B00000024016841F010010160016801F010011A
:103B10000591016841F004010160016801F00401B0
:103B20000591016841F080010160016801F08001A8
:103B30000591016841F001010160016801F0010196
:103B40000591016841F002010160016801F0020184
:103B50000591016841F0080101600068DFF8D88034
:103B600000F0080049F6FC05059000222946404671
:103B7000FDF7D8F9DFF8C49042F21606002231466C
:103B80004846FDF7CFF9DFF8B8A0002202215046E1
:103B9000FDF7C8F9DFF8ACB040F6486700223946B7
:103BA0005846FDF7BFF900950125CDE90154694656
:103BB00040460394FDF7BEF80096CDE901546946EE
:103BC00048460394FDF7B6F82020CDE90004694685
:103BD00048460294FDF7AEF83011CDE9000469467D
:103BE00050460294FDF7A6F802200090CDE901545A
:103BF000694650460394FDF79DF846F20350CDE91F
:103C00000004694640460294FDF794F80097CDE918
:103C10000154694658460394FDF78CF83020CDE9ED
:103C20000004694658460294FDF784F807B0BDE8E1
:103C3000F08F0000303802400010024000080240BF
:103C400000040240000C02400D4810B50B49016011
:103C50000C49416000214FF480428160C0E90312A9
:103C600041618161C1610162FDF7E0FA002803D082
:103C7000BDE81040FCF779BE10BD000000540040C4
:103C800064010020A08601000F4810B50D490160B5
:103C90004FF48271416000218160C1604FF4007275
:103CA0000161C0E90512C1610162416281620A21BC
:103CB000C162FEF7F9F8002803D0BDE81040FCF718
:103CC00054BE10BD00300140480200200F4810B51E
:103CD0000D4901604FF48271416000218160C16033
:103CE0004FF400720161C0E90512C16101624162D5
:103CF00081620A21C162FEF7D7F8002803D0BDE82F
:103D00001040FCF732BE10BD00380040A002002079
:103D10000C4810B50A4901604FF4E13141600021BF
:103D200081600C22C160C0E904128161C161FEF7AB
:103D3000B3FE002803D0BDE81040FCF716BE10BD4E
:103D4000004C0040980800200C4810B50A4901605A
:103D50004FF4E1314160002181600C22C160C0E973
:103D600004128161C161FEF797FE002803D0BDE80F
:103D70001040FCF7FABD10BD00100140E008002023
:103D80000C4810B50A4901604FF4E131416000214F
:103D900081600C22C160C0E904128161C161FEF73B
:103DA0007BFE002803D0BDE81040FCF7DEBD10BD4F
:103DB00000440040280900200C4810B50A49016061
:103DC0004FF416514160002181600C22C160C0E9AE
:103DD00004128161C161FEF75FFE002803D0BDE8D7
:103DE0001040FCF7C2BD10BD004800407009002023
:103DF0000C4810B50A4901604FF4E13141600021DF
:103E000081600C22C160C0E904128161C161FEF7CA
:103E100043FE002803D0BDE81040FCF7A6BD10BD4E
:103E200000140140B8090020FEE7FEE7084440699D
:103E3000704700000148FDF7B1BE0000C40100203A
:103E4000D0F8800070470A688260D1E901231A43E4
:103E5000D1E903310B43C1681A436FF30B011143DE
:103E6000C160002070470968C0F8801000207047CA
:103E700010B585B004460D20CDE900104020029019
:103E8000002003904FF48060049069462046FFF7BD
:103E9000DAFF41F288320D21204600F01DF805B00E
:103EA00010BD000010B585B0044600210C20CDE9FE
:103EB00000104020CDE9020100010490694620462F
:103EC000FFF7C1FF034A0C21204600F005F805B0BA
:103ED00010BD000000E1F505454B10B51B684FF41F
:103EE000FA54B3FBF4F353435B1E02D24FF000408D
:103EF00010BD426B12F0450FF6D01205F4D4426BA0
:103F0000520703D504218163084610BD426BD207D6
:103F100002D00121816305E0C52282630269D2B229
:103F20008A4201D0012010BD0021FFF77FFF3149F7
:103F3000084201D1002010BD002802DA4FF00070C5
:103F400010BD410001D5402010BD810001D5802069
:103F500010BDC10002D54FF4807010BD010102D523
:103F60004FF4007010BD410102D54FF4806010BDC8
:103F7000C10102D54FF4006010BD010202D54FF41B
:103F8000805010BD410202D54FF4005010BD810297
:103F900002D54FF4804010BDC10202D54FF400405D
:103FA00010BD410302D54FF4003010BD810302D58E
:103FB0004FF4802010BDC10302D54FF4002010BD86
:103FC000010402D54FF4801010BD410402D54FF416
:103FD000001010BD810402D54FF4800010BD000711
:103FE00002D54FF4000010BD4FF4803010BD00002A
:103FF0004400002008E0FFFD10B5846B40F23A5009
:10400000216888632046FDF7B3FD012184F8341050
:1040100000212163062801D0052805D12068FFF77B
:1040200041FFA16B0843A063A06B0028204602D08B
:10403000FDF79DFD10BDFDF799FD10BD10B5846B1A
:1040400040F23A50216888632046FDF791FD012136
:1040500084F8341000212163062801D0052805D1F9
:104060002068FFF71FFFA16B0843A063A06B002827
:10407000204602D0FDF77BFD10BDFDF777FD10BD9A
:104080000148FDF793BE0000480200200148FDF7FB
:104090008DBE0000A002002010B5806B0021C187FA
:1040A000C186FDF781FE10BD2DED048B0124334E3A
:1040B0009FED339B9FED348A82B040F6C4170025F4
:1040C0004FF4FA783148FDF7C1F9ADF80050684671
:1040D00001F0EAFDBDF800102DA000F0F1FE642013
:1040E00001F0E8FDA4B101F064FB002001F06BFBDE
:1040F00041F2883001F071FB002001F05FFB0820E5
:1041000001F070FB082001F063FB012001F06FFB60
:10411000308801F062FB3088323080B23080B842A3
:1041200000D33580642001F0C5FD34B1404602F073
:10413000F3FC4FF4616002F0F4FCADF80050684607
:1041400002F0DCFCBDF80000FCF75EF953EC192B23
:10415000FCF7EBF841EC100B11A053EC102B00F026
:10416000AFFE02F073FC8DED008A684601F044FF5B
:104170000024404601F09EFDA4E70000000000205E
:10418000000000000000594000000000B8010020BD
:104190004F442076616C7565203D2025640A00003F
:1041A00074656D7065617274757265203D20252E91
:1041B00032660A0010B54FF0E020006903F0D2FC2F
:1041C000012803D0BDE8104002F0EEBF10BD000092
:1041D00030B593B030216846FCF79CF814210CA848
:1041E000FCF798F81F480025016841F080510160F4
:1041F000006800F0805011901B48016841F4804134
:1042000001600068022400F48040119009200090B1
:104210004FF4803001900120CDE90504800507901E
:1042200004200890A820CDE9090407200B906846D7
:10423000FDF7E6FA08B172B6FEE70CA90F2081E897
:1042400031004FF4A0500F904FF480501090052192
:104250000CA8FDF7CBF9002801D072B6FEE713B029
:1042600030BD000040380240007000400248016844
:1042700041F470010160704788ED00E030B58DB009
:10428000002405460794089409940A940B941C2171
:1042900068460C94FCF73EF81E491D4801C140F6E3
:1042A000330031C11B4841F810498C61FDF722FFF2
:1042B00008B1FCF75AFB4FF48050079007A9154846
:1042C000FDF7BAFF08B1FCF750FB1248FEF78DF975
:1042D00008B1FCF74AFB0B940BA90E480C94FDF7B0
:1042E000C1FE08B1FCF741FB602000906808CDE9F1
:1042F00001040022694607480494FEF710F908B14A
:10430000FCF733FB0348FEF79FF80DB030BD00000B
:1043100000000140F802002030B58DB000240546B1
:104320000794089409940A940B941C2168460C94F1
:10433000FBF7F0FF1D494FF0804001C140F633000C
:1043400031C11A4841F810498C61FDF7D3FE08B11C
:10435000FCF70BFB4FF48050079007A91348FDF7BB
:104360006BFF08B1FCF701FB1048FEF73EF908B1FE
:10437000FCF7FBFA0B940BA90C480C94FDF772FEAA
:1043800008B1FCF7F2FA602000906808CDE901045A
:104390000022694605480494FEF7C1F808B1FCF70D
:1043A000E4FA0248FEF750F80DB030BD400300209B
:1043B00030B58DB0002405460794089409940A94FA
:1043C0000B941C2168460C94FBF7A4FF1E491D4862
:1043D00001C140F6330031C11B4841F810498C61DE
:1043E000FDF788FE08B1FCF7C0FA4FF48050079043
:1043F00007A91548FDF720FF08B1FCF7B6FA1248E7
:10440000FEF7F3F808B1FCF7B0FA0B940BA90E48CD
:104410000C94FDF727FE08B1FCF7A7FA6020009086
:104420006808CDE901040022694607480494FEF7B4
:1044300076F808B1FCF799FA0348FEF705F80DB0D5
:1044400030BD0000000400408803002030B58DB06E
:10445000002405460794089409940A940B941C219F
:1044600068460C94FBF756FF1E491D4801C140F6F3
:10447000330031C11B4841F810498C61FDF73AFE09
:1044800008B1FCF772FA4FF48050079007A915485D
:10449000FDF7D2FE08B1FCF768FA1248FEF7A5F85E
:1044A00008B1FCF762FA0B940BA90E480C94FDF7C7
:1044B000D9FD08B1FCF759FA602000906808CDE9F1
:1044C00001040022694607480494FEF728F808B161
:1044D000FCF74BFA0348FDF7B7FF0DB030BD000005
:1044E00000080040D00300200148FDF714BF000081
:1044F000C0110020F0B50268274B284D284E294FE7
:10450000294C4FF0804C984209D0604507D0A84212
:1045100005D0B04203D0B84201D0A04204D122F06D
:10452000700E4A6842EA0E0298421BD0604519D0CC
:10453000A84217D0B04215D0B84213D0A04211D033
:104540001A4DA8420ED01A4DA8420BD0194DA842C0
:1045500008D0194DA84205D0184DA84202D0184DD8
:10456000A84203D122F44075CA682A434D6922F05B
:1045700080022A438D68C5620D688562984201D029
:10458000A04201D109690163016841F004010160A1
:10459000012141610260F0BD0000014000040040C3
:1045A00000080040000C00400004014000400140B1
:1045B000004401400048014000180040001C004039
:1045C0000020004010B501F01F030121046A99404A
:1045D0008C430462016A9A401143016210BD10B518
:1045E000846842EA032224F47F440A43224382601F
:1045F00010BD826822F070020A4342F00701816018
:1046000070470000F0B5036A026A22F001020262FC
:1046100042688469124E24F073050C682C4323F021
:1046200002058B682B430D4DA84201D0B04205D145
:1046300023F00807CB683B4323F00403A84201D0D2
:10464000B04205D14D6922F4407215438A692A436C
:1046500042608461496841630362F0BD000001402B
:1046600000040140F0B5026A036A23F010030362FC
:10467000436884690D6824F4E64444EA05248D689F
:1046800022F0200242EA05120F4D104EA84201D03E
:10469000B04206D1CF6822F0800242EA071222F02F
:1046A0004002A84201D0B04207D14D6923F44063D3
:1046B00043EA85038D6943EA850343608461496861
:1046C00081630262F0BD000000000140000401406F
:1046D000F0B5026A036A23F4807303624368C46915
:1046E00022F4007224F073050C68124E2C438D687E
:1046F00042EA05220E4DA84201D0B04206D1CF6851
:1047000022F4006242EA072222F48062A84201D029
:10471000B04207D14D6923F4405343EA05138D6934
:1047200043EA05134360C4614968C1630262F0BD96
:10473000000001400004014030B5046A026A22F41E
:10474000805202624268C3690D6823F4E64343EA7B
:1047500005238D6824F4005444EA0534084DA8422A
:1047600002D0084DA84204D14D6922F4804242EAA9
:1047700085124260C36149680164046230BD000073
:10478000000001400004014010B5036A046A24F0EF
:1047900001040462846924F0F00444EA021423F062
:1047A0000A020A438461026210BD10B5036A046AFA
:1047B00024F010040462846923F0A00324F47044FC
:1047C00044EA023243EA01118261016210BD000035
:1047D0002DE9FC473E4E92460D4604460122022139
:1047E0003046FCF79FFB0122DFF8E880D70239460C
:1047F0004046FCF797FBDFF8E09001224021484655
:10480000FCF790FB012240214846FCF78BFB8DF81A
:104810000040324C6908207820F0050040F0C000CC
:104820002070607840F001006070607965F30400EA
:104830006071207961F304002071A07920F00F00ED
:104840000830A0718DF804A000219DF800002268B6
:1048500000F04AF86068102140F4E0229DF8000062
:1048600000F042F8002214219DF8000000F03CF80E
:104870009DF804001A4941EA00626C219DF800008D
:1048800000F032F8174A70219DF8000000F02CF873
:10489000002213219DF8000000F026F800220221DA
:1048A0003046FCF73FFB002239464046FCF73AFB16
:1048B000002240214846FCF735FB002240214846B3
:1048C000FCF730FBBDE8FC476420FCF721BA000090
:1048D0000004024000100240000C024018000020BA
:1048E0005300011024000DC110B50E4C0523237098
:1048F000607041F08000A070100EE070100C20710C
:10490000100A6071A2710721204602F00FF9E071D0
:10491000082221460448FEF747FBBDE8104001206D
:10492000FCF7F6B910000020280900200148FDF727
:1049300073BF00009808002010B5806B0021C1856E
:10494000FDF768FF10BD70B5846B2068406994F86E
:104950004110C0F3C0100025212904D118B1E5840D
:10496000204600F0B4F82068406994F84210C0F383
:104970008010222904D118B1E585204600F080F886
:10498000606C40F0100060642046FDF743FF70BD8E
:1049900010B50146806B096809684FF00002C9052F
:1049A0002ED4C28501680C3151E8003F23F4807396
:1049B00041E80034002CF5D10168143151E8003F82
:1049C00023F0010341E80034002CF5D101681431D3
:1049D00051E8003F23F0400341E80034002CF5D1BA
:1049E000202180F84210016B012909D101680C31A6
:1049F00051E8003F23F0100341E80034002CF5D1CA
:104A00004263016B012902D0FEF77CFA10BD818D53
:104A1000FDF7C7FE10BD10B5806B01214163016B2E
:104A2000012902D0FEF76FFA10BD818D4908FDF70C
:104A3000B8FE10BD10B50146806B09680968C9054C
:104A400016D40021C1840168143151E8002F22F0EE
:104A5000800241E80023002BF5D101680C3151E8B8
:104A6000002F42F0400241E80023002BF5D110BD99
:104A7000FEF7DCFA10BD10B5806BFEF7D8FA10BD5A
:104A800001680C3151E8002F22F4907241E80023B4
:104A9000002BF5D10168143151E8002F22F00102FA
:104AA00041E80023002BF5D1016B012909D10168F0
:104AB0000C3151E8002F22F0100241E80023002BB6
:104AC000F5D1202180F84210002101637047016870
:104AD0000C3151E8002F22F0C00241E80023002BE6
:104AE000F5D1202180F84110704708B590F84210A8
:104AF000222901D0022008BD82684FF480539A42D7
:104B000001D1016921B1816A9A421BD04AB10AE000
:104B10000268816A5268C2F308020A80816A891CAD
:104B200008E0026972B10268526802F07F020A70FE
:104B3000816A491C8162C18D491E0904090CC18525
:104B400003D01BE002685268F1E70168CA6822F0EE
:104B50002002CA600168CA6822F48072CA600168D3
:104B60004A6922F001024A61202180F842100021A6
:104B70004163026B012A03D0FEF7C4F9002008BD8F
:104B8000016301680C3151E8002F22F0100241E866
:104B90000023002BF5D101680A68D20602D50A6805
:104BA00049680091818DFDF7FCFDE7E770B504468B
:104BB00000680169E26821F44051114301612169F3
:104BC000A068E26908436169114308432168CA6823
:104BD00049F20C639A430243CA6020684169A269A2
:104BE00021F440711143416131492068884202D06B
:104BF0003049884202D1FCF7C3FD01E0FCF7B0FD6B
:104C0000E2690023192164253226B2F5004F62685B
:104C100028D0A0FB0101930F9200FBF731FB014666
:104C2000B0FBF5F06FF01802504301EB800006EB8B
:104C30000010B0FBF5F000F0F002B1FBF5F002EB74
:104C40000012B1FBF5F06FF01803584301EB800040
:104C500006EB0010B0FBF5F000F00F0021681044E7
:104C6000886070BDA0FB010192185B41FBF708FB57
:104C70000146B0FBF5F00201B1FBF5F06FF018034F
:104C8000584301EB800006EBC000B0FBF5F000F0EC
:104C9000F80002EB4002B1FBF5F0584301EB800055
:104CA00006EBC000B0FBF5F000F00700D6E700000F
:104CB000001001400014014038B58162044682852D
:104CC000002013466064222284F84220E56B1F4ACC
:104CD000EA63E56B1E4A2A64E56B1E4AEA64E26BEE
:104CE00010650A462168E06B091DFBF7D9FF30B15A
:104CF00010206064202084F84200012038BD206824
:104D0000016840680090206948B120680C3050E884
:104D1000001F41F4807140E80012002AF5D120689C
:104D2000143050E8001F41F0010140E80012002A51
:104D3000F5D12068143050E8001F41F0400140E8F0
:104D40000012002AF5D1002038BD0000914900086A
:104D5000174A0008474900082DE9F84398461746C6
:104D60000D460446089E24E0701C22D0FCF7E0F8B3
:104D7000A0EB0800B0421AD8CEB12068C16849073C
:104D800017D5802D15D0402D13D00168C9430907D0
:104D90000FD401680025406800902046FFF770FEA0
:104DA0000820606484F840500120BDE8F8830320A7
:104DB000FBE72068006835EA000004D00020B84214
:104DC000D2D00020F1E70120F9E70000F8B517483C
:104DD00000680168C943C90622D401684068009090
:104DE0001248FDF7DFFC1248006840681149404254
:104DF000C5B22A461048FBF774FA00240E4E04E0B0
:104E0000315D0EA000F05CF8641CAC42F8DB0DA034
:104E100000F056F84FF4806206490448FEF764F843
:104E2000BDE8F8400148FDF7F7BC0000E0080020AD
:104E3000C00A002018040020C00D00202530325880
:104E4000200000000D0A00000148FDF7E5BC00004D
:104E500028090020114808B500680168C943C9063F
:104E600017D40168406800900C48FDF79BFC0C4883
:104E7000006840680B49C0F5806008800A480068F7
:104E800008B101F04BF84FF4806208490348FEF77F
:104E90002BF8BDE808400148FDF7BEBC70090020B2
:104EA000A00C00203400002028000020180800205A
:104EB0000148FDF7B1BC0000B8090020FEE7000082
:104EC0000FB4054B10B503A9044A029800F0DAF8B4
:104ED00010BC5DF814FB000019580008C800002041
:104EE0000907090E002804DB00F1E02080F8001417
:104EF000704700F00F0000F1E02080F8141D7047AB
:104F000002E008C8121F08C1002AFAD17047704792
:104F1000002001E001C1121F002AFBD170470000F0
:104F20002DE9FF5FDDE90220010DDDF838B0024315
:104F300018D044F61050A1F2FF3141430D140F98E0
:104F4000012820D0A5EB0B00401C5FEA000A4FF0BF
:104F50000004474EDFF81C91A046504616D5CAF112
:104F6000000728E00F98012443A2012808D000215F
:104F700000980F9BC0E90021C0E90243BDE8FF9FF4
:104F80006FEA0B01F4E7CBF10000DEE7074612E021
:104F9000F80707D02246334640464946FBF78DFBCB
:104FA000804689462246334610461946FBF785FB64
:104FB00004460E467F10002FEAD1DDE90201BAF166
:104FC000000F42464B4602DAFBF777FB01E0FBF7A6
:104FD000ACF904460E460022284BFBF7F9FB03D838
:104FE0004FF0FF30014607E00022254B20463146B6
:104FF000FBF7BCFAFBF7D3FB102409E0002C0ADB1B
:105000000A220023FBF73CF9019B30321A55641E3B
:1050100050EA0102F2D1641C019AC4F11103144454
:105020000F9A012A03D0012208430DD10AE0084358
:1050300004D000204FF0110B0F9080E7A3EB0B057D
:105040006D1E0DE05B4504DD4FF0000205F101052A
:1050500004E003DA4FF00002A5F10105002AECD0CC
:1050600000980F99C0E90231C0E9004586E70000C9
:10507000000024400000F03F300000000000F0433A
:105080000000E03F2DE9FF4F95B09B46894606465C
:1050900000250FE2252877D100242746F84A012170
:1050A000059400E0044316F8013F203B01FA03F0A9
:1050B0001042F7D130782A2811D06FF02F033078C2
:1050C000A0F13002092A16D8059A44F0020402EB36
:1050D000820203EB42021044761C0590EFE759F878
:1050E000042B0592002A03DA504244F40054059040
:1050F00044F00204761C30782E2816D116F8010FE1
:1051000044F004042A280DD06FF02F023078A0F16B
:105110003003092B09D807EB870302EB4303C718B9
:10512000761CF3E759F8047B761C30786C280FD096
:1051300006DC4C2817D068280DD06A2814D104E06A
:10514000742810D07A280FD10DE044F400140AE03E
:1051500044F4801401E044F440147278824202D195
:1051600004F58014761C761C307866280BD013DC8E
:10517000582877D009DC002875D04528F6D0462875
:10518000F4D047281AD19DE118E0632835D064286F
:1051900079D0652812D195E1702873D008DC672892
:1051A000F1D069286FD06E280DD06F2806D1B5E0F8
:1051B00073282CD0752875D0782874D05A46179942
:1051C00090476D1C75E1C4F30250022809D00328F2
:1051D0000DD0D9F8001004280DD00D6009F1040994
:1051E00067E1D9F80010EA17C1E90052F6E7D9F8EB
:1051F00000100D80F2E70D70F0E719F8041B8DF830
:10520000001000208DF80100EA46012003E059F863
:1052100004AB4FF0FF3061074FF0000102D40DE006
:1052200008F101018846B9420FDA8045F8DB1AF827
:1052300008100029F4D108E008F1010188468142F4
:10524000FADB1AF808100029F6D105985B46A0EBA6
:10525000080721463846179A00F094FA284400EBD4
:10526000080507E04DE029E10DE01AF8010B5A4668
:1052700017999047B8F10108F7D25B4621463846A6
:10528000179A13E142E00A220092C4F302524FF04F
:10529000000A022A08D059F804CB032A4FEAEC711D
:1052A0000AD00DE029E02AE009F1070121F0070208
:1052B000F2E802C1914609E00FFA8CFC4FEAEC716A
:1052C000042A03D14FFA8CFC4FEAEC71002907DA6B
:1052D0000A460021DCF1000C61EB02012D2202E004
:1052E000220504D52B228DF80420012203E0E207D9
:1052F00001D02022F7E7904659E00A2102E010226F
:105300000DE010214FF0000A00910BE010224FF049
:10531000000A44F004040827009203E008224FF03A
:10532000000A0092C4F30252022A05D059F804CBB5
:105330000021032A08D009E009F1070121F0070242
:10534000F2E802C1914605E01FFA8CFC042A01D163
:105350000CF0FF0C4FF00008220728D5702806D06B
:10536000009B83F0100353EA0A0305D00EE04022AD
:105370008DF80420012208E05CEA010206D0302208
:105380008DF804208DF8050002229046009B83F0E2
:10539000080353EA0A030AD15CEA010201D1620759
:1053A00005D530228DF804204FF001087F1E5828C3
:1053B00004D034A003900EA802900DE036A0F9E7C7
:1053C00053466046009AFAF75BFF84460398825C76
:1053D0000298401E029002705CEA0100F0D102982F
:1053E00006A9081A00F1200A600702D524F48034C7
:1053F00000E00127574502DDA7EB0A0000E000208E
:1054000000EB0A01009005984144401A0590E00322
:1054100006D45B462146179A059800F0B3F9054477
:10542000002706E001A85A46C05D179990476D1CF9
:105430007F1C4745F6DBE0030CD55B462146179AF7
:10544000059800F09FF9054404E030205A4617996A
:1054500090476D1C0099481E00900029F5DC08E07B
:10546000029802995A460078491C02911799904770
:105470006D1CBAF10001AAF1010AF1DC65E100003E
:10548000092801003031323334353637383961621A
:1054900063646566000000003031323334353637DE
:1054A00038394142434445460000000000F058F9B5
:1054B0000544761C307800287FF4ECAD19B02846FE
:1054C000BDE8F08F620700D4062709F1070222F039
:1054D000070CFCE80223E14603F000485FEA080CF1
:1054E00002D00FF2702C0DE05FEA045C02D50FF2DF
:1054F000682C07E05FEAC47C02D00FF2602C01E068
:10550000AFF2700C4FF0FF3823F00043CDF850C0DD
:1055100065280CD006DC452809D046281DD0472830
:105520003DD13DE0662818D067287ED138E00021C3
:10553000112F01DB112000E0781CCDE9000106A944
:105540000EA8FFF7EDFCDDE90F010E9A0391002193
:10555000009207F1010A04914DE04FF000400097DE
:10556000CDE9011006A90EA8FFF7DAFCDDE90F026C
:1055700003920E9B11990022DDF80CA00093049277
:1055800011B9791C00EB010AB7EB0A0004D4C0F191
:10559000FF3007F1010A0490AAEB0700019044E0F4
:1055A000012F00DA01270021112F01DD112000E079
:1055B0003846CDE9000106A90EA8FFF7B1FCDDE9E8
:1055C0000F010E9A0391002104910092BA4621071F
:1055D0000CD40399514500DA8A46BAF1010F05DD72
:1055E000009AAAF10101515C302908D0B84202DAD0
:1055F00010F1040F06DA0121CDE9011015E0AAF13E
:105600000101E9E7002805DC049901440491AAEBB3
:10561000000102E0411C514500DD8A460499401A10
:10562000401C01904FF000400290200704D40198E4
:10563000504501DBCDF8048000208DF84F00029822
:105640000DF14F07B0F1004F25D02B200E9002989E
:105650004FF0020800280CDA404202902D200E90F4
:1056600007E00A210298FAF7EFFE3031029007F8BE
:10567000011DB8F10001A8F10108F2DC0298002830
:10568000EFD1791E0E980870307800F0200040F0BD
:10569000450007F8020D12A8C01B00F10708149876
:1056A000007800B1012000EB0A01019801EBE071E4
:1056B00005984144401A401E0590E00306D45B461D
:1056C0002146179A059800F05DF805441498007873
:1056D00018B15A46179990476D1CE00324D55B46D4
:1056E0002146179A059800F04DF805441CE00498EF
:1056F000002807DBDDE90301884203DD0098405CF8
:10570000179901E0179930205A469047049805F1FF
:105710000105401C04900198401E019004D12E20E8
:105720005A46179990476D1CBAF10001AAF1010A77
:10573000DDDC05E017F8010B5A46179990476D1C00
:10574000B8F10001A8F10108F4DC5B462146179A84
:105750000598ABE62D0000002B00000020000000A3
:105760002DE9F041044600251E461746880404D45E
:1057700005E039462020B0476D1C641EF9D5284647
:10578000BDE8F0812DE9F041044600251E46904613
:10579000C80301D5302700E02027880404D505E0A0
:1057A00041463846B0476D1C641EF9D52846BDE811
:1057B000F0810122B621022000F03EBA02466D219E
:1057C000022000F039BA02464021022000F034BA2B
:1057D00002468C21022000F02FBA024656210220F8
:1057E00000F02ABA02468A21022000F025BA0246B9
:1057F0006A21022000F020BA10B50022054C03E017
:1058000010F8013B5340E25C491E89B2F8D21046C1
:1058100010BD0000887F000813B54FF47A73012291
:1058200069460248FDF770FB00981CBDB8090020CE
:10583000FBF71AFEFEF7CCFCFEF75AF9FEF7DEF88E
:10584000FEF702FAFEF720FAFEF740FAFEF760FADA
:10585000FEF77AFAFEF794FAFEF7AEFAFEF7C8FA08
:105860001AA0FFF72DFB01F075F901F0CBF800212C
:105870000122084601F0AEF800220221104601F094
:10588000A9F801220021104601F0A4F8002202210B
:10589000012001F09FF801220021022001F09AF876
:1058A00002210022084601F095F801220021032080
:1058B00001F090F800220221032001F08BF800F0A3
:1058C00007FAFEF701F900F015FAFEE77379737431
:1058D000656D2073746172740A00000030B5034670
:1058E0004FF6FF700022074C08E09D5C4540EDB28A
:1058F000521C34F8155092B285EA10208A42F4D333
:1059000030BD0000BC80000810B5054800F037FA33
:105910000449486008B1002010BD4FF0FF3010BDB1
:10592000AC8000082000002010B5002211460120A4
:1059300000F0A8FA0149886010BD00002000002096
:105940002DE9F04381461E46401E85B06FF00803E6
:10595000F72814D2501E7D2811D286B1080A8DF87E
:105960000C008DF80D10100A8DF80E0000208DF837
:105970000F208DF8100005468046104F18E018469D
:1059800005B0BDE8F08304A90096CDE901810423A8
:1059900003AA0321484600F053F80400F0D0E01CAD
:1059A00001D0201D07D10A2000F084F96D1CEDB252
:1059B0003879A842E7D22046E2E700002C00002018
:1059C0002DE9F04381461E46401E85B06FF0080366
:1059D000F72814D2501E7D2811D286B1080A8DF8FE
:1059E0000C008DF80D10100A8DF80E0000208DF8B7
:1059F0000F208DF8100005468046104F18E018461D
:105A000005B0BDE8F08304A90096CDE90181042327
:105A100003AA1946484600F013F80400F0D0E01C31
:105A200001D0201D07D10A2000F044F96D1CEDB211
:105A30003879A842E7D22046E2E700002C00002097
:105A40002DE9FF4FA1B0784D8046DDE92E9BDDF8B2
:105A5000C0A0764C68681F460E4620B14FF0FF315B
:105A600000F064F938B1A068401CA0604FF0FF302E
:105A700025B0BDE8F08FA86848B38DF800808DF898
:105A800001603A460DF102002399FAF72AFCB81C8E
:105A900081B26846FFF722FF0DEB07018870000A0C
:105AA000C8700021A86800F0BFF95F483F1D0C30A6
:105AB000B9B20268684600F07FFF88B1686800F0FC
:105AC00092F9A068401CA0606FF00100D0E7686800
:105AD00000F089F9A068401CA0606FF00900C7E7DA
