:020000040800F2
:10000000107800205D02000817510008513E0008DA
:10001000155100081D1200083162000800000000A0
:100020000000000000000000000000009D0100082A
:100030003D13000800000000F90100080D540008FD
:1000400077020008770200087702000877020008AC
:10005000770200087702000877020008770200089C
:10006000770200087702000877020008770200088C
:10007000211200082D12000839120008451200084C
:10008000511200085D12000877020008770200088C
:10009000770200087702000877020008770200085C
:1000A000770200087702000877020008770200084C
:1000B000770200087702000877020008613E000816
:1000C000553E000877020008770200086D530008CB
:1000D0007953000825610008A5610008B161000896
:1000E000770200087702000877020008770200080C
:1000F00077020008770200087702000877020008FC
:1001000077020008215100087702000877020008F2
:10011000855C0008770200089957000877020008FC
:1001200077020008691200087512000877020008BB
:1001300077020008000000000000000077020008BD
:1001400077020008770200087702000877020008AB
:1001500077020008811200088D120008256200084D
:10016000770200087702000877020008770200088B
:10017000770200087702000800000000000000007D
:100180007702000877020008DFF80CD000F084FE48
:1001900000480047557A0008107800202C4B196859
:1001A0000868B0E8F04F80F30988BFF36F8F4FF015
:1001B000000080F3118870470000000008480068C4
:1001C000006880F308884FF0000080F3148862B65E
:1001D00061B6BFF34F8FBFF36F8F00DF00BF00BF6B
:1001E00008ED00E0DFF80C00016841F470010160E7
:1001F000704700BF88ED00E0EFF30980BFF36F8F19
:10020000134B1A681EF0100F08BF20ED108A20E96A
:10021000F04F106009B44FF0500080F31188BFF325
:100220004F8FBFF36F8F0BF0C5FD4FF0000080F3D1
:10023000118809BC19680868B0E8F04F1EF0100F6B
:1002400008BFB0EC108A80F30988BFF36F8F704746
:1002500094000020EFF305807047000006488047B7
:1002600006480047FEE7FEE7FEE7FEE7FEE7FEE79B
:10027000FEE7FEE7FEE7FEE7C55400088901000837
:100280002DE9F05F0546002092469B4688460646CB
:10029000814640241BE0284641464746224600F05E
:1002A0002EFC53465A46C01A914110D311461846A7
:1002B000224600F015FC2D1A67EB01084F46224636
:1002C0000120002100F00CFC17EB00094E41201E1C
:1002D000A4F10104DFDC484631462A464346BDE826
:1002E000F09FA0F14101192900D82030704740EA61
:1002F00001039B0703D009E008C9121F08C0042AA4
:10030000FAD203E011F8013B00F8013B521EF9D28A
:100310007047D2B201E000F8012B491EFBD27047B2
:100320000022F6E710B513460A4604461946FFF7C1
:10033000F0FF204610BD421E12F8013F002BFBD1FA
:1003400011F8013B02F8013B002BF9D17047421C28
:1003500010F8011B0029FBD1801A704710B500224C
:1003600000E0521C835C8C5CA34201D1002BF8D1CD
:10037000D8B2E1B2401A10BD034611F8012B00F8C3
:10038000012B002AF9D11846704730B505460020E8
:10039000034600E05B1C934205D2EC5CC85C201A6B
:1003A00001D1002CF6D130BD0FB400B58DB010A92D
:1003B00009900B9000914FF0FF300A9000200C90B4
:1003C00005480690054807906A4609A80F9900F06D
:1003D000BFFB0DB05DF814FB6D0B00088B0B000824
:1003E0002DE9FF4F087881B09946FF2805D0491CB8
:1003F0002D2804D00024002308E000230BE0012472
:10040000F9E703EB830300EB4303491C0878FF285B
:10041000F7D104B15B4200200090147801462D2CE6
:1004200001D02B2C04D1521C2D2C12D0002400946E
:1004300000251678FF2E0ED00A24A0FB04C801FB6D
:100440000481002700FB0711521C16EB0C006941C8
:10045000EFE70124EBE7994450EA01020ED00024B3
:10046000AA4D2646DFF8A88200F0F1FC82468B46B2
:10047000B9F1000009DAC9F100071BE00198002179
:10048000C0E9001105B0BDE8F08F074612E0F8079B
:1004900007D022462B463046414600F0E4F9064696
:1004A000884622462B461046194600F0DCF90446E1
:1004B0000D467F10002FEAD1B9F1000F32464346B6
:1004C0005046594602DA00F053FC01E000F0CBF947
:1004D000009A0AB181F00041019AC2E90001D1E716
:1004E0002DE9FF4F1F468DB0D7E901464FF0FF3889
:1004F0002E2045464FF000090B90B9696D1C0E98EF
:100500008847396A824688470028F6D1BAF1FF3F0A
:100510000AD024F4D064002E11DDBAF12B0F08D0DC
:10052000BAF12D0F0BD102E0404611B0ABE744F415
:100530008064B9696D1C0E9888478246761E6946AC
:10054000600501D52D2000E02B208DF8000001F181
:10055000010B0DF1200809E0B9696D1C0E98884760
:1005600082460F9844F40074761E0560002E02DD6A
:10057000BAF1300FF0D00B998A453ED144F0800497
:1005800006E00F99681CA9F1010944F400740860A1
:10059000B9696D1C761E0E98884782463028F0D0C7
:1005A0002BE00B998A4505D1200603D444F0800442
:1005B000761E18E0504605F0A9FF08B30DF11301AF
:1005C000761E44F400748B4508D2AAF130000BF873
:1005D000010B200607D5A9F1010003E0200602D493
:1005E00009F101008146A00502D50F99681C086039
:1005F000B9696D1C0E9888478246002ED1DC53E005
:10060000002E51DDBAF1650F02D0BAF1450F4BD182
:10061000A00549D5B9696D1C24F44074761E0E9866
:1006200088478246002E0CDD2B2804D0BAF12D0F0E
:1006300007D144F48074B9696D1C0E9888478246CE
:10064000761EE00501D52D2100E02B2108F8011BC5
:10065000CDF82C8021E00DF12901761E44F40074C0
:1006600088450CD2AAF1300010F0FF0088F8000095
:1006700002D10B99884509D908F1010806E0E00587
:1006800001D5244801E042F20F708146B9696D1C22
:100690000E98884782460F980560002E04DD50466C
:1006A00005F034FF0028D6D1F9690E988847FF205D
:1006B0008BF8000088F800000020069007904B4659
:1006C0006A4608A906A8FFF78BFEA00502D46FF0C2
:1006D00001002AE714F0240F0AD0E00714D1DDE965
:1006E00006123868031D3B600068C0E900120BE089
:1006F000DDE9060100F0C2F90146E00704D13868DF
:10070000021D3A600068016028460EE700002440A0
:100710000000F03FF1D8FFFF2DE9FE4F804681EA4F
:100720000300C00F0C46009021F0004123F000456B
:10073000B8EB0200A94105D24046214690461C462E
:100740000B46024623F00040104347D0270DC7F365
:100750000A00C3F30A510290401A019040286BDA54
:10076000C3F3130040F4801B0098924620B100238D
:10077000D2EB030A63EB0B0B01985946C0F1400220
:10078000504600F0ADF906460D4650465946019ACE
:1007900000F0C5F910EB08006141002487EA11520E
:1007A00084EAE7731A4340D0009A62B3019A012A9F
:1007B0004FEA075215DC001B61EB02014FF00042CB
:1007C00002EA0752CDE90042001C41F58011324691
:1007D0002B4600F07FFA03B0BDE8F08F404621467B
:1007E000F9E7001B61EB0201001C41F580130018C2
:1007F0005B412018A2F5001747EB030140EAD570D2
:10080000B6196D4111E06D084FEA360645EAC0752C
:100810004FEA0752001B61EB0201001C41F58011F9
:1008200049084FEA30000019514132462B4603B0C7
:10083000BDE8F04F00F03FBA0098012240000023CD
:10084000D0EB020263EBE073009821464FEAE074BC
:10085000B8EB000061EB0401E9E783F000435BE7DC
:1008600081F0004158E72DE9FE4F81EA030404F0CE
:10087000004421F0004100944FF0000B23F00043AE
:1008800050EA01045ED052EA03045BD0C3F30A5479
:10089000C1F30A552C44A4F2F3340194A0FB025492
:1008A000C1F3130141F48011C3F3130343F4801324
:1008B00001FB024400FB034E840A970A44EA815478
:1008C00047EA8357A4FB076802958D0A05FB078555
:1008D0004FEA932C04FB0C542705029D4FEA06585F
:1008E00047EA1637B5EB08056EEB070C870E920E3C
:1008F00047EA811742EA8312A7FB0201B6EB0B011C
:1009000064EB00042B0D43EA0C335E1844EB1C50DF
:10091000DA465146E7FB0201C5F313044FEA0B33F5
:1009200043EA14534FEA0432019C43EA0603A4F15C
:100930000C040294009CCDE900B400F0CBF903B0A4
:10094000BDE8F08F00200146F9E70EB5C10F80EA3F
:10095000E0700844CA07002140F233438DE80E00DE
:100960000A460B4600F0B6F903B000BD0EB540F2E2
:10097000334102910021CDE900110A460B4600F0F7
:10098000A9F903B000BD70B5C1F30A5201F00045EA
:100990000024C1F3130140F2FF3341F480119A4265
:1009A00001DA002070BD40F233439A42A2F2334292
:1009B00003DC524200F0A3F800E090402C43F1D059
:1009C000404270BDC1F30A5210B5C1F3130140F2A9
:1009D000FF3341F480119A4201DA002010BD40F249
:1009E00033439A42A2F2334203DC524200F087F8CA
:1009F00010BD904010BD00F0004230F000400AD021
:100A0000C10D01F56071C0F3160042EA0151C20840
:100A100040071143704700200146704730B5041E5F
:100A200071F1000404DB4FF00044404264EB01012B
:100A3000141E73F1000405DB1C464FF000435242C4
:100A400063EB04038B4208BF824230BD30B5041E05
:100A500071F1000404DB4FF00044404264EB0101FB
:100A6000141E73F1000405DB1C464FF00043524294
:100A700063EB0403994208BF904230BD01F000438C
:100A800030B421F0004150EA010206D00A0DA2F56F
:100A90006072C1F31301002A02DC30BC00207047F1
:100AA000440F44EAC104C100E01830BC00EBC2505E
:100AB00000F0CAB830B50B460146002020220124C0
:100AC00009E021FA02F59D4205D303FA02F5491B1C
:100AD00004FA02F52844151EA2F10102F1DC30BD32
:100AE000202A04DB203A00FA02F1002070479140EE
:100AF000C2F1200320FA03F3194390407047202AE3
:100B000004DB203A21FA02F00021704721FA02F3B7
:100B1000D040C2F120029140084319467047202A74
:100B200006DBCB17203A41FA02F043EAE07306E015
:100B300041FA02F3D040C2F1200291400843194625
:100B4000704700000268114413780160184670472E
:100B5000D1600449516104491162002111611146BB
:100B600000F0B2B9450B0008BD0E0008426842B162
:100B7000016811F8013B23B1521EC0E9001218466A
:100B800070470121C160881E704742685AB1C3682E
:100B9000016843B983688B4205D0491E521CC0E9E5
:100BA0000012002070474FF0FF3070470FB4002351
:100BB00000B589B00CA900910B996FF00042CB6091
:100BC0001E4B06931E4B07930423CDE901321D4AA9
:100BD000089202466B460020FFF782FC09B05DF8E0
:100BE00014FB70B586B006464FF0FF300091CDE99A
:100BF0000101002015460C4604903246694604A8BF
:100C0000FFF7D4FF03460498211825B108B10A461E
:100C100000E022462A6000280DD0002B02DD00985B
:100C2000884208D0081B0094CDE901043246694689
:100C300004A8FFF7BBFF06B070BD00006D0B0008F5
:100C40008B0B0008BD0E00080029A8BF7047401C90
:100C5000490008BF20F00100704710B4B0FA80FCD2
:100C600000FA0CF050EA010404BF10BC704749B10F
:100C7000CCF1200421FA04F411FA0CF118BF01217F
:100C800021430843A3EB0C01CB1D4FEA00614FEA5F
:100C9000102042BF002010BC704700EBC35010442E
:100CA0000029A4BF10BC7047401C490008BF20F0B9
:100CB000010010BC704710B5141E73F1000408DA6F
:100CC000401C41F1000192185B411A4301D120F010
:100CD000010010BD2DE9F04D92469B4611B1B1FACD
:100CE00081F202E0B0FA80F220329046FFF7F8FE7F
:100CF00004460F4640EA0A0041EA0B0153465A46B1
:100D0000084313D0114653EA010019D0C8F140023C
:100D10005046FFF7F4FE05460E46504659464246F9
:100D2000FFF7DEFE084305D0012004E020463946E7
:100D3000BDE8F08D0020054346EAE0762C433743BA
:100D40000A986305E40AA0EB08000022FD0A44EAC1
:100D500047540A3002D500200146E9E70105101981
:100D60006941DDE9084500196941BDE8F04DA2E798
:100D70002DE9F04D81EA030404F0004B21F0004519
:100D800014464FF0000A23F0004150EA050220D03B
:100D900054EA01021DD0C5F30A570246C5F31303F6
:100DA000C1F31300C1F30A5640F4801543F48013D5
:100DB000A7EB0608101BD64608F2FD3873EB0500BA
:100DC00002D308F1010801E092185B41B8F1000F6D
:100DD00003DA00200146BDE8F08D00204FF48011B9
:100DE000064684460EE0171B73EB050705D3121B5E
:100DF00063EB050306434CEA010C49084FEA300057
:100E000092185B4150EA0107EDD152EA030012D07B
:100E100082EA040083EA0501084305D0101BAB41B8
:100E200006D20122002306E000224FF0004302E038
:100E30006FF0010253101AEB06004CEB085110EB57
:100E40000A0041EB0B01BDE8F04DFFF734BF0EB5D2
:100E500040F2334202920022CDE900221346FFF70E
:100E600039FF03B000BDC1F30A52C1F3130140F2D0
:100E7000FF3341F480119A4202DA002001467047A4
:100E800040F233439A42A2F2334202DC5242FFF76D
:100E900036BEFFF725BE0000064C074D06E0E068B1
:100EA00040F0010394E8070098471034AC42F6D3B1
:100EB000FFF76EF9FCD200081CD30008C0B24FF453
:100EC000F05100F097B900002DE9F34F8BB04FF0CF
:100ED000000801F10C000C464FF0010B46460DF1E5
:100EE000080A01906269012101989047051E2DD0E2
:100EF000252D2CD0216A8847C0B162690121019853
:100F00009047216A88470028F7D1411E62690198FD
:100F1000904700E0761CA1690B988847216A8847B2
:100F20000028F7D1E1690B988847DBE7A1690B98A6
:100F300088470746A84201D1761CD3E7E1690B98A0
:100F400088477F1C02D1B8F1000F6FD046E100271F
:100F500062693D463946019890472A2804D1626962
:100F60000121019890470125DFF8849262690121EF
:100F700001989047A0F130010A290AD24F45E5DCDB
:100F800007EB870100EB4107303FDFD445F0100548
:100F9000ECE7E90601D46FF000476C280AD04C2832
:100FA00014D0682815D06A280DD074281CD07A284F
:100FB0001AD01DE062690121019890476C2802D087
:100FC00045F0040514E045F002050DE045F020056C
:100FD0000AE06269012101989047682802D045F033
:100FE000080505E045F40065626901210198904714
:100FF000C4E9015765283DD019DC58287AD00CDCAB
:10100000452837D004DC252826D0412831D131E0CD
:1010100046282FD047282CD12CE05B2877D0612898
:1010200028D063287CD0642823D15AE0D0E06F28F0
:1010300048D008DC66281DD067281BD0692821D03D
:101040006E2816D127E0702845D0732868D07528FF
:1010500047D078280DD14DE0A1690B988847054607
:1010600025283FF469AFE1690B9888476D1C3FF470
:101070006AAFB3E023466A466FF001000B99FFF7B1
:101080002FFA9EE045F040006060A80723464FF02D
:10109000000236D43EE0E8077FF447AF2068011D28
:1010A00021600068290501D506701BE7290701D5D5
:1010B000068017E7A90703D5F117C0E9006111E71A
:1010C00006600FE745F040006060A80723464FF038
:1010D000080216D41EE040F60E0125EA0100606009
:1010E00016E045F040006060A80723464FF00A0272
:1010F00007D40FE045F040006060A80708D52346FC
:1011000010226FF001000B99AFF3008059E007E067
:10111000234610226FF001000B99AFF3008050E0DE
:101120004FF000094F464B46632802D05B2806D09B
:1011300040E0E80601D40120A06001273AE062699E
:101140000121019890475E2805D14FF0010962699D
:10115000494601989047216939B900210A4653460A
:1011600043F82120491C0829FADBB0B3216969B989
:10117000C11700EBD16253110AEB830122F01F0269
:10118000821A01200B68904003430B6062690121C1
:10119000019890475D28E8D1B9F1000F09D00020EF
:1011A000514651F82020D24341F82020401C082805
:1011B000F7DB02AB224600976FF001000B99AFF30B
:1011C000008000280CDA401C08D1BBF1000F05D0CC
:1011D0004FF0FF300DB0BDE8F08FFFE74046F9E774
:1011E000E90701D108F1010806444FF0000B79E648
:1011F000CCCCCC0C7F2801D9002208E0064A02EBB7
:101200005002C007127800D1120902F00F0201202B
:10121000904008407047000030D10008FEE7000011
:10122000014800F0EFB8000054230020014800F00E
:10123000E9B8000014210020014800F0E3B80000E4
:10124000F4220020014800F0DDB80000B4200020A6
:10125000014800F0D7B8000094220020014800F0B7
:10126000D1B8000034220020014800F0CBB80000C3
:1012700014240020014800F0C5B8000074210020AB
:10128000014800F0BFB80000B4230020014800F07E
:10129000B9B80000D421002001681823CAB2103A5E
:1012A000B2FBF3F2054B6FF30901032A9B5CC365A4
:1012B00000D9091D816508467047000010D100085B
:1012C00010B5014600208B698A6A4FF0C07453B193
:1012D000B3F5005F15D072B1012A0CD0022A0AD0F2
:1012E000032A09D104E01AB1012A06D0022A03D147
:1012F000C96AC90100D5012010BDC96AA142FAD04E
:1013000010BD002AF7D0012AF2D0022AF3D0032A16
:10131000F3D010BD30B50468256825F4802525601C
:10132000046863608368402B036803D09960006899
:10133000C26030BD9A600068C16030BD704772B64F
:10134000FEE72DE9F0410446876D00F0DDFA064620
:1013500094F835000025022806D08020606584F8C6
:1013600034500120BDE8F0812068016821F01601A9
:1013700001602068416921F080014161206C08B959
:10138000A06C20B12068016821F00801016020688C
:10139000016821F0010101600CE000F0B5FA801B4A
:1013A000052807D920206065032084F8350084F8DB
:1013B0003450D7E720680068C007EED194F85C107D
:1013C0003F208840B860012084F8350084F834500C
:1013D0000020C7E790F83510022903D0802141652D
:1013E00001207047052180F835100068016821F060
:1013F0000101016000207047406D704790F8350092
:10140000704700002DE9F84304464FF00009CDF87D
:10141000009063484FF41651A56D0068B0FBF1F7DA
:101420002E6894F85C10082000FA01F131420FD0C8
:1014300021680A6852070BD50A6822F004020A6084
:1014400094F85C108840A860606D40F00100606511
:1014500094F85C104FF0010808FA01F0304208D00F
:1014600021684969090604D5A860606D40F0020052
:10147000606594F85C1004208840304208D02168F0
:101480000968890704D5A860606D40F004006065B4
:1014900094F85C1010208840304218D02168096808
:1014A000090714D5A86020680168490304D50068BD
:1014B000000308D5A16C07E00168C90503D40168E1
:1014C00021F008010160216C09B12046884794F899
:1014D0005C1020208840304231D021680968C9065C
:1014E0002DD5A86094F8350005282068016806D03D
:1014F000490347D5006800031DD4616C1CE021F04E
:10150000160101602068416921F080014161206C71
:1015100008B9A06C20B12068016821F008010160C1
:1015200094F85C103F208840A86084F8358084F8E7
:101530003490216D1FE0E16B09B120468847606D52
:1015400000282BD0606DC00714D0052084F835002A
:101550002068016821F0010101600098401C0090A2
:10156000B84203D820680068C007F6D184F83580F7
:1015700084F83490E16C002910D001B02046BDE819
:10158000F04308470168C905D5D4016821F010016E
:10159000016084F8358084F83490CCE7BDE8F883A6
:1015A000900000202DE9F041044600F0ADF9064618
:1015B0005CB1022084F83500002584F8345020689E
:1015C000016821F0010101600DE00120BDE8F0811A
:1015D00000F09AF9801B052805D9202060650320BA
:1015E00084F83500F2E720680068C007F0D122686F
:1015F000116820480140D4E901031843D4E90336B7
:101600003343184363691843A3691843E3691843D4
:10161000236A18430843616A042903D1D4E90B13F0
:1016200019430843106020684069666A20F007018A
:1016300030460E43012704280CD1A06A0643E06A15
:1016400040B12046FFF73CFE20B14020606584F8A1
:101650003570BAE7206846612046FFF71DFE94F812
:101660005C203F2191408160656584F835700020E1
:10167000ACE700003F8010F02DE9F0410446866D94
:1016800090F83400002501280DD0012084F83400A2
:1016900094F835700020012F07D084F8340002251B
:1016A0002846BDE8F0810220FBE7022784F8357068
:1016B00060652046FFF72EFE94F85C103F208840BE
:1016C000B0602068016841F016010160206C20B113
:1016D0002068016841F0080101602068016841F05C
:1016E00001010160DCE7000070B5044600F00CF970
:1016F0000546601C02D004480078044400F004F958
:10170000401BA042FAD370BD840000202DE9F84FA1
:10171000DFF8BCA10022012503264FF00F090AF1D2
:10172000040BAAF1040E00BF0B6805FA02F4234073
:10173000A34270D10F7907F00307012F01D0022FC8
:1017400016D187684FEA420806FA08FC27EA0C0718
:10175000D1F80CC00CFA08FC4CEA070CC0F808C021
:101760004768A7430C79C4F3001494403C43446099
:101770000C79E443A4070AD0C4684FEA420C06FA85
:101780000CF7BC438F6807FA0CF72743C7600C7946
:1017900004F00304022C12D1D40800EB840CDCF812
:1017A00020405707FF0E09FA07F824EA0804D1F889
:1017B000108008FA07F848EA0408CCF8208004688A
:1017C0004FEA420C06FA0CF7BC430F7907F0030707
:1017D00007FA0CF7274307604C6814F4403F70D0B9
:1017E0003C4C276847F480472760246822F00307B1
:1017F00004F480440094384C07EB040CDCF80848EF
:1018000097074FEA177809FA08F7BC43334FB842F5
:1018100002D1002724E054E0314FB84201D1012722
:101820001EE0304FB84201D1022719E02E4FB842D6
:1018300001D1032714E02D4FB84201D104270FE056
:101840002B4FB84201D105270AE02A4FB84201D1F7
:10185000062705E0284FB84201D1072700E00827F6
:1018600007FA08F72743CCF80878DAF8004057461B
:10187000D1F804C09C435FEACC2C00D51C433C60EB
:10188000DBF800405F46D1F804C09C435FEA8C2C33
:1018900000D51C433C60DEF800407746D1F804C018
:1018A0009C435FEA8C3C00D51C433C60084F083FDA
:1018B0003C68D1F804C09C435FEACC3C00D51C4393
:1018C0003C60521C102AFFF42FAFBDE8F88F0000D7
:1018D000083C014044380240003001400000024012
:1018E0000004024000080240000C024000100240C8
:1018F0000014024000180240001C02400AB181613D
:1019000070470904FBE70000014880687047000049
:1019100084000020704770472DE9F04101680446BB
:101920004A694E6890F83E000025D743FA0506D470
:10193000F243D20503D46FF4807201254A61B905E0
:1019400008D4F143C90505D422686FF4007145F04D
:1019500002055161790525D4F143C90522D4638D6F
:1019600094F83D10226B202808D13BB9212910D0D2
:1019700029290ED0282901D1212A0AD022686FF402
:101980008061516145F00405102806D0402804D03C
:1019900008E0204602F034FF04E02068016841F4CA
:1019A00000710160380508D4F043C00505D42168F2
:1019B0006FF4006045F008054861002D07D0206CE9
:1019C000284320642046BDE8F04102F0B5BABDE8E6
:1019D000F0812DE9F047026800215368C66A90F84B
:1019E0003E4090F83D50102C12D0402C10D0046C8A
:1019F000002C7DD05469E443A6077AD4DE43B605B3
:101A000077D4036C03B19169BDE8F04702F0D4BE0E
:101A1000976951694FF42A0CC9435FEAC1784FF0C6
:101A20002A4904D066452AD04E4528D010E0DE432E
:101A3000B6050DD4C16A614501D1012103E0C16A37
:101A4000494501D10821C162BDE8F04702F048BD17
:101A50000E0716D4DE43B60513D4416CC9B211612A
:101A6000416B09B1C96B29B9816B002907D0C96BDA
:101A7000002904D00068416841F400614160BDE87C
:101A8000F0878E0706D4DE43B60503D4BDE8F047E1
:101A900002F09ABCFE43526876074FEA02521DD408
:101AA000002AECDB0A0608D4DA43520505D44907BC
:101AB00005D5BDE8F04702F02BBC4907DFD4D94378
:101AC0008905DCD4212D05D0402CD8D1BDE8F047C4
:101AD00002F04CBDBDE8F04702F0D8BB002ACEDBD7
:101AE0004A060BD4DA43520508D4490708D501E069
:101AF0000DE00EE0BDE8F04702F04EBB4907BED452
:101B0000D9438905BBD4BDE8F04702F0D8BA916942
:101B100070E7E10606D4D943890503D4BDE8F04750
:101B200002F0B6BE2821212D27D0292D25D065060B
:101B300055D4DD436D0552D4640752D590F83D303D
:101B4000448D002C9BD01269446A2270426A521C58
:101B50004262428D521E4285428D002A8FD12A2B2D
:101B60008DD10268536823F480635360222202639C
:101B700080F83D1000F0EEFA81E7250623D4DD431E
:101B80006D0520D4640720D590F83D30448D002C9D
:101B9000F2D0446A24781461426A521C4262428D37
:101BA000521E4285428D002AE6D1292BE4D10268DB
:101BB000536823F4806353602122026380F83D1050
:101BC00000F0C9FA5BE76107D6D4D9438905D3D4BD
:101BD000418D0029D0D0416A097811610AE061077E
:101BE000CAD4D9438905C7D4418D0029C4D011690D
:101BF000426A1170416A491C4162418D491E41850A
:101C00003DE7704770B5040025D094F83D000025ED
:101C100020B984F83C50204600F058FA242084F87B
:101C20003D002068016821F0010101602068016821
:101C300041F4004101602068016821F40041016025
:101C400000F044FC4D4A6168914201D84C4900E0E3
:101C50004C49884201D2012070BD4B492368B0FB3A
:101C6000F1F15E6826F03F060E435E6063689342C2
:101C700006D94FF4967359434FF47A73B1FBF3F1DD
:101C80002368491C1E6A26F03F06314319626168C9
:101C9000914210D84900401EB0FBF1F2521CC2F331
:101CA0000B02042A01D2042022E0B0FBF1F0401C18
:101CB000C0F30B001CE0A268F2B301EBC10303EB1D
:101CC0000116431EB3FBF6F35B1C43F480431B0574
:101CD00049D092B301EBC10202EB0111401EB0FBEF
:101CE000F1F0401CC0F30B0040F4804040F4004091
:101CF0002168CA694CF6FF739A431043C861D4E95E
:101D0000071001432068026822F0C00211430160FD
:101D1000D4E9030101432068826848F2FF339A4303
:101D200011438160D4E9050108432168CA6822F0A3
:101D3000FF021043C86001E00EE016E02068016871
:101D400041F0010101602564202084F83D002563F5
:101D500084F83E50002070BD01EB4106431EB3FBEA
:101D6000F6F35B1CB3E70120C2E701EB4101401E23
:101D7000B0FBF1F0401CC0F30B00B7E7A0860100F8
:101D800080841E0000093D0040420F0070477047EC
:101D900070477047704700002DE9FF4F83B09A46A7
:101DA000DDE9118793460446DDF84090FFF7ACFD6E
:101DB000054694F83D00202870D11923012274496A
:101DC0002046009502F03EFE0028F5D194F83C0034
:101DD000012863D0012084F83C0020680168C9070D
:101DE00003D1016841F0010101602068016821F41C
:101DF00000610160222084F83D00402084F83E000C
:101E000000262664C4F82490A4F82A80608D2085DA
:101E10006048E062CDE9007553465A462046049971
:101E200002F0F8FB002879D1208DD0B1012821D013
:101E30000228206824D0416980690090208D032801
:101E400066D801282BD0544902283B464FF00002A7
:101E5000009557D08846204602F0F4FD00285DD159
:101E60003AE02068416981690091016841F400719C
:101E700001607DE02068016821F480610160F0E785
:101E8000016821F4806101602068016841F400610B
:101E90000160206841698069009069E075E02A4628
:101EA0003946204602F074FE88BB54E02068016881
:101EB00041F40071016020680069616A0870606A1D
:101EC000401C6062218D491E2185618D491E6185FE
:101ED00021680969017042E02068016821F480618D
:101EE000016020680069616A0870606A401C606275
:101EF000208D401E2085608D401E60853B4600225F
:101F000041460095204602F09DFD00B9CEE705E070
:101F10002A463946204602F03BFE18B1012007B0A0
:101F2000BDE8F08F20680069616A0870606A401C33
:101F30006062208D401E81B22185608D401E6085CB
:101F400020684269D243520712D4032903D10168A1
:101F500021F48061016020680069616A0870606A2C
:101F6000401C6062208D401E2085608D401E608573
:101F7000208D00287FF462AF202084F83D0084F893
:101F80003E6084F83C600020C9E70220C7E70000FB
:101F9000020010000000FFFF040001002DE9FF4FC8
:101FA00083B09A46DDE9119793460446DDF84080F8
:101FB000FFF7AAFC054694F83D0020287FD119239D
:101FC000012240492046009502F03CFD002876D1D0
:101FD00094F83C00012872D0012084F83C0020686D
:101FE0000168C90703D1016841F00101016020685F
:101FF000016821F400610160212084F83D00402047
:1020000084F83E0000262664C4F82480A4F82A90B0
:10201000608D20852C48E062CDE9007553465A4614
:102020002046049902F074FB70B930E02A46394624
:10203000204602F0E5FD58B1206C042804D1206848
:10204000016841F400710160012007B0BDE8F08F24
:10205000606A216800780861606A401C6062218DB6
:10206000491E89B22185628D521E6285226853699C
:10207000DB435B070BD469B100781061606A401CD8
:102080006062208D401E2085608D401E6085208D01
:102090000028CBD12A463946204602F0A7FC00286A
:1020A000CAD154F83D0B016841F400710160202051
:1020B00004F81E09E67766770020C6E7FFE70220EE
:1020C000C3E70000020010000000FFFF10B586B05B
:1020D000044614216846FEF723F91B49206888420C
:1020E00030D11A480021026842F002020260006802
:1020F00000F002000590C02000901220CDE90101FF
:10210000032003900420049069461148FFF7FEFA6B
:102110000E481030016841F400110160006800228F
:1021200000F40010059005211F2000F0E3F81F20A7
:1021300000F0D2F800220521202000F0DBF820205A
:1021400000F0CAF806B010BD00540040303802401C
:10215000000402407047704770B5040013D0216836
:102160004CF6CC400860216845F255500860D4E92F
:10217000000141602168A0688860FFF7C5FB054643
:1021800041F601060DE0012070BD00BFFFF7BCFB6A
:10219000401BB04205D92068C068800701D00320E9
:1021A00070BD2068C0688007F0D121684AF6AA2077
:1021B0000860002070BD00684AF6AA210160002076
:1021C00070470000024881680278114481607047BE
:1021D000840000200B4810B5016841F400710160D3
:1021E000016841F480610160016841F4807101601F
:1021F000032000F09FF80F2000F006F800F050F8E0
:10220000002010BD003C024030B505461F4887B095
:102210000024016841F010010160006806A900F087
:102220001000009001A800F031F90498A8B100F066
:102230004DF940001649174AB0FBF1F11648491E06
:10224000026040F2E732C0E90324C0E9011484616E
:1022500000F030FE040003D015E000F037F9E9E7A4
:102260000D4800F089FE04000DD1362000F034F84E
:10227000102D07D200222946362000F03BF80748EF
:10228000056000E0012407B0204630BD4038024020
:1022900040420F0000100040F42800208800002079
:1022A0000C4882B0016841F480410160006800F48C
:1022B000804000900748001F016841F08051016094
:1022C0000068002200F0805000900F21901E02B0A4
:1022D00000F010B844380240002809DB00F01F026B
:1022E000012191404009800000F1E020C0F8001178
:1022F00070470000F0B40E4B1B680C46C3F302237A
:10230000C3F10705042D00D90425191D072901D2A1
:10231000002300E0DB1E012606FA05F1491E2140DC
:1023200099409E40761E16403143F0BC03F0A6BF94
:102330000CED00E0064900F0070208684FF6FF03C5
:10234000184040EA0220034A10430860704700002A
:102350000CED00E00000FA052DE9F0470E460500FF
:1023600065D0DFF81481D8F80000F7B200F007005C
:10237000B04207D288F80070D8F8000000F00700DB
:10238000B04254D128683D4C810712D5400703D58F
:10239000206840F4E05020602878000703D52068CA
:1023A00040F4604020602068A96820F0F0000843F5
:1023B00020602878C0072DD0304968680839012886
:1023C00012D0022813D0032811D0096889070029E8
:1023D0002DDA216821F0030101432160FFF794FA0F
:1023E000814641F2883A0EE009688903EFE70968FF
:1023F0008901ECE7FFF788FAA0EB0901514502D902
:102400000320BDE8F0872068696800F00C00B0EB9D
:10241000810FEFD1D8F80010404601F00701B1421A
:1024200007D90770006800F00700B04201D0012012
:10243000E7E72878400705D52068E96820F4E050F0
:10244000084320602878000706D52068296920F411
:10245000604040EAC100206000F058F82168084A56
:10246000C1F30311515CC840064908600648006882
:10247000FFF7CAFE0020C4E7003C024008380240D3
:1024800018D1000890000020880000200F22026070
:102490000C4A136803F003034360136803F0F0036E
:1024A0008360136803F4E053C36012684FF4E05391
:1024B00003EAD20202610448006800F007000860E5
:1024C0007047000008380240003C024004480549BB
:1024D00000680968044AC1F38221515CC840704712
:1024E000900000200838024028D10008044805491F
:1024F00000680968044AC1F34231515CC840704722
:10250000900000200838024028D10008154810B576
:10251000006810F00C02144813D04110042A0FD0A8
:10252000082A0ED10F4C241F2268236802F03F02B4
:102530005B0207D52068C0F38810A0FB010106E00C
:10254000084610BD2168C1F38811A1FB00010023DA
:10255000FDF796FE2168C1F30141491C4900B0FB1B
:10256000F1F010BD083802400024F4002DE9F84FC6
:1025700004006ED02078DFF84C93C007A9F1040561
:102580004AD009F104000168C1F38101012908D092
:102590000068C0F3810002280AD1D9F80000400287
:1025A00006D52868800337D560680028E1D033E07D
:1025B0006068B0F5803F10D0B0F5A02F286810D02B
:1025C00020F480302860286820F48020286060682B
:1025D000A8B1FFF799F906460DE0286840F480306D
:1025E000F4E740F480202860F7E700BFFFF78CF99C
:1025F000801B642873D828688003F7D50CE0FFF7A8
:1026000083F9064605E000BFFFF77EF9801B6428CA
:10261000F0D828688003F7D42078DFF8AC828007F0
:102620004FF0000A3ED5A748001D016811F00C0FBD
:1026300008D00068C0F3810002280BD1D9F800004F
:10264000400207D42868800716D5E068012800D129
:1026500012E033E1E068B8B10120C8F80000FFF7EC
:1026600053F9064605E000BFFFF74EF9801B02282C
:10267000C0D828688007F7D52868216920F0F800BD
:1026800040EAC10028600DE0C8F800A0FFF73CF95F
:10269000064604E0FFF738F9801B02281FD8286897
:1026A0008007F7D42078000722D5864F87486169D4
:1026B000703771B101210160FFF726F9064604E089
:1026C000FFF722F9801B022809D838688007F7D560
:1026D0000EE0C0F800A0FFF717F9064605E082E01B
:1026E000FFF712F9801B02287DD838688007F7D4DD
:1026F0002078400768D5DFF8CCB100270BF13C0B00
:10270000DBF80000C0000BD4DBF8001041F0805172
:10271000CBF80010DBF80000012700F0805000909B
:102720006B4E3068C00510D4306840F48070306063
:10273000FFF7EAF8009005E0FFF7E6F80099401A85
:10274000022850D83068C005F6D55E4EA0686C36B9
:1027500001280FD00528306810D020F0010030602B
:10276000306820F004003060A068B8B1FFF7CCF802
:1027700000900FE0306840F00100F4E740F0040002
:102780003060F7E7FFF7C0F80099411A41F288304E
:10279000814266D830688007F4D50EE0FFF7B4F8C0
:1027A000009007E0FFF7B0F80099411A41F2883035
:1027B000814256D830688007F4D42FB1DBF800107E
:1027C00021F08051CBF80010A069C8B33D49091D24
:1027D0000968C1F3810102294AD00228504607D076
:1027E000C8F8600000E03CE0FFF78EF804463BE0EC
:1027F0004746C8F86000FFF787F8064605E000BFC7
:10280000FFF782F8801B02282BD828688001F7D4B4
:10281000D4E907010843A16A2E4A490802EB0141A5
:10282000626A41EA8211084394F82C1040EA01617F
:10283000C9F8001001203866FFF766F8044606E084
:102840003EE000BFFFF760F8001B022809D82868A7
:102850008001F7D534E000BFFFF756F8001B0228CF
:1028600002D90320BDE8F88F28688001F4D427E05E
:102870000128F7D0D9F80000E26900F48001914204
:102880001CD1226A00F03F01914217D147F6C07176
:10289000626A0140B1EB821F10D1A26A4FF0FF3390
:1028A00000F4403103EB5202B1EB024F06D194F831
:1028B0002C1000F07060B0EB016F01D00120D1E767
:1028C0000020CFE70438024000004742800E474214
:1028D000007000400000FFFF7047704770B504466D
:1028E000B0F8500000250104206802F037FC18B150
:1028F000A16B0143A16304E00021206802F00CFCFD
:102900000546C5F3432070BDF8B5056B0446006865
:10291000416B09041BD5290719D5D4E90A56002EA5
:1029200014D00027206802F001FC05F8010B010A11
:1029300005F8011B010C05F8021B000E361F7F1C59
:1029400005F8010C082FEDD3C4E90A56F8BD416B18
:102950004FF00006C9054FF0010744D539028163E5
:102960002068C16B4CF23A329143C1632068C16A5E
:1029700021F00101C16228071DD515F0220F09D0F1
:10298000206802F005FC28B1A16B0143A163204639
:10299000FFF7A3FF216840F23A50886384F834704F
:1029A0002663A80703D0204600F0B2F8F8BD204601
:1029B00000F0AFF8F8BD2806FCD5A80609D52068B8
:1029C00002F0E6FB28B1A16B0143A1632046FFF7AB
:1029D00084FFA807EED12068C16A21F00801C16216
:1029E00084F83470E3E7416B490424D5290722D5E4
:1029F000D4E90856002EDDD05FF0000715F8010B72
:102A0000009015F8011B361F40EA0120009015F8D0
:102A1000021B40EA0140009015F8011C40EA0160E9
:102A200000906946206802F094FB7F1C082FE5D3D4
:102A3000C4E90856F8BD416B40F23A221142F9D080
:102A4000416B890703D5A16B41F00201A163416B82
:102A5000090703D5A16B41F00801A163416B890609
:102A600003D5A16B41F02001A163416BC90603D5D9
:102A7000A16B41F01001A163416B890503D5A16BE6
:102A800041F00801A16340F23A7181632068C16B93
:102A900040F23A329143C163206802F079FBA16BA6
:102AA0000843A063280706D584F8347026632046BF
:102AB000FFF713FFF8BD2806FCD515F0300F0CD03A
:102AC000E16B11480865E06BFEF784FC0028F1D04B
:102AD000E06BBDE8F84002F027BCA8070CD0216CE1
:102AE0000A480865206CFEF775FC0028E2D0206CCF
:102AF000BDE8F84002F0F6BBA66384F834702663A4
:102B00002046FFF7E9FEF8BD29530008E55200080A
:102B1000704770477047000038B5016804464A683E
:102B20008868C043430606D5C30704D1D3435B0678
:102B300001D4216C05E0830708D4D3431B0605D4D8
:102B4000616C01B02046BDE830400847830603D5DC
:102B5000430601D5C30551D4D3439B064ED4430647
:102B60000AD494F85130032B49D0636D43F0040329
:102B70006365CB688B680093830609D4636D43F06B
:102B8000010363658B6800930B6823F040030B60BF
:102B9000C00506D4606D40F008006065206880685C
:102BA0000090606D002829D02068416821F0E00184
:102BB0004160012084F85100900701D4D00722D051
:102BC0002068416821F003014160114DE06C40B183
:102BD0000565E06CFEF7FEFB18B1606D40F040004B
:102BE0006065A06C002809D00565A06CFEF7F2FBBB
:102BF000002803D0606D40F04000606538BDC868B3
:102C00008868009038BD2046FFF784FF38BD00007B
:102C10008553000870B5040009D0606A002540B1F2
:102C200025616561A56294F8510040B10CE0012076
:102C300070BD6068B0F5827FF4D0E561F2E784F89A
:102C40005050204600F044F8022084F851002068DB
:102C5000016821F040010160A088218900F48270A0
:102C600001F404410843A18901F400610843217C77
:102C700001F002010843217D01F001010843218B8D
:102C800001F400710843217F01F03801084394F8F2
:102C9000201001F080010843218D01F40051084308
:102CA00021680860A069042101EA104094F824100A
:102CB00001F010010843216848602068C16921F4CF
:102CC0000061C1616565012084F85100002070BD7C
:102CD0002DE9F04186B0044614216846FDF720FB3B
:102CE000354A216800243548022503260527DFF8E8
:102CF000D080914234D1314914310A6842F4805273
:102D00000A60096801F480510591016841F00101F0
:102D10000160016801F001010591016841F00201C3
:102D20000160006802AA00F0020005909020CDE941
:102D3000000582E8D00069462248FEF7E7FC08203B
:102D4000CDE9000502AA694682E8D0004046FEF7B8
:102D5000DDFC002205212320FFF7CCFA232025E00B
:102D6000194A914224D1154910310A6842F480422F
:102D70000A60096801F480410591016841F002018F
:102D80000160006802AA00F0020005904FF4704054
:102D9000CDE9000582E8D00069464046FEF7B6FC62
:102DA000002205212420FFF7A5FA2420FFF794FA3A
:102DB00006B0BDE8F081000000300140303802402C
:102DC0000004024000000240003800407047704795
:102DD00010B590F83C20012A22D0012280F83C2036
:102DE000CA688C6822F4407222434C6822F48062E4
:102DF00022430C6822F4006222430C6922F48052C0
:102E000022434C6922F400522243C969002322F470
:102E100080420A4301684A6480F83C30002010BDBB
:102E2000022010BD70B590F83C20012A32D0012458
:102E300080F83C40022280F83D2003685A689D6873
:102E400022F070060A6832435A60134B02689A42B5
:102E500014D0B2F1804F11D0104B9A420ED0104BCB
:102E60009A420BD00F4B9A4208D00F4B9A4205D092
:102E70000E4B9A4202D00E4B9A4204D1496825F07B
:102E800080031943916080F83D40002180F83C1098
:102E9000084670BD022070BD0000014000040040E3
:102EA00000080040000C00400004014000400140C8
:102EB0000018004010B5040003D094F83D0010B194
:102EC00007E0012010BD002084F83C00204600F0FF
:102ED0001FF8022084F83D00211D206802F062FCEA
:102EE000012084F8460084F83E0084F83F0084F80E
:102EF000400084F8410084F8420084F8430084F8DC
:102F0000440084F8450084F83D00002010BD000016
:102F100008B501681448814201D1144810E01348F3
:102F2000001FB1F1804F0BD0114A914210D10168BE
:102F300041F002010160006800F00200009008BD4D
:102F4000016841F001010160006800F00100F5E74F
:102F5000084A9142F3D1016841F004010160006820
:102F600000F00400EAE7000000000140443802409D
:102F7000000400400008004090F83D10012901D0F5
:102F800001207047022180F83D100168CA6842F0B4
:102F90000102CA6000681149884214D0B0F1804F24
:102FA00011D00F4988420ED00E4988420BD00E49ED
:102FB000884208D00D49884205D00D49884202D088
:102FC0000C49884204D1816801F00701062903D029
:102FD000016841F0010101600020704700000140DC
:102FE0000004004000080040000C004000040140C4
:102FF000004001400018004070B5044690F83C00C5
:103000000025012817D0012684F83C60022084F8AE
:103010003D002068826822F0770222F47F428260BD
:103020000868502838D00DDC20284FD005DC90B33C
:10303000102811D14AE0022070BD302846D0402827
:103040000AD13BE060282FD070280DD0B0F5805F0A
:1030500003D0B0F5005F12D0012584F83D60002058
:1030600084F83C00284670BDCB68D1E90121206876
:1030700002F00DFC2068816841F0770109E0CB681F
:10308000D1E90121206802F002FC2068816841F446
:1030900080418160E1E719E0CA684968206802F070
:1030A000CBFC5021206806E0CA684968206802F01D
:1030B000D4FC6021206802F0F4FBCEE7CA684968BE
:1030C000206802F0B9FC40212068F4E7226801463C
:1030D0001046F0E770472DE9F04104460068C668E5
:1030E00005694FF00007A90713D5B10711D5F91EDF
:1030F000016101202077206880698007204602D086
:10310000FFF7E8FF04E000F0E9F8204600F07BF963
:103110002777680716D5700714D521686FF004006B
:103120000861022020772068806910F4407F2046E3
:1031300002D0FFF7CFFF04E000F0D0F8204600F007
:1031400062F92777280715D5300713D521686FF066
:1031500008000861042020772068C06980072046A5
:1031600002D0FFF7B7FF04E000F0B8F8204600F007
:103170004AF92777E80616D5F00614D521686FF0CE
:1031800010000861082020772068C06910F4407F93
:10319000204602D0FFF79EFF04E000F09FF8204693
:1031A00000F031F92777E80708D0F00706D021684A
:1031B0006FF001000861204600F0C8F9280608D524
:1031C000300606D521686FF0800008612046FFF7C1
:1031D000FDFD680608D5700606D521686FF0400031
:1031E0000861204600F0BCF9A8060AD5B00608D54B
:1031F00021686FF0200008612046BDE8F041FFF72C
:10320000E6BDBDE8F081000030B587B0044614216A
:103210006846FDF785F824682948002229490223D9
:10322000012584420ED1086840F01000086008684B
:1032300000F01000059048150090CDE90132694674
:10324000214821E02148B4F1804F10D0204DAC42FC
:1032500020D10C6844F001040C60096801F0010100
:10326000059140210091CDE90132694624E00C68C6
:1032700044F001040C60096801F00101059120216E
:103280000091CDE901326946CDE90325FEF73EFA0A
:1032900007B030BD0F488442FAD1086840F00800FA
:1032A00008600868694600F0080005904FF4704017
:1032B0000090CDE901320848CDE90323E6E700009C
:1032C000000001403038024000100240000002407F
:1032D0000004004000080040000C0240704770B538
:1032E000044690F83C0000260D4601280FD001202E
:1032F00084F83C006AB1042A1DD0082A2FD00C2A79
:103300003FD00126002084F83C00304670BD0220EA
:1033100070BD206802F0CEFA2068816941F0080192
:1033200081612068816921F00401816120688169DF
:103330002A69114311E0206802F0ECFA20688169E3
:1033400041F4006181612068816921F480618161BB
:10335000206881692A6941EA02218161D2E72068F7
:1033600002F00EFB2068C16941F00801C1612068CC
:10337000C16921F00401C1612068C1692A69114352
:1033800011E0206802F030FB2068C16941F400615F
:10339000C1612068C16921F48061C1612068C1698F
:1033A0002A6941EA0221C161ACE710B5040003D0EB
:1033B00094F83D0010B107E0012010BD002084F812
:1033C0003C00204600F01EF8022084F83D00211D3C
:1033D000206802F0E7F9012084F8460084F83E00F6
:1033E00084F83F0084F8400084F8410084F84200EB
:1033F00084F8430084F8440084F8450084F83D00D4
:10340000002010BD7047704710B50446022249B134
:1034100004290ED0082913D094F84100012816D0B1
:10342000012010BD94F83E000128F9D184F83E2017
:103430000FE094F83F000128F2D184F83F2008E023
:1034400094F840000128EBD184F8402001E084F892
:1034500041200122206802F00DFA16492068164A20
:10346000884201D0904203D1436C43F4004343644B
:103470002068884213D0B0F1804F10D00F498842A5
:103480000DD00F4988420AD00E49884207D0904299
:1034900005D00D49884202D00C49884204D1816888
:1034A00001F00701062903D0016841F00101016024
:1034B000002010BD00000140000401400004004055
:1034C00000080040000C004000400140001800408F
:1034D00030B504460D460068002202F0CBF9194BC6
:1034E00041F2111120688A10984202D0164B98427E
:1034F00009D1036A0B4206D1036A134203D1436C1C
:1035000023F4004343642068036A0B4206D1016A36
:10351000114203D1016821F00101016001203DB198
:10352000042D08D0082D09D084F84100002030BDBA
:1035300084F83E00FAE784F83F00F7E784F840009B
:10354000F4E7000000000140000401400068034966
:10355000884201D1FEF736BE7047000000100040DF
:103560007047704770B5044620680C3050E8001F63
:1035700021F0C00140E80012002AF5D1206840691E
:103580001546000615D52068143050E8001F21F0BC
:10359000800140E80012002AF5D1A06B48B1056512
:1035A000A06BFDF7CEFE20B1A06BFDF725FF202814
:1035B00005D0E584202084F84100002070BD102053
:1035C0006064032070BD10B504460068406994F83B
:1035D0004110C0F3C010212911D180B120681430EE
:1035E00050E8001F21F0800140E80012002AF5D1C8
:1035F000A06B08B1FDF7A5FE204602F014FC206880
:10360000406994F84210C0F38010222911D180B192
:103610002068143050E8001F21F0400140E80012FB
:10362000002AF5D1E06B08B1FDF78BFE204602F0D1
:10363000D3FB002010BD7047F8B501680446086848
:10364000CA684B6910F00F0F4FF000055AD003F015
:10365000010602F49077374365D0C10705D0D10544
:1036600003D5616C41F001016164410705D5D907BB
:1036700003D0616C41F002016164810705D5D9076F
:1036800003D0616C41F004016164010707D502F0C9
:103690002001314303D0616C41F008016164616C29
:1036A00000293BD0800604D5900602D5204602F0C2
:1036B000C8FB20684069616CC0F3801001F008010C
:1036C000014320462BD002F087FB2068406940066A
:1036D00021D52068143050E8001F21F0400140E857
:1036E0000012002AF5D1E06BA8B172490165E06BC8
:1036F000FDF770FE002811D0E06B016D01B0BDE850
:10370000F040084783060ED593060CD52046BDE849
:10371000F84002F096BB2046FFF78DFFF8BDFFF79B
:103720008AFF6564F8BD266B2023012E7ED1C60674
:103730007CD5D6067AD508684868009048694FF06D
:10374000020640064DD5E26B106840684FF4807762
:103750000004000C3AD0A18D814237D9E085D069B0
:10376000B8422DD020680C3050E8001F21F4807141
:1037700040E80012002AF5D12068143050E8001FFC
:1037800021F0010140E80012002AF5D12068143030
:1037900050E8001F21F0400140E80012002AF5D156
:1037A00084F84230256320680C3050E8001F21F077
:1037B000100140E80012002AF5D1E06BFDF7C1FDD1
:1037C0006663A08DE18D401A81B206E0A18D814231
:1037D000A8D1D069B842A5D166632046FFF7C1FEE3
:1037E000F8BDA08DE18D401A81B2E08D0028F7D0A0
:1037F0000029F5D020680C3050E8002F22F4907298
:1038000040E80027002FF5D12068143050E8002F41
:1038100022F0010240E80027002FF5D184F8423061
:10382000256320680C3050E8002F00E006E022F00D
:10383000100240E80023002BF3D1CDE705062BD57D
:10384000150629D594F841002128C9D1A068B0F502
:10385000805F01D12069B0B1206A411C21622168DA
:1038600000784860E08C401E0004000CE084B7D172
:103870002068C16821F08001C1602068C16841F002
:103880004001C160F8BD206A0088C0F308004860AC
:10389000206A801C2062E5E74006F3D55006F1D58A
:1038A000CA68204622F04002CA6084F8413000F025
:1038B000CDFAF8BD915C000870B5040004D094F80E
:1038C0004100002510B106E0012070BD84F8405091
:1038D000204600F023F8242084F841002068C168C5
:1038E00021F40051C160204602F00CFB2068016900
:1038F00021F4904101612068416921F02A01416170
:103900002068C16841F40051C1606564202084F8DA
:10391000410084F842006563002070BD2DE9F04F3E
:1039200087B0044614216846FCF7FAFCE848E74BE8
:103930001038D4F800C0E64A03270221DFF894E3E8
:10394000002506154FF040094FF0006A9C4553D101
:10395000136843F400231360126802F400220592F6
:10396000026842F0010202600068029500F0010066
:103970000590CDE900710820CDE9037069467046D5
:10398000FDF7C4FEDFF85483D349574688E8820226
:103990004046B146C0E90356C8F81450C8F818505C
:1039A000C8F81C50C8F82050C8F82450FDF7FAFD9C
:1039B00008B1FDF7C4FCC94EC748C4F8388060366A
:1039C0003038C8F838403060C6E90175C6E9035997
:1039D0007561B561F561356230467562FDF7E2FDEE
:1039E00008B1FDF7ACFCE663002205213420B46386
:1039F000FEF780FC342050E0B54BDFF8E4821B1D5D
:103A00004FF0070BC4454DD11A6842F010021A60FE
:103A10001A6802F010020592026842F00102026088
:103A2000006800F0010005904FF4C0608DE8A30825
:103A300069467046FDF76AFEA84FAA48C03738604D
:103A4000C7E901A5C7E903567D61BD61FD613D621E
:103A500038467D62FDF7A6FD08B1FDF770FCE7630F
:103A6000BC63A14F9F48C7F80890C7E903567D6122
:103A7000BD61FD613D6278307D62C7E9000A38466C
:103A8000FDF790FD08B1FDF75AFCA7630022052160
:103A90002520BC63FEF72EFC2520FEF71DFC07B099
:103AA000BDE8F08FDFF84482C44562D1136843F467
:103AB00000331360126802F400320592026842F08B
:103AC000010202600068884600F0010005900420B1
:103AD000CDE9000802AB694683E8A0087D48FDF700
:103AE00015FE0820CDE9000802AB012083E881081B
:103AF00069467848FDF70AFEDFF8ECB176490BF12C
:103B0000600B58463031C0E90356CBF81450CBF85F
:103B10001850CBF81C505746CBF820508BE8820247
:103B2000B046CBF82450FDF73DFD08B1FDF707FC8A
:103B30006D4E6948C4F838B0C0361830CBF83840FC
:103B40003060C6E90175C6E903587561B561F56174
:103B5000356230467562FDF725FD08B1FDF7EFFBD4
:103B6000E663002205212620B463FEF7C3FB26206E
:103B700093E7DFF87C81C44558D11368A84643F425
:103B800080231360126802F480220592026842F0DA
:103B900002020260006800F0020005904FF44060ED
:103BA0008DE8A30869465348FDF7B0FDDFF848B13A
:103BB000494958461839C0E90356CBF81450CBF898
:103BC0001850CBF81C505746CBF820508BE8820297
:103BD000CBF82450FDF7E6FC08B1FDF7B0FB464DED
:103BE0003D48C4F838B060354838CBF83840C5E9AE
:103BF0000007C5F80880C5E90386C5F81480C5F834
:103C00001880C5F81C80C5F820802846C5F8248097
:103C1000FDF7C8FC08B1FDF792FBE5630022052122
:103C20002720AC63FEF766FB272036E7334A94452E
:103C30007FF435AF1A6842F020021A601A6802F069
:103C400020020592026842F004020260006800F05F
:103C500004000590C0208DE8A30008200490694668
:103C60002748FDF753FD244F1E48C0376030C7E991
:103C700003567D61BD61FD613D624FF020687D624C
:103C800087E801033846FDF78DFC08B1FDF757FBC7
:103C9000A763BC6313481B4F18383860C7E9018518
:103CA000C7E903567D61BD61FD613D6238467D62B5
:103CB000FDF778FC08B1FDF742FBE7630022052120
:103CC0004720BC63FEF716FB4720E6E6004C0040A9
:103CD000403802400000024070600240B4200020E2
:103CE0000010014040640240D42100200044004004
:103CF0000048004000040240F4220020001401406B
:103D0000000802401424002090F84230202B01D0FB
:103D10000220704721B11AB10023036302F078B981
:103D200001207047704770472DE9F843044690F82A
:103D30004100984616460D46202802D00220BDE8D4
:103D4000F88385B17EB100206064212084F84100B1
:103D5000FDF7DAFDA6848146E684A0682027B0F549
:103D6000805F02D003E00120E9E7206910B12E4610
:103D700000250EE000260CE08021204602F098F994
:103D8000A8B9C6B116F8010B21684860E08C401E46
:103D9000E084E08C4B464FF00002CDF80080002814
:103DA000EAD14FF04001204602F082F940B184F898
:103DB00041700320C3E735F8020BC0F30800E3E7C6
:103DC00084F841700020BAE770B5044690F84100CD
:103DD000202801D0022070BD01B3FAB12162A28473
:103DE000E28400206064212384F84130A56B144BE9
:103DF000EB63A56B134B2B64A56B134BEB64A36BAD
:103E0000186520681346A56B021D2846FDF734FC93
:103E100030B110206064202084F84100012070BD82
:103E200021686FF0400008602068143050E8001FDF
:103E300041F0800140E80012002AF5D1002070BD59
:103E40008D5D0008CF5D00089F5C000870477047DB
:103E5000FEE700000148FDF75FBD000018180020D4
:103E60000148FDF7B6BD00001818002038B5806B7A
:103E7000002190F83D202B4B46F2A8141B68B3FBA1
:103E8000F4F3C3EBC30303EB830300933BB15B1E6B
:103E9000009303681B689B0505D5009BF6E7036C40
:103EA00043F020030364436B03B1D963836B03B115
:103EB000D96303681C6824F480641C604185436BEB
:103EC00003B11965836B03B1196503681C6824F09D
:103ED00001041C6090F83D402023602C0BD0282466
:103EE00034EA02020FD080F83D3080F83E1000BF67
:103EF000FDF787FE38BD80F83D3080F83E10016444
:103F0000FDF708FD38BD0268136843F00103136034
:103F10000268136843F480631360016380F83D40D6
:103F2000E6E700009000002000684169C9430906E7
:103F300001D400210161704770B5044690F83D003E
:103F400094F83E10102901D0402906D1222804D12E
:103F500021680A6822F400620A60282131EA00021E
:103F60004FF000054FF0200626D02168496809056A
:103F700005D4602803D084F83D6084F83E50256362
:103F800020684168090537D5416821F40061416026
:103F9000606B90F835203C49012A11D00165606BB7
:103FA000FDF718FA38B32068016821F001010160BB
:103FB00084F83D60606B1CE0256384F83D10DFE70A
:103FC000A06B0165A06BFDF705FAA0B120684169FF
:103FD000C943490605D40069616A0870606A401CDB
:103FE00060622068016821F00101016084F83D6091
:103FF000A06B016D884710E094F83D10602910D047
:104000004169C943490605D40069616A0870606A5C
:10401000401C60622046FDF7F4FD206CC1071CD1F6
:1040200015E084F83D6025644169C943490605D41B
:104030000069616A0870606A401C606220680168FB
:1040400021F0010101602046FDF764FCE5E78107EE
:1040500003D4410701D4000704D52068416821F446
:10406000E061416094F83D00216C49070BD5282898
:1040700009D10648E062256384F83D6084F83E502B
:104080002046FDF783FE70BD6D3E00080000FFFF77
:1040900001684A69D24352050FD46FF480624A61C5
:1040A000002140F8301F202242738173026942F0E0
:1040B000040202610173012070470020704710B5AF
:1040C000C26A438D0168042B06D0438D032B08D0B0
:1040D000438D022B1DD012E04A6822F480624A60B0
:1040E0000CE04B6823F480634B60042A06D0022A5C
:1040F00004D001680A6822F480620A6001680969D4
:10410000426A1170416A491C4162418D491E4185D4
:1041100010BD012A34D0102A32D0042A34D0022A09
:1041200032D00B6843F400730B6001680969436A7D
:104130001970416A491C4162438D5B1E43850368C7
:104140001B690B70416A491C4162418D491E4185C2
:1041500001684B6823F440734B60202180F83D10C8
:1041600090F83E300021402B80F83E1010D0082AF5
:1041700002D0202A00D012210163FDF708FE10BDF5
:104180000B6823F48063CFE70B6843F48063CBE7CD
:104190000163FDF7FEFD10BD38B590F83D102229F2
:1041A00010D1C36A418D03290DD901680969426A9A
:1041B0001170416A491C4162418D491E4185418D02
:1041C000032906D038BDC26A022A02D0012906D0CE
:1041D00029B10068416821F48061416038BD2A4AF4
:1041E00046F2A81400211268B2FBF4F202EB82023C
:1041F000009202682024009D6D1E009526D015684F
:10420000AD05F8D4156825F4806515600268556819
:1042100025F4E065556002681269456A2A70426AB1
:10422000521C4262428D521E428580F83D4090F8F9
:104230003E2080F83E10402A21D0082B02D0202BAF
:1042400000D012210163FDF7A2FD38BD036C43F0DD
:1042500020030364536823F4E06353600268126927
:10426000436A1A70426A521C4262428D521E428553
:1042700080F83D4080F83E10FDF7C3FC38BD016377
:10428000FDF787FD38BD00009000002010B5C26A20
:1042900090F83D1021290BD1418D51B1416A02683E
:1042A00009781161416A491C4162418D491E41856D
:1042B00010BD20230021082A13D0202A11D012F586
:1042C000803F0ED00268546824F4E06454601122E8
:1042D000026380F83E1080F83D3000BFFDF758FDC6
:1042E00010BD0268546824F4E064546002681468E5
:1042F00044F400741460016380F83D3090F83E206F
:1043000080F83E10402AE9D1FDF744FD10BD0000C1
:1043100010B590F83D1090F83E30C26A048DB4B1EB
:10432000212903D0402B11D122290FD1418DE1B396
:1043300090F83E10402942D0416A02680978116124
:10434000416A491C4162418D491E418510BD2129A8
:10435000E8D120230021082A13D0202A11D012F5F9
:10436000803F0ED00268546824F4E0645460112247
:10437000026380F83E1080F83D3000BFFDF708FD75
:1043800010BD0268546824F4E06454600268146844
:1043900044F400741460016380F83D3090F83E20CE
:1043A00080F83E10402AE9D100E002E0FDF7F2FC7F
:1043B00010BD0068416821F48061416010BDBDE816
:1043C000104000F0D3B8000078B590F83E50C26AB3
:1043D000036B90F83D6000240168222E7AD1066DAF
:1043E0000EB9402D76D0056D1DB90569B5F5404F64
:1043F00009D0458D05B3468D384D012E0ED0438D25
:10440000022B3AD05DE04A698A6900920A6842F458
:1044100080720A60016D491C016578BDAA4213D102
:104420000A6822F480620A6001684A68120503D5AE
:104430000A6822F4806216E04A698A6900920A6872
:1044400042F400720A6039E0082A10D0202A0ED007
:10445000122B0AD0042A03D0022A01D0102AE7D155
:104460000A6842F480620A6024E0012AE0D00A6807
:1044700022F480620A600168DEE7042A21D0022A61
:104480001FD0102A1DD00B6823F480630B600168D5
:104490000B6843F400630B6001684B681B0509D58A
:1044A000AA4212D0012A10D0082A0ED0102A0CD00D
:1044B000202A0AD001684A6989690091046578BD9B
:1044C00008E00B6843F48063E5E74A6842F48052F1
:1044D0004A60EFE7486988690090F0E70000FFFF55
:1044E00090F83E10402910D00169B1F5804F19D0E5
:1044F000016DA9B3016D012910D1416C5FF0F1028A
:1045000001F4407142EAD11106E0016D0029416CCD
:1045100005D0C9B241F0010100680161704701F0A6
:10452000FE01F9E790F83D102129416C09D0C9B28C
:1045300041F0010102681161416B29B1C96B49B9B0
:1045400002E001F0FE01F5E7816B0029E6D0C96BBE
:104550000029E3D00068416841F400614160704780
:10456000FFE7416CF02201F44071CBE710B590F801
:104570003D10026D4AB1026D012A14D0026D022A6B
:1045800016D0BDE81040FFF7CFBCC16C0129816C8B
:1045900002D0C1F3072108E00268C9B21161016DC0
:1045A000891C016510BD816CC9B20268116123E0EC
:1045B00022291CD0428D0AB1212920D0428D002A07
:1045C000F0D12129EED101684A6822F4E0624A6004
:1045D00001680A6842F400720A6000210163202227
:1045E00080F83D2080F83E10FDF7D4FB10BD016837
:1045F0000A6842F480720A60016D491CD1E7416A81
:10460000026809781161416A491C4162418D491E65
:10461000418510BD2DE9F84F0446006889460B9D81
:1046200001689846174641F480610160206801687E
:1046300041F48071016000954FF0011B0022594642
:1046400020460A9B00F0FEF94FF4007A40B1206842
:104650000068C00501D5C4F840A00320BDE8F88F6C
:10466000216809F0FE0008612B46284920460A9A75
:1046700000F030FAF0BB20684169806900902A465A
:1046800020460A9900F0BCFA40B1206C04283AD1C7
:104690002068016841F40071016034E0FEB2B8F1B5
:1046A000010F09D02168380A08612A4620460A9974
:1046B00000F0A6FA0028E8D1206806612A462046C4
:1046C0000A9900F09DFA0028DFD12068016841F4C2
:1046D0008071016000950022594620460A9B00F037
:1046E000B1F90028B3D1216809F0FF0040F00100C2
:1046F000086100E007E02B46044920460A9A00F0D2
:10470000E9F90028AAD00120A8E700000200010072
:104710002DE9F843044600680D46DDE90897016875
:104720009846164641F4807101604B4600224FF0D6
:1047300001112046009700F085F948B12068006813
:10474000C00502D54FF4007020640320BDE8F88353
:10475000216805F0FE0008613B464A46154920469F
:1047600000F0B8F988B920684169806900903A463C
:104770004946204600F044FA48B1206C042804D190
:104780002068016841F4007101600120DEE7F5B2A4
:10479000B8F1010F09D02168300A08613A4649464C
:1047A000204600F02DFA0028E7D12068056100209E
:1047B000CCE700000200010038B50C4690F83D201F
:1047C00000212825954302680B4605D0516991695F
:1047D000009180F83C3038BD556825F480655560FF
:1047E000E243540700D50121120601D5828900E079
:1047F000028B80F83C3092B2FDF78DF838BD000096
:104800002DE9F04190F83D300446C26A002120268F
:104810001E4F00686FF48065082A01D0202A01D15C
:10482000282B04D0212B17D04561BDE8F081E76229
:10483000426822F4E06242602068456120680268B4
:1048400022F480620260216384F83D6084F83E10A7
:104850002046FDF79BFAE8E7E7622122226384F80D
:104860003D6084F83E10416821F4E06141602068B9
:1048700045612068016821F4806101602046FFF7EE
:1048800053FB2046FDF767FCCFE700000000FFFF69
:10489000F8B590F83D6004460068416821F4E06195
:1048A00041602068002541690091016841F00101E3
:1048B00001602068016821F480610160206841681E
:1048C000090520D5474F222E48D02A2E46D0616BAD
:1048D000096849686185618D19B1216C41F0040155
:1048E0002164416821F400614160606BFCF786FD42
:1048F000012808D0606B0765606BFCF76BFD10B199
:10490000606B016D8847608D08B320684169C943B9
:10491000490708D40069616A0870606A401C6062D7
:10492000608D401E608520684169C943490608D4EE
:104930000069616A0870606A401C6062608D401E98
:104940006085608D18B1206C40F004002064206CFC
:1049500000B32046BDE8F840FFF7EEBAA16B096846
:1049600049686185618D19B1216C41F004012164B0
:10497000416821F400614160A06BFCF73FFD012814
:10498000C1D0A06B0765A06BFCF724FD0028BAD04E
:10499000A06BB6E72A2E06D12563282084F83D00B7
:1049A0002046FDF7D7FB94F83D10202028290DD094
:1049B000216B222901D0222E07D1256384F83D00E6
:1049C00084F83E502046FDF7C5FBF8BD0649E1627C
:1049D000256384F83D0084F83E502046FDF7D6F963
:1049E000F8BD00006D3E00080000FFFF70B51646E0
:1049F0000D4604461EE02046FFF74AFB08B10120A1
:104A000070BD681C16D0FCF77FFF801BA84200D841
:104A100085B920684069C04340070BD5002044F8A1
:104A2000300F20216173A073216941F020012161C1
:104A30002073E4E720684069C0434007DBD40020CE
:104A400070BD00002DE9F047984617460D46044614
:104A5000C1F30746DDF820902AE000BFB8F1FF3F20
:104A600026D0FCF751FFA0EB0901414502D8B8F16F
:104A7000000F1DD12068012E16D0806925EA0000A4
:104A80000004000C12D00020B84211D1002044F8DC
:104A9000300F20216173A073216941F02001216151
:104AA00020730120BDE8F0874069E7E70120EBE7CC
:104AB0002068012E0AD0806925EA00000004000C5D
:104AC00006D00020B842C9D00020EBE74069F3E7E8
:104AD0000120F7E72DE9F047984616460D460446B3
:104AE0004FF000094FF0200AC1F3074723E0206888
:104AF0004069C043400515D42068016841F4007145
:104B0000016021686FF480604861C4F8309084F8D7
:104B10003DA084F83E90216C41F00401216484F8AA
:104B20003C9021E0701C06D0FCF7EEFEA0EB0800E4
:104B3000B04203D816B1012F1FD021E02068012F09
:104B400015D0806925EA00000004000C18D000BFD1
:104B500044F8309F84F80DA084F80E90216941F04C
:104B60002001216184F80C900120BDE8F0874069A4
:104B700025EA00000004000CEAD12068406901E049
:104B80002068806925EA00000004000CAFD1ECE742
:104B90002DE9F041002590460E460446202728E0E6
:104BA0004069C043C0060CD454F8301B6FF01000AD
:104BB000486144F810596777A577206A2062257705
:104BC00014E0FCF7A1FEA0EB0800B04200D886B9C3
:104BD00020684069C04340060BD544F8305F6773D6
:104BE000A573206940F02000206125730120BDE8F5
:104BF000F08120684169C9434906D1D40020F6E715
:104C000070B516460D4604461EE02046FFF740FAF2
:104C100008B1012070BD681C16D0FCF775FE801B22
:104C2000A84200D885B920684069C04300060BD56A
:104C3000002044F8300F20216173A073216941F0F6
:104C4000200121612073E4E720684069C043000629
:104C5000DBD4002070BD0000314808B5016841F484
:104C600080010160016801F480010091016841F454
:104C7000001101600068002200F40010009005217E
:104C80000C20FDF737FB0C20FDF726FB0022052149
:104C90000D20FDF72FFB0D20FDF71EFB0022052147
:104CA0000E20FDF727FB0E20FDF716FB0022052145
:104CB0000F20FDF71FFB0F20FDF70EFB0022052143
:104CC0001020FDF717FB1020FDF706FB0022052141
:104CD0001120FDF70FFB1120FDF7FEFA0022052140
:104CE0003920FDF707FB3920FDF7F6FA00220521F0
:104CF0003A20FDF7FFFA3A20FDF7EEFA00220521EF
:104D00004520FDF7F7FA4520FDF7E6FA00220521D8
:104D10004620FDF7EFFABDE808404620FDF7DCBA73
:104D20003038024010B502F0FFFE02F0EDFE002226
:104D300008210A2003F07EFC154C164A0021A061D0
:104D4000154803F0C5FD134A2060243200211348A2
:104D500003F0BEFD0F4A606048320021104803F0A6
:104D6000B7FD0C4AA0606C3200210E4803F0B0FD84
:104D7000084AE060903200210B4803F0A9FD054A83
:104D80002061B4320021094803F0A2FD606110BD2A
:104D90000C00002024CE000895530008E9B6000856
:104DA000E15B00089D990008F96C000837B600081F
:104DB0002DE9F04F87B014216846FBF7B1FA4D4852
:104DC0000024016841F010010160016801F0100148
:104DD0000591016841F004010160016801F00401DE
:104DE0000591016841F080010160016801F08001D6
:104DF0000591016841F001010160016801F00101C4
:104E00000591016841F002010160016801F00201B1
:104E10000591016841F0080101600068DFF8D88061
:104E200000F0080049F6FC0505900022294640469E
:104E3000FCF764FDDFF8C49042F21606002231460A
:104E40004846FCF75BFDDFF8B8A00022022150467F
:104E5000FCF754FDDFF8ACB040F648670022394655
:104E60005846FCF74BFD00950125CDE901546946F4
:104E700040460394FCF74AFC0096CDE9015469468C
:104E800048460394FCF742FC2020CDE90004694623
:104E900048460294FCF73AFC3011CDE9000469461B
:104EA00050460294FCF732FC02200090CDE90154F8
:104EB000694650460394FCF729FC46F20350CDE9BD
:104EC0000004694640460294FCF720FC0097CDE9B7
:104ED0000154694658460394FCF718FC3020CDE98C
:104EE0000004694658460294FCF710FC07B0BDE880
:104EF000F08F0000303802400010024000080240ED
:104F000000040240000C02400D4810B50B4901603E
:104F10000C49416000214FF480428160C0E90312D6
:104F200041618161C1610162FCF76CFE002803D020
:104F3000BDE81040FCF703BA10BD0000005400406B
:104F400018180020A0860100094810B50749016023
:104F5000042141604FF4FA618160FDF7FDF80028FB
:104F600003D0BDE81040FCF7EAB910BD00300040A6
:104F70006C1800200F4810B50D4901604FF4827184
:104F8000416000218160C1604FF400720161C0E99D
:104F90000512C1610162416281620A21C162FDF7AD
:104FA00039FE002803D0BDE81040FCF7C8B910BD99
:104FB00000300140FC1800200F4810B50D49016079
:104FC0004FF48271416000218160C1604FF4007232
:104FD0000161C0E90512C1610162416281620A2179
:104FE000C162FDF717FE002803D0BDE81040FCF7B2
:104FF000A6B910BD00380040541900200C4810B567
:105000000A4901604FF4E1314160002181600C22C6
:10501000C160C0E904128161C161FEF74DFC002846
:1050200003D0BDE81040FCF78AB910BD004C004029
:105030004C1F00200C4810B50A4901604FF4E131C3
:105040004160002181600C22C160C0E904128161CD
:10505000C161FEF731FC002803D0BDE81040FCF729
:105060006EB910BD00100140941F00200C4810B50F
:105070000A4901604FF4E1314160002181600C2256
:10508000C160C0E904128161C161FEF715FC00280E
:1050900003D0BDE81040FCF752B910BD00440040F9
:1050A000DC1F00200C4810B50A4901604FF416516E
:1050B0004160002181600C22C160C0E9041281615D
:1050C000C161FEF7F9FB002803D0BDE81040FCF7F2
:1050D00036B910BD00480040242000200C4810B50F
:1050E0000A4901604FF4E1314160002181600C22E6
:1050F000C160C0E904128161C161FEF7DDFB0028D7
:1051000003D0BDE81040FCF71AB910BD00140140EF
:105110006C200020FEE7FEE708444069704700006D
:105120000148FDF7F1BB000078180020D0F880009E
:1051300070470A688260D1E901231A43D1E903313B
:105140000B43C1681A436FF30B011143C160002088
:1051500070470968C0F880100020704710B585B00E
:1051600004460D20CDE9001040200290002003905D
:105170004FF48060049069462046FFF7DAFF41F261
:1051800088320D21204600F01DF805B010BD00004A
:1051900010B585B0044600210C20CDE90010402058
:1051A000CDE902010001049069462046FFF7C1FFE6
:1051B000034A0C21204600F005F805B010BD0000A0
:1051C00000E1F505454B10B51B684FF4FA54B3FBED
:1051D000F4F353435B1E02D24FF0004010BD426B0C
:1051E00012F0450FF6D01205F4D4426B520703D5E6
:1051F00004218163084610BD426BD20702D0012111
:10520000816305E0C52282630269D2B28A4201D07D
:10521000012010BD0021FFF77FFF3149084201D175
:10522000002010BD002802DA4FF0007010BD4100D0
:1052300001D5402010BD810001D5802010BDC100E6
:1052400002D54FF4807010BD010102D54FF40070FB
:1052500010BD410102D54FF4806010BDC10102D5DF
:105260004FF4006010BD010202D54FF4805010BD14
:10527000410202D54FF4005010BD810202D54FF417
:10528000804010BDC10202D54FF4004010BD410363
:1052900002D54FF4003010BD810302D54FF48020B9
:1052A00010BDC10302D54FF4002010BD010402D58A
:1052B0004FF4801010BD410402D54FF4001010BD12
:1052C000810402D54FF4800010BD000702D54FF4D1
:1052D000000010BD4FF4803010BD00009000002091
:1052E00008E0FFFD10B5846B40F23A5021688863F6
:1052F0002046FDF7F3FA012184F8341000212163E0
:10530000062801D0052805D12068FFF741FFA16BD1
:105310000843A063A06B0028204602D0FDF7DDFA09
:1053200010BDFDF7D9FA10BD10B5846B40F23A50AC
:10533000216888632046FDF7D1FA012184F83410F2
:1053400000212163062801D0052805D12068FFF738
:105350001FFFA16B0843A063A06B0028204602D06A
:10536000FDF7BBFA10BDFDF7B7FA10BD0148FDF718
:10537000D3BB0000FC1800200148FDF7CDBB0000A6
:105380005419002010B5806B0021C187C186FDF73C
:10539000C1FB10BD4FF4FA740348FCF70CFF204624
:1053A00003F0D4F8F8E700006C18002070B50E4642
:1053B0000446042815D207F095FA05464FF47A7092
:1053C0004643B6FBF0F606F0ADFA0648012100EBC5
:1053D00004100170C0E901560473BDE8704006F086
:1053E000C1BA70BD2001002010B5044604280AD2BD
:1053F00006F098FA0449002001EB04110870BDE89A
:10540000104006F0AFBA10BD2001002010B54FF0DB
:10541000E020006907F058FA012803D0BDE81040E9
:1054200006F074BD10BD000030B593B03021684661
:10543000FAF776FF14210CA8FAF772FF1F4800252F
:10544000016841F080510160006800F080501190C7
:105450001B48016841F4804101600068022400F4A7
:1054600080401190092000904FF48030019001207D
:10547000CDE905048005079004200890A820CDE917
:10548000090407200B906846FDF770F808B172B662
:10549000FEE70CA90F2081E831004FF4A0500F90D7
:1054A0004FF48050109005210CA8FCF755FF002800
:1054B00001D072B6FEE713B030BD000040380240A4
:1054C000007000400248016841F4700101607047BB
:1054D00088ED00E030B595B0002405460F94109497
:1054E0001194129413941C2108A81494FAF718FF2D
:1054F00020216846FAF714FF2649254801C141F2E8
:10550000670031C1234841F810498C61FDF7D2FC96
:1055100008B1FBF714FF4FF480500F900FA91D48FE
:10552000FDF76AFD08B1FBF70AFF1A48FDF73DFFDA
:1055300008B1FBF704FF139413A916481494FDF760
:1055400071FC08B1FBF7FBFE602008906808CDE90C
:105550000904002208A90F480C94FDF7C0FE08B109
:10556000FBF7EDFE00944FF40050CDE904400294A7
:1055700001940394694607480794FDF729FC08B194
:10558000FBF7DDFE0348FDF73FFE15B030BD000020
:1055900000000140AC19002030B58DB00024054654
:1055A0000794089409940A940B941C2168460C945F
:1055B000FAF7B6FE1D494FF0804001C140F63300B6
:1055C00031C11A4841F810498C61FDF773FC08B1EC
:1055D000FBF7B5FE4FF48050079007A91348FDF77D
:1055E0000BFD08B1FBF7ABFE1048FDF7DEFE08B17E
:1055F000FBF7A5FE0B940BA90C480C94FDF712FCCD
:1056000008B1FBF79CFE602000906808CDE901041A
:105610000022694605480494FDF761FE08B1FBF7D6
:105620008EFE0248FDF7F0FD0DB030BDF4190020EC
:1056300030B58DB0002405460794089409940A9467
:105640000B941C2168460C94FAF76AFE1E491D480B
:1056500001C140F6330031C11B4841F810498C614B
:10566000FDF728FC08B1FBF76AFE4FF48050079065
:1056700007A91548FDF7C0FC08B1FBF760FE12480A
:10568000FDF793FE08B1FBF75AFE0B940BA90E48E9
:105690000C94FDF7C7FB08B1FBF751FE60200090AA
:1056A0006808CDE901040022694607480494FDF723
:1056B00016FE08B1FBF743FE0348FDF7A5FD0DB04C
:1056C00030BD0000000400403C1A002030B58DB011
:1056D000002405460794089409940A940B941C210D
:1056E00068460C94FAF71CFE2A49294801C14FF478
:1056F000A47031C1274841F810498C61FDF7DAFBED
:1057000008B1FBF71CFE4FF48050079007A9214811
:10571000FDF772FC08B1FBF712FE1E48FDF745FECF
:1057200008B1FBF70CFE0B940BA91A480C94FDF77B
:1057300079FB08B1FBF703FE602000906808CDE913
:1057400001040022694613480494FDF7C8FD08B11E
:10575000FBF7F5FD042269460E48FDF7C0FD08B1D0
:10576000FBF7EDFD082269460A48FDF7B8FD08B1D0
:10577000FBF7E5FD0C2269460648FDF7B0FD08B1D0
:10578000FBF7DDFD0348FDF73FFD0DB030BD000028
:1057900000080040841A00200148FDF79CBC00006E
:1057A000F4280020F0B50268274B284D284E294FD9
:1057B000294C4FF0804C984209D0604507D0A84250
:1057C00005D0B04203D0B84201D0A04204D122F0AB
:1057D000700E4A6842EA0E0298421BD0604519D00A
:1057E000A84217D0B04215D0B84213D0A04211D071
:1057F0001A4DA8420ED01A4DA8420BD0194DA842FE
:1058000008D0194DA84205D0184DA84202D0184D15
:10581000A84203D122F44075CA682A434D6922F098
:1058200080022A438D68C5620D688562984201D066
:10583000A04201D109690163016841F004010160DE
:10584000012141610260F0BD000001400004004000
:1058500000080040000C00400004014000400140EE
:10586000004401400048014000180040001C004076
:105870000020004010B501F01F030121046A994087
:105880008C430462016A9A401143016210BD10B555
:10589000846842EA032224F47F440A43224382605C
:1058A00010BD826822F070020A4342F00701816055
:1058B00070470000F0B5036A026A22F0010202623A
:1058C00042688469124E24F073050C682C4323F05F
:1058D00002058B682B430D4DA84201D0B04205D183
:1058E00023F00807CB683B4323F00403A84201D010
:1058F000B04205D14D6922F4407215438A692A43AA
:1059000042608461496841630362F0BD0000014068
:1059100000040140F0B5026A036A23F01003036239
:10592000436884690D6824F4E64444EA05248D68DC
:1059300022F0200242EA05120F4D104EA84201D07B
:10594000B04206D1CF6822F0800242EA071222F06C
:105950004002A84201D0B04207D14D6923F4406310
:1059600043EA85038D6943EA85034360846149689E
:1059700081630262F0BD00000000014000040140AC
:10598000F0B5026A036A23F4807303624368C46952
:1059900022F4007224F073050C68124E2C438D68BB
:1059A00042EA05220E4DA84201D0B04206D1CF688E
:1059B00022F4006242EA072222F48062A84201D067
:1059C000B04207D14D6923F4405343EA05138D6972
:1059D00043EA05134360C4614968C1630262F0BDD4
:1059E000000001400004014030B5046A026A22F45C
:1059F000805202624268C3690D6823F4E64343EAB9
:105A000005238D6824F4005444EA0534084DA84267
:105A100002D0084DA84204D14D6922F4804242EAE6
:105A200085124260C36149680164046230BD0000B0
:105A3000000001400004014010B5036A046A24F02C
:105A400001040462846924F0F00444EA021423F09F
:105A50000A020A438461026210BD10B5036A046A37
:105A600024F010040462846923F0A00324F4704439
:105A700044EA023243EA01118261016210BD000072
:105A80002DE9FC5F3F4E93460D460446012202215C
:105A90003046FBF733FF0122DFF8EC80D7023946AE
:105AA0004046FBF72BFF4FF4004901224946404690
:105AB000FBF724FFDFF8D4A0012240215046FBF77A
:105AC0001DFF8DF80040324C6908207820F0050059
:105AD00040F0C0002070607840F001006070607994
