:020000040800F2
:10000000905500205D020008D33A0008F929000845
:10001000D13A00088D030008C94300080000000021
:100020000000000000000000000000009D0100082A
:100030008504000800000000F9010008593D00088F
:1000400077020008770200087702000877020008AC
:10005000770200087702000877020008770200089C
:10006000770200087702000877020008770200088C
:10007000910300089D030008A9030008B5030008C8
:10008000C1030008CD0300087702000877020008CA
:10009000770200087702000877020008770200085C
:1000A000770200087702000877020008770200084C
:1000B000770200087702000877020008092A000882
:1000C000FD2900087702000877020008293D000892
:1000D000353D000899430008A5430008B1430008D6
:1000E000770200087702000877020008770200080C
:1000F00077020008770200087702000877020008FC
:1001000077020008DD3A000877020008770200084D
:10011000ED40000877020008213E00087702000841
:1001200077020008D9030008E503000877020008F9
:1001300077020008000000000000000077020008BD
:1001400077020008770200087702000877020008AB
:1001500077020008F1030008FD030008BD43000812
:10016000770200087702000877020008770200088B
:10017000770200087702000800000000000000007D
:100180007702000877020008DFF80CD000F0ECF8E6
:100190000048004755440008905500202C4B196832
:1001A0000868B0E8F04F80F30988BFF36F8F4FF015
:1001B000000080F3118870470000000008480068C4
:1001C000006880F308884FF0000080F3148862B65E
:1001D00061B6BFF34F8FBFF36F8F00DF00BF00BF6B
:1001E00008ED00E0DFF80C00016841F470010160E7
:1001F000704700BF88ED00E0EFF30980BFF36F8F19
:10020000134B1A681EF0100F08BF20ED108A20E96A
:10021000F04F106009B44FF0500080F31188BFF325
:100220004F8FBFF36F8F04F0FFFF4FF0000080F39C
:10023000118809BC19680868B0E8F04F1EF0100F6B
:1002400008BFB0EC108A80F30988BFF36F8F704746
:1002500014000020EFF30580704700000648804737
:1002600006480047FEE7FEE7FEE7FEE7FEE7FEE79B
:10027000FEE7FEE7FEE7FEE7113E00088901000801
:100280002DE9F05F0546002092469B4688460646CB
:10029000814640241BE0284641464746224600F05E
:1002A00053F853465A46C01A914110D31146184686
:1002B000224600F03AF82D1A67EB01084F46224615
:1002C0000120002100F031F817EB00094E41201EFB
:1002D000A4F10104DFDC484631462A464346BDE826
:1002E000F09F40EA01039B0703D009E008C9121FF1
:1002F00008C0042AFAD203E011F8013B00F8013BE0
:10030000521EF9D27047D2B201E000F8012B491E0B
:10031000FBD270470022F6E710B513460A460446A2
:100320001946FFF7F0FF204610BD202A04DB203AD3
:1003300000FA02F1002070479140C2F1200320FA38
:1003400003F3194390407047202A04DB203A21FA36
:1003500002F00021704721FA02F3D040C2F12002DE
:100360009140084319467047064C074D06E0E06887
:1003700040F0010394E8070098471034AC42F6D3EC
:10038000FFF706FFD45C0008F45C0008FEE70000FD
:10039000014800F0D9B8000054070020014800F0DF
:1003A000D3B8000014050020014800F0CDB80000CB
:1003B000F4060020014800F0C7B80000B404002093
:1003C000014800F0C1B8000094060020014800F088
:1003D000BBB8000034060020014800F0B5B80000AA
:1003E00014080020014800F0AFB800007405002098
:1003F000014800F0A9B80000B4070020014800F04F
:10040000A3B80000D405002001681823CAB2103A2E
:10041000B2FBF3F2054B6FF30901032A9B5CC36542
:1004200000D9091D8165084670470000A85C0008D6
:1004300010B5014600208B698A6A4FF0C07453B131
:10044000B3F5005F15D072B1012A0CD0022A0AD090
:10045000032A09D104E01AB1012A06D0022A03D1E5
:10046000C96AC90100D5012010BDC96AA142FAD0EC
:1004700010BD002AF7D0012AF2D0022AF3D0032AB5
:10048000F3D010BD704772B6FEE72DE9F041044687
:10049000876D00F091FA064694F835000025022891
:1004A00006D08020606584F834500120BDE8F081DA
:1004B0002068016821F0160101602068416921F07F
:1004C00080014161206C08B9A06C20B120680168EE
:1004D00021F0080101602068016821F0010101603C
:1004E0000CE000F069FA801B052807D92020606520
:1004F000032084F8350084F83450D7E7206800687A
:10050000C007EED194F85C103F208840B86001200D
:1005100084F8350084F834500020C7E790F835108F
:10052000022903D08021416501207047052180F810
:1005300035100068016821F001010160002070475A
:1005400090F83500704700002DE9F84304464FF05D
:100550000009CDF8009063484FF41651A56D00686E
:10056000B0FBF1F72E6894F85C10082000FA01F156
:1005700031420FD021680A6852070BD50A6822F071
:1005800004020A6094F85C108840A860606D40F036
:100590000100606594F85C104FF0010808FA01F062
:1005A000304208D021684969090604D5A860606D09
:1005B00040F00200606594F85C10042088403042EE
:1005C00008D021680968890704D5A860606D40F0EB
:1005D0000400606594F85C1010208840304218D008
:1005E00021680968090714D5A860206801684903D3
:1005F00004D50068000308D5A16C07E00168C905AF
:1006000003D4016821F008010160216C09B1204682
:10061000884794F85C1020208840304231D021680F
:100620000968C9062DD5A86094F83500052820680A
:10063000016806D0490347D5006800031DD4616CEA
:100640001CE021F0160101602068416921F0800161
:100650004161206C08B9A06C20B12068016821F0CC
:100660000801016094F85C103F208840A86084F87D
:10067000358084F83490216D1FE0E16B09B120468C
:100680008847606D00282BD0606DC00714D005200E
:1006900084F835002068016821F0010101600098AC
:1006A000401C0090B84203D820680068C007F6D10B
:1006B00084F8358084F83490E16C002910D001B0C2
:1006C0002046BDE8F04308470168C905D5D4016854
:1006D00021F01001016084F8358084F83490CCE773
:1006E000BDE8F883100000202DE9F041044600F039
:1006F00063F906465CB1022084F83500002584F8D1
:1007000034502068016821F0010101600DE00120F2
:10071000BDE8F08100F050F9801B052805D92020A4
:100720006065032084F83500F2E720680068C007A0
:10073000F0D12268116820480140D4E90103184330
:10074000D4E903363343184363691843A369184354
:10075000E3691843236A18430843616A042903D1F3
:10076000D4E90B1319430843106020684069666A96
:1007700020F0070130460E43012704280CD1A06A5F
:100780000643E06A40B12046FFF752FE20B1402008
:10079000606584F83570BAE7206846612046FFF747
:1007A00033FE94F85C203F2191408160656584F8B8
:1007B00035700020ACE700003F8010F02DE9F84FC5
:1007C000DFF8BCA10022012503264FF00F090AF132
:1007D000040BAAF1040E00BF0B6805FA02F42340D3
:1007E000A34270D10F7907F00307012F01D0022F28
:1007F00016D187684FEA420806FA08FC27EA0C0778
:10080000D1F80CC00CFA08FC4CEA070CC0F808C080
:100810004768A7430C79C4F3001494403C434460F8
:100820000C79E443A4070AD0C4684FEA420C06FAE4
:100830000CF7BC438F6807FA0CF72743C7600C79A5
:1008400004F00304022C12D1D40800EB840CDCF871
:1008500020405707FF0E09FA07F824EA0804D1F8E8
:10086000108008FA07F848EA0408CCF820800468E9
:100870004FEA420C06FA0CF7BC430F7907F0030766
:1008800007FA0CF7274307604C6814F4403F70D018
:100890003C4C276847F480472760246822F0030710
:1008A00004F480440094384C07EB040CDCF808484E
:1008B00097074FEA177809FA08F7BC43334FB84255
:1008C00002D1002724E054E0314FB84201D1012782
:1008D0001EE0304FB84201D1022719E02E4FB84236
:1008E00001D1032714E02D4FB84201D104270FE0B6
:1008F0002B4FB84201D105270AE02A4FB84201D157
:10090000062705E0284FB84201D1072700E0082755
:1009100007FA08F72743CCF80878DAF8004057467A
:10092000D1F804C09C435FEACC2C00D51C433C604A
:10093000DBF800405F46D1F804C09C435FEA8C2C92
:1009400000D51C433C60DEF800407746D1F804C077
:100950009C435FEA8C3C00D51C433C60084F083F39
:100960003C68D1F804C09C435FEACC3C00D51C43F2
:100970003C60521C102AFFF42FAFBDE8F88F000036
:10098000083C014044380240003001400000024071
:100990000004024000080240000C02400010024027
:1009A0000014024000180240001C02400AB181619C
:1009B00070470904FBE700000148806870470000A9
:1009C00004000020704770472DE9F041016804469B
:1009D0004A694E6890F83E000025D743FA0506D4D0
:1009E000F243D20503D46FF4807201254A61B90540
:1009F00008D4F143C90505D422686FF4007145F0AD
:100A000002055161790525D4F143C90522D4638DCE
:100A100094F83D10226B202808D13BB9212910D031
:100A200029290ED0282901D1212A0AD022686FF461
:100A30008061516145F00405102806D0402804D09B
:100A400008E0204602F0C8FB04E02068016841F499
:100A500000710160380508D4F043C00505D4216851
:100A60006FF4006045F008054861002D07D0206C48
:100A7000284320642046BDE8F04102F031B8BDE8CB
:100A8000F0812DE9F047026800215368C66A90F8AA
:100A90003E4090F83D50102C12D0402C10D0046CE9
:100AA000002C7DD05469E443A6077AD4DE43B60512
:100AB00077D4036C03B19169BDE8F04702F068BBDD
:100AC000976951694FF42A0CC9435FEAC1784FF026
:100AD0002A4904D066452AD04E4528D010E0DE438E
:100AE000B6050DD4C16A614501D1012103E0C16A97
:100AF000494501D10821C162BDE8F04702F0AEBA14
:100B00000E0716D4DE43B60513D4416CC9B2116189
:100B1000416B09B1C96B29B9816B002907D0C96B39
:100B2000002904D00068416841F400614160BDE8DB
:100B3000F0878E0706D4DE43B60503D4BDE8F04740
:100B400002F000BAFE43526876074FEA02521DD403
:100B5000002AECDB0A0608D4DA43520505D449071B
:100B600005D5BDE8F04702F091B94907DFD4D94374
:100B70008905DCD4212D05D0402CD8D1BDE8F04723
:100B800002F0B2BABDE8F04702F03EB9002ACEDB6F
:100B90004A060BD4DA43520508D4490708D501E0C8
:100BA0000DE00EE0BDE8F04702F0B4B84907BED44E
:100BB000D9438905BBD4BDE8F04702F03DB891693F
:100BC00070E7E10606D4D943890503D4BDE8F047B0
:100BD00002F04ABB2821212D27D0292D25D06506DA
:100BE00055D4DD436D0552D4640752D590F83D309D
:100BF000448D002C9BD01269446A2270426A521CB8
:100C00004262428D521E4285428D002A8FD12A2B8C
:100C10008DD10268536823F48063536022220263FB
:100C200080F83D1000F054F981E7250623D4DD4318
:100C30006D0520D4640720D590F83D30448D002CFC
:100C4000F2D0446A24781461426A521C4262428D96
:100C5000521E4285428D002AE6D1292BE4D102683A
:100C6000536823F4806353602122026380F83D10AF
:100C700000F02FF95BE76107D6D4D9438905D3D4B7
:100C8000418D0029D0D0416A097811610AE06107DD
:100C9000CAD4D9438905C7D4418D0029C4D011696C
:100CA000426A1170416A491C4162418D491E418569
:100CB0003DE7704770B5040025D094F83D0000254D
:100CC00020B984F83C50204600F0BEF8242084F877
:100CD0003D002068016821F0010101602068016881
:100CE00041F4004101602068016821F40041016085
:100CF00000F0A4FA4D4A6168914201D84C4900E0E5
:100D00004C49884201D2012070BD4B492368B0FB99
:100D1000F1F15E6826F03F060E435E606368934221
:100D200006D94FF4967359434FF47A73B1FBF3F13C
:100D30002368491C1E6A26F03F0631431962616828
:100D4000914210D84900401EB0FBF1F2521CC2F390
:100D50000B02042A01D2042022E0B0FBF1F0401C77
:100D6000C0F30B001CE0A268F2B301EBC10303EB7C
:100D70000116431EB3FBF6F35B1C43F480431B05D3
:100D800049D092B301EBC10202EB0111401EB0FB4E
:100D9000F1F0401CC0F30B0040F4804040F40040F0
:100DA0002168CA694CF6FF739A431043C861D4E9BD
:100DB000071001432068026822F0C002114301605D
:100DC000D4E9030101432068826848F2FF339A4363
:100DD00011438160D4E9050108432168CA6822F003
:100DE000FF021043C86001E00EE016E020680168D1
:100DF00041F0010101602564202084F83D00256355
:100E000084F83E50002070BD01EB4106431EB3FB49
:100E1000F6F35B1CB3E70120C2E701EB4101401E82
:100E2000B0FBF1F0401CC0F30B00B7E7A086010057
:100E300080841E0000093D0040420F00704770474B
:100E4000704770477047000010B586B00446142103
:100E50006846FFF75FFA1B492068884230D11A487C
:100E60000021026842F002020260006800F0020005
:100E70000590C02000901220CDE9010103200390CD
:100E80000420049069461148FFF798FC0E48103082
:100E9000016841F4001101600068002200F40010B4
:100EA000059005211F2000F0DDF81F2000F0CCF890
:100EB00000220521202000F0D5F8202000F0C4F801
:100EC00006B010BD0054004030380240000402401B
:100ED0007047704770B5040013D021684CF6CC40C1
:100EE0000860216845F255500860D4E9000141606E
:100EF0002168A0688860FFF75FFD054641F601069E
:100F00000DE0012070BD00BFFFF756FD401BB04251
:100F100005D92068C068800701D0032070BD206813
:100F2000C0688007F0D121684AF6AA200860002036
:100F300070BD0000024881680278114481607047EA
:100F4000040000200B4810B5016841F400710160F5
:100F5000016841F480610160016841F480710160C1
:100F6000032000F09FF80F2000F006F800F050F882
:100F7000002010BD003C024030B505461F4887B038
:100F80000024016841F010010160006806A900F02A
:100F90001000009001A800F031F90498A8B100F009
:100FA0004DF940001649174AB0FBF1F11648491EA9
:100FB000026040F2E732C0E90324C0E90114846111
:100FC00000F030FE040003D015E000F037F9E9E747
:100FD0000D4800F089FE04000DD1362000F034F8F1
:100FE000102D07D200222946362000F03BF8074892
:100FF000056000E0012407B0204630BD40380240C3
:1010000040420F000010004074080020080000203B
:101010000C4882B0016841F480410160006800F42E
:10102000804000900748001F016841F08051016036
:101030000068002200F0805000900F21901E02B046
:1010400000F010B844380240002809DB00F01F020D
:10105000012191404009800000F1E020C0F800111A
:1010600070470000F0B40E4B1B680C46C3F302231C
:10107000C3F10705042D00D90425191D072901D244
:10108000002300E0DB1E012606FA05F1491E21407F
:1010900099409E40761E16403143F0BC03F09EB945
:1010A0000CED00E0064900F0070208684FF6FF0368
:1010B000184040EA0220034A1043086070470000CD
:1010C0000CED00E00000FA052DE9F0470E460500A2
:1010D00065D0DFF81481D8F80000F7B200F00700FF
:1010E000B04207D288F80070D8F8000000F007007E
:1010F000B04254D128683D4C810712D5400703D532
:10110000206840F4E05020602878000703D520686C
:1011100040F4604020602068A96820F0F000084397
:1011200020602878C0072DD0304968680839012828
:1011300012D0022813D0032811D00968890700298A
:101140002DDA216821F0030101432160FFF734FC0F
:10115000814641F2883A0EE009688903EFE70968A1
:101160008901ECE7FFF728FCA0EB0901514502D902
:101170000320BDE8F0872068696800F00C00B0EB40
:10118000810FEFD1D8F80010404601F00701B142BD
:1011900007D90770006800F00700B04201D00120B5
:1011A000E7E72878400705D52068E96820F4E05093
:1011B000084320602878000706D52068296920F4B4
:1011C000604040EAC100206000F058F82168084AF9
:1011D000C1F30311515CC840064908600648006825
:1011E000FFF7CAFE0020C4E7003C02400838024076
:1011F000B05C000810000020080000200F220260F0
:101200000C4A136803F003034360136803F0F00310
:101210008360136803F4E053C36012684FF4E05333
:1012200003EAD20202610448006800F00700086087
:101230007047000008380240003C0240044805495D
:1012400000680968044AC1F38221515CC8407047B4
:101250001000002008380240C05C0008044805491E
:1012600000680968044AC1F34231515CC8407047C4
:101270001000002008380240C05C0008154810B576
:10128000006810F00C02144813D04110042A0FD04B
:10129000082A0ED10F4C241F2268236802F03F0257
:1012A0005B0207D52068C0F38810A0FB010106E0AF
:1012B000084610BD2168C1F38811A1FB000100237D
:1012C000FEF7DEFF2168C1F30141491C4900B0FB74
:1012D000F1F010BD083802400024F4002DE9F84F69
:1012E00004006ED02078DFF84C93C007A9F1040504
:1012F0004AD009F104000168C1F38101012908D035
:101300000068C0F3810002280AD1D9F80000400229
:1013100006D52868800337D560680028E1D033E01F
:101320006068B0F5803F10D0B0F5A02F286810D0CD
:1013300020F480302860286820F4802028606068CD
:10134000A8B1FFF739FB06460DE0286840F480306D
:10135000F4E740F480202860F7E700BFFFF72CFB9C
:10136000801B642873D828688003F7D50CE0FFF74A
:1013700023FB064605E000BFFFF71EFB801B642829
:10138000F0D828688003F7D42078DFF8AC82800793
:101390004FF0000A3ED5A748001D016811F00C0F60
:1013A00008D00068C0F3810002280BD1D9F80000F2
:1013B000400207D42868800716D5E068012800D1CC
:1013C00012E033E1E068B8B10120C8F80000FFF78F
:1013D000F3FA064605E000BFFFF7EEFA801B02288D
:1013E000C0D828688007F7D52868216920F0F80060
:1013F00040EAC10028600DE0C8F800A0FFF7DCFA61
:10140000064604E0FFF7D8FA801B02281FD8286898
:101410008007F7D42078000722D5864F8748616976
:10142000703771B101210160FFF7C6FA064604E08A
:10143000FFF7C2FA801B022809D838688007F7D561
:101440000EE0C0F800A0FFF7B7FA064605E082E01C
:10145000FFF7B2FA801B02287DD838688007F7D4DE
:101460002078400768D5DFF8CCB100270BF13C0BA2
:10147000DBF80000C0000BD4DBF8001041F0805115
:10148000CBF80010DBF80000012700F0805000903E
:101490006B4E3068C00510D4306840F48070306006
:1014A000FFF78AFA009005E0FFF786FA0099401AE4
:1014B000022850D83068C005F6D55E4EA0686C365C
:1014C00001280FD00528306810D020F001003060CE
:1014D000306820F004003060A068B8B1FFF76CFA03
:1014E00000900FE0306840F00100F4E740F00400A5
:1014F0003060F7E7FFF760FA0099411A41F288304F
:10150000814266D830688007F4D50EE0FFF754FAC0
:10151000009007E0FFF750FA0099411A41F2883035
:10152000814256D830688007F4D42FB1DBF8001020
:1015300021F08051CBF80010A069C8B33D49091DC6
:101540000968C1F3810102294AD00228504607D018
:10155000C8F8600000E03CE0FFF72EFA04463BE0EC
:101560004746C8F86000FFF727FA064605E000BFC7
:10157000FFF722FA801B02282BD828688001F7D4B5
:10158000D4E907010843A16A2E4A490802EB014148
:10159000626A41EA8211084394F82C1040EA016122
:1015A000C9F8001001203866FFF706FA044606E085
:1015B0003EE000BFFFF700FA001B022809D82868A8
:1015C0008001F7D534E000BFFFF7F6F9001B0228D1
:1015D00002D90320BDE8F88F28688001F4D427E001
:1015E0000128F7D0D9F80000E26900F480019142A7
:1015F0001CD1226A00F03F01914217D147F6C07119
:10160000626A0140B1EB821F10D1A26A4FF0FF3332
:1016100000F4403103EB5202B1EB024F06D194F8D3
:101620002C1000F07060B0EB016F01D00120D1E709
:101630000020CFE70438024000004742800E4742B6
:10164000007000400000FFFF7047704770B504460F
:10165000B0F8500000250104206802F05DFA18B1CE
:10166000A16B0143A16304E00021206802F032FA7B
:101670000546C5F3432070BDF8B5056B0446006808
:10168000416B09041BD5290719D5D4E90A56002E48
:1016900014D00027206802F027FA05F8010B010A90
:1016A00005F8011B010C05F8021B000E361F7F1CFC
:1016B00005F8010C082FEDD3C4E90A56F8BD416BBB
:1016C0004FF00006C9054FF0010744D53902816388
:1016D0002068C16B4CF23A329143C1632068C16A01
:1016E00021F00101C16228071DD515F0220F09D094
:1016F000206802F02BFA28B1A16B0143A1632046B8
:10170000FFF7A3FF216840F23A50886384F83470F1
:101710002663A80703D0204600F0B2F8F8BD2046A3
:1017200000F0AFF8F8BD2806FCD5A80609D520685A
:1017300002F00CFA28B1A16B0143A1632046FFF728
:1017400084FFA807EED12068C16A21F00801C162B8
:1017500084F83470E3E7416B490424D5290722D586
:10176000D4E90856002EDDD05FF0000715F8010B14
:10177000009015F8011B361F40EA0120009015F873
:10178000021B40EA0140009015F8011C40EA01608C
:1017900000906946206802F0BAF97F1C082FE5D353
:1017A000C4E90856F8BD416B40F23A221142F9D023
:1017B000416B890703D5A16B41F00201A163416B25
:1017C000090703D5A16B41F00801A163416B8906AC
:1017D00003D5A16B41F02001A163416BC90603D57C
:1017E000A16B41F01001A163416B890503D5A16B89
:1017F00041F00801A16340F23A7181632068C16B36
:1018000040F23A329143C163206802F09FF9A16B24
:101810000843A063280706D584F834702663204661
:10182000FFF713FFF8BD2806FCD515F0300F0CD0DC
:10183000E16B11480865E06BFEF770FE0028F1D0FF
:10184000E06BBDE8F84002F04DBAA8070CD0216C5F
:101850000A480865206CFEF761FE0028E2D0206C83
:10186000BDE8F84002F01CBAA66384F83470266321
:101870002046FFF7E9FEF8BDE53C0008A13C000862
:10188000704770477047000038B5016804464A68E1
:101890008868C043430606D5C30704D1D3435B061B
:1018A00001D4216C05E0830708D4D3431B0605D47B
:1018B000616C01B02046BDE830400847830603D57F
:1018C000430601D5C30551D4D3439B064ED44306EA
:1018D0000AD494F85130032B49D0636D43F00403CC
:1018E0006365CB688B680093830609D4636D43F00E
:1018F000010363658B6800930B6823F040030B6062
:10190000C00506D4606D40F00800606520688068FE
:101910000090606D002829D02068416821F0E00126
:101920004160012084F85100900701D4D00722D0F3
:101930002068416821F003014160114DE06C40B125
:101940000565E06CFEF7EAFD18B1606D40F04000FF
:101950006065A06C002809D00565A06CFEF7DEFD6F
:10196000002803D0606D40F04000606538BDC86855
:101970008868009038BD2046FFF784FF38BD00001E
:10198000413D000870B5040009D0606A002540B1EF
:1019900025616561A56294F8510040B10CE0012019
:1019A00070BD6068B0F5827FF4D0E561F2E784F83D
:1019B0005050204600F044F8022084F8510020687E
:1019C000016821F040010160A088218900F4827043
:1019D00001F404410843A18901F400610843217C1A
:1019E00001F002010843217D01F001010843218B30
:1019F00001F400710843217F01F03801084394F895
:101A0000201001F080010843218D01F400510843AA
:101A100021680860A069042101EA104094F82410AC
:101A200001F010010843216848602068C16921F471
:101A30000061C1616565012084F85100002070BD1E
:101A40002DE9F04186B0044614216846FEF762FC99
:101A5000354A216800243548022503260527DFF88A
:101A6000D080914234D1314914310A6842F4805215
:101A70000A60096801F480510591016841F0010193
:101A80000160016801F001010591016841F0020166
:101A90000160006802AA00F0020005909020CDE9E4
:101AA000000582E8D00069462248FEF787FE08203C
:101AB000CDE9000502AA694682E8D0004046FEF75B
:101AC0007DFE002205212320FFF7CCFA232025E00C
:101AD000194A914224D1154910310A6842F48042D2
:101AE0000A60096801F480410591016841F0020132
:101AF0000160006802AA00F0020005904FF47040F7
:101B0000CDE9000582E8D00069464046FEF756FE62
:101B1000002205212420FFF7A5FA2420FFF794FADC
:101B200006B0BDE8F08100000030014030380240CE
:101B30000004024000000240003800407047704737
:101B400010B590F83C20012A22D0012280F83C20D8
:101B5000CA688C6822F4407222434C6822F4806286
:101B600022430C6822F4006222430C6922F4805262
:101B700022434C6922F400522243C969002322F413
:101B800080420A4301684A6480F83C30002010BD5E
:101B9000022010BD70B590F83C20012A32D00124FB
:101BA00080F83C40022280F83D2003685A689D6816
:101BB00022F070060A6832435A60134B02689A4258
:101BC00014D0B2F1804F11D0104B9A420ED0104B6E
:101BD0009A420BD00F4B9A4208D00F4B9A4205D035
:101BE0000E4B9A4202D00E4B9A4204D1496825F01E
:101BF00080031943916080F83D40002180F83C103B
:101C0000084670BD022070BD000001400004004085
:101C100000080040000C004000040140004001406A
:101C20000018004010B5040003D094F83D0010B136
:101C300007E0012010BD002084F83C00204600F0A1
:101C40001FF8022084F83D00211D206802F0EEF804
:101C5000012084F8460084F83E0084F83F0084F8B0
:101C6000400084F8410084F8420084F8430084F87E
:101C7000440084F8450084F83D00002010BD0000B9
:101C800008B501681448814201D1144810E0134896
:101C9000001FB1F1804F0BD0114A914210D1016861
:101CA00041F002010160006800F00200009008BDF0
:101CB000016841F001010160006800F00100F5E7F2
:101CC000084A9142F3D1016841F0040101600068C3
:101CD00000F00400EAE70000000001404438024040
:101CE000000400400008004090F83D10012901D098
:101CF00001207047022180F83D100168CA6842F057
:101D00000102CA6000681149884214D0B0F1804FC6
:101D100011D00F4988420ED00E4988420BD00E498F
:101D2000884208D00D49884205D00D49884202D02A
:101D30000C49884204D1816801F00701062903D0CB
:101D4000016841F00101016000207047000001407E
:101D50000004004000080040000C00400004014066
:101D6000004001400018004070B5044690F83C0067
:101D70000025012817D0012684F83C60022084F851
:101D80003D002068826822F0770222F47F42826060
:101D90000868502838D00DDC20284FD005DC90B3DF
:101DA000102811D14AE0022070BD302846D04028CA
:101DB0000AD13BE060282FD070280DD0B0F5805FAD
:101DC00003D0B0F5005F12D0012584F83D600020FB
:101DD00084F83C00284670BDCB68D1E90121206819
:101DE00002F08CF82068816841F0770109E0CB6847
:101DF000D1E90121206802F081F82068816841F46E
:101E000080418160E1E719E0CA684968206802F012
:101E100049F95021206806E0CA684968206802F044
:101E200052F96021206802F073F8CEE7CA68496869
:101E3000206802F037F940212068F4E72268014663
:101E40001046F0E770472DE9F04104460068C66887
:101E500005694FF00007A90713D5B10711D5F91E81
:101E6000016101202077206880698007204602D028
:101E7000FFF7E8FF04E000F012F9204600F0D2F985
:101E80002777680716D5700714D521686FF004000E
:101E90000861022020772068806910F4407F204686
:101EA00002D0FFF7CFFF04E000F0F9F8204600F081
:101EB000B9F92777280715D5300713D521686FF0B2
:101EC00008000861042020772068C0698007204648
:101ED00002D0FFF7B7FF04E000F0E1F8204600F081
:101EE000A1F92777E80616D5F00614D521686FF01A
:101EF00010000861082020772068C06910F4407F36
:101F0000204602D0FFF79EFF04E000F0C8F820460C
:101F100000F088F92777E80708D0F00706D0216895
:101F20006FF001000861204600F07EF9280608D510
:101F3000300606D521686FF0800008612046FFF763
:101F4000FDFD680608D5700606D521686FF04000D3
:101F50000861204600F072F9A8060AD5B00608D537
:101F600021686FF0200008612046BDE8F041FFF7CE
:101F7000E6BDBDE8F081000030B587B0044614210D
:101F80006846FEF7C7F92468294800222949022338
:101F9000012584420ED1086840F0100008600868EE
:101FA00000F01000059048150090CDE90132694617
:101FB000214821E02148B4F1804F10D0204DAC429F
:101FC00020D10C6844F001040C60096801F00101A3
:101FD000059140210091CDE90132694624E00C6869
:101FE00044F001040C60096801F001010591202111
:101FF0000091CDE901326946CDE90325FEF7DEFB0C
:1020000007B030BD0F488442FAD1086840F008009C
:1020100008600868694600F0080005904FF47040B9
:102020000090CDE901320848CDE90323E6E700003E
:102030000000014030380240001002400000024021
:102040000004004000080040000C024070B5044647
:1020500090F83C00002501280FD0012084F83C00B6
:102060006AB1042A0FD0082A11D00C2A13D00125F6
:10207000002084F83C00284670BD022070BD206816
:1020800001F04EFFF4E7206801F07AFFF0E72068E6
:1020900001F0ACFFECE7206801F0DCFFE8E77047F7
:1020A00010B5040003D094F83D0010B107E0012002
:1020B00010BD002084F83C00204600F01EF80220ED
:1020C00084F83D00211D206801F0B0FE012084F855
:1020D000460084F83E0084F83F0084F8400084F80D
:1020E000410084F8420084F8430084F8440084F8F6
:1020F000450084F83D00002010BD704770B50446CF
:1021000090F83C0000260D4601280FD0012084F8ED
:102110003C006AB1042A1DD0082A2FD00C2A3FD0D7
:102120000126002084F83C00304670BD022070BDBE
:10213000206801F0F5FE2068816941F008018161A5
:102140002068816921F004018161206881692A6920
:10215000114311E0206801F013FF2068816941F408
:10216000006181612068816921F48061816120685A
:1021700081692A6941EA02218161D2E7206801F080
:1021800035FF2068C16941F00801C1612068C1695B
:1021900021F00401C1612068C1692A69114311E07D
:1021A000206801F057FF2068C16941F40061C161F6
:1021B0002068C16921F48061C1612068C1692A6910
:1021C00041EA0221C161ACE710B5040003D094F8E4
:1021D0003D0010B107E0012010BD002084F83C0054
:1021E000204600F01EF8022084F83D00211D2068E2
:1021F00001F01CFE012084F8460084F83E0084F8BB
:102200003F0084F8400084F8410084F8420084F8DC
:10221000430084F8440084F8450084F83D00002021
:1022200010BD70477047000000680349884201D123
:10223000FEF780BE704700000010004070477047F6
:1022400070470000F8B5016804460868CA684B6921
:1022500010F00F0F4FF000055AD003F0010602F402
:102260009077374365D0C10705D0D10503D5616CA0
:1022700041F001016164410705D5D90703D0616CC4
:1022800041F002016164810705D5D90703D0616C73
:1022900041F004016164010707D502F020013143D8
:1022A00003D0616C41F008016164616C00293BD08E
:1022B000800604D5900602D5204601F04BFF206829
:1022C0004069616CC0F3801001F0080101432046B1
:1022D0002BD001F018FF20684069400621D5206806
:1022E000143050E8001F21F0400140E80012002A9D
:1022F000F5D1E06BA8B172490165E06BFEF70EF90C
:10230000002811D0E06B016D01B0BDE8F040084736
:1023100083060ED593060CD52046BDE8F84001F0A3
:1023200019BF2046FFF78CFFF8BDFFF789FF6564F2
:10233000F8BD266B2023012E7ED1C6067CD5D6069D
:102340007AD508684868009048694FF00206400650
:102350004DD5E26B106840684FF480770004000CA4
:102360003AD0A18D814237D9E085D069B8422DD0CD
:1023700020680C3050E8001F21F4807140E8001202
:10238000002AF5D12068143050E8001F21F0010127
:1023900040E80012002AF5D12068143050E8001FF0
:1023A00021F0400140E80012002AF5D184F84230C3
:1023B000256320680C3050E8001F21F0100140E830
:1023C0000012002AF5D1E06BFEF75FF86663A08D7E
:1023D000E18D401A81B206E0A18D8142A8D1D06979
:1023E000B842A5D166632046FFF729FFF8BDA08D4E
:1023F000E18D401A81B2E08D0028F7D00029F5D098
:1024000020680C3050E8002F22F4907240E800273A
:10241000002FF5D12068143050E8002F22F001027F
:1024200040E80027002FF5D184F84230256320686A
:102430000C3050E8002F00E006E022F0100240E8E7
:102440000023002BF3D1CDE705062BD5150629D5A2
:1024500094F841002128C9D1A068B0F5805F01D16E
:102460002069B0B1206A411C21622168007848606F
:10247000E08C401E0004000CE084B7D12068C168E5
:1024800021F08001C1602068C16841F04001C16055
:10249000F8BD206A0088C0F308004860206A801CEC
:1024A0002062E5E74006F3D55006F1D5CA6820461C
:1024B00022F04002CA6084F8413000F09CFAF8BD76
:1024C000F940000870B5040004D094F841000025DC
:1024D00010B106E0012070BD84F84050204600F0A5
:1024E00023F8242084F841002068C16821F40051B9
:1024F000C160204601F090FE2068016921F49041FE
:1025000001612068416921F02A0141612068C168A8
:1025100041F40051C1606564202084F8410084F8D2
:1025200042006563002070BD2DE9F04F87B004467E
:1025300014216846FDF7EEFEF848DFF8DC8310381A
:10254000D4F800C0F54B03210222DFF8D4B34027B2
:10255000002506154FF00069C44554D1D3F800C0DA
:102560004CF4002CC3F800C01B6803F4002305934F
:10257000036843F001030360006800F00100059068
:102580008DE826000820CDE9031069465846FEF77D
:1025900015F9DFF89483E3494046C8F80870C0E9AC
:1025A0000356C8F81450C8F81850C8F81C50C8F89A
:1025B0002050C8E90019C8F82450FEF795F808B172
:1025C000FDF761FFD84FD748C4F8388060373038FE
:1025D000C8F838403860C7E90195C7E903567D61FE
:1025E000BD61FD613D6238467D62FEF77DF808B150
:1025F000FDF749FFE763002205213420BC63FEF7A5
:1026000031FD342068E0DFF82483DFF810E34FF079
:10261000070A0EF1040EC44563D1DEF800C0A846D7
:102620004CF0100CCEF800C0DEF8003003F01003C0
:102630000593036843F0010303600068CDE902518C
:1026400000F0010005904FF4C060CDE90002CDF824
:1026500010A069465846FEF7B1F8DFF8CCA2B4499D
:102660000AF1C00A5046CAF80010C0E90195C0E955
:102670000356CAF81450CAF81850CAF81C50CAF8C1
:102680002050CAF82450FEF72FF808B1FDF7FBFEE2
:10269000A84DC4F83CA0A648CAF838407830AF60CE
:1026A000C5E90009C5E90386C5F81480C5F8188096
:1026B000C5F81C80C5F820802846C5F82480FEF7A0
:1026C00013F808B1FDF7DFFEA563002205212520E0
:1026D000AC63FEF7C7FC2520FEF7B6FC07B0BDE8EB
:1026E000F08FDFF85482C44559D1D3F800C04CF4C0
:1026F000003CC3F800C01B6803F400330593036873
:1027000043F0010303600068CDE9025100F00100CD
:1027100005900C20CDE90002CDF810A0694658467E
:10272000FEF74CF8DFF80C827E4908F1600840465D
:10273000C8F80870C0E90356C8F81450C8F8185013
:10274000C8F81C503031C8F82050C8E90019C8F842
:102750002450FDF7C9FF08B1FDF795FE754F71488C
:10276000C4F83880C0371830C8F838403860C7E936
:102770000195C7E903567D61BD61FD613D62384643
:102780007D62FDF7B1FF08B1FDF77DFEE763002232
:1027900005212620BC63FEF765FC26209CE7DFF8B8
:1027A0009C81C44558D1D3F800C04CF4802CC3F8A8
:1027B00000C01B6803F480230593036843F0020301
:1027C00003600068CDE9025100F0020005904FF46B
:1027D0004060CDE90002CDF810A069465848FDF7E9
:1027E000EDFFDFF860814F494046C8F80870C0E946
:1027F0000356C8F81450C8F81850C8F81C501839B7
:10280000C8F82050C8E90019C8F82450FDF76CFF3B
:1028100008B1FDF738FE4B4F4248C4F838806037A6
:102820004838C8F838403860C7E90195C7E9035609
:102830007D61BD61FD613D6238467D62FDF754FFFB
:1028400008B1FDF720FEE763002205212720BC63C5
:10285000FEF708FC27203FE73B4B9C457FF43EAF4B
:10286000DEF800C04CF0200CCEF800C0DEF80030DE
:1028700003F020030593036843F00403036000683A
:1028800000F004000590C0208DE825000820CDE967
:10289000031069462D48FDF791FFDFF8A880244911
:1028A00008F1C0084046C8F80870C0E90356C8F8E7
:1028B0001450C8F81850C8F81C5060314FF0206907
:1028C000C8F82050C8E90019C8F82450FDF70CFFDB
:1028D00008B1FDF7D8FD16481D4FC4F838801838E8
:1028E000C8F838403860C7E90195C7E903567D61EB
:1028F000BD61FD613D6238467D62FDF7F5FE08B1C0
:10290000FDF7C1FDE763002205214720BC63FEF708
:10291000A9FB4720E0E60000004C004040380240A0
:102920000000024070600240B4040020001001402A
:1029300040640240D40500200044004000480040AC
:1029400000040240F4060020001401400008024088
:102950001408002070472DE9F843044690F8410020
:10296000984616460D46202802D00220BDE8F8837E
:1029700085B17EB100206064212084F84100FEF71B
:102980001BF8A6848146E684A0682027B0F5805F06
:1029900002D003E00120E9E7206910B12E460025AE
:1029A0000EE000260CE08021204601F0BBFCA8B917
:1029B000C6B116F8010B21684860E08C401EE08427
:1029C000E08C4B464FF00002CDF800800028EAD1A1
:1029D0004FF04001204601F0A5FC40B184F8417061
:1029E0000320C3E735F8020BC0F30800E3E784F8DF
:1029F00041700020BAE77047FEE700000148FDF78C
:102A0000E3BF0000980000200148FEF73AB800003C
:102A10009800002038B5806B002190F83D202B4BAA
:102A200046F2A8141B68B3FBF4F3C3EBC30303EB38
:102A3000830300933BB15B1E009303681B689B05F7
:102A400005D5009BF6E7036C43F020030364436B5A
:102A500003B1D963836B03B1D96303681C6824F4A1
:102A600080641C604185436B03B11965836B03B1BE
:102A7000196503681C6824F001041C6090F83D404F
:102A80002023602C0BD0282434EA02020FD080F8D7
:102A90003D3080F83E1000BFFEF70BF938BD80F8DE
:102AA0003D3080F83E100164FDF78CFF38BD0268B0
:102AB000136843F0010313600268136843F48063F2
:102AC0001360016380F83D40E6E70000100000203D
:102AD00000684169C943090601D4002101617047BA
:102AE00070B5044690F83D0094F83E10102901D0CE
:102AF000402906D1222804D121680A6822F4006204
:102B00000A60282131EA00024FF000054FF020064C
:102B100026D021684968090505D4602803D084F8C7
:102B20003D6084F83E50256320684168090537D52B
:102B3000416821F400614160606B90F835203C49A8
:102B4000012A11D00165606BFDF7E8FC38B32068FD
:102B5000016821F00101016084F83D60606B1CE0B8
:102B6000256384F83D10DFE7A06B0165A06BFDF7DE
:102B7000D5FCA0B120684169C943490605D4006964
:102B8000616A0870606A401C60622068016821F018
:102B90000101016084F83D60A06B016D884710E081
:102BA00094F83D10602910D04169C943490605D405
:102BB0000069616A0870606A401C60622046FEF726
:102BC00078F8206CC1071CD115E084F83D602564BD
:102BD0004169C943490605D40069616A0870606AA1
:102BE000401C60622068016821F0010101602046FC
:102BF000FDF7E8FEE5E7810703D4410701D40007AC
:102C000004D52068416821F4E061416094F83D00FA
:102C1000216C49070BD5282809D10648E0622563B5
:102C200084F83D6084F83E502046FEF707F970BDF9
:102C3000152A00080000FFFF10B5C26A438D016825
:102C4000042B06D0438D032B08D0438D022B1DD0BF
:102C500012E04A6822F480624A600CE04B6823F478
:102C600080634B60042A06D0022A04D001680A68F7
:102C700022F480620A6001680969426A1170416A3F
:102C8000491C4162418D491E418510BD012A34D045
:102C9000102A32D0042A34D0022A32D00B6843F4EE
:102CA00000730B6001680969436A1970416A491C25
:102CB0004162438D5B1E438503681B690B70416A4B
:102CC000491C4162418D491E418501684B6823F4CE
:102CD00040734B60202180F83D1090F83E30002179
:102CE000402B80F83E1010D0082A02D0202A00D0B5
:102CF00012210163FEF7A3F810BD0B6823F4806373
:102D0000CFE70B6843F48063CBE70163FEF799F8E4
:102D100010BD000038B590F83D10222910D1C36ACB
:102D2000418D03290DD901680969426A1170416A10
:102D3000491C4162418D491E4185418D032906D0C0
:102D400038BDC26A022A02D0012906D029B1006822
:102D5000416821F48061416038BD2A4A46F2A814D6
:102D600000211268B2FBF4F202EB820200920268C8
:102D70002024009D6D1E009526D01568AD05F8D461
:102D8000156825F4806515600268556825F4E065CE
:102D9000556002681269456A2A70426A521C426292
:102DA000428D521E428580F83D4090F83E2080F8CA
:102DB0003E10402A21D0082B02D0202B00D0122117
:102DC0000163FEF73CF838BD036C43F02003036455
:102DD000536823F4E063536002681269436A1A700F
:102DE000426A521C4262428D521E428580F83D402A
:102DF00080F83E10FDF75DFF38BD0163FEF721F856
:102E000038BD00001000002010B5C26A90F83D10D7
:102E100021290BD1418D51B1416A026809781161B4
:102E2000416A491C4162418D491E418510BD2023E4
:102E30000021082A13D0202A11D012F5803F0ED08D
:102E40000268546824F4E06454601122026380F83C
:102E50003E1080F83D3000BFFDF7F2FF10BD026864
:102E6000546824F4E06454600268146844F4007404
:102E70001460016380F83D3090F83E2080F83E10E9
:102E8000402AE9D1FDF7DEFF10BD000010B590F833
:102E90003D1090F83E30C26A048DB4B1212903D0B0
:102EA000402B11D122290FD1418DE1B390F83E1072
:102EB000402942D0416A026809781161416A491C7F
:102EC0004162418D491E418510BD2129E8D1202351
:102ED0000021082A13D0202A11D012F5803F0ED0ED
:102EE0000268546824F4E06454601122026380F89C
:102EF0003E1080F83D3000BFFDF7A2FF10BD026814
:102F0000546824F4E06454600268146844F4007463
:102F10001460016380F83D3090F83E2080F83E1048
:102F2000402AE9D100E002E0FDF78CFF10BD006807
:102F3000416821F48061416010BDBDE8104000F09F
:102F4000D3B8000078B590F83E50C26A036B90F891
:102F50003D6000240168222E7AD1066D0EB9402D05
:102F600076D0056D1DB90569B5F5404F09D0458D81
:102F700005B3468D384D012E0ED0438D022B3AD02D
:102F80005DE04A698A6900920A6842F480720A60C8
:102F9000016D491C016578BDAA4213D10A6822F46B
:102FA00080620A6001684A68120503D50A6822F443
:102FB000806216E04A698A6900920A6842F40072E7
:102FC0000A6039E0082A10D0202A0ED0122B0AD02D
:102FD000042A03D0022A01D0102AE7D10A6842F459
:102FE00080620A6024E0012AE0D00A6822F480624C
:102FF0000A600168DEE7042A21D0022A1FD0102AC5
:103000001DD00B6823F480630B6001680B6843F4E8
:1030100000630B6001684B681B0509D5AA4212D0FA
:10302000012A10D0082A0ED0102A0CD0202A0AD04B
:1030300001684A6989690091046578BD08E00B68F8
:1030400043F48063E5E74A6842F480524A60EFE760
:10305000486988690090F0E70000FFFF90F83E1093
:10306000402910D00169B1F5804F19D0016DA9B385
:10307000016D012910D1416C5FF0F10201F4407142
:1030800042EAD11106E0016D0029416C05D0C9B2B8
:1030900041F0010100680161704701F0FE01F9E7AC
:1030A00090F83D102129416C09D0C9B241F00101CD
:1030B00002681161416B29B1C96B49B902E001F0A5
:1030C000FE01F5E7816B0029E6D0C96B0029E3D04A
:1030D0000068416841F4006141607047FFE7416C5E
:1030E000F02201F44071CBE710B590F83D10026D6D
:1030F0004AB1026D012A14D0026D022A16D0BDE831
:103100001040FFF7E5BCC16C0129816C02D0C1F30E
:10311000072108E00268C9B21161016D891C0165CF
:1031200010BD816CC9B20268116123E022291CD054
:10313000428D0AB1212920D0428D002AF0D12129C7
:10314000EED101684A6822F4E0624A6001680A68C8
:1031500042F400720A6000210163202280F83D20C1
:1031600080F83E10FDF76EFE10BD01680A6842F45B
:1031700080720A60016D491CD1E7416A02680978D2
:103180001161416A491C4162418D491E418510BD52
:1031900038B50C4690F83D2000212825954302685B
:1031A0000B4605D051699169009180F83C3038BDDB
:1031B000556825F480655560E243540700D5012128
:1031C000120601D5828900E0028B80F83C3092B271
:1031D000FDF7F9FB38BD00002DE9F04190F83D30D6
:1031E0000446C26A002120261E4F00686FF48065E5
:1031F000082A01D0202A01D1282B04D0212B17D056
:103200004561BDE8F081E762426822F4E062426015
:10321000206845612068026822F4806202602163B0
:1032200084F83D6084F83E102046FDF707FEE8E78D
:10323000E7622122226384F83D6084F83E104168F1
:1032400021F4E0614160206845612068016821F453
:10325000806101602046FFF73BFC2046FDF739FE08
:10326000CFE700000000FFFFF8B590F83D6004468E
:103270000068416821F4E0614160206800254169EF
:103280000091016841F0010101602068016821F4AA
:103290008061016020684168090520D5474F222ED2
:1032A00048D02A2E46D0616B096849686185618DD6
:1032B00019B1216C41F004012164416821F40061DD
:1032C0004160606BFDF73CF9012808D0606B076531
:1032D000606BFDF723F910B1606B016D8847608D5D
:1032E00008B320684169C943490708D40069616A85
:1032F0000870606A401C6062608D401E60852068B6
:103300004169C943490608D40069616A0870606A66
:10331000401C6062608D401E6085608D18B1206C1D
:1033200040F004002064206C00B32046BDE8F84063
:10333000FFF7D6BBA16B096849686185618D19B13A
:10334000216C41F004012164416821F40061416075
:10335000A06BFDF7F5F80128C1D0A06B0765A06B45
:10336000FDF7DCF80028BAD0A06BB6E72A2E06D10C
:103370002563282084F83D002046FDF7A9FD94F838
:103380003D10202028290DD0216B222901D0222E8A
:1033900007D1256384F83D0084F83E502046FDF7B0
:1033A00097FDF8BD0649E162256384F83D0084F885
:1033B0003E502046FDF742FDF8BD0000152A0008EA
:1033C0000000FFFF314808B5016841F48001016049
:1033D000016801F480010091016841F4001101606D
:1033E0000068002200F40010009005210C20FDF779
:1033F00039FE0C20FDF728FE002205210D20FDF7E7
:1034000031FE0D20FDF720FE002205210E20FDF7E4
:1034100029FE0E20FDF718FE002205210F20FDF7E2
:1034200021FE0F20FDF710FE002205211020FDF7E0
:1034300019FE1020FDF708FE002205211120FDF7DE
:1034400011FE1120FDF700FE002205213920FDF7B5
:1034500009FE3920FDF7F8FD002205213A20FDF78D
:1034600001FE3A20FDF7F0FD002205214520FDF781
:10347000F9FD4520FDF7E8FD002205214620FDF776
:10348000F1FDBDE808404620FDF7DEBD30380240C2
:1034900010B5044A0021044801F04CF803490860C3
:1034A00010BD0000845C0008513D000800000020B1
:1034B0002DE9F04F87B014216846FCF72BFF4D48EB
:1034C0000024016841F010010160016801F0100161
:1034D0000591016841F004010160016801F00401F7
:1034E0000591016841F080010160016801F08001EF
:1034F0000591016841F001010160016801F00101DD
:103500000591016841F002010160016801F00201CA
:103510000591016841F0080101600068DFF8D8807A
:1035200000F0080049F6FC050590002229464046B7
:10353000FDF73CFADFF8C49042F21606002231464D
:103540004846FDF733FADFF8B8A0002202215046C2
:10355000FDF72CFADFF8ACB040F648670022394698
:103560005846FDF723FA00950125CDE90154694637
:1035700040460394FDF722F90096CDE901546946CF
:1035800048460394FDF71AF92020CDE90004694666
:1035900048460294FDF712F93011CDE9000469465E
:1035A00050460294FDF70AF902200090CDE901543B
:1035B000694650460394FDF701F946F20350CDE900
:1035C0000004694640460294FDF7F8F80097CDE9FB
:1035D0000154694658460394FDF7F0F83020CDE9D0
:1035E0000004694658460294FDF7E8F807B0BDE8C4
:1035F000F08F000030380240001002400008024006
:1036000000040240000C02400D4810B50B49016057
:103610000C49416000214FF480428160C0E90312EF
:1036200041618161C1610162FDF744FB002803D063
:10363000BDE81040FCF727BF10BD0000005400405B
:1036400098000020A0860100094810B507490160D4
:103650000021416040F6FF718160FDF73BFC0028CE
:1036600003D0BDE81040FCF70EBF10BD0030004095
:10367000EC0000200F4810B50D4901604FF4827135
:10368000416000218160C1604FF400720161C0E9B6
:103690000512C1610162416281620A21C162FEF7C5
:1036A00071F9002803D0BDE81040FCF7ECBE10BD56
:1036B000003001407C0100200F4810B50D49016029
:1036C0004FF48271416000218160C1604FF400724B
:1036D0000161C0E90512C1610162416281620A2192
:1036E000C162FEF74FF9002803D0BDE81040FCF797
:1036F000CABE10BD00380040D401002010B596B0FD
:1037000000240F9410941194129413941C2108A86F
:103710001494FCF7FFFD20216846FCF7FBFD2848C8
:103720002649C0E900144FF6FF71C0E90241046167
:1037300044618461FEF776FA08B1FCF7A4FE4FF409
:1037400080500F900FA91E48FEF70EFB08B1FCF742
:103750009AFE1B48FEF7A4FC08B1FCF794FE1394F4
:1037600013A917481494FEF715FA08B1FCF78BFE5D
:103770005020CDE908040A940B940C940D94002277
:1037800008A90F480E94FEF761FC08B1FCF77BFE18
:1037900000944FF40050CDE9044002940194039446
:1037A000694607480794FEF7CBF908B1FCF76BFEB2
:1037B0000348FEF7E1FB16B010BD00000000014019
:1037C0002C02002010B58EB00024079408940994B0
:1037D0000A940B941C2168460C94FCF79BFD1D4831
:1037E0004FF08041C0E90014611EC0E9024104614C
:1037F0008461FEF717FA08B1FCF745FE4FF48050DC
:10380000079007A91348FEF7AFFA08B1FCF73BFE93
:103810001048FEF7D9FC08B1FCF735FE0B940BA954
:103820000C480C94FEF7B6F908B1FCF72CFE6020AA
:10383000CDE9000402940022694606480494FEF78C
:103840005DFC08B1FCF71FFE0248FEF795FB0EB0C9
:1038500010BD00007402002010B58EB00024079443
:10386000089409940A940B941C2168460C94FCF764
:1038700051FD1E481C49C0E900144FF6FF71C0E914
:10388000024104618461FEF7CDF908B1FCF7FBFD4C
:103890004FF48050079007A91448FEF765FA08B165
:1038A000FCF7F1FD1148FEF78FFC08B1FCF7EBFDCA
:1038B0000B940BA90D480C94FEF76CF908B1FCF7BA
:1038C000E2FD6020CDE90004029400226946074829
:1038D0000494FEF713FC08B1FCF7D5FD0348FEF78E
:1038E0004BFB0EB010BD000000040040BC020020E5
:1038F00010B58EB000240794089409940A940B9490
:103900001C2168460C94FCF705FD2A482849C0E9AB
:1039100000144FF6FF71C0E9024104618461FEF7B3
:1039200081F908B1FCF7AFFD4FF48050079007A96B
:103930002048FEF719FA08B1FCF7A5FD1D48FEF76F
:1039400043FC08B1FCF79FFD0B940BA919480C949C
:10395000FEF720F908B1FCF796FD6020CDE90004E0
:1039600002940022694613480494FEF7C7FB08B18D
:10397000FCF789FD042269460E48FEF7BFFB08B13B
:10398000FCF781FD082269460A48FEF7B7FB08B13B
:10399000FCF779FD0C2269460648FEF7AFFB08B13B
:1039A000FCF771FD0348FEF7E7FA0EB010BD00000A
:1039B00000080040040300200C4810B50A490160CB
:1039C0004FF4E1314160002181600C22C160C0E907
:1039D00004128161C161FEF775FD002803D0BDE8C6
:1039E0001040FCF750BD10BD004C00404C030020BF
:1039F0000C4810B50A4901604FF4E13141600021E3
:103A000081600C22C160C0E904128161C161FEF7CE
:103A100059FD002803D0BDE81040FCF734BD10BDAF
:103A200000100140940300200C4810B50A490160C1
:103A30004FF4E1314160002181600C22C160C0E996
:103A400004128161C161FEF73DFD002803D0BDE88D
:103A50001040FCF718BD10BD00440040DC030020FE
:103A60000C4810B50A4901604FF41651416000211D
:103A700081600C22C160C0E904128161C161FEF75E
:103A800021FD002803D0BDE81040FCF7FCBC10BDB0
:103A900000480040240400200C4810B50A49016089
:103AA0004FF4E1314160002181600C22C160C0E926
:103AB00004128161C161FEF705FD002803D0BDE855
:103AC0001040FCF7E0BC10BD001401406C04002065
:103AD000FEE7FEE708444069704700000148FDF733
:103AE000CBBD0000F8000020D0F8800070470A68C5
:103AF0008260D1E901231A43D1E903310B43C16844
:103B00001A436FF30B011143C1600020704709682D
:103B1000C0F880100020704710B585B004460D2015
:103B2000CDE9001040200290002003904FF4806007
:103B3000049069462046FFF7DAFF41F288320D21F2
:103B4000204600F01DF805B010BD000010B585B08E
:103B5000044600210C20CDE900104020CDE90201EF
:103B60000001049069462046FFF7C1FF034A0C217B
:103B7000204600F005F805B010BD000000E1F50595
:103B8000454B10B51B684FF4FA54B3FBF4F35343A1
:103B90005B1E02D24FF0004010BD426B12F0450F89
:103BA000F6D01205F4D4426B520703D50421816389
:103BB000084610BD426BD20702D00121816305E0A7
:103BC000C52282630269D2B28A4201D0012010BDAF
:103BD0000021FFF77FFF3149084201D1002010BDCD
:103BE000002802DA4FF0007010BD410001D54020DE
:103BF00010BD810001D5802010BDC10002D54FF459
:103C0000807010BD010102D54FF4007010BD41015C
:103C100002D54FF4806010BDC10102D54FF40060A1
:103C200010BD010202D54FF4805010BD410202D5F3
:103C30004FF4005010BD810202D54FF4804010BDFA
:103C4000C10202D54FF4004010BD410302D54FF42C
:103C5000003010BD810302D54FF4802010BDC10398
:103C600002D54FF4002010BD010402D54FF480109E
:103C700010BD410402D54FF4001010BD810402D5DF
:103C80004FF4800010BD000702D54FF4000010BDB6
:103C90004FF4803010BD00001000002008E0FFFD50
:103CA00010B5846B40F23A50216888632046FDF7D6
:103CB000CDFC012184F8341000212163062801D0B5
:103CC000052805D12068FFF741FFA16B0843A063D9
:103CD000A06B0028204602D0FDF7B7FC10BDFDF711
:103CE000B3FC10BD10B5846B40F23A502168886374
:103CF0002046FDF7ABFC012184F83410002121633C
:103D0000062801D0052805D12068FFF71FFFA16B09
:103D10000843A063A06B0028204602D0FDF795FC65
:103D200010BDFDF791FC10BD0148FDF7ADBD0000D1
:103D30007C0100200148FDF7A7BD0000D401002050
:103D400010B5806B0021C187C186FDF79BFD10BDBA
:103D5000012000F0B3FBFBE710B54FF0E020006955
:103D600001F0DAFD012803D0BDE8104001F008BBE6
:103D700010BD000030B593B030216846FCF7CAFA98
:103D800014210CA8FCF7C6FA1F480025016841F071
:103D900080510160006800F0805011901B4801685C
:103DA00041F4804101600068022400F480401190D9
:103DB000092000904FF4803001900120CDE90504E6
:103DC0008005079004200890A820CDE90904072069
:103DD0000B906846FDF782FA08B172B6FEE70CA9AF
:103DE0000F2081E831004FF4A0500F904FF4805025
:103DF000109005210CA8FDF767F9002801D072B6D4
:103E0000FEE713B030BD00004038024000700040B3
:103E10000248016841F470010160704788ED00E0DC
:103E20000148FEF710B8000074080020F0B50268E1
:103E3000274B284D284E294F294C4FF0804C984253
:103E400009D0604507D0A84205D0B04203D0B8429F
:103E500001D0A04204D122F0700E4A6842EA0E025C
:103E600098421BD0604519D0A84217D0B04215D057
:103E7000B84213D0A04211D01A4DA8420ED01A4D0C
:103E8000A8420BD0194DA84208D0194DA84205D020
:103E9000184DA84202D0184DA84203D122F4407513
:103EA000CA682A434D6922F080022A438D68C562A0
:103EB0000D688562984201D0A04201D10969016371
:103EC000016841F004010160012141610260F0BD1F
:103ED000000001400004004000080040000C0040C9
:103EE00000040140004001400044014000480140FE
:103EF00000180040001C00400020004010B58468FD
:103F000042EA032224F47F440A432243826010BD24
:103F1000826822F070020A4342F007018160704714
:103F2000F0B5036A026A22F0010202624268846903
:103F3000124E24F073050C682C4323F002058B68A5
:103F40002B430D4DA84201D0B04205D123F0080704
:103F5000CB683B4323F00403A84201D0B04205D113
:103F60004D6922F4407215438A692A434260846194
:103F7000496841630362F0BD000001400004014054
:103F8000F0B5026A036A23F0100303624368846990
:103F90000D6824F4E64444EA05248D6822F02002EA
:103FA00042EA05120F4D104EA84201D0B04206D190
:103FB000CF6822F0800242EA071222F04002A842B3
:103FC00001D0B04207D14D6923F4406343EA850331
:103FD0008D6943EA850343608461496881630262B5
:103FE000F0BD00000000014000040140F0B5026A8D
:103FF000036A23F4807303624368C46922F4007285
:1040000024F073050C68124E2C438D6842EA052299
:104010000E4DA84201D0B04206D1CF6822F4006212
:1040200042EA072222F48062A84201D0B04207D1BE
:104030004D6923F4405343EA05138D6943EA0513A0
:104040004360C4614968C1630262F0BD0000014081
:104050000004014030B5046A026A22F48052026210
:104060004268C3690D6823F4E64343EA05238D687B
:1040700024F4005444EA0534084DA84202D0084D07
:10408000A84204D14D6922F4804242EA851242607E
:10409000C36149680164046230BD00000000014052
:1040A0000004014010B5036A046A24F001040462AC
:1040B000846924F0F00444EA021423F00A020A435B
:1040C0008461026210BD10B5036A046A24F0100412
:1040D0000462846923F0A00324F4704444EA0232A9
:1040E00043EA01118261016210BD00000148FEF740
:1040F000A9B800004C03002010B5806B0021C185D9
:10410000FEF79EF810BD01680C3151E8002F22F433
:10411000907241E80023002BF5D10168143151E879
:10412000002F22F0010241E80023002BF5D1016BA2
:10413000012909D101680C3151E8002F22F0100249
:1041400041E80023002BF5D1202180F84210002106
:104150000163704708B590F84210222901D002206F
:1041600008BD82684FF480539A4201D1016921B1A0
:10417000816A9A421BD04AB10AE00268816A526899
:10418000C2F308020A80816A891C08E0026972B1E0
:104190000268526802F07F020A70816A491C8162DB
:1041A000C18D491E0904090CC18503D01BE00268BA
:1041B0005268F1E70168CA6822F02002CA6001680B
:1041C000CA6822F48072CA6001684A6922F001025A
:1041D0004A61202180F8421000214163026B012ACC
:1041E00003D0FEF7B7FB002008BD016301680C3166
:1041F00051E8002F22F0100241E80023002BF5D1F6
:1042000001680A68D20602D50A6849680091818D62
:10421000FEF715F8E7E7000070B50446006801698D
:10422000E26821F44051114301612169A068E2690B
:1042300008436169114308432168CA6849F20C6365
:104240009A430243CA6020684169A26921F440711F
:104250001143416131492068884202D03049884287
:1042600002D1FCF7FBFF01E0FCF7E8FFE269002365
:10427000192164253226B2F5004F626828D0A0FBD0
:104280000101930F9200FBF7FBFF0146B0FBF5F035
:104290006FF01802504301EB800006EB0010B0FBFA
:1042A000F5F000F0F002B1FBF5F002EB0012B1FB0B
:1042B000F5F06FF01803584301EB800006EB001097
:1042C000B0FBF5F000F00F0021681044886070BD6D
:1042D000A0FB010192185B41FBF7D2FF0146B0FB46
:1042E000F5F00201B1FBF5F06FF01803584301EB54
:1042F000800006EBC000B0FBF5F000F0F80002EB28
:104300004002B1FBF5F0584301EB800006EBC00022
:10431000B0FBF5F000F00700D6E700000010014008
:10432000001401402DE9F843984617460D4604460F
:10433000089E24E0701C22D0FCF73EFBA0EB080096
:10434000B0421AD8CEB12068C168490717D5802D70
:1043500015D0402D13D00168C94309070FD4016857
:104360000025406800902046FFF7CDFE08206064DD
:1043700084F840500120BDE8F8830320FBE7206863
:10438000006835EA000004D00020B842D2D00020F6
:10439000F1E70120F9E700000148FDF753BF0000F5
:1043A000940300200148FDF74DBF0000DC0300200E
:1043B0000148FDF747BF0000240400200148FDF735
:1043C00041BF00006C040020FEE70000014A0249E2
:1043D00000F023B83D440008940000200907090EAE
:1043E000002804DB00F1E02080F80014704700F0A2
:1043F0000F0000F1E02080F8141D704702E008C8AB
:10440000121F08C1002AFAD170477047002001E04E
:1044100001C1121F002AFBD170472DE9F041164659
:104420000F460446002503E03946B047641C6D1C66
:1044300020780028F8D12846BDE8F08113B54FF464
:104440007A73012269460248FEF785FA00981CBD7E
:1044500094030020FCF776FDFFF78CFCFFF728F8AB
:10446000FEF7B0FFFFF7D0F8FFF7EEF8FFF702F91D
:10447000FFF722F9FFF742F9FFF7A4F9FFF7ECF98C
:10448000FFF736FAFFF798FAFFF7B2FAFFF7CCFA20
:10449000FFF7E6FAFFF700FB04A0FFF797FF00F035
:1044A0001BF8FEF7F5FF00F029F8FEE77379737447
:1044B000656D2073746172740A00000010B5EFF32B
:1044C000058111B16FF0050403E0002408B100F08C
:1044D000F7FD204610BD0000EFF3058010B16FF02E
:1044E000050070470448016811B14FF0FF30704774
:1044F00001210160002070476400002010B5EFF337
:10450000058010B16FF0050010BD08480168012951
:1045100002D04FF0FF3010BD054A002182F8141D73
:104520000221016000F034FE002010BD6400002074
:104530000BE000E02DE9FF410B464FF00005EFF3E3
:104540000581039549BB40B38027182100244AB355
:10455000166806B1344696691EB13146761E382E6D
:1045600002D21679F60703D0002004B0BDE8F0812E
:10457000566906B1B708D2F808C0BCF1000F0DD0DB
:10458000D5685C2D18D312693AB136B18DE80610A2
:104590003A46214601F095F903900DE0D6685EB9E0
:1045A00012694AB903AACDE90012BAB2214601F054
:1045B0005BF9012800D003950398D6E72DE9F04177
:1045C000134C0F460546E6682068001D00F044FCC9
:1045D000681C07D137B12168BDE8F0410D48091DBD
:1045E00000F08ABC20683544B5424560216805D298
:1045F000A06BBDE8F041091D00F066BC606B091DB1
:1046000000F062FCA06A854200D2A562BDE8F0819C
:1046100014000020AC0D00202DE9F041054600F00B
:1046200077FC2D4CA068401CA06020682B4F10B177
:10463000606930B32BE02560A068012827D10026EF
:1046400006EB860007EB800000F030FC761C382E6D
:10465000F6D3234800F02AFC2148143000F026FC51
:104660001F48283000F022FC1D483C3000F01EFCA2
:104670001B48503000F01AFC194860631430A063E6
:1046800005E02068E96AC06A884200D82560606A4F
:10469000401C60626864E86A2169884200D9206130
:1046A00000EB800007EB8000291D00F025FC00F0E6
:1046B0004FFC606900280CD02068E96AC06A884213
:1046C00007D208494FF080500860BFF34F8FBFF307
:1046D0006F8FBDE8F081000014000020FC0800206E
:1046E0005C0D002004ED00E038B500F011FC104C2A
:1046F0002068C8B90F4800F0D9FB0E48143000F00C
:10470000D5FB0C48E060143020610A4B0020F03BE0
:10471000009003F1500210210A2000F047FE2060B3
:1047200010B105A100F096FCBDE8384000F010BCC7
:1047300050000020B00E0020546D725100000000A7
:1047400030B4026C0B46002A0BD0C1681144C16022
:104750008468A14201D30168C16030BC1846FBF7F0
:10476000C0BD30BC70472DE9F041856B174604464B
:104770000026026C82B1C7B1E068FBF7B2FDE168C8
:10478000206C091AE1602268914202D2A168081ADD
:10479000E060022F16D017E02068A8B9A06801F0E9
:1047A00033F906460020A0600EE06068FBF799FD33
:1047B000216C606808446060A168884204D3206866
:1047C000606001E005B16D1E6D1CA5633046BDE85B
:1047D000F08110B5044690F8590058B101280CD06A
:1047E00002280FD0502080F31188BFF34F8FBFF302
:1047F0006F8FFEE7206B00F0BFFB2046BDE8104046
:1048000000F0BABB10BD000010484FF470514207D1
:1048100006D0C01D0D4920F00700411AC1F57051A6
:104820000B4A00230144C2E900030839183A21F079
:10483000070111604B600B600B1AC0E90013936015
:104840004FF0004053605061704700009015002009
:1048500080000020144E154CA6F29C474FF0805863
:10486000DFF84C9012E000BF00F052FBF068C56822
:10487000281D00F0F1FAA068401EA0606068401E8C
:10488000606000F065FB2846FFF7A3FF6068002822
:10489000EAD138680128F9D9C9F80080BFF34F8FF1
:1048A000BFF36F8FF2E70000980D00201400002086
:1048B00004ED00E070B51D46049C51B1C4F8002021
:1048C000C4E90F010121204600F0A4FD84F84C50FA
:1048D00070BD2460F4E700002DE9F05F8846DDE953
:1048E0000B941546834691009A460A9EA522206B9A
:1048F000FBF709FD6FF00301206B01EB8501084414
:1049000020F00707780707D0502080F31188BFF305
:104910004F8FBFF36F8FFEE70025B8F1000F0FD068
:104920005FF00000221818F8001082F8341018F810
:10493000001011B1401C1028F4D384F8435001E05A
:1049400084F83450382E00D33726E662C4E9136564
:10495000201D00F0B6FA04F1180000F0B2FA24614C
:10496000C6F138006462A061656584F8585052460B
:104970005946384600F05AFA2060B9F1000F01D0CC
:10498000C9F80040BDE8F09F30B5114900E011467C
:104990000A688242FBD34B685C18844203D14068AA
:1049A00018444860084643681C18944209D1084CD2
:1049B000183C2468A24209D052681A4442600A682E
:1049C00012680260814200D0086030BD0460F9E7DF
:1049D0008000002070B5002441600B4D00619142C1
:1049E00006D8D11A8269914206D2011D286907E0D2
:1049F0009A4203D2994201D3012403E0011DE868E1
:104A000000F062FA204670BD5000002010B5044648
:104A100000F07EFAA06B28B15FF0000400F098FA75
:104A2000204610BD0124F9E730B589B03C4D6EE059
:104A30000498002806DADDE90601059A90470498F3
:104A4000002864DB069C606910B1201D00F004FAA8
:104A500003A800F0D7F8024604980A2857D2DFE8E6
:104A600000F00505052D334A05052D3394F828007F
:104A700040F0010084F828000599A069059B0144D5
:104A80002046FFF7A7FF68B3216A2046884794F8BD
:104A9000280040073BD5002000900598A16900231D
:104AA00042181946204601F0B9F8D8B9502080F3D1
:104AB0001188BFF34F8FBFF36F8FFEE714F8280FF5
:104AC00020F00100207022E094F8280040F001005E
:104AD00084F828000598A06128B181181346204663
:104AE000FFF778FF13E0502080F31188BFF34F8F5A
:104AF000BFF36F8FFEE794F82800810703D42046A8
:104B000000F03AFA03E020F0010084F828000022C7
:104B100004A9286800F0D2FD002889D109B030BD71
:104B2000500000202DE9FC410F46054600F074FBC3
:104B300001A800F067F80446019818B100F0DCFF06
:104B4000BDE8FC81254EAFB130690068D0B30027C5
:104B5000291B3A46306800F091FA00F0CDFF00289A
:104B6000EED11F494FF080500860BFF34F8FBFF365
:104B70006F8FE5E7A542EBD800F0BEFFF06827464F
:104B8000C068C468201D00F067F994F82800410748
:104B900019D5A0692B4641193A462046FFF71AFF5E
:104BA000A8B100200346014600902A46204601F0A5
:104BB00035F860B9502080F31188BFF34F8FBFF3F1
:104BC0006F8FFEE707E020F0010084F82800216ADB
:104BD00020468847B4E70127BAE7000050000020CC
:104BE00004ED00E00648416B096829B1416BC968D2
:104BF000C9684968816270474FF0FF31FAE70000E9
:104C00001400002070B5054600F094FE064E0446E0
:104C1000B068844203D200F009F8012000E00020CF
:104C200028602046B46070BD50000020F8B5194DD2
:104C300020E0C068C4680668201D00F00DF9216AF4
:104C40002046884794F82800400713D5A0693044CF
:104C5000B04206D924616060211DE86800F034F993
:104C600008E000200346014600903246204600F04E
:104C7000D5FF38B1E86801680029DAD12969C5E9AA
:104C80000310F8BD502080F31188BFF34F8FBFF39E
:104C90006F8FFEE75000002008484068401C4FF02E
:104CA000500080F3118804D0BFF34F8FBFF36F8F94
:104CB000FEE7BFF34F8FBFF36F8FFEE78800002042
:104CC000074CE068016841B1C0680021D0F80000DD
:104CD000FFF728FFFFF7A8FEF3E701210020F7E721
:104CE000500000202DE9F041044600F011F994F93C
:104CF000455004F1240609E0606A48B1304600F0EE
:104D0000C3FE08B100F00AFA6D1E6DB2002DF3DC8F
:104D10004FF0FF3684F8456000F01AF900F0F8F81B
:104D200094F9445004F1100709E0206948B138466D
:104D300000F0AAFE08B100F0F1F96D1E6DB2002D71
:104D4000F3DC84F84460BDE8F04100F001B90000F4
:104D50002DE9F0410546002700F05EFA324E30683A
:104D600008B9FFF751FD706905424ED1C5B308354A
:104D700068070ED005F00700C0F108000544680779
:104D800007D0502080F31188BFF34F8FBFF36F8F90
:104D9000FEE72DB37068854237D8234818300146A6
:104DA0000C6801E020460C466168A94202D22168E5
:104DB0000029F7D131688C4227D00768216801604B
:104DC00060680837411B10290FD96019420708D0C5
:104DD000502080F31188BFF34F8FBFF36F8FFEE732
:104DE00013E041606560FFF7CFFD61687068401AAD
:104DF0007060B268904200D2B060706901430020D8
:104E0000C4E90001F068401CF06000F075FE78070E
:104E100007D0502080F31188BFF34F8FBFF36F8FFF
:104E2000FEE73846BDE8F0816800002010B5031F9A
:104E30004FF080741C601B1F21F001011960191FC5
:104E4000044B0B6014390A60091F6FF002024438EA
:104E50000A6010BD994C0008D0E9013201699A60DE
:104E6000D0E901235A604A68824201D182684A60CF
:104E7000002202610868401E086008687047000050
:104E8000034B036003F15C000860802010607047F2
:104E9000D80E0020044B036003F15C0008604FF45F
:104EA00080701060704700003411002000F108018C
:104EB0004FF0FF32C0E90112C160016100210160C1
:104EC000704700210161704730B50B685A1C02D051
:104ED00000F1080202E0026904E0224654682568F5
:104EE0009D42FAD953684B6099608A6051600861AD
:104EF0000168491C016030BD42684A6093688B605C
:104F000093685960916008610168491C01607047AD
:104F1000502080F31188BFF34F8FBFF36F8F0A4982
:104F20004868401C486001280CD10848006810F00F
:104F3000FF0F07D0502080F31188BFF34F8FBFF3CE
:104F40006F8FFEE7704700008800002004ED00E04E
:104F50000849486828B1401E486001D180F3118893
:104F60007047502080F31188BFF34F8FBFF36F8FCE
:104F7000FEE700008800002070B500282AD0164DFA
:104F8000A0F1080460686969084207D1502080F3E5
:104F90001188BFF34F8FBFF36F8FFEE722683AB1DE
:104FA000502080F31188BFF34F8FBFF36F8FFEE760
:104FB0008843606000F030F96068696808446860A0
:104FC0002046FFF7E1FC2869401C2861BDE87040DD
:104FD00000F092BD70BD0000680000204FF0E0209E
:104FE00000210161816105494FF47A720968B1FBC2
:104FF000F2F1491E41610721016170471000002054
:1050000010B5FBF727F9114910280ED300F1E02065
:1050100090F8F0030A78904207D2502080F311886C
:10502000BFF34F8FBFF36F8FFEE7094800688968B1
:1050300000F4E060884207D9502080F31188BFF364
:105040004F8FBFF36F8FFEE710BD00008800002078
:105050000CED00E010B5084B002200BF53F83240C1
:105060001CB1521C082AF9D310BD43F8321003EBCF
:10507000C201486010BD0000BC08002070B5154694
:105080000E460446FFF744FF94F944100020491CE3
:1050900001D184F8440094F94510491C01D184F8E9
:1050A0004500FFF755FFA06B28B92A46314604F1A9
:1050B000240000F051F82046BDE87040FFF712BE12
:1050C00010B5020014D00F48006B38B1502080F3A7
:1050D0001188BFF34F8FBFF36F8FFEE700F09CF88E
:1050E00000211046FFF76AFA00F006FD002807D1FC
:1050F00005494FF080500860BFF34F8FBFF36F8FAB
:1051000010BD00001400002004ED00E002490A6A0E
:105110000260C96841607047140000200149012005
:10512000C86170471400002010B50C4650B1094901
:1051300009681831FFF7C8FE2046BDE8104001217C
:10514000FFF73CBA502080F31188BFF34F8FBFF3B5
:105150006F8FFEE71400002070B514460D4668B14D
:105160000A4909681831FFF7C7FE0CB14FF0FF3547
:1051700021462846BDE87040FFF720BA502080F352
:105180001188BFF34F8FBFF36F8FFEE7140000202D
:1051900030B587B00024039405AA04A903A8049499
:1051A000FFF76EFEDDE903010094CDE90110002355
:1051B00015A11748059A00F084FB164D0028E862F7
:1051C0001FD000F0FBFC012809D0401C19D1502051
:1051D00080F31188BFF34F8FBFF36F8FFEE750202E
:1051E00080F31188BFF34F8FBFF36F8F4FF0FF3005
:1051F000A86201206861EC6007B0BDE8304000F0B3
:1052000045B807B030BD000049444C4500000000DF
:1052100055480008140000200248016B491C016336
:105220007047000014000020164810B5016B11B142
:105230000121C16110BD0021C1610169124A01E073
:10524000B9B1491E01EB810352F82330002BF7D08E
:1052500001EB810302EB830202F1080453685B68EF
:105260005360A34201D15B685360DA680260016158
:1052700010BD502080F31188BFF34F8FBFF36F8FA5
:10528000FEE7000014000020FC0800201CB5374891
:105290000168374A914207D1502080F31188BFF34B
:1052A0004F8FBFF36F8FFEE700683149491E884278
:1052B00007D1502080F31188BFF34F8FBFF36F8F5A
:1052C000FEE72C4908780190FF20087008788DF8D7
:1052D00000009DF800009DF8002000F0F0009042D2
:1052E00007D0502080F31188BFF34F8FBFF36F8F2B
:1052F000FEE79DF80000204C00F0500020700720D1
:10530000A06005E09DF8002052008DF80020401EAE
:105310009DF800201206F5D4A060032807D0502085
:1053200080F31188BFF34F8FBFF36F8FFEE74FF409
:105330004070A060019808700C482030016841F46A
:1053400070010160016841F070410160FFF746FEA5
:1053500000206060FAF746FF0848016841F04041CC
:105360000160FAF72BFF00201CBD000000ED00E0FB
:1053700071C20F4100E400E08800002034EF00E03B
:1053800010B5502080F31188BFF34F8FBFF36F8F9C
:1053900000F0D6FA18B104494FF0805008600020A0
:1053A00080F3118810BD000004ED00E038B5049DC5
:1053B00018B153B1CAB181B120E0502080F31188F7
:1053C000BFF34F8FBFF36F8FFEE7502080F311883C
:1053D000BFF34F8FBFF36F8FFEE7502080F311882C
:1053E000BFF34F8FBFF36F8FFEE739B1502080F3CB
:1053F0001188BFF34F8FBFF36F8FFEE750241C4619
:10540000012384F846302B460094FFF753FA2046D8
:1054100038BD000070B50D46040025D0FFF778FDBB
:10542000D4E90F20216802FB0011A1600021A163D3
:10543000216861600A46D4E90F01401E00FB01218A
:10544000E16021464FF0FF3001F8440F487004F14D
:1054500010008DB1FFF72AFD04F12400FFF726FDAF
:10546000FFF776FD012070BD502080F31188BFF357
:105470004F8FBFF36F8FFEE721690029F0D000F056
:1054800003FB0028ECD004494FF080500860BFF3C4
:105490004F8FBFF36F8FE3E704ED00E02DE9FF4787
:1054A00082B01D468A464FF00008040003D0BAF1CE
:1054B000000F08D011E0502080F31188BFF34F8F08
:1054C000BFF36F8FFEE7206C38B1502080F3118856
:1054D000BFF34F8FBFF36F8FFEE7022D0AD1E06B52
:1054E000012807D0502080F31188BFF34F8FBFF3FE
:1054F0006F8FFEE700F010FA3F4F4FF000094FF0BA
:10550000805648B9049838B1502080F31188BFF311
:105510004F8FBFF36F8FFEE7FFF7FAFCA06BE16BD5
:10552000884207D3022D05D00498D0B1B8F1000FFE
:105530001AD01EE02A4651462046FFF714F9616A48
:1055400019B104F1240000F09FFA20B13E60BFF3CE
:105550004F8FBFF36F8FFFF7FBFC012006B0BDE854
:10556000F087FFF7F5FC22E06846FFF7CFFD4FF02C
:105570000108FFF7EDFCFFF74FFEFFF7C9FC94F9B8
:105580004400401C01D184F8449094F94500401C2B
:1055900001D184F84590FFF7DBFC04A9684600F0D0
:1055A00029F930B12046FFF79DFB00F0A5FA002055
:1055B000D4E7FFF7ADFCA06BE16B884213D1FFF796
:1055C000C7FC04F110000499FFF7AEFD2046FFF779
:1055D00089FB00F091FA00289ED13E60BFF34F8F07
:1055E000BFF36F8F98E7FFF7B3FC2046FFF77AFB16
:1055F00000F082FA90E7000004ED00E02DE9F047AA
:105600001F4690468946040003D0B9F1000F08D028
:1056100011E0502080F31188BFF34F8FBFF36F8FDD
:10562000FEE7206C38B1502080F31188BFF34F8F14
:10563000BFF36F8FFEE7022F0AD1E06B012807D07E
:10564000502080F31188BFF34F8FBFF36F8FFEE7B9
:10565000FFF7D6FC5020EFF3118680F31188BFF3DB
:105660004F8FBFF36F8FA06BE16B884206D3022F81
:1056700004D0002086F31188BDE8F08794F94550E6
:10568000A06B3A4649462046FFF76DF8681C04D0E7
:105690006D1C84F845500120ECE7606A0028FAD0C0
:1056A00004F1240000F0F0F90028F4D0B8F1000F64
:1056B000F1D00121C8F80010EDE700002DE9F7470F
:1056C000002683B08A46040003D0BAF1000F08D048
:1056D00011E0502080F31188BFF34F8FBFF36F8F1D
:1056E000FEE7206C38B1502080F31188BFF34F8F54
:1056F000BFF36F8FFEE700F00FF9DFF8F4804FF093
:1057000000094FF0805748B9059838B1502080F310
:105710001188BFF34F8FBFF36F8FFEE7FFF7F8FBE2
:10572000A56BC5B151462046FFF70AF86D1EA5636B
:10573000206950B104F1100000F0A6F928B1C8F8B2
:105740000070BFF34F8FBFF36F8FFFF701FC012095
:1057500006B0BDE8F087059808B11EB106E0FFF776
:10576000F7FB27E06846FFF7D1FC0126FFF7F0FBC7
:10577000FFF752FDFFF7CCFB94F94400401C01D128
:1057800084F8449094F94500401C01D184F8459078
:10579000FFF7DEFB05A9684600F02CF8002820463C
:1057A0000AD0FFF79FFA00F0A7F92046FFF72EF97D
:1057B0000028B3D00020CBE7FFF728F990B104F11F
:1057C00024000599FFF7B0FC2046FFF78BFA00F0A4
:1057D00093F90028A2D1C8F80070BFF34F8FBFF330
:1057E0006F8F9BE72046FFF77DFA00F085F995E77C
:1057F00004ED00E02DE9F0410C46050011D0C4B1E4
:10580000FFF786FB174BDA686E682068911B471C10
:1058100017D02F681B6A9F4219D0964217D80124CF
:1058200010E0502080F31188BFF34F8FBFF36F8FCC
:10583000FEE7502080F31188BFF34F8FBFF36F8FC7
:10584000FEE70024FFF784FB2046BDE8F081884294
:1058500005D9401A20602846FFF758FCF1E70020E0
:105860002060DCE7140000202DE9FF5F8346DDE9BE
:105870000E87994616468A469000FFF769FA05009A
:105880001CD05C20FFF764FA040014D000202563CC
:1058900084F85900CDE90240CDE900874B463246F5
:1058A00051465846FFF718F82046FEF7B5FE01208E
:1058B00004B0BDE8F09F2846FFF75EFB4FF0FF30D5
:1058C000F6E7F0B585B0DDE90B640A9DA6B1DCB161
:1058D0005C2700972663022684F85960002604AFEF
:1058E000CDE90246CDE90057FEF7F6FF2046FEF768
:1058F00093FE049805B0F0BD502080F31188BFF3EB
:105900004F8FBFF36F8FFEE7502080F31188BFF3F6
:105910004F8FBFF36F8FFEE70548416919B1006BE8
:1059200018B1002070470120704702207047000026
:10593000140000200148C0687047000014000020D7
:105940002DE9F0412E4C0027206B28B1A069401CA6
:10595000A0613846BDE8F081E668761CE66013D1A8
:10596000606B006838B1502080F31188BFF34F8F0F
:10597000BFF36F8FFEE7606BA16B6163A063206A6A
:10598000401C2062FFF72EF9A06ADFF8788086427B
:1059900009D3606B0068A0B1606BC068C5686868B7
:1059A000864211D2A0622068C06A00EB800158F8DC
:1059B0002100012800D90127E0690028C9D001276A
:1059C000C7E74FF0FF30EDE7281DFFF745FAA86A5B
:1059D00018B105F11800FFF73FFAE86A216988421B
:1059E00000D9206100EB800108EB8100291DFFF741
:1059F00083FAE86A2168C96A8842CAD30127C8E7DE
:105A000014000020FC08002070B504004FF00001D5
:105A100033D01B4D2868844207D0502080F3118872
:105A2000BFF34F8FBFF36F8FFEE7206D38B1401E7D
:105A30002065E36CE26A9A421FD040B11DE050201D
:105A400080F31188BFF34F8FBFF36F8FFEE7201DE8
:105A5000FFF702FAE06CE062C0F13800A061E06A92
:105A60002969884200D92861064900EB800001EBD2
:105A70008000211DFFF740FA0121084670BD00009B
:105A800014000020FC08002070B5C068C46854B140
:105A900004F118000646FFF7DFF9144D286B50B1EA
:105AA0003146134815E0502080F31188BFF34F8F23
:105AB000BFF36F8FFEE7201DFFF7CEF9E06A29697B
:105AC000884200D928610B4900EB800001EB80007F
:105AD000211DFFF711FAE06A2968C96A884202D9D4
