:020000040800F2
:10000000B05500205D020008D73A0008272A0008F2
:10001000D53A00088D0300081147000800000000D1
:100020000000000000000000000000009D0100082A
:100030008504000800000000F90100085140000894
:1000400077020008770200087702000877020008AC
:10005000770200087702000877020008770200089C
:10006000770200087702000877020008770200088C
:10007000910300089D030008A9030008B5030008C8
:10008000C1030008CD0300087702000877020008CA
:10009000770200087702000877020008770200085C
:1000A000770200087702000877020008770200084C
:1000B000770200087702000877020008352A000856
:1000C000292A000877020008770200081D4000086E
:1000D00029400008E1460008ED460008F9460008FE
:1000E000770200087702000877020008770200080C
:1000F00077020008770200087702000877020008FC
:1001000077020008D13D0008770200087702000856
:10011000014400087702000819410008770200082E
:1001200077020008D9030008E503000877020008F9
:1001300077020008000000000000000077020008BD
:1001400077020008770200087702000877020008AB
:1001500077020008F1030008FD03000805470008C6
:10016000770200087702000877020008770200088B
:10017000770200087702000800000000000000007D
:100180007702000877020008DFF80CD000F0ECF8E6
:10019000004800479D470008B05500202C4B1968C7
:1001A0000868B0E8F04F80F30988BFF36F8F4FF015
:1001B000000080F3118870470000000008480068C4
:1001C000006880F308884FF0000080F3148862B65E
:1001D00061B6BFF34F8FBFF36F8F00DF00BF00BF6B
:1001E00008ED00E0DFF80C00016841F470010160E7
:1001F000704700BF88ED00E0EFF30980BFF36F8F19
:10020000134B1A681EF0100F08BF20ED108A20E96A
:10021000F04F106009B44FF0500080F31188BFF325
:100220004F8FBFF36F8F05F0C7F94FF0000080F3D9
:10023000118809BC19680868B0E8F04F1EF0100F6B
:1002400008BFB0EC108A80F30988BFF36F8F704746
:1002500024000020EFF30580704700000648804727
:1002600006480047FEE7FEE7FEE7FEE7FEE7FEE79B
:10027000FEE7FEE7FEE7FEE7094100088901000806
:100280002DE9F05F0546002092469B4688460646CB
:10029000814640241BE0284641464746224600F05E
:1002A00053F853465A46C01A914110D31146184686
:1002B000224600F03AF82D1A67EB01084F46224615
:1002C0000120002100F031F817EB00094E41201EFB
:1002D000A4F10104DFDC484631462A464346BDE826
:1002E000F09F40EA01039B0703D009E008C9121FF1
:1002F00008C0042AFAD203E011F8013B00F8013BE0
:10030000521EF9D27047D2B201E000F8012B491E0B
:10031000FBD270470022F6E710B513460A460446A2
:100320001946FFF7F0FF204610BD202A04DB203AD3
:1003300000FA02F1002070479140C2F1200320FA38
:1003400003F3194390407047202A04DB203A21FA36
:1003500002F00021704721FA02F3D040C2F12002DE
:100360009140084319467047064C074D06E0E06887
:1003700040F0010394E8070098471034AC42F6D3EC
:10038000FFF706FF6460000884600008FEE70000D5
:10039000014800F0D9B8000074070020014800F0BF
:1003A000D3B8000034050020014800F0CDB80000AB
:1003B00014070020014800F0C7B80000D404002052
:1003C000014800F0C1B80000B4060020014800F068
:1003D000BBB8000054060020014800F0B5B800008A
:1003E00034080020014800F0AFB800009405002058
:1003F000014800F0A9B80000D4070020014800F02F
:10040000A3B80000F405002001681823CAB2103A0E
:10041000B2FBF3F2054B6FF30901032A9B5CC36542
:1004200000D9091D81650846704700003860000842
:1004300010B5014600208B698A6A4FF0C07453B131
:10044000B3F5005F15D072B1012A0CD0022A0AD090
:10045000032A09D104E01AB1012A06D0022A03D1E5
:10046000C96AC90100D5012010BDC96AA142FAD0EC
:1004700010BD002AF7D0012AF2D0022AF3D0032AB5
:10048000F3D010BD704772B6FEE72DE9F041044687
:10049000876D00F091FA064694F835000025022891
:1004A00006D08020606584F834500120BDE8F081DA
:1004B0002068016821F0160101602068416921F07F
:1004C00080014161206C08B9A06C20B120680168EE
:1004D00021F0080101602068016821F0010101603C
:1004E0000CE000F069FA801B052807D92020606520
:1004F000032084F8350084F83450D7E7206800687A
:10050000C007EED194F85C103F208840B86001200D
:1005100084F8350084F834500020C7E790F835108F
:10052000022903D08021416501207047052180F810
:1005300035100068016821F001010160002070475A
:1005400090F83500704700002DE9F84304464FF05D
:100550000009CDF8009063484FF41651A56D00686E
:10056000B0FBF1F72E6894F85C10082000FA01F156
:1005700031420FD021680A6852070BD50A6822F071
:1005800004020A6094F85C108840A860606D40F036
:100590000100606594F85C104FF0010808FA01F062
:1005A000304208D021684969090604D5A860606D09
:1005B00040F00200606594F85C10042088403042EE
:1005C00008D021680968890704D5A860606D40F0EB
:1005D0000400606594F85C1010208840304218D008
:1005E00021680968090714D5A860206801684903D3
:1005F00004D50068000308D5A16C07E00168C905AF
:1006000003D4016821F008010160216C09B1204682
:10061000884794F85C1020208840304231D021680F
:100620000968C9062DD5A86094F83500052820680A
:10063000016806D0490347D5006800031DD4616CEA
:100640001CE021F0160101602068416921F0800161
:100650004161206C08B9A06C20B12068016821F0CC
:100660000801016094F85C103F208840A86084F87D
:10067000358084F83490216D1FE0E16B09B120468C
:100680008847606D00282BD0606DC00714D005200E
:1006900084F835002068016821F0010101600098AC
:1006A000401C0090B84203D820680068C007F6D10B
:1006B00084F8358084F83490E16C002910D001B0C2
:1006C0002046BDE8F04308470168C905D5D4016854
:1006D00021F01001016084F8358084F83490CCE773
:1006E000BDE8F883200000202DE9F041044600F029
:1006F00063F906465CB1022084F83500002584F8D1
:1007000034502068016821F0010101600DE00120F2
:10071000BDE8F08100F050F9801B052805D92020A4
:100720006065032084F83500F2E720680068C007A0
:10073000F0D12268116820480140D4E90103184330
:10074000D4E903363343184363691843A369184354
:10075000E3691843236A18430843616A042903D1F3
:10076000D4E90B1319430843106020684069666A96
:1007700020F0070130460E43012704280CD1A06A5F
:100780000643E06A40B12046FFF752FE20B1402008
:10079000606584F83570BAE7206846612046FFF747
:1007A00033FE94F85C203F2191408160656584F8B8
:1007B00035700020ACE700003F8010F02DE9F84FC5
:1007C000DFF8BCA10022012503264FF00F090AF132
:1007D000040BAAF1040E00BF0B6805FA02F42340D3
:1007E000A34270D10F7907F00307012F01D0022F28
:1007F00016D187684FEA420806FA08FC27EA0C0778
:10080000D1F80CC00CFA08FC4CEA070CC0F808C080
:100810004768A7430C79C4F3001494403C434460F8
:100820000C79E443A4070AD0C4684FEA420C06FAE4
:100830000CF7BC438F6807FA0CF72743C7600C79A5
:1008400004F00304022C12D1D40800EB840CDCF871
:1008500020405707FF0E09FA07F824EA0804D1F8E8
:10086000108008FA07F848EA0408CCF820800468E9
:100870004FEA420C06FA0CF7BC430F7907F0030766
:1008800007FA0CF7274307604C6814F4403F70D018
:100890003C4C276847F480472760246822F0030710
:1008A00004F480440094384C07EB040CDCF808484E
:1008B00097074FEA177809FA08F7BC43334FB84255
:1008C00002D1002724E054E0314FB84201D1012782
:1008D0001EE0304FB84201D1022719E02E4FB84236
:1008E00001D1032714E02D4FB84201D104270FE0B6
:1008F0002B4FB84201D105270AE02A4FB84201D157
:10090000062705E0284FB84201D1072700E0082755
:1009100007FA08F72743CCF80878DAF8004057467A
:10092000D1F804C09C435FEACC2C00D51C433C604A
:10093000DBF800405F46D1F804C09C435FEA8C2C92
:1009400000D51C433C60DEF800407746D1F804C077
:100950009C435FEA8C3C00D51C433C60084F083F39
:100960003C68D1F804C09C435FEACC3C00D51C43F2
:100970003C60521C102AFFF42FAFBDE8F88F000036
:10098000083C014044380240003001400000024071
:100990000004024000080240000C02400010024027
:1009A0000014024000180240001C02400AB181619C
:1009B00070470904FBE700000148806870470000A9
:1009C00014000020704770472DE9F041016804468B
:1009D0004A694E6890F83E000025D743FA0506D4D0
:1009E000F243D20503D46FF4807201254A61B90540
:1009F00008D4F143C90505D422686FF4007145F0AD
:100A000002055161790525D4F143C90522D4638DCE
:100A100094F83D10226B202808D13BB9212910D031
:100A200029290ED0282901D1212A0AD022686FF461
:100A30008061516145F00405102806D0402804D09B
:100A400008E0204602F0DEFB04E02068016841F483
:100A500000710160380508D4F043C00505D4216851
:100A60006FF4006045F008054861002D07D0206C48
:100A7000284320642046BDE8F04102F047B8BDE8B5
:100A8000F0812DE9F047026800215368C66A90F8AA
:100A90003E4090F83D50102C12D0402C10D0046CE9
:100AA000002C7DD05469E443A6077AD4DE43B60512
:100AB00077D4036C03B19169BDE8F04702F07EBBC7
:100AC000976951694FF42A0CC9435FEAC1784FF026
:100AD0002A4904D066452AD04E4528D010E0DE438E
:100AE000B6050DD4C16A614501D1012103E0C16A97
:100AF000494501D10821C162BDE8F04702F0C4BAFE
:100B00000E0716D4DE43B60513D4416CC9B2116189
:100B1000416B09B1C96B29B9816B002907D0C96B39
:100B2000002904D00068416841F400614160BDE8DB
:100B3000F0878E0706D4DE43B60503D4BDE8F04740
:100B400002F016BAFE43526876074FEA02521DD4ED
:100B5000002AECDB0A0608D4DA43520505D449071B
:100B600005D5BDE8F04702F0A7B94907DFD4D9435E
:100B70008905DCD4212D05D0402CD8D1BDE8F04723
:100B800002F0C8BABDE8F04702F054B9002ACEDB43
:100B90004A060BD4DA43520508D4490708D501E0C8
:100BA0000DE00EE0BDE8F04702F0CAB84907BED438
:100BB000D9438905BBD4BDE8F04702F053B8916929
:100BC00070E7E10606D4D943890503D4BDE8F047B0
:100BD00002F060BB2821212D27D0292D25D06506C4
:100BE00055D4DD436D0552D4640752D590F83D309D
:100BF000448D002C9BD01269446A2270426A521CB8
:100C00004262428D521E4285428D002A8FD12A2B8C
:100C10008DD10268536823F48063536022220263FB
:100C200080F83D1000F054F981E7250623D4DD4318
:100C30006D0520D4640720D590F83D30448D002CFC
:100C4000F2D0446A24781461426A521C4262428D96
:100C5000521E4285428D002AE6D1292BE4D102683A
:100C6000536823F4806353602122026380F83D10AF
:100C700000F02FF95BE76107D6D4D9438905D3D4B7
:100C8000418D0029D0D0416A097811610AE06107DD
:100C9000CAD4D9438905C7D4418D0029C4D011696C
:100CA000426A1170416A491C4162418D491E418569
:100CB0003DE7704770B5040025D094F83D0000254D
:100CC00020B984F83C50204600F0BEF8242084F877
:100CD0003D002068016821F0010101602068016881
:100CE00041F4004101602068016821F40041016085
:100CF00000F074FA4D4A6168914201D84C4900E015
:100D00004C49884201D2012070BD4B492368B0FB99
:100D1000F1F15E6826F03F060E435E606368934221
:100D200006D94FF4967359434FF47A73B1FBF3F13C
:100D30002368491C1E6A26F03F0631431962616828
:100D4000914210D84900401EB0FBF1F2521CC2F390
:100D50000B02042A01D2042022E0B0FBF1F0401C77
:100D6000C0F30B001CE0A268F2B301EBC10303EB7C
:100D70000116431EB3FBF6F35B1C43F480431B05D3
:100D800049D092B301EBC10202EB0111401EB0FB4E
:100D9000F1F0401CC0F30B0040F4804040F40040F0
:100DA0002168CA694CF6FF739A431043C861D4E9BD
:100DB000071001432068026822F0C002114301605D
:100DC000D4E9030101432068826848F2FF339A4363
:100DD00011438160D4E9050108432168CA6822F003
:100DE000FF021043C86001E00EE016E020680168D1
:100DF00041F0010101602564202084F83D00256355
:100E000084F83E50002070BD01EB4106431EB3FB49
:100E1000F6F35B1CB3E70120C2E701EB4101401E82
:100E2000B0FBF1F0401CC0F30B00B7E7A086010057
:100E300080841E0000093D0040420F00704770474B
:100E4000704770477047000010B586B00446142103
:100E50006846FFF75FFA1B492068884230D11A487C
:100E60000021026842F002020260006800F0020005
:100E70000590C02000901220CDE9010103200390CD
:100E80000420049069461148FFF798FC0E48103082
:100E9000016841F4001101600068002200F40010B4
:100EA000059005211F2000F0ADF81F2000F09CF8F0
:100EB00000220521202000F0A5F8202000F094F861
:100EC00006B010BD0054004030380240000402401B
:100ED000704770470248816802781144816070470A
:100EE000140000200B4810B5016841F40071016046
:100EF000016841F480610160016841F48071016022
:100F0000032000F09FF80F2000F006F800F050F8E2
:100F1000002010BD003C024030B505461F4887B098
:100F20000024016841F010010160006806A900F08A
:100F30001000009001A800F031F90498A8B100F069
:100F40004DF940001649174AB0FBF1F11648491E09
:100F5000026040F2E732C0E90324C0E90114846171
:100F600000F030FE040003D015E000F037F9E9E7A7
:100F70000D4800F089FE04000DD1362000F034F851
:100F8000102D07D200222946362000F03BF80748F2
:100F9000056000E0012407B0204630BD4038024023
:100FA00040420F000010004094080020180000206C
:100FB0000C4882B0016841F480410160006800F48F
:100FC000804000900748001F016841F08051016097
:100FD0000068002200F0805000900F21901E02B0A7
:100FE00000F010B844380240002809DB00F01F026E
:100FF000012191404009800000F1E020C0F800117B
:1010000070470000F0B40E4B1B680C46C3F302237C
:10101000C3F10705042D00D90425191D072901D2A4
:10102000002300E0DB1E012606FA05F1491E2140DF
:1010300099409E40761E16403143F0BC03F072BBCF
:101040000CED00E0064900F0070208684FF6FF03C8
:10105000184040EA0220034A10430860704700002D
:101060000CED00E00000FA052DE9F0470E46050002
:1010700065D0DFF81481D8F80000F7B200F007005F
:10108000B04207D288F80070D8F8000000F00700DE
:10109000B04254D128683D4C810712D5400703D592
:1010A000206840F4E05020602878000703D52068CD
:1010B00040F4604020602068A96820F0F0000843F8
:1010C00020602878C0072DD0304968680839012889
:1010D00012D0022813D0032811D0096889070029EB
:1010E0002DDA216821F0030101432160FFF764FC40
:1010F000814641F2883A0EE009688903EFE7096802
:101100008901ECE7FFF758FCA0EB0901514502D932
:101110000320BDE8F0872068696800F00C00B0EBA0
:10112000810FEFD1D8F80010404601F00701B1421D
:1011300007D90770006800F00700B04201D0012015
:10114000E7E72878400705D52068E96820F4E050F3
:10115000084320602878000706D52068296920F414
:10116000604040EAC100206000F058F82168084A59
:10117000C1F30311515CC840064908600648006885
:10118000FFF7CAFE0020C4E7003C024008380240D6
:101190004060000820000020180000200F2202609C
:1011A0000C4A136803F003034360136803F0F00371
:1011B0008360136803F4E053C36012684FF4E05394
:1011C00003EAD20202610448006800F007000860E8
:1011D0007047000008380240003C024004480549BE
:1011E00000680968044AC1F38221515CC840704715
:1011F00020000020083802405060000804480549DB
:1012000000680968044AC1F34231515CC840704724
:10121000200000200838024050600008154810B532
:10122000006810F00C02144813D04110042A0FD0AB
:10123000082A0ED10F4C241F2268236802F03F02B7
:101240005B0207D52068C0F38810A0FB010106E00F
:10125000084610BD2168C1F38811A1FB00010023DD
:10126000FFF70EF82168C1F30141491C4900B0FBAA
:10127000F1F010BD083802400024F4002DE9F84FC9
:1012800004006ED02078DFF84C93C007A9F1040564
:101290004AD009F104000168C1F38101012908D095
:1012A0000068C0F3810002280AD1D9F8000040028A
:1012B00006D52868800337D560680028E1D033E080
:1012C0006068B0F5803F10D0B0F5A02F286810D02E
:1012D00020F480302860286820F48020286060682E
:1012E000A8B1FFF769FB06460DE0286840F480309E
:1012F000F4E740F480202860F7E700BFFFF75CFBCD
:10130000801B642873D828688003F7D50CE0FFF7AA
:1013100053FB064605E000BFFFF74EFB801B642829
:10132000F0D828688003F7D42078DFF8AC828007F3
:101330004FF0000A3ED5A748001D016811F00C0FC0
:1013400008D00068C0F3810002280BD1D9F8000052
:10135000400207D42868800716D5E068012800D12C
:1013600012E033E1E068B8B10120C8F80000FFF7EF
:1013700023FB064605E000BFFFF71EFB801B02288B
:10138000C0D828688007F7D52868216920F0F800C0
:1013900040EAC10028600DE0C8F800A0FFF70CFB90
:1013A000064604E0FFF708FB801B02281FD82868C8
:1013B0008007F7D42078000722D5864F87486169D7
:1013C000703771B101210160FFF7F6FA064604E0BB
:1013D000FFF7F2FA801B022809D838688007F7D592
:1013E0000EE0C0F800A0FFF7E7FA064605E082E04D
:1013F000FFF7E2FA801B02287DD838688007F7D40F
:101400002078400768D5DFF8CCB100270BF13C0B02
:10141000DBF80000C0000BD4DBF8001041F0805175
:10142000CBF80010DBF80000012700F0805000909E
:101430006B4E3068C00510D4306840F48070306066
:10144000FFF7BAFA009005E0FFF7B6FA0099401AE4
:10145000022850D83068C005F6D55E4EA0686C36BC
:1014600001280FD00528306810D020F0010030602E
:10147000306820F004003060A068B8B1FFF79CFA33
:1014800000900FE0306840F00100F4E740F0040005
:101490003060F7E7FFF790FA0099411A41F288307F
:1014A000814266D830688007F4D50EE0FFF784FAF1
:1014B000009007E0FFF780FA0099411A41F2883066
:1014C000814256D830688007F4D42FB1DBF8001081
:1014D00021F08051CBF80010A069C8B33D49091D27
:1014E0000968C1F3810102294AD00228504607D079
:1014F000C8F8600000E03CE0FFF75EFA04463BE01D
:101500004746C8F86000FFF757FA064605E000BFF7
:10151000FFF752FA801B02282BD828688001F7D4E5
:10152000D4E907010843A16A2E4A490802EB0141A8
:10153000626A41EA8211084394F82C1040EA016182
:10154000C9F8001001203866FFF736FA044606E0B5
:101550003EE000BFFFF730FA001B022809D82868D8
:101560008001F7D534E000BFFFF726FA001B022800
:1015700002D90320BDE8F88F28688001F4D427E061
:101580000128F7D0D9F80000E26900F48001914207
:101590001CD1226A00F03F01914217D147F6C07179
:1015A000626A0140B1EB821F10D1A26A4FF0FF3393
:1015B00000F4403103EB5202B1EB024F06D194F834
:1015C0002C1000F07060B0EB016F01D00120D1E76A
:1015D0000020CFE70438024000004742800E474217
:1015E000007000400000FFFF7047704770B5044670
:1015F000B0F8500000250104206802F007FC18B183
:10160000A16B0143A16304E00021206802F0DCFB30
:101610000546C5F3432070BDF8B5056B0446006868
:10162000416B09041BD5290719D5D4E90A56002EA8
:1016300014D00027206802F0D1FB05F8010B010A45
:1016400005F8011B010C05F8021B000E361F7F1C5C
:1016500005F8010C082FEDD3C4E90A56F8BD416B1B
:101660004FF00006C9054FF0010744D539028163E8
:101670002068C16B4CF23A329143C1632068C16A61
:1016800021F00101C16228071DD515F0220F09D0F4
:10169000206802F0D5FB28B1A16B0143A16320466D
:1016A000FFF7A3FF216840F23A50886384F8347052
:1016B0002663A80703D0204600F0B2F8F8BD204604
:1016C00000F0AFF8F8BD2806FCD5A80609D52068BB
:1016D00002F0B6FB28B1A16B0143A1632046FFF7DE
:1016E00084FFA807EED12068C16A21F00801C16219
:1016F00084F83470E3E7416B490424D5290722D5E7
:10170000D4E90856002EDDD05FF0000715F8010B74
:10171000009015F8011B361F40EA0120009015F8D3
:10172000021B40EA0140009015F8011C40EA0160EC
:1017300000906946206802F064FB7F1C082FE5D307
:10174000C4E90856F8BD416B40F23A221142F9D083
:10175000416B890703D5A16B41F00201A163416B85
:10176000090703D5A16B41F00801A163416B89060C
:1017700003D5A16B41F02001A163416BC90603D5DC
:10178000A16B41F01001A163416B890503D5A16BE9
:1017900041F00801A16340F23A7181632068C16B96
:1017A00040F23A329143C163206802F049FBA16BD9
:1017B0000843A063280706D584F8347026632046C2
:1017C000FFF713FFF8BD2806FCD515F0300F0CD03D
:1017D000E16B11480865E06BFEF7A0FE0028F1D030
:1017E000E06BBDE8F84002F0F7BBA8070CD0216C15
:1017F0000A480865206CFEF791FE0028E2D0206CB4
:10180000BDE8F84002F0C6BBA66384F834702663D6
:101810002046FFF7E9FEF8BDD93F0008953F0008D4
:10182000704770477047000038B5016804464A6841
:101830008868C043430606D5C30704D1D3435B067B
:1018400001D4216C05E0830708D4D3431B0605D4DB
:10185000616C01B02046BDE830400847830603D5DF
:10186000430601D5C30551D4D3439B064ED443064A
:101870000AD494F85130032B49D0636D43F004032C
:101880006365CB688B680093830609D4636D43F06E
:10189000010363658B6800930B6823F040030B60C2
:1018A000C00506D4606D40F008006065206880685F
:1018B0000090606D002829D02068416821F0E00187
:1018C0004160012084F85100900701D4D00722D054
:1018D0002068416821F003014160114DE06C40B186
:1018E0000565E06CFEF71AFE18B1606D40F040002F
:1018F0006065A06C002809D00565A06CFEF70EFE9F
:10190000002803D0606D40F04000606538BDC868B5
:101910008868009038BD2046FFF784FF38BD00007E
:101920003540000870B5040009D0606A002540B158
:1019300025616561A56294F8510040B10CE0012079
:1019400070BD6068B0F5827FF4D0E561F2E784F89D
:101950005050204600F044F8022084F851002068DE
:10196000016821F040010160A088218900F48270A3
:1019700001F404410843A18901F400610843217C7A
:1019800001F002010843217D01F001010843218B90
:1019900001F400710843217F01F03801084394F8F5
:1019A000201001F080010843218D01F4005108430B
:1019B00021680860A069042101EA104094F824100D
:1019C00001F010010843216848602068C16921F4D2
:1019D0000061C1616565012084F85100002070BD7F
:1019E0002DE9F04186B0044614216846FEF792FCCA
:1019F000354A216800243548022503260527DFF8EB
:101A0000D080914234D1314914310A6842F4805275
:101A10000A60096801F480510591016841F00101F3
:101A20000160016801F001010591016841F00201C6
:101A30000160006802AA00F0020005909020CDE944
:101A4000000582E8D00069462248FEF7B7FE08206C
:101A5000CDE9000502AA694682E8D0004046FEF7BB
:101A6000ADFE002205212320FFF7CCFA232025E03C
:101A7000194A914224D1154910310A6842F4804232
:101A80000A60096801F480410591016841F0020192
:101A90000160006802AA00F0020005904FF4704057
:101AA000CDE9000582E8D00069464046FEF786FE93
:101AB000002205212420FFF7A5FA2420FFF794FA3D
:101AC00006B0BDE8F081000000300140303802402F
:101AD0000004024000000240003800407047704798
:101AE00010B590F83C20012A22D0012280F83C2039
:101AF000CA688C6822F4407222434C6822F48062E7
:101B000022430C6822F4006222430C6922F48052C2
:101B100022434C6922F400522243C969002322F473
:101B200080420A4301684A6480F83C30002010BDBE
:101B3000022010BD70B590F83C20012A32D001245B
:101B400080F83C40022280F83D2003685A689D6876
:101B500022F070060A6832435A60134B02689A42B8
:101B600014D0B2F1804F11D0104B9A420ED0104BCE
:101B70009A420BD00F4B9A4208D00F4B9A4205D095
:101B80000E4B9A4202D00E4B9A4204D1496825F07E
:101B900080031943916080F83D40002180F83C109B
:101BA000084670BD022070BD0000014000040040E6
:101BB00000080040000C00400004014000400140CB
:101BC0000018004010B5040003D094F83D0010B197
:101BD00007E0012010BD002084F83C00204600F002
:101BE0001FF8022084F83D00211D206802F09AFAB7
:101BF000012084F8460084F83E0084F83F0084F811
:101C0000400084F8410084F8420084F8430084F8DE
:101C1000440084F8450084F83D00002010BD000019
:101C200008B501681448814201D1144810E01348F6
:101C3000001FB1F1804F0BD0114A914210D10168C1
:101C400041F002010160006800F00200009008BD50
:101C5000016841F001010160006800F00100F5E752
:101C6000084A9142F3D1016841F004010160006823
:101C700000F00400EAE700000000014044380240A0
:101C8000000400400008004090F83D10012901D0F8
:101C900001207047022180F83D100168CA6842F0B7
:101CA0000102CA6000681149884214D0B0F1804F27
:101CB00011D00F4988420ED00E4988420BD00E49F0
:101CC000884208D00D49884205D00D49884202D08B
:101CD0000C49884204D1816801F00701062903D02C
:101CE000016841F0010101600020704700000140DF
:101CF0000004004000080040000C004000040140C7
:101D0000004001400018004070B5044690F83C00C7
:101D10000025012817D0012684F83C60022084F8B1
:101D20003D002068826822F0770222F47F428260C0
:101D30000868502838D00DDC20284FD005DC90B33F
:101D4000102811D14AE0022070BD302846D040282A
:101D50000AD13BE060282FD070280DD0B0F5805F0D
:101D600003D0B0F5005F12D0012584F83D6000205B
:101D700084F83C00284670BDCB68D1E90121206879
:101D800002F045FA2068816841F0770109E0CB68EC
:101D9000D1E90121206802F03AFA2068816841F413
:101DA00080418160E1E719E0CA684968206802F073
:101DB00003FB5021206806E0CA684968206802F0E9
:101DC0000CFB6021206802F02CFACEE7CA68496853
:101DD000206802F0F1FA40212068F4E72268014609
:101DE0001046F0E770472DE9F04104460068C668E8
:101DF00005694FF00007A90713D5B10711D5F91EE2
:101E0000016101202077206880698007204602D088
:101E1000FFF7E8FF04E000F0E9F8204600F07BF966
:101E20002777680716D5700714D521686FF004006E
:101E30000861022020772068806910F4407F2046E6
:101E400002D0FFF7CFFF04E000F0D0F8204600F00A
:101E500062F92777280715D5300713D521686FF069
:101E600008000861042020772068C06980072046A8
:101E700002D0FFF7B7FF04E000F0B8F8204600F00A
:101E80004AF92777E80616D5F00614D521686FF0D1
:101E900010000861082020772068C06910F4407F96
:101EA000204602D0FFF79EFF04E000F09FF8204696
:101EB00000F031F92777E80708D0F00706D021684D
:101EC0006FF001000861204600F08AF9280608D565
:101ED000300606D521686FF0800008612046FFF7C4
:101EE000FDFD680608D5700606D521686FF0400034
:101EF0000861204600F07EF9A8060AD5B00608D58C
:101F000021686FF0200008612046BDE8F041FFF72E
:101F1000E6BDBDE8F081000030B587B0044614216D
:101F20006846FEF7F7F92468294800222949022368
:101F3000012584420ED1086840F01000086008684E
:101F400000F01000059048150090CDE90132694677
:101F5000214823E02148B4F1804F12D0204DAC42FB
:101F600022D10C6844F001040C60096801F0010101
:101F7000059140210091CDE901326946CDE9032365
:101F80000EE00C6844F001040C60096801F00101E6
:101F9000059120210091CDE901326946CDE9032563
:101FA000FEF70CFC07B030BD0E488442FAD1086839
:101FB00040F0080008600868CDE9022300F008003E
:101FC00005906014CDE90003694607480493E7E7EC
:101FD0000000014030380240001002400000024082
:101FE0000004004000080040000C0240704770B53B
:101FF000044690F83C0000260D4601280FD0012031
:1020000084F83C006AB1042A1DD0082A2FD00C2A7B
:102010003FD00126002084F83C00304670BD0220ED
:1020200070BD206802F006F92068816941F008015E
:1020300081612068816921F00401816120688169E2
:102040002A69114311E0206802F024F920688169AF
:1020500041F4006181612068816921F480618161BE
:10206000206881692A6941EA02218161D2E72068FA
:1020700002F046F92068C16941F00801C161206899
:10208000C16921F00401C1612068C1692A69114355
:1020900011E0206802F068F92068C16941F400612C
:1020A000C1612068C16921F48061C1612068C16992
:1020B0002A6941EA0221C161ACE710B5040003D0EE
:1020C00094F83D0010B107E0012010BD002084F815
:1020D0003C00204600F01EF8022084F83D00211D3F
:1020E000206802F01FF8012084F8460084F83E00C2
:1020F00084F83F0084F8400084F8410084F84200EE
:1021000084F8430084F8440084F8450084F83D00D6
:10211000002010BD7047704710B50446022249B137
:1021200004290ED0082913D094F84100012816D0B4
:10213000012010BD94F83E000128F9D184F83E201A
:102140000FE094F83F000128F2D184F83F2008E026
:1021500094F840000128EBD184F8402001E084F895
:1021600041200122206802F045F816492068164AED
:10217000884201D0904203D1436C43F4004343644E
:102180002068884213D0B0F1804F10D00F498842A8
:102190000DD00F4988420AD00E49884207D090429C
:1021A00005D00D49884202D00C49884204D181688B
:1021B00001F00701062903D0016841F00101016027
:1021C000002010BD00000140000401400004004058
:1021D00000080040000C0040004001400018004092
:1021E00000680349884201D1FEF774BE70470000C1
:1021F000001000407047704770470000F8B5016854
:1022000004460868CA684B6910F00F0F4FF00005CC
:102210005AD003F0010602F49077374365D0C10726
:1022200005D0D10503D5616C41F00101616441071E
:1022300005D5D90703D0616C41F0020161648107C3
:1022400005D5D90703D0616C41F004016164010731
:1022500007D502F02001314303D0616C41F0080141
:102260006164616C00293BD0800604D5900602D5DC
:10227000204602F0F9F820684069616CC0F38010D4
:1022800001F00801014320462BD002F0C6F8206877
:102290004069400621D52068143050E8001F21F025
:1022A000400140E80012002AF5D1E06BA8B1724964
:1022B0000165E06BFEF732F9002811D0E06B016D8B
:1022C00001B0BDE8F040084783060ED593060CD553
:1022D0002046BDE8F84002F0C7B82046FFF78CFF63
:1022E000F8BDFFF789FF6564F8BD266B2023012E3A
:1022F0007ED1C6067CD5D6067AD508684868009097
:1023000048694FF0020640064DD5E26B1068406800
:102310004FF480770004000C3AD0A18D814237D968
:10232000E085D069B8422DD020680C3050E8001FFD
:1023300021F4807140E80012002AF5D120681430A1
:1023400050E8001F21F0010140E80012002AF5D1F9
:102350002068143050E8001F21F0400140E80012CE
:10236000002AF5D184F84230256320680C3050E80B
:10237000001F21F0100140E80012002AF5D1E06BA7
:10238000FEF783F86663A08DE18D401A81B206E006
:10239000A18D8142A8D1D069B842A5D166632046FB
:1023A000FFF729FFF8BDA08DE18D401A81B2E08DC5
:1023B0000028F7D00029F5D020680C3050E8002F15
:1023C00022F4907240E80027002FF5D120681430E5
:1023D00050E8002F22F0010240E80027002FF5D13D
:1023E00084F84230256320680C3050E8002F00E06C
:1023F00006E022F0100240E80023002BF3D1CDE7E5
:1024000005062BD5150629D594F841002128C9D1F8
:10241000A068B0F5805F01D12069B0B1206A411C8D
:102420002162216800784860E08C401E0004000CA6
:10243000E084B7D12068C16821F08001C1602068C4
:10244000C16841F04001C160F8BD206A0088C0F356
:1024500008004860206A801C2062E5E74006F3D54A
:102460005006F1D5CA68204622F04002CA6084F8BE
:10247000413000F0D7FAF8BD0D44000870B50400F3
:1024800004D094F84100002510B106E0012070BD91
:1024900084F84050204600F023F8242084F84100BE
:1024A0002068C16821F40051C160204602F03EF866
:1024B0002068016921F4904101612068416921F09F
:1024C0002A0141612068C16841F40051C16065641E
:1024D000202084F8410084F842006563002070BD2C
:1024E0002DE9F04F87B0044614216846FDF712FF2E
:1024F000F848DFF8DC831038D4F800C0F54B03212E
:102500000222DFF8D4B34027002506154FF00069FA
:10251000C44554D1D3F800C04CF4002CC3F800C01B
:102520001B6803F400230593036843F00103036071
:10253000006800F0010005908DE826000820CDE934
:10254000031069465846FEF739F9DFF89483E349EA
:102550004046C8F80870C0E90356C8F81450C8F8D7
:102560001850C8F81C50C8F82050C8E90019C8F81D
:102570002450FEF7B9F808B1FDF785FFD84FD748CA
:10258000C4F8388060373038C8F838403860C7E958
:102590000195C7E903567D61BD61FD613D62384625
:1025A0007D62FEF7A1F808B1FDF76DFFE763002239
:1025B00005213420BC63FEF725FD342068E0DFF8F8
:1025C0002483DFF810E34FF0070A0EF1040EC44530
:1025D00063D1DEF800C0A8464CF0100CCEF800C065
:1025E000DEF8003003F010030593036843F00103A5
:1025F00003600068CDE9025100F0010005904FF43E
:10260000C060CDE90002CDF810A069465846FEF73B
:10261000D5F8DFF8CCA2B4490AF1C00A5046CAF88E
:102620000010C0E90195C0E90356CAF81450CAF871
:102630001850CAF81C50CAF82050CAF82450FEF7A7
:1026400053F808B1FDF71FFFA84DC4F83CA0A648F9
:10265000CAF838407830AF60C5E90009C5E903869B
:10266000C5F81480C5F81880C5F81C80C5F820800E
:102670002846C5F82480FEF737F808B1FDF703FFB8
:10268000A563002205212520AC63FEF7BBFC2520B5
:10269000FEF7AAFC07B0BDE8F08FDFF85482C4450E
:1026A00059D1D3F800C04CF4003CC3F800C01B68FB
:1026B00003F400330593036843F0010303600068EB
:1026C000CDE9025100F0010005900C20CDE9000297
:1026D000CDF810A069465846FEF770F8DFF80C8276
:1026E0007E4908F160084046C8F80870C0E9035602
:1026F000C8F81450C8F81850C8F81C503031C8F841
:102700002050C8E90019C8F82450FDF7EDFF08B1C2
:10271000FDF7B9FE754F7148C4F83880C0371830DE
:10272000C8F838403860C7E90195C7E903567D61AC
:10273000BD61FD613D6238467D62FDF7D5FF08B1A0
:10274000FDF7A1FEE763002205212620BC63FEF70A
:1027500059FC26209CE7DFF89C81C44558D1D3F86A
:1027600000C04CF4802CC3F800C01B6803F4802325
:102770000593036843F0020303600068CDE902514A
:1027800000F0020005904FF44060CDE90002CDF862
:1027900010A069465848FEF711F8DFF860814F49EC
:1027A0004046C8F80870C0E90356C8F81450C8F885
:1027B0001850C8F81C501839C8F82050C8E900193A
:1027C000C8F82450FDF790FF08B1FDF75CFE4B4FB1
:1027D0004248C4F8388060374838C8F83840386014
:1027E000C7E90195C7E903567D61BD61FD613D62A1
:1027F00038467D62FDF778FF08B1FDF744FEE763D8
:10280000002205212720BC63FEF7FCFB27203FE7C1
:102810003B4B9C457FF43EAFDEF800C04CF0200CF3
:10282000CEF800C0DEF8003003F020030593036803
:1028300043F004030360006800F004000590C0202A
:102840008DE825000820CDE9031069462D48FDF7E5
:10285000B5FFDFF8A880244908F1C0084046C8F851
:102860000870C0E90356C8F81450C8F81850C8F8E2
:102870001C5060314FF02069C8F82050C8E9001999
:10288000C8F82450FDF730FF08B1FDF7FCFD1648ED
:102890001D4FC4F838801838C8F838403860C7E988
:1028A0000195C7E903567D61BD61FD613D62384612
:1028B0007D62FDF719FF08B1FDF7E5FDE763002232
:1028C00005214720BC63FEF79DFB4720E0E60000A2
:1028D000004C00404038024000000240706002405E
:1028E000D40400200010014040640240F4050020A0
:1028F000004400400048004000040240140700204B
:1029000000140140000802403408002090F84230D2
:10291000202B01D00220704721B11AB1002303639C
:1029200001F08ABE0120704710B500681149884245
:102930001ED111488178A1B902464178127809B9AF
:10294000552A0ED10D4B5A54491CC9B241700E295B
:1029500007D101218170002141700748001D01F05D
:1029600087F9BDE81040012203490548FFF7CEBFB3
:1029700010BD00000010014004000020A80000204D
:10298000B40300202DE9F843044690F8410098462E
:1029900016460D46202802D00220BDE8F88385B1F6
:1029A0007EB100206064212084F84100FEF704F825
:1029B000A6848146E684A0682027B0F5805F02D017
:1029C00003E00120E9E7206910B12E4600250EE062
:1029D00000260CE08021204601F049FEA8B9C6B1CE
:1029E00016F8010B21684860E08C401EE084E08C02
:1029F0004B464FF00002CDF800800028EAD14FF09E
:102A00004001204601F033FE40B184F841700320BC
:102A1000C3E735F8020BC0F30800E3E784F8417020
:102A20000020BAE77047FEE70148FDF7CDBF000080
:102A3000C40000200148FEF724B80000C4000020B4
:102A400038B5806B002190F83D202B4B46F2A8143E
:102A50001B68B3FBF4F3C3EBC30303EB83030093E3
:102A60003BB15B1E009303681B689B0505D5009B6B
:102A7000F6E7036C43F020030364436B03B1D963AF
:102A8000836B03B1D96303681C6824F480641C6001
:102A90004185436B03B11965836B03B11965036805
:102AA0001C6824F001041C6090F83D402023602C39
:102AB0000BD0282434EA02020FD080F83D3080F891
:102AC0003E1000BFFEF7F5F838BD80F83D3080F8C5
:102AD0003E100164FDF776FF38BD0268136843F0CD
:102AE000010313600268136843F480631360016399
:102AF00080F83D40E6E700002000002000684169C2
:102B0000C943090601D400210161704770B504462C
:102B100090F83D0094F83E10102901D0402906D1CC
:102B2000222804D121680A6822F400620A60282160
:102B300031EA00024FF000054FF0200626D0216850
:102B40004968090505D4602803D084F83D6084F8FD
:102B50003E50256320684168090537D5416821F456
:102B600000614160606B90F835203C49012A11D02A
:102B70000165606BFDF7D2FC38B32068016821F075
:102B80000101016084F83D60606B1CE0256384F8FE
:102B90003D10DFE7A06B0165A06BFDF7BFFCA0B1A6
:102BA00020684169C943490605D40069616A087013
:102BB000606A401C60622068016821F001010160C8
:102BC00084F83D60A06B016D884710E094F83D10DB
:102BD000602910D04169C943490605D40069616A7A
:102BE0000870606A401C60622046FEF762F8206C44
:102BF000C1071CD115E084F83D6025644169C943D3
:102C0000490605D40069616A0870606A401C606208
:102C10002068016821F0010101602046FDF7D2FE25
:102C2000E5E7810703D4410701D4000704D52068F4
:102C3000416821F4E061416094F83D00216C49074E
:102C40000BD5282809D10648E062256384F83D6049
:102C500084F83E502046FEF7F1F870BD412A000886
:102C60000000FFFF10B5C26A438D0168042B06D037
:102C7000438D032B08D0438D022B1DD012E04A68F0
:102C800022F480624A600CE04B6823F480634B605E
:102C9000042A06D0022A04D001680A6822F480625D
:102CA0000A6001680969426A1170416A491C4162FF
:102CB000418D491E418510BD012A34D0102A32D0E1
:102CC000042A34D0022A32D00B6843F400730B601C
:102CD00001680969436A1970416A491C4162438D60
:102CE0005B1E438503681B690B70416A491C416286
:102CF000418D491E418501684B6823F440734B6048
:102D0000202180F83D1090F83E300021402B80F8C3
:102D10003E1010D0082A02D0202A00D012210163D0
:102D2000FEF78DF810BD0B6823F48063CFE70B68C6
:102D300043F48063CBE70163FEF783F810BD000026
:102D400038B590F83D10222910D1C36A418D03296E
:102D50000DD901680969426A1170416A491C4162D2
:102D6000418D491E4185418D032906D038BDC26A77
:102D7000022A02D0012906D029B10068416821F455
:102D80008061416038BD2A4A46F2A81400211268C9
:102D9000B2FBF4F202EB8202009202682024009D52
:102DA0006D1E009526D01568AD05F8D4156825F47C
:102DB000806515600268556825F4E0655560026815
:102DC0001269456A2A70426A521C4262428D521E42
:102DD000428580F83D4090F83E2080F83E10402A21
:102DE00021D0082B02D0202B00D012210163FEF746
:102DF00026F838BD036C43F020030364536823F4C2
:102E0000E063536002681269436A1A70426A521C96
:102E10004262428D521E428580F83D4080F83E104D
:102E2000FDF747FF38BD0163FEF70BF838BD000022
:102E30002000002010B5C26A90F83D1021290BD166
:102E4000418D51B1416A026809781161416A491C9A
:102E50004162418D491E418510BD20230021082A71
:102E600013D0202A11D012F5803F0ED0026854688A
:102E700024F4E06454601122026380F83E1080F86C
:102E80003D3000BFFDF7DCFF10BD0268546824F43C
:102E9000E06454600268146844F4007414600163D0
:102EA00080F83D3090F83E2080F83E10402AE9D16D
:102EB000FDF7C8FF10BD000010B590F83D1090F868
:102EC0003E30C26A048DB4B1212903D0402B11D108
:102ED00022290FD1418DE1B390F83E10402942D014
:102EE000416A026809781161416A491C4162418D59
:102EF000491E418510BD2129E8D120230021082A3F
:102F000013D0202A11D012F5803F0ED002685468E9
:102F100024F4E06454601122026380F83E1080F8CB
:102F20003D3000BFFDF78CFF10BD0268546824F4EB
:102F3000E06454600268146844F40074146001632F
:102F400080F83D3090F83E2080F83E10402AE9D1CC
:102F500000E002E0FDF776FF10BD0068416821F453
:102F60008061416010BDBDE8104000F0D3B80000A2
:102F700078B590F83E50C26A036B90F83D6000242B
:102F80000168222E7AD1066D0EB9402D76D0056DDE
:102F90001DB90569B5F5404F09D0458D05B3468D7E
:102FA000384D012E0ED0438D022B3AD05DE04A6998
:102FB0008A6900920A6842F480720A60016D491CB5
:102FC000016578BDAA4213D10A6822F480620A60C2
:102FD00001684A68120503D50A6822F4806216E087
:102FE0004A698A6900920A6842F400720A6039E00C
:102FF000082A10D0202A0ED0122B0AD0042A03D07F
:10300000022A01D0102AE7D10A6842F480620A60DD
:1030100024E0012AE0D00A6822F480620A60016894
:10302000DEE7042A21D0022A1FD0102A1DD00B6807
:1030300023F480630B6001680B6843F400630B604A
:1030400001684B681B0509D5AA4212D0012A10D08D
:10305000082A0ED0102A0CD0202A0AD001684A690A
:1030600089690091046578BD08E00B6843F48063CA
:10307000E5E74A6842F480524A60EFE748698869A8
:103080000090F0E70000FFFF90F83E10402910D0BC
:103090000169B1F5804F19D0016DA9B3016D012906
:1030A00010D1416C5FF0F10201F4407142EAD1119C
:1030B00006E0016D0029416C05D0C9B241F0010163
:1030C00000680161704701F0FE01F9E790F83D10DA
:1030D0002129416C09D0C9B241F001010268116196
:1030E000416B29B1C96B49B902E001F0FE01F5E776
:1030F000816B0029E6D0C96B0029E3D000684168E4
:1031000041F4006141607047FFE7416CF02201F437
:103110004071CBE710B590F83D10026D4AB1026DD9
:10312000012A14D0026D022A16D0BDE81040FFF724
:10313000E5BCC16C0129816C02D0C1F3072108E014
:103140000268C9B21161016D891C016510BD816CF5
:10315000C9B20268116123E022291CD0428D0AB154
:10316000212920D0428D002AF0D12129EED10168F9
:103170004A6822F4E0624A6001680A6842F4007218
:103180000A6000210163202280F83D2080F83E1073
:10319000FDF758FE10BD01680A6842F480720A60AB
:1031A000016D491CD1E7416A026809781161416AE1
:1031B000491C4162418D491E418510BD38B50C4600
:1031C00090F83D2000212825954302680B4605D044
:1031D00051699169009180F83C3038BD556825F4FB
:1031E00080655560E243540700D50121120601D5E0
:1031F000828900E0028B80F83C3092B2FDF7E3FB5D
:1032000038BD00002DE9F04190F83D300446C26A17
:10321000002120261E4F00686FF48065082A01D027
:10322000202A01D1282B04D0212B17D04561BDE8DD
:10323000F081E762426822F4E06242602068456102
:103240002068026822F480620260216384F83D6095
:1032500084F83E102046FDF7F1FDE8E7E762212201
:10326000226384F83D6084F83E10416821F4E061F7
:103270004160206845612068016821F48061016037
:103280002046FFF73BFC2046FDF723FECFE700007A
:103290000000FFFFF8B590F83D6004460068416803
:1032A00021F4E061416020680025416900910168D6
:1032B00041F0010101602068016821F48061016032
:1032C00020684168090520D5474F222E48D02A2E74
:1032D00046D0616B096849686185618D19B1216CBF
:1032E00041F004012164416821F400614160606B98
:1032F000FDF726F9012808D0606B0765606BFDF7C4
:103300000DF910B1606B016D8847608D08B32068BE
:103310004169C943490708D40069616A0870606A55
:10332000401C6062608D401E608520684169C94311
:10333000490608D40069616A0870606A401C6062CE
:10334000608D401E6085608D18B1206C40F00400D7
:103350002064206C00B32046BDE8F840FFF7D6BBE0
:10336000A16B096849686185618D19B1216C41F0D3
:1033700004012164416821F400614160A06BFDF704
:10338000DFF80128C1D0A06B0765A06BFDF7C6F878
:103390000028BAD0A06BB6E72A2E06D125632820D4
:1033A00084F83D002046FDF793FD94F83D10202061
:1033B00028290DD0216B222901D0222E07D1256387
:1033C00084F83D0084F83E502046FDF781FDF8BDAD
:1033D0000649E162256384F83D0084F83E502046AA
:1033E000FDF72CFDF8BD0000412A00080000FFFF9A
:1033F000314808B5016841F480010160016801F4B9
:1034000080010091016841F4001101600068002210
:1034100000F40010009005210C20FDF7F3FD0C20B6
:10342000FDF7E2FD002205210D20FDF7EBFD0D204B
:10343000FDF7DAFD002205210E20FDF7E3FD0E2049
:10344000FDF7D2FD002205210F20FDF7DBFD0F2047
:10345000FDF7CAFD002205211020FDF7D3FD102045
:10346000FDF7C2FD002205211120FDF7CBFD112043
:10347000FDF7BAFD002205213920FDF7C3FD3920F3
:10348000FDF7B2FD002205213A20FDF7BBFD3A20F1
:10349000FDF7AAFD002205214520FDF7B3FD4520DB
:1034A000FDF7A2FD002205214620FDF7ABFDBDE89A
:1034B00008404620FDF798BD3038024010B5044A58
:1034C0000021044801F0F8F90349086010BD00002C
:1034D0001460000845400008100000202DE9F04F5E
:1034E00087B014216846FCF715FF4D480024016899
:1034F00041F010010160016801F0100105910168BF
:1035000041F004010160016801F0040105910168C6
:1035100041F080010160016801F0800105910168BE
:1035200041F001010160016801F0010105910168AC
:1035300041F002010160016801F00201059101689A
:1035400041F0080101600068DFF8D88000F0080051
:1035500049F6FC050590002229464046FDF726FA6B
:10356000DFF8C49042F21606002231464846FDF7C5
:103570001DFADFF8B8A0002202215046FDF716FA26
:10358000DFF8ACB048F64867002239465846FDF7E8
:103590000DFA00950125CDE9015469464046039492
:1035A000FDF70CF90096CDE90154694648460394AD
:1035B000FDF704F92020CDE900046946484602944D
:1035C000FDF7FCF83011CDE900046946504602943D
:1035D000FDF7F4F802200090CDE901546946504609
:1035E0000394FDF7EBF846F20350CDE90004694679
:1035F00040460294FDF7E2F80097CDE90154694690
:1036000058460394FDF7DAF83020CDE90004694606
:1036100058460294FDF7D2F807B0BDE8F08F0000DD
:10362000303802400010024000080240000402400E
:10363000000C02400D4810B50B4901600C49416077
:1036400000214FF480428160C0E903124161816131
:10365000C1610162FDF72EFB002803D0BDE81040D8
:10366000FCF711BF10BD000000540040C400002052
:10367000A08601000F4810B50D4901604FF482711A
:10368000416000218160C1604FF400720161C0E9B6
:103690000512C1610162416281620A21C162FEF7C5
:1036A00041F9002803D0BDE81040FCF7ECBE10BD86
:1036B000003001409C0100200F4810B50D49016009
:1036C0004FF48271416000218160C1604FF400724B
:1036D0000161C0E90512C1610162416281620A2192
:1036E000C162FEF71FF9002803D0BDE81040FCF7C7
:1036F000CABE10BD00380040F401002010B596B0DD
:1037000000240F9410941194129413941C2108A86F
:103710001494FCF7FFFD20216846FCF7FBFD2848C8
:103720002649C0E900144FF6FF71C0E90241046167
:1037300044618461FEF746FA08B1FCF7A4FE4FF439
:1037400080500F900FA91E48FEF7DEFA08B1FCF773
:103750009AFE1B48FEF7B1FC08B1FCF794FE1394E7
:1037600013A917481494FEF7E5F908B1FCF78BFE8E
:103770006020CDE908040A940B940C940D94002267
:1037800008A90F480E94FEF732FC08B1FCF77BFE47
:1037900000944FF40050CDE9044002940194039446
:1037A000694607480794FEF79BF908B1FCF76BFEE2
:1037B0000348FEF7B1FB16B010BD00000000014049
:1037C0004C02002010B58EB0002407940894099490
:1037D0000A940B941C2168460C94FCF79BFD1D4831
:1037E0004FF08041C0E90014611EC0E9024104614C
:1037F0008461FEF7E7F908B1FCF745FE4FF480500D
:10380000079007A91348FEF77FFA08B1FCF73BFEC3
:103810001048FEF752FC08B1FCF735FE0B940BA9DB
:103820000C480C94FEF786F908B1FCF72CFE6020DA
:10383000CDE9000402940022694606480494FEF78C
:10384000D6FB08B1FCF71FFE0248FEF765FB0EB081
:1038500010BD00009402002010B58EB00024079423
:10386000089409940A940B941C2168460C94FCF764
:1038700051FD1E481C49C0E900144FF6FF71C0E914
:10388000024104618461FEF79DF908B1FCF7FBFD7C
:103890004FF48050079007A91448FEF735FA08B195
:1038A000FCF7F1FD1148FEF708FC08B1FCF7EBFD51
:1038B0000B940BA90D480C94FEF73CF908B1FCF7EA
:1038C000E2FD6020CDE90004029400226946074829
:1038D0000494FEF78CFB08B1FCF7D5FD0348FEF716
:1038E0001BFB0EB010BD000000040040DC020020F5
:1038F00010B58EB000240794089409940A940B9490
:103900001C2168460C94FCF705FD2A482849C0E9AB
:1039100000144FF6FF71C0E9024104618461FEF7B3
:1039200051F908B1FCF7AFFD4FF48050079007A99B
:103930002048FEF7E9F908B1FCF7A5FD1D48FEF7A0
:10394000BCFB08B1FCF79FFD0B940BA919480C9424
:10395000FEF7F0F808B1FCF796FD6020CDE9000411
:1039600002940022694613480494FEF740FB08B114
:10397000FCF789FD042269460E48FEF738FB08B1C2
:10398000FCF781FD082269460A48FEF730FB08B1C2
:10399000FCF779FD0C2269460648FEF728FB08B1C2
:1039A000FCF771FD0348FEF7B7FA0EB010BD00003A
:1039B00000080040240300200C4810B50A490160AB
:1039C0004FF4E1314160002181600C22C160C0E907
:1039D00004128161C161FEF751FD002803D0BDE8EA
:1039E0001040FCF750BD10BD004C00406C0300209F
:1039F0000C4810B50A4901600B4941600021816003
:103A00000C22C160C0E904128161C161FEF736FD7C
:103A1000002803D0BDE81040FCF735BD10BD000004
:103A200000100140B403002080841E000C4810B533
:103A30000A4901604FF4E1314160002181600C22AC
:103A4000C160C0E904128161C161FEF717FD002861
:103A500003D0BDE81040FCF716BD10BD0044004087
:103A6000FC0300200C4810B50A4901604FF41651C0
:103A70004160002181600C22C160C0E904128161B3
:103A8000C161FEF7FBFC002803D0BDE81040FCF745
:103A9000FABC10BD00480040440400200C4810B59A
:103AA0000A4901604FF4E1314160002181600C223C
:103AB000C160C0E904128161C161FEF7DFFC00282A
:103AC00003D0BDE81040FCF7DEBC10BD001401407F
:103AD0008C040020FEE7FEE70648007838B14FF07E
:103AE0008040416A806B814201D2012070470020F2
:103AF00070470000000000204FF080410020086067
:103B0000C860886008620A49086009490C31086089
:103B1000091F0860064A091418321160111D086057
:103B2000034A1021203211600249087070470000DA
:103B300000080040000000200748007800280AD054
:103B40004FF08040816B491C05D0416A806B8142F7
:103B500001D3FFF7D1BF7047000000203EB50C0035
:103B600006D0694600F064F810B9FFF7B5FF08B158
:103B700000203EBDFFF7C0FF284900220A60274B06
:103B8000BDF80000243318601B1DBDF8020018604A
:103B9000401C224B4008343318602048203002601B
:103BA0001E480123103003601C4D4FF4F0401435C3
:103BB00028605025080745608262551EC5628463EF
:103BC00042624FF4C0448461C26143613024846026
:103BD0000C1D226020240C60BFF34F8F029200BFA7
:103BE0000299491C02912029F9D302610B490C3139
:103BF0000A60816841F00701816009490B70036028
:103C0000BFF34F8F04210748FEF786FA0348001FD1
:103C1000016841F00101016001983EBD04080040C7
:103C200000000020240300204FF0FF31FFF796BF73
:103C300071B1B0F57A7F0BD30B4A904208D80B4B89
:103C400003EB5002B2FBF0F010B1B0F5803F01D9A8
:103C50000120704701220A80421EB3FBF0F04A8027
:103C60004860002070470000A086010080DE8002CE
:103C7000D0E90032012110461847D0E90032002176
:103C800010461847C0E900120B461046002118479D
:103C900010B5002208490948FFF7F4FFFFF72CFF91
:103CA00006480021001F417081700146BDE81040A8
:103CB00001220348FEF72ABE294800080800002018
:103CC000B403002070B5FFF737FF3A488178002928
:103CD0006ED00025857038490E2201F10E00FCF7E8
:103CE00000FB35480178C47855290BD14178AA29C1
:103CF00008D18178072905D1017B5A2902D1417B5E
:103D0000A52901D0012109E00121012C16D0022CA6
:103D100014D0032C3ED0FF2C3FD00621264800F0C3
:103D200071FD2448001DFFF7A8FFBDE8704022493F
:103D300064230E220E312148FEF724BE001D01F03F
:103D40004DFA06461C48083001F048FA05461C4961
:103D5000701E884201D30221E0E7012C02D0022C20
:103D600005D007E01749681E884201D202E00DB174
:103D70000321D3E7FFF7B0FE08B10521CEE7012C00
:103D800003D03046FFF750FFCBE729463046FFF718
:103D9000E5FEC6E7FFF7B0FEC3E707480E30017146
:103DA00041718171C571057245728572C572B8E73E
:103DB00070BD000004000020A8000020B403002013
:103DC000A086010040420F0008444069704700008F
:103DD0000148FDF721BC000018010020D0F8800048
:103DE00070470A688260D1E901231A43D1E903319F
:103DF0000B43C1681A436FF30B011143C1600020EC
:103E000070470968C0F880100020704710B585B071
:103E100004460D20CDE900104020029000200390C0
:103E20004FF48060049069462046FFF7DAFF41F2C4
:103E300088320D21204600F01DF805B010BD0000AD
:103E400010B585B0044600210C20CDE900104020BB
:103E5000CDE902010001049069462046FFF7C1FF49
:103E6000034A0C21204600F005F805B010BD000003
:103E700000E1F505454B10B51B684FF4FA54B3FB50
:103E8000F4F353435B1E02D24FF0004010BD426B6F
:103E900012F0450FF6D01205F4D4426B520703D549
:103EA00004218163084610BD426BD20702D0012174
:103EB000816305E0C52282630269D2B28A4201D0E1
:103EC000012010BD0021FFF77FFF3149084201D1D9
:103ED000002010BD002802DA4FF0007010BD410034
:103EE00001D5402010BD810001D5802010BDC1004A
:103EF00002D54FF4807010BD010102D54FF400705F
:103F000010BD410102D54FF4806010BDC10102D542
:103F10004FF4006010BD010202D54FF4805010BD77
:103F2000410202D54FF4005010BD810202D54FF47A
:103F3000804010BDC10202D54FF4004010BD4103C6
:103F400002D54FF4003010BD810302D54FF480201C
:103F500010BDC10302D54FF4002010BD010402D5ED
:103F60004FF4801010BD410402D54FF4001010BD75
:103F7000810402D54FF4800010BD000702D54FF434
:103F8000000010BD4FF4803010BD00002000002064
:103F900008E0FFFD10B5846B40F23A502168886359
:103FA0002046FDF723FB012184F834100021216312
:103FB000062801D0052805D12068FFF741FFA16B35
:103FC0000843A063A06B0028204602D0FDF70DFB3C
:103FD00010BDFDF709FB10BD10B5846B40F23A50DF
:103FE000216888632046FDF701FB012184F8341025
:103FF00000212163062801D0052805D12068FFF79C
:104000001FFFA16B0843A063A06B0028204602D0CD
:10401000FDF7EBFA10BDFDF7E7FA10BD0148FDF71B
:1040200003BC00009C0100200148FDF7FDBB00001F
:10403000F401002010B5806B0021C187C186FDF717
:10404000F1FB10BDFFF73EFE012000F0F9FBF9E7A0
:1040500010B54FF0E020006901F026FE012803D0E2
:10406000BDE8104001F054BB10BD000030B593B066
:1040700030216846FCF74EF914210CA8FCF74AF9E8
:104080001F480025016841F080510160006800F080
:10409000805011901B48016841F480410160006824
:1040A000022400F480401190092000904FF48030E9
:1040B00001900120CDE905048005079004200890B7
:1040C000A820CDE9090407200B906846FDF7D6F833
:1040D00008B172B6FEE70CA90F2081E831004FF459
:1040E000A0500F904FF48050109005210CA8FCF7C1
:1040F000BBFF002801D072B6FEE713B030BD000050
:1041000040380240007000400248016841F47001EC
:104110000160704788ED00E00148FDF764BE0000D3
:1041200094080020F0B50268274B284D284E294FEF
:10413000294C4FF0804C984209D0604507D0A842E6
:1041400005D0B04203D0B84201D0A04204D122F041
:10415000700E4A6842EA0E0298421BD0604519D0A0
:10416000A84217D0B04215D0B84213D0A04211D007
:104170001A4DA8420ED01A4DA8420BD0194DA84294
:1041800008D0194DA84205D0184DA84202D0184DAC
:10419000A84203D122F44075CA682A434D6922F02F
:1041A00080022A438D68C5620D688562984201D0FD
:1041B000A04201D109690163016841F00401016075
:1041C000012141610260F0BD000001400004004097
:1041D00000080040000C0040000401400040014085
:1041E000004401400048014000180040001C00400D
:1041F0000020004010B501F01F030121046A99401E
:104200008C430462016A9A401143016210BD10B5EB
:10421000846842EA032224F47F440A4322438260F2
:1042200010BD826822F070020A4342F007018160EB
:1042300070470000F0B5036A026A22F001020262D0
:1042400042688469124E24F073050C682C4323F0F5
:1042500002058B682B430D4DA84201D0B04205D119
:1042600023F00807CB683B4323F00403A84201D0A6
:10427000B04205D14D6922F4407215438A692A4340
:1042800042608461496841630362F0BD00000140FF
:1042900000040140F0B5026A036A23F010030362D0
:1042A000436884690D6824F4E64444EA05248D6873
:1042B00022F0200242EA05120F4D104EA84201D012
:1042C000B04206D1CF6822F0800242EA071222F003
:1042D0004002A84201D0B04207D14D6923F44063A7
:1042E00043EA85038D6943EA850343608461496835
:1042F00081630262F0BD0000000001400004014043
:10430000F0B5026A036A23F4807303624368C469E8
:1043100022F4007224F073050C68124E2C438D6851
:1043200042EA05220E4DA84201D0B04206D1CF6824
:1043300022F4006242EA072222F48062A84201D0FD
:10434000B04207D14D6923F4405343EA05138D6908
:1043500043EA05134360C4614968C1630262F0BD6A
:10436000000001400004014030B5046A026A22F4F2
:10437000805202624268C3690D6823F4E64343EA4F
:1043800005238D6824F4005444EA0534084DA842FE
:1043900002D0084DA84204D14D6922F4804242EA7D
:1043A00085124260C36149680164046230BD000047
:1043B000000001400004014010B5036A046A24F0C3
:1043C00001040462846924F0F00444EA021423F036
:1043D0000A020A438461026210BD10B5036A046ACE
:1043E00024F010040462846923F0A00324F47044D0
:1043F00044EA023243EA01118261016210BD000009
:104400000148FDF7FBBE00006C03002010B5806B77
:104410000021C185FDF7F0FE10BD01680C3151E8A7
:10442000002F22F4907241E80023002BF5D101689F
:10443000143151E8002F22F0010241E80023002B43
:10444000F5D1016B012909D101680C3151E8002F28
:1044500022F0100241E80023002BF5D1202180F842
:10446000421000210163704708B590F842102229DC
:1044700001D0022008BD82684FF480539A4201D1D6
:10448000016921B1816A9A421BD04AB10AE00268EF
:10449000816A5268C2F308020A80816A891C08E0B6
:1044A000026972B10268526802F07F020A70816A82
:1044B000491C8162C18D491E0904090CC18503D0C4
:1044C0001BE002685268F1E70168CA6822F0200226
:1044D000CA600168CA6822F48072CA6001684A69C9
:1044E00022F001024A61202180F84210002141633C
:1044F000026B012A03D0FEF717FA002008BD016302
:1045000001680C3151E8002F22F0100241E800232D
:10451000002BF5D101680A68D20602D50A684968FD
:104520000091818DFDF767FEE7E7000070B5044656
:1045300000680169E26821F4405111430161216979
:10454000A068E26908436169114308432168CA68A9
:1045500049F20C639A430243CA6020684169A26928
:1045600021F440711143416131492068884202D0F1
:104570003049884202D1FCF741FE01E0FCF72EFEF3
:10458000E2690023192164253226B2F5004F6268E2
:1045900028D0A0FB0101930F9200FBF771FE0146AA
:1045A000B0FBF5F06FF01802504301EB800006EB12
:1045B0000010B0FBF5F000F0F002B1FBF5F002EBFB
:1045C0000012B1FBF5F06FF01803584301EB8000C7
:1045D00006EB0010B0FBF5F000F00F00216810446E
:1045E000886070BDA0FB010192185B41FBF748FE9B
:1045F0000146B0FBF5F00201B1FBF5F06FF01803D6
:10460000584301EB800006EBC000B0FBF5F000F072
:10461000F80002EB4002B1FBF5F0584301EB8000DB
:1046200006EBC000B0FBF5F000F00700D6E7000095
:10463000001001400014014081628285C285002182
:104640004164222180F84210016921B10168CA68E1
:1046500042F48072CA6001684A6942F001024A610C
:104660000068C16841F02001C160002070472DE959
:10467000F843984617460D460446089E24E0701CF1
:1046800022D0FCF799F9A0EB0800B0421AD8CEB1BD
:104690002068C168490717D5802D15D0402D13D04B
:1046A0000168C94309070FD40168002540680090DC
:1046B0002046FFF7B2FE0820606484F840500120D5
:1046C000BDE8F8830320FBE72068006835EA0000B6
:1046D00004D00020B842D2D00020F1E70120F9E751
:1046E0000148FDF78BBD0000B40300200148FDF731
:1046F00085BD0000FC0300200148FDF77FBD0000E0
:10470000440400200148FDF779BD00008C0400201E
:10471000FEE70000014A024900F023B8854700087F
:10472000A40000200907090E002804DB00F1E020A6
:1047300080F80014704700F00F0000F1E02080F8CE
:10474000141D704702E008C8121F08C1002AFAD1E0
:1047500070477047002001E001C1121F002AFBD101
:1047600070472DE9F04116460F460446002503E048
:104770003946B047641C6D1C20780028F8D12846C3
:10478000BDE8F08113B54FF47A73012269460248FF
:10479000FEF7F8F800981CBDB4030020FCF7A2FB5C
:1047A000FFF764FCFEF79AFEFEF722FEFEF742FFDB
:1047B000FEF760FFFEF780FFFEF7A0FFFFF702F8AD
:1047C000FFF74AF8FFF794F8FFF7F6F8FFF710F94C
:1047D000FFF72CF9FFF746F9FFF760F9FFF758FAF2
:1047E00004A0FFF797FF00F039F8FEF767FE00F02E
:1047F00047F8FEE773797374656D207374617274A2
:104800000A00000070B50D46044601460E22054818
:10481000FBF767FDE07840F080010248C170057148
:1048200070BD0000B600002009B1012200E00022A6
:104830004FF400410148FCF7B9B80000000C0240F9
:1048400010B5EFF3058111B16FF0050403E000240A
:1048500008B100F0FDFD204610BD0000EFF305801B
:1048600010B16FF0050070470448016811B14FF0B6
:10487000FF30704701210160002070477400002064
:1048800010B5EFF3058010B16FF0050010BD0848BA
:104890000168012902D04FF0FF3010BD054A002108
:1048A00082F8141D0221016000F03AFE002010BDC4
:1048B000740000200BE000E02DE9FF410B464FF0B3
:1048C0000005EFF30581039549BB40B3802718210C
:1048D00000244AB3166806B1344696691EB13146C3
:1048E000761E382E02D21679F60703D0002004B0C7
:1048F000BDE8F081566906B1B708D2F808C0BCF12E
:10490000000F0DD0D5685C2D18D312693AB136B1BD
:104910008DE806103A46214601F09BF903900DE020
:10492000D6685EB912694AB903AACDE90012BAB2D3
:10493000214601F061F9012800D003950398D6E7DC
:104940002DE9F041134C0F460546E6682068001D2E
:1049500000F04BFC681C07D137B12168BDE8F0417D
:104960000D48091D00F090BC20683544B5424560F3
:10497000216805D2A06BBDE8F041091D00F06CBCB8
:10498000606B091D00F068FCA06A854200D2A56238
:10499000BDE8F08124000020CC0D00202DE9F0417D
:1049A000054600F07DFC2D4CA068401CA0602068EE
:1049B0002B4F10B1606930B32BE02560A06801284F
:1049C00027D1002606EB860007EB800000F036FCBE
:1049D000761C382EF6D3234800F030FC21481430E2
:1049E00000F02CFC1F48283000F028FC1D483C300B
:1049F00000F024FC1B48503000F020FC1948606394
:104A00001430A06305E02068E96AC06A884200D8D3
:104A10002560606A401C60626864E86A21698842B7
:104A200000D9206100EB800007EB8000291D00F019
:104A30002BFC00F055FC606900280CD02068E96A66
:104A4000C06A884207D208494FF080500860BFF31F
:104A50004F8FBFF36F8FBDE8F0810000240000206E
:104A60001C0900207C0D002004ED00E038B500F0AA
:104A700017FC104C2068C8B90F4800F0DFFB0E4847
:104A8000143000F0DBFB0C48E060143020610A4B6E
:104A90000020F03B009003F1500210210A2000F0AA
:104AA0004DFE206010B105A100F09CFCBDE838402F
:104AB00000F016BC60000020D00E0020546D725132
:104AC0000000000030B4026C0B46002A0BD0C16815
:104AD0001144C1608468A14201D30168C16030BC47
:104AE0001846FBF7FEBB30BC70472DE9F041856BE3
:104AF000174604460026026C82B1C7B1E068FBF796
:104B0000F0FBE168206C091AE1602268914202D250
:104B1000A168081AE060022F16D017E02068A8B933
:104B2000A06801F039F906460020A0600EE0606838
:104B3000FBF7D7FB216C606808446060A16888427D
:104B400004D32068606001E005B16D1E6D1CA56393
:104B50003046BDE8F08110B5044690F8590058B1D0
:104B600001280CD002280FD0502080F31188BFF309
:104B70004F8FBFF36F8FFEE7206B00F0C5FB204621
:104B8000BDE8104000F0C0BB10BD000010484FF45D
:104B90007051420706D0C01D0D4920F00700411A90
:104BA000C1F570510B4A00230144C2E900030839E2
:104BB000183A21F0070111604B600B600B1AC0E935
:104BC000001393604FF00040536050617047000045
:104BD000B015002090000020144E154CA6F29C4702
:104BE0004FF08058DFF84C9012E000BF00F058FB07
:104BF000F068C568281D00F0F8FAA068401EA060A3
:104C00006068401E606000F06BFB2846FFF7A3FF62
:104C100060680028EAD138680128F9D9C9F800800D
:104C2000BFF34F8FBFF36F8FF2E70000B80D002086
:104C30002400002004ED00E070B51D46049C51B135
:104C4000C4F80020C4E90F010121204600F0AAFDAC
:104C500084F84C5070BD2460F4E700002DE9F05F4B
:104C60008846DDE90B941546834691009A460A9ED4
:104C7000A522206BFBF747FB6FF00301206B01EBD4
:104C80008501084420F00707780707D0502080F3FB
:104C90001188BFF34F8FBFF36F8FFEE70025B8F188
:104CA000000F0FD05FF00000221818F8001082F8F3
:104CB000341018F8001011B1401C1028F4D384F8F7
:104CC000435001E084F83450382E00D33726E66292
:104CD000C4E91365201D00F0BCFA04F1180000F0CF
:104CE000B8FA2461C6F138006462A061656584F891
:104CF000585052465946384600F05AFA2060B9F1E9
:104D0000000F01D0C9F80040BDE8F09F30B511494F
:104D100000E011460A688242FBD34B685C1884426B
:104D200003D1406818444860084643681C18944200
:104D300009D1084C183C2468A24209D052681A4490
:104D400042600A6812680260814200D0086030BD8B
:104D50000460F9E79000002070B5002441600B4D1D
:104D60000061914206D8D11A8269914206D2011D92
:104D7000286907E09A4203D2994201D3012403E053
:104D8000011DE86800F068FA204670BD6000002050
:104D900010B5044600F084FAA06B28B15FF000045F
:104DA00000F09EFA204610BD0124F9E730B589B025
:104DB0003C4D6EE00498002806DADDE90601059A0C
:104DC00090470498002864DB069C606910B1201DA0
:104DD00000F00BFA03A800F0D7F8024604980A285E
:104DE00057D2DFE800F00505052D334A05052D33C0
:104DF00094F8280040F0010084F828000599A06983
:104E0000059B01442046FFF7A7FF68B3216A2046AF
:104E1000884794F8280040073BD50020009005986B
:104E2000A169002342181946204601F0BFF8D8B9FD
:104E3000502080F31188BFF34F8FBFF36F8FFEE7D1
:104E400014F8280F20F00100207022E094F82800C8
:104E500040F0010084F828000598A06128B181186D
:104E600013462046FFF778FF13E0502080F31188A7
:104E7000BFF34F8FBFF36F8FFEE794F828008107D1
:104E800003D4204600F040FA03E020F0010084F84B
:104E90002800002204A9286800F0D8FD002889D144
:104EA00009B030BD600000202DE9FC410F460546E9
:104EB00000F07AFB01A800F067F80446019818B1E9
:104EC00000F0E2FFBDE8FC81254EAFB1306900681B
:104ED000D0B30027291B3A46306800F097FA00F05B
:104EE000D3FF0028EED11F494FF080500860BFF378
:104EF0004F8FBFF36F8FE5E7A542EBD800F0C4FFFB
:104F0000F0682746C068C468201D00F06EF994F868
:104F10002800410719D5A0692B4641193A46204679
:104F2000FFF71AFFA8B100200346014600902A4669
:104F3000204601F03BF860B9502080F31188BFF3A0
:104F40004F8FBFF36F8FFEE707E020F0010084F87A
:104F50002800216A20468847B4E70127BAE7000005
:104F60006000002004ED00E00648416B096829B1AB
:104F7000416BC968C9684968816270474FF0FF3169
:104F8000FAE700002400002070B5054600F09AFE04
:104F9000064E0446B068844203D200F009F80120AE
:104FA00000E0002028602046B46070BD6000002052
:104FB000F8B5194D20E0C068C4680668201D00F0EF
:104FC00014F9216A2046884794F82800400713D531
:104FD000A0693044B04206D924616060211DE868B0
:104FE00000F03AF908E000200346014600903246FE
:104FF000204600F0DBFF38B1E86801680029DAD10B
:105000002969C5E90310F8BD502080F31188BFF36A
:105010004F8FBFF36F8FFEE76000002008484068A5
:10502000401C4FF0500080F3118804D0BFF34F8F25
:10503000BFF36F8FFEE7BFF34F8FBFF36F8FFEE7B6
:1050400098000020074CE068016841B1C068002169
:10505000D0F80000FFF728FFFFF7A8FEF3E70121D3
:105060000020F7E7600000202DE9F041044600F041
:1050700017F994F9455004F1240609E0606A48B133
:10508000304600F0C9FE08B100F010FA6D1E6DB296
:10509000002DF3DC4FF0FF3684F8456000F020F976
:1050A00000F0FEF894F9445004F1100709E020697B
:1050B00048B1384600F0B0FE08B100F0F7F96D1EB7
:1050C0006DB2002DF3DC84F84460BDE8F04100F0DF
:1050D00007B900002DE9F0410546002700F064FA09
:1050E000324E306808B9FFF751FD706905424ED164
:1050F000C5B3083568070ED005F00700C0F10800F9
:105100000544680707D0502080F31188BFF34F8F04
:10511000BFF36F8FFEE72DB37068854237D8234801
:10512000183001460C6801E020460C466168A9422F
:1051300002D221680029F7D131688C4227D0076854
:105140002168016060680837411B10290FD9601978
:10515000420708D0502080F31188BFF34F8FBFF370
:105160006F8FFEE713E041606560FFF7CFFD616878
:105170007068401A7060B268904200D2B060706986
:1051800001430020C4E90001F068401CF06000F019
:105190007BFE780707D0502080F31188BFF34F8F34
:1051A000BFF36F8FFEE73846BDE8F081780000203E
:1051B00010B5031F4FF080741C601B1F21F001010C
:1051C0001960191F044B0B6014390A60091F6FF036
:1051D000020244380A6010BD1D5000080168C07802
:1051E00009BA21F0FF0108437047D0E90132016993
:1051F0009A60D0E901235A604A68824201D18268EC
:105200004A60002202610868401E08600868704712
:10521000034B036003F15C0008608020106070475E
:10522000F80E0020044B036003F15C0008604FF4AB
:1052300080701060704700005411002000F10801D8
:105240004FF0FF32C0E90112C1600161002101602D
:10525000704700210161704730B50B685A1C02D0BD
:1052600000F1080202E0026904E022465468256861
:105270009D42FAD953684B6099608A605160086119
:105280000168491C016030BD42684A6093688B60C8
:1052900093685960916008610168491C016070471A
:1052A000502080F31188BFF34F8FBFF36F8F0A49EF
:1052B0004868401C486001280CD10848006810F07C
:1052C000FF0F07D0502080F31188BFF34F8FBFF33B
:1052D0006F8FFEE7704700009800002004ED00E0AB
:1052E0000849486828B1401E486001D180F3118800
:1052F0007047502080F31188BFF34F8FBFF36F8F3B
:10530000FEE700009800002070B500282AD0164D56
:10531000A0F1080460686969084207D1502080F351
:105320001188BFF34F8FBFF36F8FFEE722683AB14A
:10533000502080F31188BFF34F8FBFF36F8FFEE7CC
:105340008843606000F030F960686968084468600C
:105350002046FFF7DBFC2869401C2861BDE870404F
:1053600000F092BD70BD0000780000204FF0E020FA
:1053700000210161816105494FF47A720968B1FB2E
:10538000F2F1491E416107210161704720000020B0
:1053900010B5FAF75FFF114910280ED300F1E02095
:1053A00090F8F0030A78904207D2502080F31188D9
:1053B000BFF34F8FBFF36F8FFEE70948006889681E
:1053C00000F4E060884207D9502080F31188BFF3D1
:1053D0004F8FBFF36F8FFEE710BD000098000020D5
:1053E0000CED00E010B5084B002200BF53F832402E
:1053F0001CB1521C082AF9D310BD43F8321003EB3C
:10540000C201486010BD0000DC08002070B51546E0
:105410000E460446FFF744FF94F944100020491C4F
:1054200001D184F8440094F94510491C01D184F855
:105430004500FFF755FFA06B28B92A46314604F115
:10544000240000F051F82046BDE87040FFF70CBE84
:1054500010B5020014D00F48006B38B1502080F313
:105460001188BFF34F8FBFF36F8FFEE700F09CF8FA
:1054700000211046FFF764FA00F006FD002807D16E
:1054800005494FF080500860BFF34F8FBFF36F8F17
:1054900010BD00002400002004ED00E002490A6A6B
:1054A0000260C96841607047240000200149012062
:1054B000C86170472400002010B50C4650B109495E
:1054C00009681831FFF7C8FE2046BDE810400121E9
:1054D000FFF736BA502080F31188BFF34F8FBFF328
:1054E0006F8FFEE72400002070B514460D4668B1AA
:1054F0000A4909681831FFF7C7FE0CB14FF0FF35B4
:1055000021462846BDE87040FFF71ABA502080F3C4
:105510001188BFF34F8FBFF36F8FFEE72400002089
:1055200030B587B00024039405AA04A903A8049405
:10553000FFF76EFEDDE903010094CDE901100023C1
:1055400015A11748059A00F084FB164D0028E86263
:105550001FD000F0FBFC012809D0401C19D15020BD
:1055600080F31188BFF34F8FBFF36F8FFEE750209A
:1055700080F31188BFF34F8FBFF36F8F4FF0FF3071
:10558000A86201206861EC6007B0BDE8304000F01F
:1055900045B807B030BD000049444C45000000004C
:1055A000D94B0008240000200248016B491C01630C
:1055B0007047000024000020164810B5016B11B19F
:1055C0000121C16110BD0021C1610169124A01E0E0
:1055D000B9B1491E01EB810352F82330002BF7D0FB
:1055E00001EB810302EB830202F1080453685B685C
:1055F0005360A34201D15B685360DA6802600161C5
:1056000010BD502080F31188BFF34F8FBFF36F8F11
:10561000FEE70000240000201C0900201CB53748CC
:105620000168374A914207D1502080F31188BFF3B7
:105630004F8FBFF36F8FFEE700683149491E8842E4
:1056400007D1502080F31188BFF34F8FBFF36F8FC6
:10565000FEE72C4908780190FF20087008788DF843
:1056600000009DF800009DF8002000F0F00090423E
:1056700007D0502080F31188BFF34F8FBFF36F8F97
:10568000FEE79DF80000204C00F05000207007203D
:10569000A06005E09DF8002052008DF80020401E1B
:1056A0009DF800201206F5D4A060032807D05020F2
:1056B00080F31188BFF34F8FBFF36F8FFEE74FF476
:1056C0004070A060019808700C482030016841F4D7
:1056D00070010160016841F070410160FFF746FE12
:1056E00000206060FAF77EFD0848016841F0404103
:1056F0000160FAF763FD00201CBD000000ED00E032
:1057000071C20F4100E400E09800002034EF00E097
:1057100010B5502080F31188BFF34F8FBFF36F8F08
:1057200000F0D6FA18B104494FF08050086000200C
:1057300080F3118810BD000004ED00E038B5049D31
:1057400018B153B1CAB181B120E0502080F3118863
:10575000BFF34F8FBFF36F8FFEE7502080F31188A8
:10576000BFF34F8FBFF36F8FFEE7502080F3118898
:10577000BFF34F8FBFF36F8FFEE739B1502080F337
:105780001188BFF34F8FBFF36F8FFEE750241C4685
:10579000012384F846302B460094FFF74DFA20464B
:1057A00038BD000070B50D46040025D0FFF778FD28
:1057B000D4E90F20216802FB0011A1600021A16340
:1057C000216861600A46D4E90F01401E00FB0121F7
:1057D000E16021464FF0FF3001F8440F487004F1BA
:1057E00010008DB1FFF72AFD04F12400FFF726FD1C
:1057F000FFF776FD012070BD502080F31188BFF3C4
:105800004F8FBFF36F8FFEE721690029F0D000F0C2
:1058100003FB0028ECD004494FF080500860BFF330
:105820004F8FBFF36F8FE3E704ED00E02DE9FF47F3
:1058300082B01D468A464FF00008040003D0BAF13A
:10584000000F08D011E0502080F31188BFF34F8F74
:10585000BFF36F8FFEE7206C38B1502080F31188C2
:10586000BFF34F8FBFF36F8FFEE7022D0AD1E06BBE
:10587000012807D0502080F31188BFF34F8FBFF36A
:105880006F8FFEE700F010FA3F4F4FF000094FF026
:10589000805648B9049838B1502080F31188BFF37E
:1058A0004F8FBFF36F8FFEE7FFF7FAFCA06BE16B42
:1058B000884207D3022D05D00498D0B1B8F1000F6B
:1058C0001AD01EE02A4651462046FFF70EF9616ABB
:1058D00019B104F1240000F09FFA20B13E60BFF33B
:1058E0004F8FBFF36F8FFFF7FBFC012006B0BDE8C1
:1058F000F087FFF7F5FC22E06846FFF7CFFD4FF099
:105900000108FFF7EDFCFFF74FFEFFF7C9FC94F924
:105910004400401C01D184F8449094F94500401C97
:1059200001D184F84590FFF7DBFC04A9684600F03C
:1059300029F930B12046FFF797FB00F0A5FA0020C7
:10594000D4E7FFF7ADFCA06BE16B884213D1FFF702
:10595000C7FC04F110000499FFF7AEFD2046FFF7E5
:1059600083FB00F091FA00289ED13E60BFF34F8F79
:10597000BFF36F8F98E7FFF7B3FC2046FFF774FB88
:1059800000F082FA90E7000004ED00E02DE9F04716
:105990001F4690468946040003D0B9F1000F08D095
:1059A00011E0502080F31188BFF34F8FBFF36F8F4A
:1059B000FEE7206C38B1502080F31188BFF34F8F81
:1059C000BFF36F8FFEE7022F0AD1E06B012807D0EB
:1059D000502080F31188BFF34F8FBFF36F8FFEE726
:1059E000FFF7D6FC5020EFF3118680F31188BFF348
:1059F0004F8FBFF36F8FA06BE16B884206D3022FEE
:105A000004D0002086F31188BDE8F08794F9455052
:105A1000A06B3A4649462046FFF767F8681C04D059
:105A20006D1C84F845500120ECE7606A0028FAD02C
:105A300004F1240000F0F0F90028F4D0B8F1000FD0
:105A4000F1D00121C8F80010EDE700002DE9F7477B
:105A5000002683B08A46040003D0BAF1000F08D0B4
:105A600011E0502080F31188BFF34F8FBFF36F8F89
:105A7000FEE7206C38B1502080F31188BFF34F8FC0
:105A8000BFF36F8FFEE700F00FF9DFF8F4804FF0FF
:105A900000094FF0805748B9059838B1502080F37D
:105AA0001188BFF34F8FBFF36F8FFEE7FFF7F8FB4F
:105AB000A56BC5B151462046FFF704F86D1EA563DE
:105AC000206950B104F1100000F0A6F928B1C8F81F
:105AD0000070BFF34F8FBFF36F8FFFF701FC012002
