:020000040800F2
:10000000A86500205D02000867390008752B00080C
:10001000653900088D030008214900080000000030
:100020000000000000000000000000009D0100082A
:10003000AD04000800000000F9010008F93B0008C9
:1000400077020008770200087702000877020008AC
:10005000770200087702000877020008770200089C
:10006000770200087702000877020008770200088C
:10007000910300089D030008A9030008B5030008C8
:10008000C1030008CD0300087702000877020008CA
:10009000770200087702000877020008770200085C
:1000A000770200087702000877020008770200084C
:1000B000770200087702000877020008852B000805
:1000C000792B00087702000877020008BD3B000882
:1000D000C93B0008114800088D48000899480008ED
:1000E000770200087702000877020008770200080C
:1000F00077020008770200087702000877020008FC
:1001000077020008713900087702000877020008BA
:1001100071430008770200082D3F000877020008AD
:1001200077020008D9030008E503000877020008F9
:1001300077020008000000000000000077020008BD
:1001400077020008770200087702000877020008AB
:1001500077020008F1030008FD03000815490008B4
:10016000770200087702000877020008770200088B
:10017000770200087702000800000000000000007D
:100180007702000877020008DFF80CD000F0ECF8E6
:1001900000480047214E0008A86500202C4B196834
:1001A0000868B0E8F04F80F30988BFF36F8F4FF015
:1001B000000080F3118870470000000008480068C4
:1001C000006880F308884FF0000080F3148862B65E
:1001D00061B6BFF34F8FBFF36F8F00DF00BF00BF6B
:1001E00008ED00E0DFF80C00016841F470010160E7
:1001F000704700BF88ED00E0EFF30980BFF36F8F19
:10020000134B1A681EF0100F08BF20ED108A20E96A
:10021000F04F106009B44FF0500080F31188BFF325
:100220004F8FBFF36F8F05F08DFD4FF0000080F30F
:10023000118809BC19680868B0E8F04F1EF0100F6B
:1002400008BFB0EC108A80F30988BFF36F8F704746
:100250002C000020EFF3058070470000064880471F
:1002600006480047FEE7FEE7FEE7FEE7FEE7FEE79B
:10027000FEE7FEE7FEE7FEE7B13C00088901000863
:100280002DE9F05F0546002092469B4688460646CB
:10029000814640241BE0284641464746224600F05E
:1002A00053F853465A46C01A914110D31146184686
:1002B000224600F03AF82D1A67EB01084F46224615
:1002C0000120002100F031F817EB00094E41201EFB
:1002D000A4F10104DFDC484631462A464346BDE826
:1002E000F09F40EA01039B0703D009E008C9121FF1
:1002F00008C0042AFAD203E011F8013B00F8013BE0
:10030000521EF9D27047D2B201E000F8012B491E0B
:10031000FBD270470022F6E710B513460A460446A2
:100320001946FFF7F0FF204610BD202A04DB203AD3
:1003300000FA02F1002070479140C2F1200320FA38
:1003400003F3194390407047202A04DB203A21FA36
:1003500002F00021704721FA02F3D040C2F12002DE
:100360009140084319467047064C074D06E0E06887
:1003700040F0010394E8070098471034AC42F6D3EC
:10038000FFF706FF3069000850690008FEE700002B
:10039000014800F0EDB800006C0F0020014800F0AB
:1003A000E7B800002C0D0020014800F0E1B8000083
:1003B0000C0F0020014800F0DBB80000CC0C00203E
:1003C000014800F0D5B80000AC0E0020014800F054
:1003D000CFB800004C0E0020014800F0C9B8000062
:1003E0002C100020014800F0C3B800008C0D002044
:1003F000014800F0BDB80000CC0F0020014800F01B
:10040000B7B80000EC0D002001681823CAB2103AFA
:10041000B2FBF3F2054B6FF30901032A9B5CC36542
:1004200000D9091D8165084670470000046900086D
:1004300010B5014600208B698A6A4FF0C07453B131
:10044000B3F5005F15D072B1012A0CD0022A0AD090
:10045000032A09D104E01AB1012A06D0022A03D1E5
:10046000C96AC90100D5012010BDC96AA142FAD0EC
:1004700010BD002AF7D0012AF2D0022AF3D0032AB5
:10048000F3D010BD30B50468256825F480252560BB
:10049000046863608368402B036803D09960006838
:1004A000C26030BD9A600068C16030BD704772B6EE
:1004B000FEE72DE9F0410446876D00F0DBFA0646C1
:1004C00094F835000025022806D08020606584F865
:1004D00034500120BDE8F0812068016821F0160148
:1004E00001602068416921F080014161206C08B9F8
:1004F000A06C20B12068016821F00801016020682B
:10050000016821F0010101600CE000F0B3FA801BEA
:10051000052807D920206065032084F8350084F879
:100520003450D7E720680068C007EED194F85C101B
:100530003F208840B860012084F8350084F83450AA
:100540000020C7E790F83510022903D080214165CB
:1005500001207047052180F835100068016821F0FE
:10056000010101600020704790F8350070470000DD
:100570002DE9F84304464FF00009CDF80090634898
:100580004FF41651A56D0068B0FBF1F72E6894F892
:100590005C10082000FA01F131420FD021680A688E
:1005A00052070BD50A6822F004020A6094F85C1026
:1005B0008840A860606D40F00100606594F85C10B0
:1005C0004FF0010808FA01F0304208D0216849696B
:1005D000090604D5A860606D40F00200606594F8DB
:1005E0005C1004208840304208D0216809688907DF
:1005F00004D5A860606D40F00400606594F85C105C
:1006000010208840304218D021680968090714D5A5
:10061000A86020680168490304D50068000308D574
:10062000A16C07E00168C90503D4016821F0080145
:100630000160216C09B12046884794F85C102020A5
:100640008840304231D021680968C9062DD5A8609C
:1006500094F8350005282068016806D0490347D57D
:10066000006800031DD4616C1CE021F016010160DC
:100670002068416921F080014161206C08B9A06CBB
:1006800020B12068016821F00801016094F85C1035
:100690003F208840A86084F8358084F83490216D2C
:1006A0001FE0E16B09B120468847606D00282BD020
:1006B000606DC00714D0052084F8350020680168FB
:1006C00021F0010101600098401C0090B84203D85D
:1006D00020680068C007F6D184F8358084F834902B
:1006E000E16C002910D001B02046BDE8F043084776
:1006F0000168C905D5D4016821F01001016084F8B2
:10070000358084F83490CCE7BDE8F88328000020D9
:100710002DE9F041044600F0ADF906465CB1022037
:1007200084F83500002584F834502068016821F0F1
:10073000010101600DE00120BDE8F08100F09AF9AF
:10074000801B052805D920206065032084F835002A
:10075000F2E720680068C007F0D1226811682048DD
:100760000140D4E901031843D4E903363343184365
:1007700063691843A3691843E3691843236A18435C
:100780000843616A042903D1D4E90B1319430843D0
:10079000106020684069666A20F0070130460E4309
:1007A000012704280CD1A06A0643E06A40B1204624
:1007B000FFF73EFE20B14020606584F83570BAE74F
:1007C000206846612046FFF71FFE94F85C203F2119
:1007D00091408160656584F835700020ACE70000C9
:1007E0003F8010F02DE9F0410446866D90F834000A
:1007F000002501280DD0012084F8340094F83570CC
:100800000020012F07D084F8340002252846BDE8D7
:10081000F0810220FBE7022784F8357060652046EE
:10082000FFF730FE94F85C103F208840B0602068ED
:10083000016841F016010160206C20B12068016858
:1008400041F0080101602068016841F00101016088
:10085000DCE7000070B5044600F00CF90546601CAA
:1008600002D004480078044400F004F9401BA04280
:10087000FAD370BD1C0000202DE9F84FDFF8BCA1B1
:100880000022012503264FF00F090AF1040BAAF1FB
:10089000040E00BF0B6805FA02F42340A34270D196
:1008A0000F7907F00307012F01D0022F16D18768B7
:1008B0004FEA420806FA08FC27EA0C07D1F80CC0F8
:1008C0000CFA08FC4CEA070CC0F808C04768A743BC
:1008D0000C79C4F3001494403C4344600C79E44325
:1008E000A4070AD0C4684FEA420C06FA0CF7BC43CE
:1008F0008F6807FA0CF72743C7600C7904F00304EC
:10090000022C12D1D40800EB840CDCF820405707ED
:10091000FF0E09FA07F824EA0804D1F8108008FA53
:1009200007F848EA0408CCF8208004684FEA420C33
:1009300006FA0CF7BC430F7907F0030707FA0CF728
:10094000274307604C6814F4403F70D03C4C276844
:1009500047F480472760246822F0030704F48044AA
:100960000094384C07EB040CDCF8084897074FEA72
:10097000177809FA08F7BC43334FB84202D1002771
:1009800024E054E0314FB84201D101271EE0304F3E
:10099000B84201D1022719E02E4FB84201D10327F6
:1009A00014E02D4FB84201D104270FE02B4FB8427D
:1009B00001D105270AE02A4FB84201D1062705E0F8
:1009C000284FB84201D1072700E0082707FA08F7A7
:1009D0002743CCF80878DAF800405746D1F804C02D
:1009E0009C435FEACC2C00D51C433C60DBF8004004
:1009F0005F46D1F804C09C435FEA8C2C00D51C43B1
:100A00003C60DEF800407746D1F804C09C435FEAC2
:100A10008C3C00D51C433C60084F083F3C68D1F833
:100A200004C09C435FEACC3C00D51C433C60521C94
:100A3000102AFFF42FAFBDE8F88F0000083C0140FA
:100A400044380240003001400000024000040240EF
:100A500000080240000C0240001002400014024056
:100A600000180240001C02400AB18161704709046D
:100A7000FBE7000001488068704700001C00002070
:100A8000704770472DE9F041016804464A694E6895
:100A900090F83E000025D743FA0506D4F243D2056C
:100AA00003D46FF4807201254A61B90508D4F1437B
:100AB000C90505D422686FF4007145F00205516143
:100AC000790525D4F143C90522D4638D94F83D10EE
:100AD000226B202808D13BB9212910D029290ED01A
:100AE000282901D1212A0AD022686FF4806151613E
:100AF00045F00405102806D0402804D008E0204620
:100B000002F028FC04E02068016841F400710160F3
:100B1000380508D4F043C00505D421686FF400609F
:100B200045F008054861002D07D0206C284320645B
:100B30002046BDE8F04102F091B8BDE8F0812DE912
:100B4000F047026800215368C66A90F83E4090F86A
:100B50003D50102C12D0402C10D0046C002C7DD0B5
:100B60005469E443A6077AD4DE43B60577D4036C10
:100B700003B19169BDE8F04702F0C8BB97695169BC
:100B80004FF42A0CC9435FEAC1784FF02A4904D0D8
:100B900066452AD04E4528D010E0DE43B6050DD478
:100BA000C16A614501D1012103E0C16A494501D112
:100BB0000821C162BDE8F04702F00EBB0E0716D453
:100BC000DE43B60513D4416CC9B21161416B09B162
:100BD000C96B29B9816B002907D0C96B002904D0E2
:100BE0000068416841F400614160BDE8F0878E070C
:100BF00006D4DE43B60503D4BDE8F04702F060BA80
:100C0000FE43526876074FEA02521DD4002AECDBFD
:100C10000A0608D4DA43520505D4490705D5BDE8CC
:100C2000F04702F0F1B94907DFD4D9438905DCD494
:100C3000212D05D0402CD8D1BDE8F04702F012BBE1
:100C4000BDE8F04702F09EB9002ACEDB4A060BD47D
:100C5000DA43520508D4490708D501E00DE00EE05B
:100C6000BDE8F04702F014B94907BED4D94389055D
:100C7000BBD4BDE8F04702F09DB8916970E7E1068A
:100C800006D4D943890503D4BDE8F04702F0AABBD6
:100C90002821212D27D0292D25D0650655D4DD43C7
:100CA0006D0552D4640752D590F83D30448D002C28
:100CB0009BD01269446A2270426A521C4262428D81
:100CC000521E4285428D002A8FD12A2B8DD1026877
:100CD000536823F4806353602222026380F83D103E
:100CE00000F054F981E7250623D4DD436D0520D4B7
:100CF000640720D590F83D30448D002CF2D0446A32
:100D000024781461426A521C4262428D521E42850E
:100D1000428D002AE6D1292BE4D10268536823F4DE
:100D2000806353602122026380F83D1000F02FF9A8
:100D30005BE76107D6D4D9438905D3D4418D002917
:100D4000D0D0416A097811610AE06107CAD4D94359
:100D50008905C7D4418D0029C4D01169426A117038
:100D6000416A491C4162418D491E41853DE77047FA
:100D700070B5040025D094F83D00002520B984F812
:100D80003C50204600F0BEF8242084F83D00206846
:100D9000016821F0010101602068016841F400410F
:100DA00001602068016821F40041016000F07AFAD6
:100DB0004D4A6168914201D84C4900E04C49884253
:100DC00001D2012070BD4B492368B0FBF1F15E6890
:100DD00026F03F060E435E606368934206D94FF4E7
:100DE000967359434FF47A73B1FBF3F12368491CAE
:100DF0001E6A26F03F06314319626168914210D89D
:100E00004900401EB0FBF1F2521CC2F30B02042A4F
:100E100001D2042022E0B0FBF1F0401CC0F30B0033
:100E20001CE0A268F2B301EBC10303EB0116431E01
:100E3000B3FBF6F35B1C43F480431B0549D092B32C
:100E400001EBC10202EB0111401EB0FBF1F0401CAE
:100E5000C0F30B0040F4804040F400402168CA69B0
:100E60004CF6FF739A431043C861D4E9071001435D
:100E70002068026822F0C00211430160D4E9030136
:100E800001432068826848F2FF339A43114381602E
:100E9000D4E9050108432168CA6822F0FF02104323
:100EA000C86001E00EE016E02068016841F0010131
:100EB00001602564202084F83D00256384F83E50BD
:100EC000002070BD01EB4106431EB3FBF6F35B1C33
:100ED000B3E70120C2E701EB4101401EB0FBF1F096
:100EE000401CC0F30B00B7E7A086010080841E0001
:100EF00000093D0040420F0070477047704770473F
:100F00007047000010B586B0044614216846FFF70C
:100F100001FA1B492068884230D11A480021026832
:100F200042F002020260006800F002000590C0205A
:100F300000901220CDE901010320039004200490C9
:100F400069461148FFF798FC0E481030016841F4DB
:100F5000001101600068002200F4001005900521D6
:100F60001F2000F0B3F81F2000F0A2F80022052196
:100F7000202000F0ABF8202000F09AF806B010BD59
:100F8000005400403038024000040240704770476F
:100F900000684AF6AA210160002070470248816873
:100FA00002781144816070471C0000200B4810B586
:100FB000016841F400710160016841F480610160E1
:100FC000016841F480710160032000F09FF80F2058
:100FD00000F006F800F050F8002010BD003C024080
:100FE00030B505461F4887B00024016841F0100164
:100FF0000160006806A900F01000009001A800F050
:1010000031F90498A8B100F04DF940001649174A8B
:10101000B0FBF1F11648491E026040F2E732C0E928
:101020000324C0E90114846100F006FE040003D02B
:1010300015E000F037F9E9E70D4800F05FFE040025
:101040000DD1362000F034F8102D07D200222946A9
:10105000362000F03BF80748056000E0012407B0A7
:10106000204630BD4038024040420F000010004092
:101070008C180020200000200C4882B0016841F448
:1010800080410160006800F4804000900748001F24
:10109000016841F0805101600068002200F080503A
:1010A00000900F21901E02B000F010B844380240AA
:1010B000002809DB00F01F02012191404009800057
:1010C00000F1E020C0F8001170470000F0B40E4BB2
:1010D0001B680C46C3F30223C3F10705042D00D996
:1010E0000425191D072901D2002300E0DB1E01267B
:1010F00006FA05F1491E214099409E40761E164091
:101100003143F0BC03F01EBC0CED00E0064900F0DA
:10111000070208684FF6FF03184040EA0220034A1E
:1011200010430860704700000CED00E00000FA0575
:101130002DE9F0470E46050065D0DFF81481D8F898
:101140000000F7B200F00700B04207D288F8007044
:10115000D8F8000000F00700B04254D128683D4C98
:10116000810712D5400703D5206840F4E050206085
:101170002878000703D5206840F46040206020688C
:10118000A96820F0F000084320602878C0072DD01F
:10119000304968680839012812D0022813D0032882
:1011A00011D00968890700292DDA216821F003018F
:1011B00001432160FFF75EFC814641F2883A0EE070
:1011C00009688903EFE709688901ECE7FFF752FC3A
:1011D000A0EB0901514502D90320BDE8F087206842
:1011E000696800F00C00B0EB810FEFD1D8F8001067
:1011F000404601F00701B14207D90770006800F0CE
:101200000700B04201D00120E7E72878400705D564
:101210002068E96820F4E05008432060287800073F
:1012200006D52068296920F4604040EAC1002060AA
:1012300000F058F82168084AC1F30311515CC84016
:101240000649086006480068FFF7CAFE0020C4E7A8
:10125000003C0240083802400C69000828000020C9
:10126000200000200F2202600C4A136803F00303E1
:101270004360136803F0F0038360136803F4E053E2
:10128000C36012684FF4E05303EAD20202610448DB
:10129000006800F00700086070470000083802404E
:1012A000003C02400448054900680968044AC1F34B
:1012B0008221515CC8407047280000200838024055
:1012C0001C6900080448054900680968044AC1F31C
:1012D0004231515CC8407047280000200838024065
:1012E0001C690008154810B5006810F00C0214487D
:1012F00013D04110042A0FD0082A0ED10F4C241FFE
:101300002268236802F03F025B0207D52068C0F321
:101310008810A0FB010106E0084610BD2168C1F35A
:101320008811A1FB00010023FEF7AAFF2168C1F389
:101330000141491C4900B0FBF1F010BD08380240E2
:101340000024F4002DE9F84F04006ED02078DFF877
:101350004C93C007A9F104054AD009F104000168C3
:10136000C1F38101012908D00068C0F3810002287F
:101370000AD1D9F80000400206D52868800337D585
:1013800060680028E1D033E06068B0F5803F10D09D
:10139000B0F5A02F286810D020F48030286028688D
:1013A00020F4802028606068A8B1FFF763FB064640
:1013B0000DE0286840F48030F4E740F48020286095
:1013C000F7E700BFFFF756FB801B642873D8286837
:1013D0008003F7D50CE0FFF74DFB064605E000BFA4
:1013E000FFF748FB801B6428F0D828688003F7D4F7
:1013F0002078DFF8AC8280074FF0000A3ED5A7487E
:10140000001D016811F00C0F08D00068C0F38100C6
:1014100002280BD1D9F80000400207D428688007C1
:1014200016D5E068012800D112E033E1E068B8B1D8
:101430000120C8F80000FFF71DFB064605E000BFCD
:10144000FFF718FB801B0228C0D828688007F7D553
:101450002868216920F0F80040EAC10028600DE00A
:10146000C8F800A0FFF706FB064604E0FFF702FB02
:10147000801B02281FD828688007F7D4207800072F
:1014800022D5864F87486169703771B101210160AB
:10149000FFF7F0FA064604E0FFF7ECFA801B02289B
:1014A00009D838688007F7D50EE0C0F800A0FFF72C
:1014B000E1FA064605E082E0FFF7DCFA801B02282D
:1014C0007DD838688007F7D42078400768D5DFF8E2
:1014D000CCB100270BF13C0BDBF80000C0000BD4B3
:1014E000DBF8001041F08051CBF80010DBF8000071
:1014F000012700F0805000906B4E3068C00510D47A
:10150000306840F480703060FFF7B4FA009005E076
:10151000FFF7B0FA0099401A022850D83068C00589
:10152000F6D55E4EA0686C3601280FD005283068CD
:1015300010D020F001003060306820F004003060EE
:10154000A068B8B1FFF796FA00900FE0306840F05D
:101550000100F4E740F004003060F7E7FFF78AFA93
:101560000099411A41F28830814266D8306880077C
:10157000F4D50EE0FFF77EFA009007E0FFF77AFA65
:101580000099411A41F28830814256D8306880076C
:10159000F4D42FB1DBF8001021F08051CBF800100B
:1015A000A069C8B33D49091D0968C1F38101022939
:1015B0004AD00228504607D0C8F8600000E03CE05E
:1015C000FFF758FA04463BE04746C8F86000FFF7CB
:1015D00051FA064605E000BFFFF74CFA801B0228CF
:1015E0002BD828688001F7D4D4E907010843A16A01
:1015F0002E4A490802EB0141626A41EA821108431E
:1016000094F82C1040EA0161C9F8001001203866F6
:10161000FFF730FA044606E03EE000BFFFF72AFA83
:10162000001B022809D828688001F7D534E000BFE4
:10163000FFF720FA001B022802D90320BDE8F88F2B
:1016400028688001F4D427E00128F7D0D9F80000F9
:10165000E26900F4800191421CD1226A00F03F014E
:10166000914217D147F6C071626A0140B1EB821F07
:1016700010D1A26A4FF0FF3300F4403103EB520265
:10168000B1EB024F06D194F82C1000F07060B0EB73
:10169000016F01D00120D1E70020CFE704380240DC
:1016A00000004742800E4742007000400000FFFFEC
:1016B0007047704770B50446B0F85000002501042B
:1016C000206802F073F918B1A16B0143A16304E033
:1016D0000021206802F048F90546C5F3432070BD9B
:1016E000F8B5056B04460068416B09041BD5290752
:1016F00019D5D4E90A56002E14D00027206802F02C
:101700003DF905F8010B010A05F8011B010C05F86C
:10171000021B000E361F7F1C05F8010C082FEDD3AD
:10172000C4E90A56F8BD416B4FF00006C9054FF0F9
:10173000010744D5390281632068C16B4CF23A320B
:101740009143C1632068C16A21F00101C162280789
:101750001DD515F0220F09D0206802F041F928B1FB
:10176000A16B0143A1632046FFF7A3FF216840F26C
:101770003A50886384F834702663A80703D0204663
:1017800000F0B2F8F8BD204600F0AFF8F8BD28062A
:10179000FCD5A80609D5206802F022F928B1A16B72
:1017A0000143A1632046FFF784FFA807EED120681C
:1017B000C16A21F00801C16284F83470E3E7416B2B
:1017C000490424D5290722D5D4E90856002EDDD0B6
:1017D0005FF0000715F8010B009015F8011B361F8C
:1017E00040EA0120009015F8021B40EA01400090F9
:1017F00015F8011C40EA016000906946206802F07B
:10180000D0F87F1C082FE5D3C4E90856F8BD416B1A
:1018100040F23A221142F9D0416B890703D5A16BFE
:1018200041F00201A163416B090703D5A16B41F0AF
:101830000801A163416B890603D5A16B41F020012A
:10184000A163416BC90603D5A16B41F01001A163EF
:10185000416B890503D5A16B41F00801A16340F2FA
:101860003A7181632068C16B40F23A329143C1639F
:10187000206802F0B5F8A16B0843A063280706D5DD
:1018800084F8347026632046FFF713FFF8BD28065E
:10189000FCD515F0300F0CD0E16B11480865E06BFA
:1018A000FEF750FE0028F1D0E06BBDE8F84002F0F2
:1018B00063B9A8070CD0216C0A480865206CFEF7B4
:1018C00041FE0028E2D0206CBDE8F84002F032B9B9
:1018D000A66384F8347026632046FFF7E9FEF8BD5E
:1018E000793B0008353B000870477047704700009F
:1018F00038B5016804464A688868C043430606D57F
:10190000C30704D1D3435B0601D4216C05E08307F0
:1019100008D4D3431B0605D4616C01B02046BDE852
:1019200030400847830603D5430601D5C30551D48B
:10193000D3439B064ED443060AD494F85130032B6C
:1019400049D0636D43F004036365CB688B680093F3
:10195000830609D4636D43F0010363658B680093CC
:101960000B6823F040030B60C00506D4606D40F0A7
:1019700008006065206880680090606D002829D0AC
:101980002068416821F0E0014160012084F85100A5
:10199000900701D4D00722D02068416821F00301CC
:1019A0004160114DE06C40B10565E06CFEF7CAFD89
:1019B00018B1606D40F040006065A06C002809D04F
:1019C0000565A06CFEF7BEFD002803D0606D40F0F9
:1019D0004000606538BDC8688868009038BD204602
:1019E000FFF784FF38BD0000D53B000870B5040048
:1019F00009D0606A002540B125616561A56294F84F
:101A0000510040B10CE0012070BD6068B0F5827FEC
:101A1000F4D0E561F2E784F85050204600F044F835
:101A2000022084F851002068016821F04001016023
:101A3000A088218900F4827001F404410843A1893F
:101A400001F400610843217C01F002010843217D7B
:101A500001F001010843218B01F400710843217F4B
:101A600001F03801084394F8201001F08001084388
:101A7000218D01F40051084321680860A069042108
:101A800001EA104094F8241001F010010843216885
:101A900048602068C16921F40061C1616565012069
:101AA00084F85100002070BD2DE9F04186B0044655
:101AB00014216846FEF72EFC354A2168002435487B
:101AC000022503260527DFF8D080914234D1314921
:101AD00014310A6842F480520A60096801F48051A6
:101AE0000591016841F001010160016801F0010107
:101AF0000591016841F002010160006802AA00F04E
:101B0000020005909020CDE9000582E8D0006946EA
:101B10002248FEF7B1FE0820CDE9000502AA694679
:101B200082E8D0004046FEF7A7FE002205212320D0
:101B3000FFF7CCFA232025E0194A914224D1154918
:101B400010310A6842F480420A60096801F4804159
:101B50000591016841F002010160006802AA00F0ED
:101B6000020005904FF47040CDE9000582E8D000F6
:101B700069464046FEF780FE002205212420FFF73B
:101B8000A5FA2420FFF794FA06B0BDE8F081000022
:101B900000300140303802400004024000000240A2
:101BA000003800407047704770B590F83C20012A1B
:101BB00032D0012480F83C40022280F83D200368A6
:101BC0005A689D6822F070060A6832435A60134BC7
:101BD00002689A4214D0B2F1804F11D0104B9A4251
:101BE0000ED0104B9A420BD00F4B9A4208D00F4B9D
:101BF0009A4205D00E4B9A4202D00E4B9A4204D123
:101C0000496825F080031943916080F83D40002128
:101C100080F83C10084670BD022070BD00000140F5
:101C20000004004000080040000C00400004014097
:101C3000004001400018004010B5040003D094F8A3
:101C40003D0010B107E0012010BD002084F83C00E9
:101C5000204600F01FF8022084F83D00211D206876
:101C600002F06AF9012084F8460084F83E0084F806
:101C70003F0084F8400084F8410084F8420084F872
:101C8000430084F8440084F8450084F83D000020B7
:101C900010BD000008B501681448814201D1144804
:101CA00010E01348001FB1F1804F0BD0114A914250
:101CB00010D1016841F002010160006800F00200EB
:101CC000009008BD016841F001010160006800F06A
:101CD0000100F5E7084A9142F3D1016841F004019F
:101CE0000160006800F00400EAE700000000014025
:101CF00044380240000400400008004090F83D10C5
:101D0000012901D001207047022180F83D100168AF
:101D1000CA6842F00102CA6000681149884214D0C2
:101D2000B0F1804F11D00F4988420ED00E49884241
:101D30000BD00E49884208D00D49884205D00D4984
:101D4000884202D00C49884204D1816801F0070121
:101D5000062903D0016841F00101016000207047AD
:101D6000000001400004004000080040000C00405A
:101D700000040140004001400018004070B50446D6
:101D800090F83C000025012817D0012684F83C601B
:101D9000022084F83D002068826822F0770222F455
:101DA0007F4282600868502838D00DDC20284FD050
:101DB00005DC90B3102811D14AE0022070BD302814
:101DC00046D040280AD13BE060282FD070280DD0A3
:101DD000B0F5805F03D0B0F5005F12D0012584F824
:101DE0003D60002084F83C00284670BDCB68D1E9F6
:101DF0000121206802F015F92068816841F077011F
:101E000009E0CB68D1E90121206802F00AF92068D5
:101E1000816841F480418160E1E719E0CA6849685E
:101E2000206802F0D3F95021206806E0CA684968AA
:101E3000206802F0DCF96021206802F0FCF8CEE7AF
:101E4000CA684968206802F0C1F940212068F4E7B7
:101E5000226801461046F0E770472DE9F04104463C
:101E60000068C66805694FF00007A90713D5B107D8
:101E700011D5F91E01610120207720688069800753
:101E8000204602D0FFF7E8FF04E000F0E9F8204622
:101E900000F07BF92777680716D5700714D52168FD
:101EA0006FF004000861022020772068806910F438
:101EB000407F204602D0FFF7CFFF04E000F0D0F8CB
:101EC000204600F062F92777280715D5300713D58B
:101ED00021686FF008000861042020772068C0693D
:101EE0008007204602D0FFF7B7FF04E000F0B8F803
:101EF000204600F04AF92777E80616D5F00614D5F3
:101F000021686FF010000861082020772068C06900
:101F100010F4407F204602D0FFF79EFF04E000F05F
:101F20009FF8204600F031F92777E80708D0F0073E
:101F300006D021686FF001000861204600F0C8F962
:101F4000280608D5300606D521686FF080000861A4
:101F50002046FFF727FE680608D5700606D52168DB
:101F60006FF040000861204600F0BCF9A8060AD5D1
:101F7000B00608D521686FF0200008612046BDE852
:101F8000F041FFF710BEBDE8F081000030B587B02A
:101F9000044614216846FEF7BDF92468294800224A
:101FA00029490223012584420ED1086840F010001F
:101FB0000860086800F01000059048150090CDE911
:101FC00001326946214821E02148B4F1804F10D008
:101FD000204DAC4220D10C6844F001040C6009682B
:101FE00001F00101059140210091CDE901326946DE
:101FF00024E00C6844F001040C60096801F0010160
:10200000059120210091CDE901326946CDE90325F2
:10201000FEF732FC07B030BD0F488442FAD10868A1
:1020200040F0080008600868694600F00800059064
:102030004FF470400090CDE901320848CDE9032308
:10204000E6E7000000000140303802400010024086
:10205000000002400004004000080040000C024064
:10206000704770B5044690F83C0000260D460128E4
:102070000FD0012084F83C006AB1042A1DD0082A40
:102080002FD00C2A3FD00126002084F83C00304697
:1020900070BD022070BD206801F0D6FF2068816904
:1020A00041F0080181612068816921F004018161AA
:1020B000206881692A69114311E0206801F0F4FF6A
:1020C0002068816941F4006181612068816921F49F
:1020D00080618161206881692A6941EA0221816108
:1020E000D2E7206802F016F82068C16941F00801C3
:1020F000C1612068C16921F00401C1612068C16922
:102100002A69114311E0206802F038F82068C1699B
:1021100041F40061C1612068C16921F48061C1613D
:102120002068C1692A6941EA0221C161ACE710B5A2
:10213000040003D094F83D0010B107E0012010BD69
:10214000002084F83C00204600F01EF8022084F8AD
:102150003D00211D206801F0EFFE012084F84600BB
:1021600084F83E0084F83F0084F8400084F8410081
:1021700084F8420084F8430084F8440084F8450061
:1021800084F83D00002010BD7047704710B504462C
:10219000022249B104290ED0082913D094F8410035
:1021A000012816D0012010BD94F83E000128F9D175
:1021B00084F83E200FE094F83F000128F2D184F823
:1021C0003F2008E094F840000128EBD184F840203B
:1021D00001E084F841200122206801F015FF164932
:1021E0002068164A884201D0904203D1436C43F4E0
:1021F000004343642068884213D0B0F1804F10D070
:102200000F4988420DD00F4988420AD00E498842B2
:1022100007D0904205D00D49884202D00C4988422F
:1022200004D1816801F00701062903D0016841F05B
:1022300001010160002010BD0000014000040140C8
:102240000004004000080040000C00400040014035
:102250000018004030B504460D460068002201F029
:10226000D3FE194B41F2111120688A10984202D016
:10227000164B984209D1036A0B4206D1036A1342F6
:1022800003D1436C23F4004343642068036A0B4288
:1022900006D1016A114203D1016821F001010160F8
:1022A00001203DB1042D08D0082D09D084F841004B
:1022B000002030BD84F83E00FAE784F83F00F7E7DD
:1022C00084F84000F4E700000000014000040140F1
:1022D00000680349884201D1FEF760BE70470000E4
:1022E000001000407047704710B504460068406910
:1022F00094F84110C0F3C010212911D180B1206899
:10230000143050E8001F21F0800140E80012002A3C
:10231000F5D1A06B08B1FEF7CCF8204602F0F9F831
:102320002068406994F84210C0F38010222911D12E
:1023300080B12068143050E8001F21F0400140E8CF
:102340000012002AF5D1E06B08B1FEF7B2F8204682
:1023500002F0B8F8002010BD70470000F8B5016821
:1023600004460868CA684B6910F00F0F4FF000056B
:102370005AD003F0010602F49077374365D0C107C5
:1023800005D0D10503D5616C41F0010161644107BD
:1023900005D5D90703D0616C41F002016164810762
:1023A00005D5D90703D0616C41F0040161640107D0
:1023B00007D502F02001314303D0616C41F00801E0
:1023C0006164616C00293BD0800604D5900602D57B
:1023D000204602F0ACF820684069616CC0F38010C0
:1023E00001F00801014320462BD002F06BF8206871
:1023F0004069400621D52068143050E8001F21F0C4
:10240000400140E80012002AF5D1E06BA8B1724902
:102410000165E06BFEF796F8002811D0E06B016DC6
:1024200001B0BDE8F040084783060ED593060CD5F1
:102430002046BDE8F84002F07AB82046FFF78CFF4E
:10244000F8BDFFF789FF6564F8BD266B2023012ED8
:102450007ED1C6067CD5D6067AD508684868009035
:1024600048694FF0020640064DD5E26B106840689F
:102470004FF480770004000C3AD0A18D814237D907
:10248000E085D069B8422DD020680C3050E8001F9C
:1024900021F4807140E80012002AF5D12068143040
:1024A00050E8001F21F0010140E80012002AF5D198
:1024B0002068143050E8001F21F0400140E800126D
:1024C000002AF5D184F84230256320680C3050E8AA
:1024D000001F21F0100140E80012002AF5D1E06B46
:1024E000FDF7E7FF6663A08DE18D401A81B206E03B
:1024F000A18D8142A8D1D069B842A5D1666320469A
:10250000FFF7F1FEF8BDA08DE18D401A81B2E08D9C
:102510000028F7D00029F5D020680C3050E8002FB3
:1025200022F4907240E80027002FF5D12068143083
:1025300050E8002F22F0010240E80027002FF5D1DB
:1025400084F84230256320680C3050E8002F00E00A
:1025500006E022F0100240E80023002BF3D1CDE783
:1025600005062BD5150629D594F841002128C9D197
:10257000A068B0F5805F01D12069B0B1206A411C2C
:102580002162216800784860E08C401E0004000C45
:10259000E084B7D12068C16821F08001C160206863
:1025A000C16841F04001C160F8BD206A0088C0F3F5
:1025B00008004860206A801C2062E5E74006F3D5E9
:1025C0005006F1D5CA68204622F04002CA6084F85D
:1025D000413000F0CDFAF8BD7D43000870B504002D
:1025E00004D094F84100002510B106E0012070BD30
:1025F00084F84050204600F023F8242084F841005D
:102600002068C16821F40051C160204601F0F0FF4C
:102610002068016921F4904101612068416921F03D
:102620002A0141612068C16841F40051C1606564BC
:10263000202084F8410084F842006563002070BDCA
:102640002DE9F04F87B0044614216846FDF762FE7D
:10265000E848E74B1038D4F800C0E64A03270221C7
:10266000DFF894E3002506154FF040094FF0006AAB
:102670009C4553D1136843F400231360126802F49D
:1026800000220592026842F0010202600068029591
:1026900000F001000590CDE900710820CDE903703C
:1026A00069467046FEF7E8F8DFF85483D349574689
:1026B00088E882024046B146C0E90356C8F8145083
:1026C000C8F81850C8F81C50C8F82050C8F8245052
:1026D000FEF71EF808B1FDF7EAFEC94EC748C4F878
:1026E000388060363038C8F838403060C6E9017547
:1026F000C6E903597561B561F561356230467562A9
:10270000FEF706F808B1FDF7D2FEE66300220521C8
:102710003420B463FEF7DAFC342050E0B54BDFF828
:10272000E4821B1D4FF0070BC4454DD11A6842F0DF
:1027300010021A601A6802F010020592026842F054
:1027400001020260006800F0010005904FF4C060D3
:102750008DE8A30869467046FEF78EF8A84FAA4890
:10276000C0373860C7E901A5C7E903567D61BD617F
:10277000FD613D6238467D62FDF7CAFF08B1FDF795
:1027800096FEE763BC63A14F9F48C7F80890C7E96E
:1027900003567D61BD61FD613D6278307D62C7E9B0
:1027A000000A3846FDF7B4FF08B1FDF780FEA763C5
:1027B000002205212520BC63FEF788FC2520FEF7BA
:1027C00077FC07B0BDE8F08FDFF84482C44562D1E2
:1027D000136843F400331360126802F40032059268
:1027E000026842F0010202600068884600F00100C1
:1027F00005900420CDE9000802AB694683E8A008F3
:102800007D48FEF739F80820CDE9000802AB012029
:1028100083E8810869467848FEF72EF8DFF8ECB1C6
:1028200076490BF1600B58463031C0E90356CBF8BE
:102830001450CBF81850CBF81C505746CBF820500A
:102840008BE88202B046CBF82450FDF761FF08B157
:10285000FDF72DFE6D4E6948C4F838B0C03618300B
:10286000CBF838403060C6E90175C6E90358756198
:10287000B561F561356230467562FDF749FF08B113
:10288000FDF715FEE663002205212620B463FEF75E
:102890001DFC262093E7DFF87C81C44558D11368DE
:1028A000A84643F480231360126802F48022059244
:1028B000026842F002020260006800F00200059027
:1028C0004FF440608DE8A30869465348FDF7D4FFF4
:1028D000DFF848B1494958461839C0E90356CBF8E2
:1028E0001450CBF81850CBF81C505746CBF820505A
:1028F0008BE88202CBF82450FDF70AFF08B1FDF700
:10290000D6FD464D3D48C4F838B060354838CBF860
:102910003840C5E90007C5F80880C5E90386C5F851
:102920001480C5F81880C5F81C80C5F8208028469A
:10293000C5F82480FDF7ECFE08B1FDF7B8FDE563AE
:10294000002205212720AC63FEF7C0FB272036E7D5
:10295000334A94457FF435AF1A6842F020021A607A
:102960001A6802F020020592026842F00402026036
:10297000006800F004000590C0208DE8A300082046
:10298000049069462748FDF777FF244F1E48C0375B
:102990006030C7E903567D61BD61FD613D624FF066
:1029A00020687D6287E801033846FDF7B1FE08B173
:1029B000FDF77DFDA763BC6313481B4F18383860D3
:1029C000C7E90185C7E903567D61BD61FD613D62CF
:1029D00038467D62FDF79CFE08B1FDF768FDE763B0
:1029E000002205214720BC63FEF770FB4720E6E686
:1029F000004C00404038024000000240706002403D
:102A0000CC0C00200010014040640240EC0D00207E
:102A10000044004000480040000402400C0F002029
:102A200000140140000802402C10002090F84230B1
:102A3000202B01D00220704721B11AB1002303637B
:102A400001F05CBE01207047704770472DE9F843E4
:102A5000044690F84100984616460D46202802D0BC
:102A60000220BDE8F88385B17EB10020606421209A
:102A700084F84100FDF7FEFFA6848146E684A06845
:102A80002027B0F5805F02D003E00120E9E720694C
:102A900010B12E4600250EE000260CE080212046D5
:102AA00001F07CFEA8B9C6B116F8010B2168486098
:102AB000E08C401EE084E08C4B464FF00002CDF8E5
:102AC00000800028EAD14FF04001204601F066FE68
:102AD00040B184F841700320C3E735F8020BC0F31E
:102AE0000800E3E784F841700020BAE770B50446B7
:102AF00090F84100202801D0022070BD01B3FAB146
:102B00002162A284E28400206064212384F84130A1
:102B1000A56B144BEB63A56B134B2B64A56B134B8D
:102B2000EB64A36B186520681346A56B021D28464D
:102B3000FDF758FE30B110206064202084F8410079
:102B4000012070BD21686FF04000086020681430DB
:102B500050E8001F41F0800140E80012002AF5D142
:102B6000002070BD79440008BB4400088B43000876
:102B700070477047FEE700000148FDF783BF000083
:102B8000B00000200148FDF7DABF0000B0000020CF
:102B900038B5806B002190F83D202B4B46F2A814ED
:102BA0001B68B3FBF4F3C3EBC30303EB8303009392
:102BB0003BB15B1E009303681B689B0505D5009B1A
:102BC000F6E7036C43F020030364436B03B1D9635E
:102BD000836B03B1D96303681C6824F480641C60B0
:102BE0004185436B03B11965836B03B119650368B4
:102BF0001C6824F001041C6090F83D402023602CE8
:102C00000BD0282434EA02020FD080F83D3080F83F
:102C10003E1000BFFEF7ABF838BD80F83D3080F8BD
:102C20003E100164FDF72CFF38BD0268136843F0C5
:102C3000010313600268136843F480631360016347
:102C400080F83D40E6E70000280000200068416968
:102C5000C943090601D400210161704770B50446DB
:102C600090F83D0094F83E10102901D0402906D17B
:102C7000222804D121680A6822F400620A6028210F
:102C800031EA00024FF000054FF0200626D02168FF
:102C90004968090505D4602803D084F83D6084F8AC
:102CA0003E50256320684168090537D5416821F405
:102CB00000614160606B90F835203C49012A11D0D9
:102CC0000165606BFDF73EFC38B32068016821F0B8
:102CD0000101016084F83D60606B1CE0256384F8AD
:102CE0003D10DFE7A06B0165A06BFDF72BFCA0B1E9
:102CF00020684169C943490605D40069616A0870C2
:102D0000606A401C60622068016821F00101016076
:102D100084F83D60A06B016D884710E094F83D1089
:102D2000602910D04169C943490605D40069616A28
:102D30000870606A401C60622046FEF718F8206C3C
:102D4000C1071CD115E084F83D6025644169C94381
:102D5000490605D40069616A0870606A401C6062B7
:102D60002068016821F0010101602046FDF788FE1E
:102D7000E5E7810703D4410701D4000704D52068A3
:102D8000416821F4E061416094F83D00216C4907FD
:102D90000BD5282809D10648E062256384F83D60F8
:102DA00084F83E502046FEF7A7F870BD912B00082E
:102DB0000000FFFF10B5C26A438D0168042B06D0E6
:102DC000438D032B08D0438D022B1DD012E04A689F
:102DD00022F480624A600CE04B6823F480634B600D
:102DE000042A06D0022A04D001680A6822F480620C
:102DF0000A6001680969426A1170416A491C4162AE
:102E0000418D491E418510BD012A34D0102A32D08F
:102E1000042A34D0022A32D00B6843F400730B60CA
:102E200001680969436A1970416A491C4162438D0E
:102E30005B1E438503681B690B70416A491C416234
:102E4000418D491E418501684B6823F440734B60F6
:102E5000202180F83D1090F83E300021402B80F872
:102E60003E1010D0082A02D0202A00D0122101637F
:102E7000FEF743F810BD0B6823F48063CFE70B68BF
:102E800043F48063CBE70163FEF739F810BD00001F
:102E900038B590F83D10222910D1C36A418D03291D
:102EA0000DD901680969426A1170416A491C416281
:102EB000418D491E4185418D032906D038BDC26A26
:102EC000022A02D0012906D029B10068416821F404
:102ED0008061416038BD2A4A46F2A8140021126878
:102EE000B2FBF4F202EB8202009202682024009D01
:102EF0006D1E009526D01568AD05F8D4156825F42B
:102F0000806515600268556825F4E06555600268C3
:102F10001269456A2A70426A521C4262428D521EF0
:102F2000428580F83D4090F83E2080F83E10402ACF
:102F300021D0082B02D0202B00D012210163FDF7F5
:102F4000DCFF38BD036C43F020030364536823F4B3
:102F5000E063536002681269436A1A70426A521C45
:102F60004262428D521E428580F83D4080F83E10FC
:102F7000FDF7FDFE38BD0163FDF7C1FF38BD000060
:102F80002800002010B5C26A90F83D1021290BD10D
:102F9000418D51B1416A026809781161416A491C49
:102FA0004162418D491E418510BD20230021082A20
:102FB00013D0202A11D012F5803F0ED00268546839
:102FC00024F4E06454601122026380F83E1080F81B
:102FD0003D3000BFFDF792FF10BD0268546824F435
:102FE000E06454600268146844F40074146001637F
:102FF00080F83D3090F83E2080F83E10402AE9D11C
:10300000FDF77EFF10BD000010B590F83D1090F860
:103010003E30C26A048DB4B1212903D0402B11D1B6
:1030200022290FD1418DE1B390F83E10402942D0C2
:10303000416A026809781161416A491C4162418D07
:10304000491E418510BD2129E8D120230021082AED
:1030500013D0202A11D012F5803F0ED00268546898
:1030600024F4E06454601122026380F83E1080F87A
:103070003D3000BFFDF742FF10BD0268546824F4E4
:10308000E06454600268146844F4007414600163DE
:1030900080F83D3090F83E2080F83E10402AE9D17B
:1030A00000E002E0FDF72CFF10BD0068416821F44C
:1030B0008061416010BDBDE8104000F0D3B8000051
:1030C00078B590F83E50C26A036B90F83D600024DA
:1030D0000168222E7AD1066D0EB9402D76D0056D8D
:1030E0001DB90569B5F5404F09D0458D05B3468D2D
:1030F000384D012E0ED0438D022B3AD05DE04A6947
:103100008A6900920A6842F480720A60016D491C63
:10311000016578BDAA4213D10A6822F480620A6070
:1031200001684A68120503D50A6822F4806216E035
:103130004A698A6900920A6842F400720A6039E0BA
:10314000082A10D0202A0ED0122B0AD0042A03D02D
:10315000022A01D0102AE7D10A6842F480620A608C
:1031600024E0012AE0D00A6822F480620A60016843
:10317000DEE7042A21D0022A1FD0102A1DD00B68B6
:1031800023F480630B6001680B6843F400630B60F9
:1031900001684B681B0509D5AA4212D0012A10D03C
:1031A000082A0ED0102A0CD0202A0AD001684A69B9
:1031B00089690091046578BD08E00B6843F4806379
:1031C000E5E74A6842F480524A60EFE74869886957
:1031D0000090F0E70000FFFF90F83E10402910D06B
:1031E0000169B1F5804F19D0016DA9B3016D0129B5
:1031F00010D1416C5FF0F10201F4407142EAD1114B
:1032000006E0016D0029416C05D0C9B241F0010111
:1032100000680161704701F0FE01F9E790F83D1088
:103220002129416C09D0C9B241F001010268116144
:10323000416B29B1C96B49B902E001F0FE01F5E724
:10324000816B0029E6D0C96B0029E3D00068416892
:1032500041F4006141607047FFE7416CF02201F4E6
:103260004071CBE710B590F83D10026D4AB1026D88
:10327000012A14D0026D022A16D0BDE81040FFF7D3
:10328000E5BCC16C0129816C02D0C1F3072108E0C3
:103290000268C9B21161016D891C016510BD816CA4
:1032A000C9B20268116123E022291CD0428D0AB103
:1032B000212920D0428D002AF0D12129EED10168A8
:1032C0004A6822F4E0624A6001680A6842F40072C7
:1032D0000A6000210163202280F83D2080F83E1022
:1032E000FDF70EFE10BD01680A6842F480720A60A4
:1032F000016D491CD1E7416A026809781161416A90
:10330000491C4162418D491E418510BD38B50C46AE
:1033100090F83D2000212825954302680B4605D0F2
:1033200051699169009180F83C3038BD556825F4A9
:1033300080655560E243540700D50121120601D58E
:10334000828900E0028B80F83C3092B2FDF799FB55
:1033500038BD00002DE9F04190F83D300446C26AC6
:10336000002120261E4F00686FF48065082A01D0D6
:10337000202A01D1282B04D0212B17D04561BDE88C
:10338000F081E762426822F4E062426020684561B1
:103390002068026822F480620260216384F83D6044
:1033A00084F83E102046FDF7A7FDE8E7E7622122FA
:1033B000226384F83D6084F83E10416821F4E061A6
:1033C0004160206845612068016821F480610160E6
:1033D0002046FFF73BFC2046FDF7D9FDCFE7000074
:1033E0000000FFFFF8B590F83D60044600684168B2
:1033F00021F4E06141602068002541690091016885
:1034000041F0010101602068016821F480610160E0
:1034100020684168090520D5474F222E48D02A2E22
:1034200046D0616B096849686185618D19B1216C6D
:1034300041F004012164416821F400614160606B46
:10344000FDF792F8012808D0606B0765606BFDF707
:1034500079F810B1606B016D8847608D08B3206802
:103460004169C943490708D40069616A0870606A04
:10347000401C6062608D401E608520684169C943C0
:10348000490608D40069616A0870606A401C60627D
:10349000608D401E6085608D18B1206C40F0040086
:1034A0002064206C00B32046BDE8F840FFF7D6BB8F
:1034B000A16B096849686185618D19B1216C41F082
:1034C00004012164416821F400614160A06BFDF7B3
:1034D0004BF80128C1D0A06B0765A06BFDF732F84F
:1034E0000028BAD0A06BB6E72A2E06D12563282083
:1034F00084F83D002046FDF749FD94F83D1020205A
:1035000028290DD0216B222901D0222E07D1256335
:1035100084F83D0084F83E502046FDF737FDF8BDA5
:103520000649E162256384F83D0084F83E50204658
:10353000FDF7E2FCF8BD0000912B00080000FFFF42
:10354000314808B5016841F480010160016801F467
:1035500080010091016841F40011016000680022BF
:1035600000F40010009005210C20FDF7AFFD0C20A9
:10357000FDF79EFD002205210D20FDF7A7FD0D2082
:10358000FDF796FD002205210E20FDF79FFD0E2080
:10359000FDF78EFD002205210F20FDF797FD0F207E
:1035A000FDF786FD002205211020FDF78FFD10207C
:1035B000FDF77EFD002205211120FDF787FD11207A
:1035C000FDF776FD002205213920FDF77FFD39202A
:1035D000FDF76EFD002205213A20FDF777FD3A2028
:1035E000FDF766FD002205214520FDF76FFD452012
:1035F000FDF75EFD002205214620FDF767FDBDE8D1
:1036000008404620FDF754BD3038024010B5044A4A
:103610000021044801F096FC0349086010BD000039
:10362000E0680008E53B0008000000202DE9F04FAD
:1036300087B014216846FCF76DFE4D4800240168F0
:1036400041F010010160016801F01001059101686D
:1036500041F004010160016801F004010591016875
:1036600041F080010160016801F08001059101686D
:1036700041F001010160016801F00101059101685B
:1036800041F002010160016801F002010591016849
:1036900041F0080101600068DFF8D88000F0080000
:1036A00049F6FC050590002229464046FDF7DCF965
:1036B000DFF8C49042F21606002231464846FDF774
:1036C000D3F9DFF8B8A0002202215046FDF7CCF96B
:1036D000DFF8ACB040F64867002239465846FDF79F
:1036E000C3F900950125CDE901546946404603948C
:1036F000FDF7C2F80096CDE90154694648460394A7
:10370000FDF7BAF82020CDE9000469464846029446
:10371000FDF7B2F83011CDE9000469465046029435
:10372000FDF7AAF802200090CDE901546946504601
:103730000394FDF7A1F846F20350CDE90004694671
:1037400040460294FDF798F80097CDE90154694688
:1037500058460394FDF790F83020CDE900046946FF
:1037600058460294FDF788F807B0BDE8F08F0000D6
:1037700030380240001002400008024000040240BD
:10378000000C02400D4810B50B4901600C49416026
:1037900000214FF480428160C0E9031241618161E0
:1037A000C1610162FDF7E4FA002803D0BDE81040D2
:1037B000FCF77DBE10BD000000540040B0000020AA
:1037C000A08601000F4810B50D4901604FF48271C9
:1037D000416000218160C1604FF400720161C0E965
:1037E0000512C1610162416281620A21C162FEF774
:1037F000FDF8002803D0BDE81040FCF758BE10BD0E
:1038000000300140940100200F4810B50D490160BF
:103810004FF48271416000218160C1604FF40072F9
:103820000161C0E90512C1610162416281620A2140
:10383000C162FEF7DBF8002803D0BDE81040FCF7BA
:1038400036BE10BD00380040EC0100200C4810B519
:103850000A4901604FF4E1314160002181600C228E
:10386000C160C0E904128161C161FEF7B7FE0028A2
:1038700003D0BDE81040FCF71ABE10BD004C00405C
:10388000640B00200C4810B50A4901604FF4E13187
:103890004160002181600C22C160C0E90412816195
:1038A000C161FEF79BFE002803D0BDE81040FCF785
:1038B000FEBD10BD00100140AC0B00200C4810B53F
:1038C0000A4901604FF4E1314160002181600C221E
:1038D000C160C0E904128161C161FEF77FFE00286A
:1038E00003D0BDE81040FCF7E2BD10BD004400402D
:1038F000F40B00200C4810B50A4901604FF4165132
:103900004160002181600C22C160C0E90412816124
:10391000C161FEF763FE002803D0BDE81040FCF74C
:10392000C6BD10BD004800403C0C00200C4810B53E
:103930000A4901604FF4E1314160002181600C22AD
:10394000C160C0E904128161C161FEF747FE002831
:1039500003D0BDE81040FCF7AABD10BD0014014023
:10396000840C0020FEE7FEE7084440697047000031
:103970000148FDF7B5BE000010010020D0F880001E
:1039800070470A688260D1E901231A43D1E9033103
:103990000B43C1681A436FF30B011143C160002050
:1039A00070470968C0F880100020704710B585B0D6
:1039B00004460D20CDE90010402002900020039025
:1039C0004FF48060049069462046FFF7DAFF41F229
:1039D00088320D21204600F01DF805B010BD000012
:1039E00010B585B0044600210C20CDE90010402020
:1039F000CDE902010001049069462046FFF7C1FFAE
:103A0000034A0C21204600F005F805B010BD000067
:103A100000E1F505454B10B51B684FF4FA54B3FBB4
:103A2000F4F353435B1E02D24FF0004010BD426BD3
:103A300012F0450FF6D01205F4D4426B520703D5AD
:103A400004218163084610BD426BD20702D00121D8
:103A5000816305E0C52282630269D2B28A4201D045
:103A6000012010BD0021FFF77FFF3149084201D13D
:103A7000002010BD002802DA4FF0007010BD410098
:103A800001D5402010BD810001D5802010BDC100AE
:103A900002D54FF4807010BD010102D54FF40070C3
:103AA00010BD410102D54FF4806010BDC10102D5A7
:103AB0004FF4006010BD010202D54FF4805010BDDC
:103AC000410202D54FF4005010BD810202D54FF4DF
:103AD000804010BDC10202D54FF4004010BD41032B
:103AE00002D54FF4003010BD810302D54FF4802081
:103AF00010BDC10302D54FF4002010BD010402D552
:103B00004FF4801010BD410402D54FF4001010BDD9
:103B1000810402D54FF4800010BD000702D54FF498
:103B2000000010BD4FF4803010BD000028000020C0
:103B300008E0FFFD10B5846B40F23A5021688863BD
:103B40002046FDF7B7FD012184F8341000212163E0
:103B5000062801D0052805D12068FFF741FFA16B99
:103B60000843A063A06B0028204602D0FDF7A1FD0A
:103B700010BDFDF79DFD10BD10B5846B40F23A50AD
:103B8000216888632046FDF795FD012184F83410F3
:103B900000212163062801D0052805D12068FFF700
:103BA0001FFFA16B0843A063A06B0028204602D032
:103BB000FDF77FFD10BDFDF77BFD10BD0148FDF752
:103BC00097BE0000940100200148FDF791BE00005F
:103BD000EC01002010B5806B0021C187C186FDF784
:103BE00085FE10BD0348FDF7D3F9642001F06EF99E
:103BF000F8E700000401002010B54FF0E020006954
:103C000002F018FC012803D0BDE8104002F046B9CC
:103C100010BD000030B593B030216846FCF77AFB48
:103C200014210CA8FCF776FB1F480025016841F021
:103C300080510160006800F0805011901B480168BD
:103C400041F4804101600068022400F4804011903A
:103C5000092000904FF4803001900120CDE9050447
:103C60008005079004200890A820CDE909040720CA
:103C70000B906846FDF766FB08B172B6FEE70CA92B
:103C80000F2081E831004FF4A0500F904FF4805086
:103C9000109005210CA8FDF74BFA002801D072B650
:103CA000FEE713B030BD0000403802400070004015
:103CB0000248016841F470010160704788ED00E03E
:103CC00030B58DB0002405460794089409940A94F1
:103CD0000B941C2168460C94FCF71CFB1E491D48E4
:103CE00001C140F6330031C11B4841F810498C61D5
:103CF000FDF7A2FF08B1FCF7DAFB4FF48050079004
:103D000007A91548FEF73AF808B1FCF7D0FB1248AE
:103D1000FEF70DFA08B1FCF7CAFB0B940BA90E488D
:103D20000C94FDF741FF08B1FCF7C1FB6020009047
:103D30006808CDE901040022694607480494FEF7AB
:103D400090F908B1FCF7B3FB0348FEF71FF90DB07B
:103D500030BD0000000001404402002030B58DB0AD
:103D6000002405460794089409940A940B941C2196
:103D700068460C94FCF7CEFA1D494FF0804001C113
:103D800040F6330031C11A4841F810498C61FDF703
:103D900053FF08B1FCF78BFB4FF48050079007A945
:103DA0001348FDF7EBFF08B1FCF781FB1048FEF765
:103DB000BEF908B1FCF77BFB0B940BA90C480C94E3
:103DC000FDF7F2FE08B1FCF772FB60200090680876
:103DD000CDE901040022694605480494FEF741F943
:103DE00008B1FCF764FB0248FEF7D0F80DB030BD17
:103DF0008C02002030B58DB000240546079408944D
:103E000009940A940B941C2168460C94FCF782FADE
:103E10001E491D4801C140F6330031C11B4841F81D
:103E200010498C61FDF708FF08B1FCF740FB4FF427
:103E30008050079007A91548FDF7A0FF08B1FCF7CF
:103E400036FB1248FEF773F908B1FCF730FB0B9410
:103E50000BA90E480C94FDF7A7FE08B1FCF727FB51
:103E6000602000906808CDE90104002269460748F7
:103E70000494FEF7F6F808B1FCF719FB0348FEF7C7
:103E800085F80DB030BD000000040040D4020020D1
:103E900030B58DB0002405460794089409940A941F
:103EA0000B941C2168460C94FCF734FA1E491D48FB
:103EB00001C140F6330031C11B4841F810498C6103
:103EC000FDF7BAFE08B1FCF7F2FA4FF48050079004
:103ED00007A91548FDF752FF08B1FCF7E8FA1248A8
:103EE000FEF725F908B1FCF7E2FA0B940BA90E488E
:103EF0000C94FDF759FE08B1FCF7D9FA6020009048
:103F00006808CDE901040022694607480494FEF7D9
:103F1000A8F808B1FCF7CBFA0348FEF737F80DB064
:103F200030BD0000000800401C0300200148FDF7E0
:103F300094BF00008C180020F0B50268274B284D74
:103F4000284E294F294C4FF0804C984209D06045AB
:103F500007D0A84205D0B04203D0B84201D0A04259
:103F600004D122F0700E4A6842EA0E0298421BD039
:103F7000604519D0A84217D0B04215D0B84213D02E
:103F8000A04211D01A4DA8420ED01A4DA8420BD013
:103F9000194DA84208D0194DA84205D0184DA84285
:103FA00002D0184DA84203D122F44075CA682A43B2
:103FB0004D6922F080022A438D68C5620D688562D2
:103FC000984201D0A04201D109690163016841F022
:103FD00004010160012141610260F0BD0000014067
:103FE0000004004000080040000C004000040140B4
:103FF00000400140004401400048014000180040DA
:10400000001C00400020004010B501F01F030121FA
:10401000046A99408C430462016A9A401143016228
:1040200010BD10B5846842EA032224F47F440A4399
:104030002243826010BD826822F070020A4342F07F
:104040000701816070470000F0B5036A026A22F040
:104050000102026242688469124E24F073050C6802
:104060002C4323F002058B682B430D4DA84201D051
:10407000B04205D123F00807CB683B4323F004038B
:10408000A84201D0B04205D14D6922F440721543D7
:104090008A692A4342608461496841630362F0BDD2
:1040A0000000014000040140F0B5026A036A23F0F9
:1040B00010030362436884690D6824F4E64444EA0B
:1040C00005248D6822F0200242EA05120F4D104EA1
:1040D000A84201D0B04206D1CF6822F0800242EA65
:1040E000071222F04002A84201D0B04207D14D6928
:1040F00023F4406343EA85038D6943EA8503436003
:104100008461496881630262F0BD000000000140E3
:1041100000040140F0B5026A036A23F4807303626D
:104120004368C46922F4007224F073050C68124ECF
:104130002C438D6842EA05220E4DA84201D0B042C0
:1041400006D1CF6822F4006242EA072222F480629C
:10415000A84201D0B04207D14D6923F4405343EA4D
:1041600005138D6943EA05134360C4614968C1635F
:104170000262F0BD000001400004014030B5046A55
:10418000026A22F4805202624268C3690D6823F415
:10419000E64343EA05238D6824F4005444EA0534D9
:1041A000084DA84202D0084DA84204D14D6922F41E
:1041B000804242EA85124260C36149680164046238
:1041C00030BD0000000001400004014010B5036A4A
:1041D000046A24F001040462846924F0F00444EACF
:1041E000021423F00A020A438461026210BD10B572
:1041F000036A046A24F010040462846923F0A003B3
:1042000024F4704444EA023243EA011182610162FB
:1042100010BD00002DE9FC473E4E92460D46044677
:10422000012202213046FCF71FFC0122DFF8E88062
:10423000D70239464046FCF717FCDFF8E090012230
:1042400040214846FCF710FC012240214846FCF77B
:104250000BFC8DF80040324C6908207820F00500F6
:1042600040F0C0002070607840F00100607060791C
:1042700065F304006071207961F304002071A07976
:1042800020F00F000830A0718DF804A000219DF8E7
:104290000000226800F04AF86068102140F4E02233
:1042A0009DF8000000F042F8002214219DF8000063
:1042B00000F03CF89DF804001A4941EA00626C21C4
:1042C0009DF8000000F032F8174A70219DF80000B8
:1042D00000F02CF8002213219DF8000000F026F8D1
:1042E000002202213046FCF7BFFB0022394640463F
:1042F000FCF7BAFB002240214846FCF7B5FB002240
:1043000040214846FCF7B0FBBDE8FC476420FCF7C1
:10431000A1BA00000004024000100240000C02405C
:10432000140000205300011024000DC110B50E4CE4
:1043300005232370607041F08000A070100EE070C3
:10434000100C2071100A6071A2710721204601F043
:10435000DAFAE071082221460448FEF7C7FBBDE8FF
:1043600010400120FCF776BA0C000020F40B00206E
:104370000148FDF7F3BF0000640B002010B5806B0F
:104380000021C185FDF7E8FF10BD70B5846B206882
:10439000406994F84110C0F3C0100025212904D1D0
:1043A00018B1E584204600F0B4F82068406994F81C
:1043B0004210C0F38010222904D118B1E5852046AF
:1043C00000F080F8606C40F0100060642046FDF75B
:1043D000C3FF70BD10B50146806B096809684FF0D6
:1043E0000002C9052ED4C28501680C3151E8003F96
:1043F00023F4807341E80034002CF5D101681431B6
:1044000051E8003F23F0010341E80034002CF5D1CE
:104410000168143151E8003F23F0400341E80034C3
:10442000002CF5D1202180F84210016B012909D11F
:1044300001680C3151E8003F23F0100341E80034DB
:10444000002CF5D14263016B012902D0FEF7FCFA82
:1044500010BD818DFDF747FF10BD10B5806B0121A8
:104460004163016B012902D0FEF7EFFA10BD818D87
:104470004908FDF738FF10BD10B50146806B09688B
:104480000968C90516D40021C1840168143151E8B6
:10449000002F22F0800241E80023002BF5D10168B3
:1044A0000C3151E8002F42F0400241E80023002B7C
:1044B000F5D110BDFEF75CFB10BD10B5806BFEF7AB
:1044C00058FB10BD01680C3151E8002F22F49072A6
:1044D00041E80023002BF5D10168143151E8002F89
:1044E00022F0010241E80023002BF5D1016B0129E4
:1044F00009D101680C3151E8002F22F0100241E887
:104500000023002BF5D1202180F842100021016307
:10451000704701680C3151E8002F22F0C00241E8D9
:104520000023002BF5D1202180F84110704708B5F9
:1045300090F84210222901D0022008BD82684FF471
:1045400080539A4201D1016921B1816A9A421BD0FC
:104550004AB10AE00268816A5268C2F308020A801E
:10456000816A891C08E0026972B10268526802F02F
:104570007F020A70816A491C8162C18D491E09044B
:10458000090CC18503D01BE002685268F1E701689D
:10459000CA6822F02002CA600168CA6822F48072E8
:1045A000CA6001684A6922F001024A61202180F84C
:1045B000421000214163026B012A03D0FEF744FA46
:1045C000002008BD016301680C3151E8002F22F082
:1045D000100241E80023002BF5D101680A68D206D9
:1045E00002D50A6849680091818DFDF77CFEE7E7F6
:1045F00070B5044600680169E26821F44051114336
:1046000001612169A068E2690843616911430843B7
:104610002168CA6849F20C639A430243CA60206861
:104620004169A26921F44071114341613149206817
:10463000884202D03049884202D1FCF743FE01E0B3
:10464000FCF730FEE2690023192164253226B2F519
:10465000004F626828D0A0FB0101930F9200FBF786
:104660000FFE0146B0FBF5F06FF01802504301EB6E
:10467000800006EB0010B0FBF5F000F0F002B1FB9B
:10468000F5F002EB0012B1FBF5F06FF018035843A0
:1046900001EB800006EB0010B0FBF5F000F00F001E
:1046A00021681044886070BDA0FB010192185B4135
:1046B000FBF7E6FD0146B0FBF5F00201B1FBF5F0BA
:1046C0006FF01803584301EB800006EBC000B0FB0D
:1046D000F5F000F0F80002EB4002B1FBF5F05843B2
:1046E00001EB800006EBC000B0FBF5F000F0070026
:1046F000D6E70000001001400014014038B5816287
:1047000004468285002013466064222284F84220F9
:10471000E56B1F4AEA63E56B1E4A2A64E56B1E4A95
:10472000EA64E26B10650A462168E06B091DFCF73C
:1047300059F830B110206064202084F84200012034
:1047400038BD2068016840680090206948B1206841
:104750000C3050E8001F41F4807140E80012002A3C
:10476000F5D12068143050E8001F41F0010140E805
:104770000012002AF5D12068143050E8001F41F0E3
:10478000400140E80012002AF5D1002038BD0000A9
:10479000D54300085B4400088B4300082DE9F8432B
:1047A000984617460D460446089E24E0701C22D009
:1047B000FCF760F9A0EB0800B0421AD8CEB120682F
:1047C000C168490717D5802D15D0402D13D0016839
:1047D000C94309070FD401680025406800902046AE
:1047E000FFF770FE0820606484F840500120BDE8A7
:1047F000F8830320FBE72068006835EA000004D056
:104800000020B842D2D00020F1E70120F9E70000F3
:10481000F8B5174800680168C943C90622D4016881
:10482000406800901248FDF75FFD1248006840683C
:1048300011494042C5B22A461048FBF752FD0024F8
:104840000E4E04E0315D0EA000F06CF8641CAC422A
:10485000F8DB0DA000F066F84FF4806206490448CA
:10486000FEF7E4F8BDE8F8400148FDF777BD000029
:10487000AC0B00208C0D0020640300208C10002065
:1048800025303258000000000D0A00000148FDF7F5
:1048900065BD0000F40B0020F8B5174800680168FA
:1048A000C943C90622D40168406800901248FDF748
:1048B0001BFD12480068406811494042C5B22A46B3
:1048C0001048FBF70EFD00240D4E04E0315D0EA0F4
:1048D00000F028F8641CAC42F8DB0DA000F022F8D0
:1048E0004FF4806206490448FEF7A0F8BDE8F8409E
:1048F0000148FDF733BD00003C0C00206C0F002088
:10490000640700208C14002025303258000000007D
:104910000D0A00000148FDF721BD0000840C0020B5
:10492000FEE700000FB4054B10B503A9044A029836
:1049300000F028F810BC5DF814FB0000094E0008D8
:10494000AC0000200907090E002804DB00F1E0207C
:1049500080F80014704700F00F0000F1E02080F8AC
:10496000141D704702E008C8121F08C1002AFAD1BE
:1049700070477047002001E001C1121F002AFBD1DF
:10498000704700002DE9FF4F8DB00F460546002609
:1049900006E025280BD0DDE90F1290476D1C761C30
:1049A00028780028F5D111B03046BDE8F08F0024FA
:1049B000A246A1460122EC4900E0044315F8013F5C
:1049C000203B02FA03F00842F7D128782A2810D0B9
:1049D0006FF02F022878A0F13001092914D80AEBD2
:1049E0008A0102EB410144F0020400EB010A6D1C54
:1049F000F0E701CF5FEA000A03D544F40054CAF19E
:104A0000000A44F002046D1C28782E2817D115F8EE
:104A1000010F44F004042A280ED06FF02F022878EA
:104A2000A0F1300109290AD809EB890102EB410103
:104A300000EB01096D1CF2E757F8049B6D1C287808
:104A40006C280FD006DC4C2817D068280DD06A28B7
:104A500014D104E0742810D07A280FD10DE044F46A
:104A600000140AE044F4801401E044F4401469782E
:104A7000814202D104F580146D1C6D1C2A786E2AC7
:104A80001FD00CDC632A31D004DC002A8BD0582ADA
:104A900011D1A3E0642A68D0692A0CD165E0732A99
:104AA0002ED004DC6F2A73D0702A04D19BE0752AC3
:104AB0006FD0782A6ED01046DDE90F129047761C31
:104AC00050E1C4F30250022806D0032809D004287C
:104AD00001CF09D0066045E101CFF117C0E90061BF
:104AE00040E101CF06803DE106703BE117F8040B81
:104AF0008DF8000000208DF80100EB46012003E056
:104B000057F804BB4FF0FF3061074FF0000102D4AB
:104B10000DE008F10101884649450FDA8045F8DBD0
:104B20001BF808100029F4D108E008F101018846BB
:104B30008142FADB1BF808100029F6D1DDE90F23CA
:104B4000AAEB08008146214600F036F9304400EB1C
:104B5000080604E0DDE90F121BF8010B9047B8F1DD
:104B60000108F7D221464846F7E00A21C4F3025370
:104B70004FF0000B0891022B04D001CFC117032B7B
:104B800009D00AE0FF1D27F00707F7E8020108E057
:104B900032E01FE020E000B2C117042B01D140B287
:104BA000C117031E71F1000307DA4FF0000CD0EBC0
:104BB0000C006CEB01012D2302E0230504D52B230F
:104BC0008DF82430012303E0E30701D02023F7E729
:104BD000984658E00A2110E010210EE010204FF016
:104BE000000B08900CE010214FF0000B44F004047F
:104BF0004FF00809089103E008214FF0000B0891DD
:104C0000C4F30253022B04D001CF0021032B06D0A2
:104C100006E0FF1D27F00707F7E8020103E080B276
:104C2000042B00D1C0B24FF0000823072BD5702A07
:104C300007D0DDF820C08CF0100C5CEA0B0C05D01E
:104C40000EE040238DF82430012308E050EA0103F0
:104C500006D030238DF824308DF825200223984685
:104C6000DDF820C08CF0080C5CEA0B0C0BD150EA8C
:104C7000010301D1630706D530238DF824304FF0AE
:104C80000108A9F10109582A04D038A20B9208AAF8
:104C90000A920BE03AA2F9E75B46089AFBF7F0FAB2
:104CA0000B9B9B5C0A9A521E0A92137050EA0102F7
:104CB000F2D10A98ADEB000000F1200B600702D59D
:104CC00024F4803401E04FF00109D94502DDA9EB5D
:104CD0000B0000E0002000EB0B0141440890AAEB20
:104CE000010AE00306D4DDE90F232146504600F017
:104CF00063F806444FF0000908E009A911F809001B
:104D0000DDE90F12904709F10109761CC145F4DB7A
:104D1000E0030CD5DDE90F232146504600F04CF8A6
:104D2000064404E0DDE90F1230209047761C089914
:104D3000481E08900029F5DC08E00A980A990078D6
:104D4000491C0A91DDE90F129047761CBBF1000166
:104D5000ABF1010BF1DC21465046DDE90F2300F0F9
:104D600019F806446D1C1BE6092801003031323366
:104D70003435363738396162636465660000000097
:104D80003031323334353637383941424344454681
:104D9000000000002DE9F041044600251E4617469C
:104DA000880404D405E039462020B0476D1C641EF9
:104DB000F9D52846BDE8F0812DE9F04104460025EB
:104DC0001E469046C80301D5302700E020278804FE
:104DD00004D505E041463846B0476D1C641EF9D540
:104DE0002846BDE8F081000010B50022054C03E024
:104DF00010F8013B5340E25C491E89B2F8D21046DC
:104E000010BD0000E067000813B54FF47A7301226B
:104E100069460248FDF71AFE00981CBD840C00206C
:104E2000FCF7C4F8FEF7F6FEFEF700FCFEF788FB81
:104E3000FEF7A8FCFEF7C6FCFEF7E6FCFEF706FD53
:104E4000FEF720FDFEF73AFDFEF754FDFEF76EFD7E
:104E50001AA0FFF767FD00F069FD00F031FD0021A9
:104E60000122084600F014FD00220221104600F045
:104E70000FFD01220021104600F00AFD0022022150
:104E8000012000F005FD01220021022000F000FDBC
:104E900002210022084600F0FBFC01220021032031
:104EA00000F0F6FC00220221032000F0F1FC00F0EB
:104EB0001BF8FEF7ABFB00F029F8FEE7737973747B
:104EC000656D2073746172740A00000010B5EFF311
:104ED000058111B16FF0050403E0002408B100F072
:104EE0007DFE204610BD0000EFF3058010B16FF08D
:104EF000050070470448016811B14FF0FF3070475A
:104F000001210160002070477C00002010B5EFF304
:104F1000058010B16FF0050010BD08480168012937
:104F200002D04FF0FF3010BD054A002182F8141D59
:104F30000221016000F0BAFE002010BD7C000020BC
:104F40000BE000E02DE9FF410B464FF00005EFF3C9
:104F50000581039549BB40B38027182100244AB33B
:104F6000166806B1344696691EB13146761E382E53
:104F700002D21679F60703D0002004B0BDE8F08114
:104F8000566906B1B708D2F808C0BCF1000F0DD0C1
:104F9000D5685C2D18D312693AB136B18DE8061088
:104FA0003A46214601F01BFA03900DE0D6685EB93F
:104FB00012694AB903AACDE90012BAB2214601F03A
:104FC000E1F9012800D003950398D6E72DE9F041D7
:104FD000134C0F460546E6682068001D00F0CAFC29
:104FE000681C07D137B12168BDE8F0410D48091DA3
:104FF00000F010BD20683544B5424560216805D2F7
:10500000A06BBDE8F041091D00F0ECBC606B091D10
:1050100000F0E8FCA06A854200D2A562BDE8F081FC
:105020002C000020C41D00202DE9F041054600F0B1
:10503000FDFC2D4CA068401CA06020682B4F10B1D7
:10504000606930B32BE02560A068012827D10026D5
:1050500006EB860007EB800000F0B6FC761C382ECD
:10506000F6D3234800F0B0FC2148143000F0ACFC2B
:105070001F48283000F0A8FC1D483C3000F0A4FC7C
:105080001B48503000F0A0FC194860631430A06346
:1050900005E02068E96AC06A884200D82560606A35
:1050A000401C60626864E86A2169884200D9206116
:1050B00000EB800007EB8000291D00F0ABFC00F046
:1050C000D5FC606900280CD02068E96AC06A884273
:1050D00007D208494FF080500860BFF34F8FBFF3ED
:1050E0006F8FBDE8F08100002C0000201419002013
:1050F000741D002004ED00E038B500F097FC104C62
:105100002068C8B90F4800F05FFC0E48143000F06A
:105110005BFC0C48E060143020610A4B0020F03B3F
:10512000009003F1500210210A2000F0CDFE206013
:1051300010B105A100F01CFDBDE8384000F096BCA0
:1051400068000020C81E0020546D7251000000004D
:1051500030B4026C0B46002A0BD0C1681144C16008
:105160008468A14201D30168C16030BC1846FBF7D6
:10517000B8B830BC70472DE9F041856B174604463E
:105180000026026C82B1C7B1E068FBF7AAF8E168BB
:10519000206C091AE1602268914202D2A168081AC3
:1051A000E060022F16D017E02068A8B9A06801F0CF
:1051B000B9F906460020A0600EE06068FBF791F8A0
:1051C000216C606808446060A168884204D320684C
:1051D000606001E005B16D1E6D1CA5633046BDE841
:1051E000F08110B5044690F8590058B101280CD050
:1051F00002280FD0502080F31188BFF34F8FBFF3E8
:105200006F8FFEE7206B00F045FC2046BDE81040A4
:1052100000F040BC10BD000010484FF47051420730
:1052200006D0C01D0D4920F00700411AC1F570518C
:105230000B4A00230144C2E900030839183A21F05F
:10524000070111604B600B600B1AC0E900139360FB
:105250004FF000405360506170470000A8250020C7
:1052600098000020144E154CA6F29C474FF0805831
:10527000DFF84C9012E000BF00F0D8FBF068C56882
:10528000281D00F077FBA068401EA0606068401EEB
:10529000606000F0EBFB2846FFF7A3FF6068002882
:1052A000EAD138680128F9D9C9F80080BFF34F8FD7
:1052B000BFF36F8FF2E70000B01D00202C0000202C
:1052C00004ED00E070B51D46049C51B1C4F8002007
:1052D000C4E90F010121204600F02AFE84F84C5059
:1052E00070BD2460F4E700002DE9F05F8846DDE939
:1052F0000B941546834691009A460A9EA522206B80
:10530000FBF701F86FF00301206B01EB8501084406
:1053100020F00707780707D0502080F31188BFF3EB
:105320004F8FBFF36F8FFEE70025B8F1000F0FD04E
:105330005FF00000221818F8001082F8341018F8F6
:10534000001011B1401C1028F4D384F8435001E040
:1053500084F83450382E00D33726E662C4E913654A
:10536000201D00F03CFB04F1180000F038FB246124
:10537000C6F138006462A061656584F858505246F1
:105380005946384600F05AFA2060B9F1000F01D0B2
:10539000C9F80040BDE8F09F30B5114900E0114662
:1053A0000A688242FBD34B685C18844203D1406890
:1053B00018444860084643681C18944209D1084CB8
:1053C000183C2468A24209D052681A4442600A6814
:1053D00012680260814200D0086030BD0460F9E7C5
:1053E0009800002070B5002441600B4D006191428F
:1053F00006D8D11A8269914206D2011D286907E0B8
:105400009A4203D2994201D3012403E0011DE868C6
:1054100000F0E8FA204670BD6800002010B5044690
:1054200000F004FBA06B28B15FF0000400F01EFB4D
:10543000204610BD0124F9E730B589B03C4D6EE03F
:105440000498002806DADDE90601059A90470498D9
:10545000002864DB069C606910B1201D00F08AFA08
:1054600003A800F0D7F8024604980A2857D2DFE8CC
:1054700000F00505052D334A05052D3394F8280065
:1054800040F0010084F828000599A069059B0144BB
:105490002046FFF7A7FF68B3216A2046884794F8A3
:1054A000280040073BD5002000900598A169002303
:1054B00042181946204601F03FF9D8B9502080F330
:1054C0001188BFF34F8FBFF36F8FFEE714F8280FDB
:1054D00020F00100207022E094F8280040F0010044
:1054E00084F828000598A06128B181181346204649
:1054F000FFF778FF13E0502080F31188BFF34F8F40
:10550000BFF36F8FFEE794F82800810703D420468D
:1055100000F0C0FA03E020F0010084F82800002227
:1055200004A9286800F058FE002889D109B030BDD0
:10553000680000202DE9FC410F46054600F0FAFB0B
:1055400001A800F067F80446019818B101F062F86C
:10555000BDE8FC81254EAFB130690068D0B30027AB
:10556000291B3A46306800F017FB01F053F8002879
:10557000EED11F494FF080500860BFF34F8FBFF34B
:105580006F8FE5E7A542EBD801F044F8F0682746B5
:10559000C068C468201D00F0EDF994F828004107A8
:1055A00019D5A0692B4641193A462046FFF71AFF44
:1055B000A8B100200346014600902A46204601F08B
:1055C000BBF860B9502080F31188BFF34F8FBFF351
:1055D0006F8FFEE707E020F0010084F82800216AC1
:1055E00020468847B4E70127BAE70000680000209A
:1055F00004ED00E00648416B096829B1416BC968B8
:10560000C9684968816270474FF0FF31FAE70000CE
:105610002C00002070B5054600F01AFF064E044627
:10562000B068844203D200F009F8012000E00020B5
:1056300028602046B46070BD68000020F8B5194DA0
:1056400020E0C068C4680668201D00F093F9216A54
:105650002046884794F82800400713D5A0693044B5
:10566000B04206D924616060211DE86800F0BAF9F3
:1056700008E000200346014600903246204601F033
:105680005BF838B1E86801680029DAD12969C5E911
:105690000310F8BD502080F31188BFF34F8FBFF384
:1056A0006F8FFEE76800002008484068401C4FF0FC
:1056B000500080F3118804D0BFF34F8FBFF36F8F7A
:1056C000FEE7BFF34F8FBFF36F8FFEE7A000002010
:1056D000074CE068016841B1C0680021D0F80000C3
:1056E000FFF728FFFFF7A8FEF3E701210020F7E707
:1056F000680000202DE9F041044600F097F994F984
:10570000455004F1240609E0606A48B1304600F0D3
:1057100049FF08B100F090FA6D1E6DB2002DF3DC68
:105720004FF0FF3684F8456000F0A0F900F07EF9F4
:1057300094F9445004F1100709E0206948B1384653
:1057400000F030FF08B100F077FA6D1E6DB2002D49
:10575000F3DC84F84460BDE8F04100F087B9000054
:105760002DE9F0410546002700F0E4FA324E30689A
:1057700008B9FFF751FD706905424ED1C5B3083530
:1057800068070ED005F00700C0F10800054468075F
:1057900007D0502080F31188BFF34F8FBFF36F8F76
:1057A000FEE72DB37068854237D82348183001468C
:1057B0000C6801E020460C466168A94202D22168CB
:1057C0000029F7D131688C4227D007682168016031
:1057D00060680837411B10290FD96019420708D0AB
:1057E000502080F31188BFF34F8FBFF36F8FFEE718
:1057F00013E041606560FFF7CFFD61687068401A93
:105800007060B268904200D2B060706901430020BD
:10581000C4E90001F068401CF06000F0FBFE78076E
:1058200007D0502080F31188BFF34F8FBFF36F8FE5
:10583000FEE73846BDE8F0818000002010B5031F68
:105840004FF080741C601B1F21F001011960191FAB
:10585000044B0B6014390A60091F6FF002024438D0
:105860000A6010BDA95600080107090E41EA101090
:10587000CC2101EA8001332202EA90000143AA20F0
:1058800000EA4100552202EA510108437047000036
:10589000042812D2094B03EB001041B101290CD0AE
:1058A00002290AD18189D2B28068FBF7DDB803C82A
:1058B0000AB1FCF76BBCFCF7CDBC7047A0670008D1
:1058C00010B52720FEF7FCF92720FEF747FA27201E
:1058D000FEF790FA2720FEF7DBFA04220A210020C7
:1058E000FEF798FC04220A210120FEF793FC042213
:1058F0000A210220FEF78EFC04220A21BDE8104096
:105900000320FEF787BC7EB50C46054600236E4695
:1059100005E0E85CFFF7A8FFF0545B1CDBB2A34294
:10592000F7D321466846FFF75FFA7EBD0E4810B5F3
:105930000068C16841F01001C1604FF480642246E4
:105940000A490948FDF772F8074890300068C168B5
:1059500041F01001C16022460549BDE8104001F543
:105960009B60FDF763B80000AC0B002064030020CF
:1059700064070020D0E9013201699A60D0E901236F
:105980005A604A68824201D182684A6000220261FC
:105990000868401E0860086870470000034B0360F9
:1059A00003F15C000860802010607047F01E00204A
:1059B000044B036003F15C0008604FF480701060DA
:1059C000704700004C21002000F108014FF0FF3229
:1059D000C0E90112C160016100210160704700212E
:1059E0000161704730B50B685A1C02D000F1080203
:1059F00002E0026904E02246546825689D42FAD913
:105A000053684B6099608A60516008610168491C65
:105A1000016030BD42684A6093688B60936859604A
:105A2000916008610168491C01607047502080F353
:105A30001188BFF34F8FBFF36F8F0A494868401C2E
:105A4000486001280CD10848006810F0FF0F07D00B
:105A5000502080F31188BFF34F8FBFF36F8FFEE7A5
:105A600070470000A000002004ED00E008494868ED
:105A700028B1401E486001D180F311887047502042
:105A800080F31188BFF34F8FBFF36F8FFEE70000E5
:105A9000A000002070B500282AD0164DA0F10804FF
:105AA00060686969084207D1502080F31188BFF30C
:105AB0004F8FBFF36F8FFEE722683AB1502080F31B
:105AC0001188BFF34F8FBFF36F8FFEE7884360608D
:105AD00000F030F960686968084468602046FFF7A4
